:020000040800F2
:1000000000000220590200085D02000831AC00081F
:100010004DAC000851AC000855AC000800000000D1
:100020000000000000000000000000009D9000089B
:1000300041030008000000002D91000859AC0008A1
:10004000BD8C0008BD8C0008BD8C0008BD8C00086C
:10005000BD8C0008BD8C0008CDAD0008BD8C00082B
:10006000BD8C0008BD8C0008D9AD000865AC000847
:1000700095AC000859AD0008BD8C0008BD8C000887
:10008000C5AC0008F9AC0008BD8C000800000000F9
:10009000000000000000000000000000E5AD0008C6
:1000A000BD8C0008BD8C0008BD8C0008BD8C00080C
:1000B000BD8C0008BD8C0008BD8C0008BD8C0008FC
:1000C000BD8C0008BD8C0008BD8C0008BD8C0008EC
:1000D000BD8C0008BD8C0008BD8C0008000000002D
:1000E000BD8C0008BD8C0008BD8C0008000000001D
:1000F00000000000000000000000000091AD0008BA
:1001000000000000BD8C0008BD8C0008BDAD0008DB
:1001100000000000000000000000000000000000DF
:10012000BD8C0008BD8C0008BD8C0008BD8C00088B
:10013000BD8C00080000000000000000000000006E
:10014000000000000000000000000000BD8C00085E
:10015000BD8C0008BD8C0008BD8C0008BD8C00085B
:10016000BD8C0008BD8C00080000000000000000ED
:10017000000000000000000000000000000000007F
:1001800000000000BD8C000800000000000000001E
:10019000BD8C0008BD8C000800B583B008F0F4FCED
:1001A000224B234A03E011681960043304322149C9
:1001B0008B42F8D3204B02E000221A6004331F4A1E
:1001C0009342F9D308F0EEFC01A8694608F0B6FCAA
:1001D0001B4D1C4B5D1BAD10002404E0184B53F865
:1001E000243098470134A542F8DC174D174B5D1BAE
:1001F000AD10002404E0144B53F824309847013428
:10020000A542F8DC019800990AF012F90546104C55
:10021000104B1C1BA41004E0013C0D4B53F8243080
:100220009847002CF8DC284608F062FC000000200B
:10023000281C01080C0B0020100B0020A0690020D6
:100240005C0300085C0300085C0300085C03000812
:100250005C0300085C0300083C480047FEE700BF61
:100260001EF0040F0CBFEFF30880EFF30980714616
:10027000374A10472DE9F04182B007468846084BBF
:100280005D6B9C6B9E6A074808F060FCCDF80080AF
:10029000384631462A46234608F098FCFEE700BF60
:1002A00000ED00E044190108FEE700BF1EF0040F56
:1002B0000CBFEFF30880EFF309807146254A104721
:1002C0002DE9F04182B007468846084B5D6B9C6B78
:1002D0009E6A074808F03AFCCDF80080384631465F
:1002E0002A46234608F072FCFEE700BF00ED00E05E
:1002F000541901081EF0040F0CBFEFF30880EFF350
:1003000009807146144A10472DE9F04182B0074632
:100310008846084B5D6B9C6B9E6A074808F016FC8C
:10032000CDF80080384631462A46234608F04EFC78
:10033000FEE700BF00ED00E060190108FEE700BF26
:10034000FEE700BFFEE700BF70470000990100080C
:0C03500075020008C10200080903000843
:1003600008B50A2000F018F8034620B14FF4806168
:10037000024AC2F88010184608BD00BF00E100E044
:1003800018B14FF48062014B1A60704700E100E041
:1003900008B508F01FFD08BD034B1B68034201D0E0
:1003A0000120704700207047003C014000B583B039
:1003B000104B1A6C42F400421A641B6C03F40043A5
:1003C0000193019B0C4B0D4A1A6000229A604FF476
:1003D00082715960DA601A615A614FF48021996123
:1003E000D8611A620722DA62184607F0B9FA03B038
:1003F0005DF804FB00380240A0670020003C00408C
:1004000070B586B0012401940294022603960C4D27
:10041000284601A906F032FD28462146224606F06C
:100420000BFE304608F010FD0194032302930023D5
:100430000393284601A906F021FD06B070BD00BF58
:10044000000002402DE9F04700EB0208B8F5805F9C
:1004500031D81E46154604468946FFF781FFDFF86E
:1004600070A049462246074650460DF09DFB314696
:100470002A460AEB04000DF097FB114810210022D8
:1004800006F0DAFD1FFA88F251460E4807F0AAFA84
:100490000D4A5368002BFCD10C4A93689B07FCD58E
:1004A00010210122064806F0C7FD3846FFF768FF15
:1004B0000020BDE8F0874FF0FF30BDE8F08700BFB7
:1004C00000000240A0670020B8600240003C0040ED
:1004D000100B00202DE9F84386181FFA86F8B8F5AE
:1004E000805F04462CD889461D46FFF739FF10214E
:1004F00000220746144806F09FFD144A1448494656
:10050000434607F0D5FA134A5368002BFCD1124A30
:100510009368DB07FCD4B44207D20C4A135D05F89C
:10052000013B0134A4B2B442F8D3102101220648A1
:1005300006F082FD3846FFF723FF0020BDE8F88370
:100540004FF0FF30BDE8F88300000240100B0020A0
:10055000A067002040600240003C0040022902D019
:10056000052909D011E0022A02D10E4BDA6911E007
:100570006AB90C4B1A6A0DE0022A02D1094B5A6A79
:1005800008E032B9074B9A6A04E0002202E0002238
:1005900000E0002200F001031B0122FA03F080B208
:1005A000704700BF141B0020014B987B704700BFB1
:1005B000141B0020014BD3F884007047141B00204B
:1005C000044B5B5C00EB4300034B03EB8000006BD0
:1005D000704700BFDC120108141B00200138030122
:1005E000024A9069D84080B2704700BF141B0020B7
:1005F00000B583B0E1B160F03F007F298DF80400C1
:100600000DD961F07F00C9098DF805008DF806103D
:10061000032001A9FFF716FF03B05DF804FB8DF876
:100620000510022001A9FFF70DFF03B05DF804FBE0
:1006300060F07F008DF8040001A90120FFF702FFA0
:1006400003B05DF804FB00BF08B51318B3F5806F65
:1006500007DC0B461146821E0920FFF7C9FF002068
:1006600008BD4FF0FF3008BD30B583B00725062424
:1006700041F60601022201AB2E208DF804508DF8C0
:100680000540FFF7B5FF03B030BD00BF00B583B034
:1006900002AB012203F8012D03210D20FFF7A8FF73
:1006A00003B05DF804FB00BF00B583B0E1B140F0DA
:1006B00040007F298DF804000DD961F07F00C90941
:1006C0008DF805008DF80610032001A9FFF702FF41
:1006D00003B05DF804FB8DF80510022001A9FFF7B7
:1006E000F9FE03B05DF804FB8DF8040001A90120B8
:1006F000FFF7F0FE03B05DF804FB00BF10B40C463A
:1007000003461146112022465DF8044BFFF7CCBF8B
:100710000346002117200522FFF7C6BF034600212C
:1007200015200522FFF7C0BF00B5042283B080B2B8
:1007300089B20DEB0203FFF7B7FF20B14FF0FF3096
:1007400003B05DF804FB9DF807009DF806109DF8C6
:1007500005209DF80430A0F5807001EB002002EB2D
:10076000002003EB002003B05DF804FB08B5002077
:100770000146FFF7D9FF08BD00B583B080B289B24A
:10078000022201ABFFF790FF20B14FF6FF7003B0DC
:100790005DF804FB9DF805009DF8043003EB002094
:1007A00080B203B05DF804FB30B583B01446150A7F
:1007B00089B2022201AB80B28DF804408DF8055059
:1007C000FFF716FF03B030BD08B50246034B988211
:1007D0002E2041F60401FFF7E7FF08BD141B00209F
:1007E00008B50246034BD88218200021FFF7DCFF32
:1007F00008BD00BF141B0020F0B5144683B0170AD3
:10080000160C150E042289B20DEB020380B28DF88E
:1008100004408DF805708DF806608DF80750FFF7DD
:10082000E7FE03B0F0BD00BF10B504462A200B213F
:1008300001222346FFF7DCFE1E2000216268FFF73D
:10084000DBFF10BD08B5054B1A69104340EA815221
:1008500000210820FFF7D0FF002008BD141B002056
:1008600010B5002104460420FFF75EFF54B9094B80
:100870000340094C23631A4604200021BDE81040C0
:10088000FFF7BABF054B04F4FF7444F001040340C2
:100890002343EEE7FEFF47F0141B002001FE47F064
:1008A00030B5022183B00446050A0A4601AB032095
:1008B0008DF804408DF80550FFF79AFE03B030BD67
:1008C00030B583B00446050A0021022201AB0320A3
:1008D0008DF804408DF80550FFF78AFE03B030BD57
:1008E0000346002101200822FFF782BE30B583B005
:1008F00002AC050A04F8040D0421234602222D202F
:100900008DF80550FFF774FE0325234606210122CA
:100910002D208DF80450FFF76BFE234601220024A2
:1009200006212D208DF80440FFF762FE0A212D20BC
:10093000FFF7FAFE03B030BD30B583B002AC002340
:1009400004F8043D02252346022101222C20FFF752
:100950004FFE2346294601222C208DF80450FFF734
:1009600047FE03B030BD00BF10B504210446362059
:10097000FFF7DAFE3CB920F4006204213620BDE81E
:100980001040FFF739BF40F4006204213620BDE873
:100990001040FFF731BF00BF30B583B002AB6D220E
:1009A000044603F8052D2E2040F606010122FFF72C
:1009B0001FFE74B90725162441F60601022201AB79
:1009C0002E208DF804508DF80540FFF711FE03B07E
:1009D00030BDFFF749FE03B030BD00BF0A4B1A6BB4
:1009E00040B983F82D0042F48052042000211A639C
:1009F000FFF702BF012122F4805283F82D1004205A
:100A000000211A63FFF7F8BE141B002000B50B4B42
:100A100083B01A6B70B922F000521A6302AB120E47
:100A200003F8012D032101220420FFF7E1FD03B0AB
:100A30005DF804FB42F000521A63EFE7141B00203C
:100A400010B5002104461A20FFF76EFE020DC4F314
:100A50001304120522431A200021BDE81040FFF7BD
:100A6000CBBE00BF024BC3F88800C3F88C107047A0
:100A7000141B0020F0B5044683B001AD14F001064C
:100A80002B464FF0260025D131460222FFF70CFEFF
:100A90009DF805303146262023F0140602222B460D
:100AA0008DF80560FFF7A4FDA30711D50F242A21B7
:100AB00001222B4636208DF80440FFF799FD0024D3
:100AC0002B4636202A2101228DF80440FFF790FDA5
:100AD00003B0F0BD00210222FFF7E6FD9DF80520DE
:100AE00002AB22F03C02012142F0140203F8032D74
:100AF00026200A46FFF77CFD2B46022101223620E4
:100B0000FFF7D2FD9DF804602B4666F07B060221BC
:100B1000012236208DF804601027FFF769FD0126B9
:100B20002B462821022236208DF804708DF80560AE
:100B3000FFF75EFDB8E700BF10B582B0044601AB19
:100B4000362000210222FFF7AFFD0D2C0ED8DFE882
:100B500004F0252E380D0D0D0D41500D0D075D1CB7
:100B60009DF8053043F002038DF8053001AB0021FC
:100B700001223620FFF73CFD01210A460DF1050355
:100B80003620FFF735FD02B010BD9DF8043023F08C
:100B9000300343F020038DF80430E7E79DF804307C
:100BA00023F0030343F001038DF80430DEE79DF8E2
:100BB0000530002223F001038DF805308DF8042064
:100BC000D4E79DF8043023F0030343F002038DF8CB
:100BD0000430CBE79DF804309DF8052023F04C034A
:100BE00043F0480362F07F028DF804308DF8052051
:100BF000BCE79DF804209DF8053022F04C0203F07C
:100C00007F038DF804208DF80530AFE79DF805309F
:100C100023F002038DF80530A8E700BF70B582B05D
:100C200002AB012403F8084D0021032502223620DF
:100C30008DF8015080260D46FFF7DAFC06210222CE
:100C400001AB2D208DF804508DF80560FFF7D0FC26
:100C5000204608F0F9F82046FFF76EFF284602B05C
:100C600070BD00BFF0B583B0064604238DF8073091
:100C70006A4C002384F87C3084F82D30C4F880302E
:100C800084F86930C4F8843084F87D30C4F8883042
:100C9000C4F88C30FFF76AFD2060614B984240F049
:100CA000A9800020FFF748FF2420002101220DF138
:100CB0000703FFF79DFC1E20FFF718FE0546C0F353
:100CC0000722A27306F008039BB223B10420FFF7AA
:100CD0000DFEC4F88400514B93F884304BB102AB45
:100CE000022203F8022D2D2012210122FFF780FCA1
:100CF00003E00022494BC3F884200620FFF7F6FDED
:100D0000464C60600720FFF7F1FDA0600023A3615F
:100D1000E36123626362A36206F002039BB2D3B174
:100D2000A37B012B04D81C20FFF7E0FDA06112E09B
:100D3000032B10D80D20FFF7D9FD384CE0610E20B1
:100D4000FFF7D4FD20620F20FFF7D0FD60621D2069
:100D5000FFF7CCFDA06216F0010F0ED005F01F05C5
:100D60002E4B83F82C50002D47D12E4B1B7803F0CF
:100D70001F032A4A82F82C303FE02A4B1B7803F0ED
:100D80001F03264A82F82C3037E02046FFF7AEFDDD
:100D900045F8040F0134BD42F7D104E0002243F8C6
:100DA000042F8B42FAD106F40066B6B216B1FFF7F3
:100DB00035FF0AE036200521FFF7DEFC20F4007045
:100DC00082B236200521FFF7EFFC0120FFF7B4FEC9
:100DD00004200021FFF7A8FC104B186326200021F7
:100DE000FFF7A2FC40F4A02226200021FFF704FD1B
:100DF000002011E04FF0FF300EE006F004039BB23C
:100E000023B9064901F130036031C7E7034F07F109
:100E1000300560371024B8E703B0F0BD141B002084
:100E20003001CADE0413010870B582B002AB03269C
:100E300004460125344003F8085D002102223620D3
:100E400064018DF801602C43FFF7D2FB00261221CC
:100E5000022201AB2D208DF804408DF80560FFF7CC
:100E6000C7FB2846FFF768FE02B070BD10B5002032
:100E700082B0FFF761FE0421002402220DEB010382
:100E800036208DF804408DF80540FFF7B1FB02B025
:100E900010BD00BF024601210A20FFF7ADBC00BF14
:100EA00070B500F0020282B0044602F0FF0322BBDC
:100EB0000DF1070614F0010412D043F006040021DE
:100EC000012233460D208DF80740FFF791FB0F20DC
:100ED0000321FFF751FC10F481601FD102B070BDF7
:100EE00043F002052146334601220D208DF80750BC
:100EF000FFF77EFB204602B070BD02AE802306F8ED
:100F0000013D0021334601220D20FFF771FB0D4A00
:100F10009DF80730012182F87D10CBE7334601228E
:100F2000002140240D208DF80740FFF761FB0020D1
:100F3000FFF71AFD034B002283F87D204FF0FF30AE
:100F4000CCE700BF141B002000B583B001220DF1D7
:100F500007030F200321FFF7A7FB9DF8073023F0BD
:100F60007F0203F04003B2EB430F01D0FFF78EFB8B
:100F700003B05DF804FB00BF70B582B002AC402343
:100F800000210E2004F8013DFFF7CEFB0646FFF7D7
:100F9000E7F9002105460A460E20FFF72DFC2346FF
:100FA000002101220D20FFF723FB0021094A0F2019
:100FB000FFF722FCFFF7C8FF324600210E20FFF7A3
:100FC0001BFC2846FFF7DCF9034B002283F87D2049
:100FD00002B070BDF8FF2724141B002070B5054631
:100FE00082B0FFF7B1FF15F0010414D000242146B0
:100FF00001AB032602220D208DF804408DF8056018
:10100000FFF7F6FA31460F20FFF7B6FB10F48160C8
:101010000FD102B070BD01252146022201AB0D2087
:101020008DF804408DF80550FFF7E2FA204602B033
:1010300070BDFFF7A1FFAB0703D44FF0FF3002B044
:1010400070BD01AB214601250D2002228DF8044020
:101050008DF80550FFF7CCFA4FF0FF30D9E700BF0D
:1010600070B582B004460DF1030304200321012270
:10107000FFF71AFB9CB9154E9DF80340326B0DF13A
:10108000030322F0805524F01004032101220420E0
:1010900035638DF80340FFF7ABFA02B070BD0B4E1D
:1010A0008DF80440250A022201AB0C2000218DF8A6
:1010B0000550FFF79DFA9DF80340326B0DF10303D5
:1010C00042F0805544F01004DFE700BF141B0020FD
:1010D00030B583B00446050A2421022201AB272043
:1010E0008DF804408DF80550FFF782FA03B030BD4B
:1010F00070B50E460546FFF733F9002104460E2071
:10110000FFF712FB56B920EA05020E200021FFF777
:1011100073FB2046BDE87040FFF732B940EA050294
:10112000F3E700BF30B583B002AC022304F8013D01
:10113000054623462F2000210122FFF759FA45B129
:10114000012523462A462F2000218DF80750FFF75E
:101150004FFA03B030BD00BF10B582B002ACE0233F
:1011600004F8013D0321234601223620FFF740FA0F
:1011700023460321F024012236208DF80740FFF793
:1011800037FA02B010BD00BF2DE9F041BF4EC04D8F
:10119000C04882B04FF4806105F054FFD6F800805B
:1011A00095F82D3085F86E30002708F10103394697
:1011B0000F20336085F86870FFF7B6FA3368B64AD7
:1011C0006866092B044642F828004FF48061B14854
:1011D000C8BF376005F036FFB04B9C4200F0BD80C1
:1011E000AC484FF4806105F02DFF62056BD595F892
:1011F0002D60A74FF6B1A7484FF4806105F022FF9C
:10120000620434D514F4801700F0BB80FFF7B4FEFD
:10121000FFF7A2FF2B6B9E489D0000F11881D0F8CC
:101220008C30032280F868200BB16430984702B0FC
:10123000BDE8F08104F46063B3F5606FDBD0FFF7C5
:101240009BFEFFF789FF3B6B9B0004F0F80400F165
:101250003981D7F88C30032287F8682013B107F161
:10126000640098478B484FF4806105F0EBFE14F062
:10127000800153D114F400323FD1894A2240002A20
:10128000D5D00F200021FFF7B7FA2B6B002285F88D
:101290007D209A0040F12281FFF75EFFE30400F118
:1012A000E380270400F11D81E60340F11E8109233C
:1012B00085F86830D5F88C30002BB8D0794898473D
:1012C00002B0BDE8F08173484FF4806105F0BAFECA
:1012D0006304CCD52B6B990040F18980FFF73CFF6C
:1012E000D5F88C300021032285F87D1085F8682020
:1012F000002B9CD06B489847E2E70F20FFF77CFA61
:10130000D5F88C30042285F868200BB165489847E1
:10131000002385F87D3002B0BDE8F081F8220F206F
:101320000021FFF769FA95F86920594B52B193F8FB
:101330002D20002183F8691022B993F87D300BB17C
:10134000FFF71AFED5F88830012285F86820002BB7
:101350003FF46DAF53489847B2E7FFF70DFEFFF734
:10136000FBFE4C484FF4806105F06CFE49484FF499
:10137000806105F067FE4A4A2240002A3FF457AFD9
:101380007FE739461020FFF7F7F9474B0646394605
:1013900011200222FFF788F96B7B5BB3C6F30906C5
:1013A00014F00801A5F86A60394A07D092F86C3049
:1013B00003F0200303F0FF00002B59D085F86910DB
:1013C000002795F82D10324E022385F86830A1B918
:1013D00004F4DE423A430F20FFF70EFAD6F88C30C1
:1013E000002B3FF424AF06F1640098471FE7FFF796
:1013F000C3FD73E706F07F06D2E7012632460DF102
:1014000002030F2003218DF80360FFF74DF99DF8CB
:10141000023023F07F0203F04003B2EB430F6AD0A7
:101420002B6B13F0005441D0D5F88C300BB11D4814
:1014300098470F200221FFF79FF9C4061ED5FFF73A
:101440009BFDFFF789FE2B6B98007FF5F0AE002423
:1014500001252146022201AB0D208DF804408DF8B4
:101460000550FFF7C5F8E2E6082385F8683021E764
:1014700082F8690082F87D000827A2E70321012293
:101480000DEB01030D20FFF7B3F8D0E6101B002091
:10149000141B002000040240E459002003008000D7
:1014A00000902724781B0020801B00200126214665
:1014B000022201AB0D208DF804408DF80560FFF786
:1014C00097F8B1E701273146022201AB0D208DF8D4
:1014D00004608DF80570FFF78BF8C3E6FFF74CFD4D
:1014E000DAE6032385F86830E4E660010BD50A23C9
:1014F00085F86830DEE604F4C0423A4300210F204C
:10150000FFF77AF98CE7A102EBD50B2385F8683059
:10151000D0E600BF30B583B000248DF80040FFF75F
:10152000A5FC214601AB02222C208DF804408DF849
:101530000540FFF75DF86B46062101222C20FFF7DE
:1015400057F8FFF7F9F96B46032101223620FFF720
:10155000ABF89DF800506B460321012205F00F0502
:1015600036208DF80050FFF743F8012007F06CFC9F
:101570009DF800506B4665F00F05032101223620CF
:101580008DF80050FFF734F8024B83F87D4003B02C
:1015900030BD00BF141B002010B582B00DF1070351
:1015A00004460E2101222B20FFF77EF89DF807202C
:1015B00004F01F0422F01F0214430DF107030E2153
:1015C00001222B208DF80740FFF712F802B010BD62
:1015D0002DE9F04383B004460F46057842798E4BDF
:1015E00033F812904678013E8C4BC3F88060042D8E
:1015F00006D0072D14BF4FF000084FF0010801E09E
:101600004FF001082278854B1A73E3793BB9834A7E
:10161000136B43F4800313634FEAD90904E07F4A54
:10162000136B23F480031363237A7C494B73237A6F
:101630001B0403F440330A6B1A430A63042000219D
:10164000FFF7DAF82E2042F604014A46FFF7ACF81D
:10165000F6B23046FFF7A0F9714B13F8059009EB8D
:1016600089032B2007210522DFF8D0E17344FEF720
:10167000BFFF2B200E2101226A4BFEF7B9FF282065
:101680000B210122684B4344FEF7B2FF28200C21B6
:10169000664B53F82920FFF7AFF8E279A37903EB03
:1016A000420327200221624A32F81320FFF77CF818
:1016B000272004215F4B33F81620FFF775F8E379F4
:1016C0002BB9272006216422FFF76EF822E0A378C9
:1016D000042B0FD110220DF1080808F8012D272046
:1016E0000621FFF761F82720262101224346FEF755
:1016F0007FFF0FE00DF10808282308F8013D27209F
:1017000006212022FFF750F82720262101224346F8
:10171000FEF76EFFE37803EB860327200821464A95
:1017200052F82320FFF768F8628941F241039A4298
:101730000BD027202021FFF737F863892BB927200A
:10174000202141F24102FFF72FF8DFF8F480232037
:101750000C21D8F80020FFF74FF808EB46082320AB
:101760000421B8F80420FFF71FF8A3795BB1E379EF
:10177000212000210122DFF8CCE07344FEF738FF7E
:101780000122032101E000221146607905F00F03D8
:1017900043EAC0632D01EDB21D4363789B0403F45B
:1017A00040231D4323799B0503F0F8631D4345EA5D
:1017B00001551F20002145EA4242FFF71DF8E2795A
:1017C000520342F400436178A2780A4343EA02429A
:1017D000124B1A6108200021FFF70EF817F0010FD5
:1017E00004D00E4B93F82C00FFF7D6FE17F0020F33
:1017F0000DD03601094CA069F040C0F34E00FEF751
:10180000E3FFA069F040C0F34E00FEF7E9FF0020BF
:1018100003B0BDE8F08300BF20130108141B0020B3
:10182000DC1201080413010854130108081301080D
:10183000A0120108CC120108E4120108AC12010840
:10184000D0120108D812010810B582B00446FFF783
:101850000DFB00214FF4FF122820FEF7CDFF0F4AA9
:1018600000212820FEF7C8FF0220FFF765F90D20B0
:10187000FFF762F9032C8CBF2246042200210A20C4
:10188000FEF7BAFF02AB102203F8042D2421012237
:101890002F20FEF7ADFE02B010BD00BF00FF5F00BD
:1018A00038B504460D4610EE100A0BF07DF8002204
:1018B000334B0BF0CDF80BF065FBFF2800DDFF206C
:1018C000012D26D1042C01D0072C10D12D4B195DF0
:1018D000002300E0013301EB011292001A442A4C6C
:1018E000A25C8242F6DB1C3B07EE903A36E0274BC7
:1018F000195D002300E0013301EBC10201EB82021C
:101900001A44234CA25C8242F5DB173B07EE903A67
:1019100024E0042C01D0072C11D11A4B195D0023AF
:1019200000E00133C1EB0112C1EB82021A44194CF1
:10193000A25C8242F5DB1E3B07EE903A0EE0134BB1
:101940001C5D002300E001331A2202FB043212491D
:101950008A5C8242F7DB113B07EE903AF8EEE77AB9
:1019600017EE900A0BF020F803A3D3E900230BF045
:101970006FF841EC100B38BD7B14AE47E17A843F21
:101980000000104058130108F4130108E414010882
:1019900060130108EC1401087C140108412380F84D
:1019A0006030882380F86130B0F8B83080F8633058
:1019B0001B0A80F86430002380F86230704700BF53
:1019C00038B504460D46B0F8B4000021FEF73AFFE2
:1019D000012D02D1A06DFFF75DFA94F8D0002843E5
:1019E000C0B2FFF75DFA30B1D4F834320133C4F835
:1019F0003432012038BDFEF7CBFCC4F8BC0601230D
:101A000084F8BB36002038BD2DE9F04705460F4667
:101A1000924698464FF000094C461CE0A60055F847
:101A200024100F4B994203D0204600F0C5FF00E080
:101A3000002001280BD00123A34098F8002022EABF
:101A4000030388F80030204601F03EF800E0D1465C
:101A5000034BAB510134A742E0DC4846BDE8F087B8
:101A6000FFFFCDAB2DE9F04F91B004460D46437812
:101A7000082B00F21485DFE813F009009E00C8006F
:101A80002F0112057701EC01FF0180000378012B83
:101A900005D0002B61D0022B2ED000F000BD182005
:101AA000FEF7DEFEB4F8B800FEF7FAFE04F1AB056F
:101AB000284604F1260102220CF076F82846FEF7AB
:101AC0000FFFE08CC4F84802FEF7FAFE0223A37071
:101AD0000123637084F8D230002384F8E430C4F822
:101AE0002431FEF767FD2046FFF758FFFEF750FC54
:101AF000C4F8D80000F0D3BC00F1AB05284604F1CF
:101B0000260102220CF050F82846FEF7E9FEB4F850
:101B1000B800FEF7C5FEE08CB54B1B68034084F8A7
:101B2000AA30FEF7CDFEE38CB3F5004F02D10123BE
:101B300084F850320020FEF793FE0020FEF780FF6D
:101B4000062363700020FFF78BFA0020FFF7C0FA2E
:101B50002046FFF723FF00F0A2BC0020FEF780FE26
:101B60000020FEF76DFF0020FFF77AFA0020FFF754
:101B7000AFFA0623637000F092BC0A2002F016F957
:101B80000378042B03D00123636000F088BC00239A
:101B9000636084F8D230A2786270A370FEF7F8FB1D
:101BA000C4F8D800032007F04FF902F04BFA02F016
:101BB00037FA00F074BC8378022B21D190F8D22040
:101BC000F2B190F8E430013380F8E430022343604E
:101BD0000821417000F5E670012204F1E203FFF7ED
:101BE00013FFC4F8400294F8E23084F8E330002395
:101BF00084F8E230FEF7CCFBC4F84C0200F04FBC96
:101C000063700023A37000F04ABC0378012B02D15B
:101C100090F8E42001E090F80D2184F86A20012B6F
:101C200001D1812300E0712384F869300D20A4F8EC
:101C3000B40094F8B6305A1C84F8B62084F86230A8
:101C400094F8AB3084F8673094F8AC3084F868309E
:101C5000FF2384F8653084F8663004F160010022C7
:101C6000FEF7F2FCC820FEF7EBFE2378012B0FD124
:101C700094F8E4302344002283F8C126082384F832
:101C8000D130B4F85000C00080B2FFF7E9F90EE09F
:101C900094F80D312344002283F8C126022384F8EE
:101CA000D130B4F85000400080B2FFF7D9F90021DC
:101CB00084F8E21084F8E110022584F8D050B4F8DA
:101CC000B400FEF7BFFD2846FFF7EAF8052363706E
:101CD000E57001236360E2E30378012B02D190F801
:101CE000E42001E090F80D2184F86A20012B02D154
:101CF00094F8E22001E094F8E12084F89D20012B83
:101D000001D1822300E0732384F869304020A4F8D5
:101D1000B40094F8B6305A1C84F8B62084F86230C7
:101D200004F160010022FEF78FFC002384F8D0301C
:101D300020460121FFF744FE50B12378012B03D147
:101D400063700223A370AAE3204600F0DBFFA6E342
:101D5000052363700323E3702378012B01D184F8FA
:101D6000D230012363609AE30B2002F01FF803785E
:101D7000012B0BD03BB1042B03D1012384F8E030BD
:101D800001E0012363600123636088E30023636053
:101D9000E378032B0AD12378012B03D1637002234C
:101DA000A3707CE3204600F0ADFF52E094F8E02001
:101DB000012A08D1204600F0B5FF002384F8E03066
:101DC00084F8D0306BE3D0E90201C4E93001022B82
:101DD00037D12378012B0FD1D4E90C2312184B41B2
:101DE0000448FF2102400B40CDE90E230EE000BF66
:101DF000E861002000FEFFFFD4E90E2312184B41DA
:101E0000AF48FF2102400B40CDE90E23DDE90E0172
:101E1000030A43EA0163A365A28B002312184B4116
:101E200003F0FF0310A961E9022304F198000522E1
:101E30000BF0BAFE04F16B0004F1C00105220BF0B7
:101E4000B3FEE3780B2B01D10423E3700623637008
:101E5000002594F8D0301BB90020FFF7BFF802E04E
:101E6000002384F8D03023780BB10123636007236B
:101E70006370002D00F01383022D03D0042D00F0B9
:101E8000F68205E30F2001F091FF054600238DF84F
:101E900030308DF831308DF832308DF833308DF8A8
:101EA00034308DF835308DF836308DF837308DF888
:101EB00038308DF839308DF83A308DF83B308DF868
:101EC0003C308DF83D308DF83E308DF83F3084F851
:101ED000D330437F03F0CC038C2B27D002D8882B40
:101EE00034D043E0C82B11D0CC2B3FD10CA805F146
:101EF000290108220BF058FE0EA805F12101082245
:101F00000BF052FEAA461AF8316F30E00CA805F12A
:101F1000230108220BF048FE0EA805F12101022240
:101F20000BF042FEAA461AF82B6F20E00CA805F130
:101F3000290102220BF038FE0EA805F1210108222A
:101F40000BF032FEAA461AF82B6F10E00CA805F130
:101F5000230102220BF028FE0EA805F12101022226
:101F60000BF022FEAA461AF8256F00E0002694F82E
:101F7000D2303BB923782BB9062363700020FEF7DB
:101F80005FFD8CE29DF830E04E4B1A680EEA0207C6
:101F9000A6F17003122B00F25D82DFE813F0480017
:101FA000130048001B015B025B025B025B025B02E9
:101FB0005B025B025B025B025B025B025B025B0239
:101FC00013001B01D5E90201C4E93201812E07D1BA
:101FD00002EA0E039AF80120234483F8E52004E086
:101FE0009AF80130274487F80E31E28C48F2010359
:101FF0009A420CD19DF831304EEA0323B3F5004FDD
:1020000005D1AA69B4F818311344C4F82031AB786B
:102010000C2B04D1052363700923E3701FE20E2B00
:1020200002D1072363701AE20623637017E29AF85D
:1020300007300133DFB29DF831304EEA0323B3F5A8
:10204000004F0DD12378012B0AD19AF802209AF87B
:10205000013003EB02231BB2C4F824310023E362F6
:10206000AB780C2B04D1052363700A23E3702EE0B8
:102070000E2B2CD02378012B04D194F8E22012F0FF
:10208000010F11D1E28C48F201018A4204D194F887
:10209000E11011F0040F07D1B2F5004F07D194F809
:1020A000E12012F0020F02D0032363700FE0012B36
:1020B0000AD163700222A27084F8D23007E000BF18
:1020C00000FEFFFFE8610020204600F01BFE702E9E
:1020D00037D194F8E430BB4221D19DF83000C94E8D
:1020E0003368034004EB830000F5E6700AF1030156
:1020F00004220BF059FD9DF8302033681A4004EBA0
:102100008203D3F8CC11C04B994200F0A88101237F
:10211000934094F8E220134384F8E2309FE19DF865
:102120003020B84B1B68134004EB8302D2F8CC116B
:10213000B54A914200F0938104EB8303C3F8CC21AC
:102140008DE194F85032002B00F0898194F80D3124
:10215000BB4240F0848184F80E31234493F9C136A8
:10216000032B25D19DF830009DF838301844A54B3D
:102170001B68184004EB800000F503700AF10301AE
:1021800004220BF011FD04F503700821022204F172
:10219000E103FFF739FCC4F8400294F8E13084F819
:1021A000E330002384F8E130AB69C4F84C3256E1E7
:1021B0009DF830009DF838301844924B1B68184049
:1021C00004EB800000F503700AF1030104220BF018
:1021D000EBFC44E100200021CDE90601CDE9080136
:1021E000CDE90A019AF8340094F8AA1001EB810BAA
:1021F0000BF1070B5FFA8BFB822E0BD102EA0E026A
:10220000224492F8E5209AF801309A4202D006233F
:10221000637024E1732E11D1E31993F80E219AF81B
:1022200001309A4207D194F8503223B9E28C48F237
:1022300003039A4202D10623637010E1E28C48F254
:1022400001039A4209D19DF831304EEA0323B3F5D8
:10225000004F02D1012384F8D430C4F8442208414D
:1022600010F0010F00F08E80D5E902890023A365EC
:1022700008A80AF1020105220BF096FC0AA80AEB55
:102280000B0105220BF090FC06A80AF12F01052294
:102290000BF08AFCDDE90801DDE90A23121A63EB81
:1022A0000103CDE90023D4E930ABD4E93223BAEB02
:1022B00002026BEB0303104603F0FF01CDE90201BC
:1022C000B8EB0A0869EB0B0909F0FF09DDE9062301
:1022D000DDE90AABB2EB0A0A63EB0B0B0BF0FF0B69
:1022E000DDE9002303F0FF03104619460AF082FBE4
:1022F000CDE90001404649460AF07CFB804689460C
:10230000DDE9000142464B460AF0A2FBCDE904019B
:10231000504659460AF06EFB82468B46DDE90201C3
:102320000AF068FB02460B4650465946CDE90223A7
:102330000AF08EFB02460B46DDE904010AF0D4F9EF
:10234000CDE9040140464946DDE902230AF0CEF911
:1023500080468946DDE9000152465B460AF0C6F92F
:1023600002460B46404649460AF0C0F902460B4673
:10237000DDE904010AF096FC0AF004FE80464FEA0B
:10238000E07903E0DFF880804FF00009822E3DD134
:102390009DF830309DF8312003EB0222C4F848222A
:1023A000184B1B68134004EB8303C3F82C8104F51E
:1023B000E6700821012204F1E203FFF725FBC4F8CF
:1023C000400294F8E23084F8E330002384F8E230ED
:1023D0000D4A0023994508BF90450FD09DF8300065
:1023E00094F8AA1000F056FB94F8AA3001229A4003
:1023F00084F8E22004EB8303C3F8CC81AB69C4F812
:102400004C320FE0E8610020FFFFCDAB9DF830308B
:102410009DF8312003EB0223C4F8483204EB870710
:10242000C7F8EC8194F8C026A31893F8C13613F0CE
:10243000800F08D15B42DBB2A11881F8C13613B915
:10244000FF2381F8C13601F0FDFD01F0E9FD06230F
:10245000637004E0062363700020FEF7F1FA2B7F1F
:1024600013F0200F1BD0102001F0A0FC17E011206A
:1024700001F09CFC83780C2B04D1052363700B23A3
:10248000E3700CE00F2B0AD1204600F04BFC06E075
:102490000DB10123636063680BB901236360606859
:1024A00011B0BDE8F08F00BF2DE9F8432DED028B90
:1024B00004469FED9B0B08F0AFFC51EC100B0AF0AB
:1024C00061FD00EB4000000107EE900AF8EEE77AAC
:1024D000DFED998A77EEA88A9FED930B08F09CFCBC
:1024E00051EC100B0AF04EFD00EB40004000C00024
:1024F000924BDB7B83B99FED928A68EE888ADFED91
:10250000917A78EEA78A07EE900AF8EEE77A27EE3E
:10251000888ABDEEC88A22E0012B10D19FED8A8AFD
:1025200068EE888ADFED897A78EEA78A07EE900A4E
:10253000F8EEE77A27EE888ABDEEC88A0FE09FEDB5
:10254000848A68EE888ADFED817A78EEA78A07EEC2
:10255000900AF8EEE77A27EE888ABDEEC88A7D4AAF
:10256000D35C764A927A043A302A1AD8DFE802F02D
:102570002E19191922191919311919191919191995
:102580002B1919191F1919191919191919191919A3
:10259000281919191C191919191919191919191999
:1025A0002500DFED6D7A16E0DFED6C7A13E0DFEDEC
:1025B0006C7A10E0DFED6B7A0DE0DFED6B7A0AE00C
:1025C000DFED6A7A07E0DFED6A7A04E0DFED697A31
:1025D00001E0DFED697A594A527A012A0AD107EE01
:1025E000103AB8EEC77A77EE277A9FED647A67EEF5
:1025F000877A09E007EE103AB8EEC77A77EE277AC5
:102600009FED5F7A67EE877A17EE900A0AF0CCF9B1
:1026100006460F46B8EEC88A78EE287A17EE900A7A
:102620000AF0C2F90022574B0AF03CFB02460B4667
:10263000304639460AF05AF83DA3D3E900230AF0A0
:1026400031FB0AF09FFC054600F1100820460AF015
:1026500099F941EC100B00F087F9DFF8E090C9E937
:102660000C0104EBD474601064300AF08BF941EC77
:10267000100B00F079F9C9E90E0118EE900A0AF082
:1026800093F900223F4B0AF00DFB02460B46304601
:1026900039460AF02BF80AF075FC99F80F30F3B9B7
:1026A00005F53375C9F85050C9F8548000F5967097
:1026B0000AF068F941EC100B00F056F9C9E9100175
:1026C00047EC106B00F050F9000A40EA016010304E
:1026D000C9F848004FF49673C9F84C301BE005F573
:1026E0009E75164C2565C4F8548000F596700AF066
:1026F00049F941EC100B00F037F9C4E9100147EC3F
:10270000106B00F031F9000A40EA01601030A0645B
:102710004FF49673E364BDEC028BBDE8F88300BF11
:10272000000000E0917ADD3F0000000000000000A2
:102730000D71AC8BDB68F03F00001843205A00207D
:1027400085340046004528487B3480440046A8462E
:10275000C3350043D8120108000000000000004506
:102760000000C0440000804400000044000080439A
:10277000000000430000804200008045EA5B7E3F8D
:10278000B341823F00408F40014BD884704700BF67
:10279000205A002030B5A1B005467F2468460C4978
:1027A00022460BF001FA1820FDF700FE2846FFF73D
:1027B0004BF8204669460022FDF746FF20460021DF
:1027C000FEF740F80020FEF76BFB002021B030BD83
:1027D000C41501082DE9F043FBB0002406798DF8FB
:1027E00000408DF801408DF802408DF803408DF8CF
:1027F0000440FDF7CDFD012E08902BD0062E434D51
:1028000022D102A9A02252A8ADF80C408DF80840B0
:102810008DF809600BF0C8F995F8B9768DF8E341A9
:1028200007EB870805EB48180137FFB252A908F5F6
:102830001670A0220BF0B8F9062F88F8586214BF62
:1028400085F8B97685F8B946002385F8BB367BB0A4
:10285000BDE8F0836846FDF75BFF9DF802009DF838
:1028600001109DF80030294D9DF803709DF804205B
:10287000B5F8B4E0ADF80CE0000400EB0121194418
:1028800001EB076314EB030891464FEA026202EB87
:10289000132749F10009724605F1600109A8069362
:1028A000CDE9048907978DF808408DF80A408DF826
:1028B000096085F8D3400BF077F902A92AA8A02275
:1028C0000BF072F995F8B9768DF8434107EB87085C
:1028D00005EB48182AA908F51670A0220BF064F938
:1028E000D5F82C3288F858620137FFB20133062F31
:1028F000C5F82C324FF0000314BF85F8B97685F87F
:10290000B94685F8BB367BB0BDE8F083205A00207D
:1029100008B5094A92F9D130002B0ADD106D13FB7E
:1029200000F080B2FEF79CFB0020FEF757FB0E2064
:1029300008BD0F2008BD00BF205A002010B5094C6B
:10294000606D400080B2FEF78BFB0020FEF746FB77
:10295000B4F85400FEF784FBD4F838320133C4F8DD
:10296000383210BD205A002008B551EC100B06A3D8
:10297000D3E900230AF096F905A3D3E900230AF06E
:1029800091F90AF077FB08BDFA48CE3B1835B13D06
:102990000000000080842E4108B509F0F3FF04A375
:1029A000D3E900230AF054F841EC100B08BD00BF36
:1029B000FA48CE3B1835B13D2DE9F84304460846A8
:1029C000FFF7EAFF31A3D3E9002351EC100B0AF023
:1029D0003FF82B4D2B4B6A7C95F80890E400064697
:1029E0000F462344C3E900673AB1B9F1050F32D06D
:1029F0001DA3D3E900230AF055F90AF0EBFA697A2E
:102A0000DFF87C8000EE100A4846FEF749FF3046AA
:102A100053EC102B394609F067FE002200230646CE
:102A20000F460AF087FA98B93046394610A3D3E921
:102A300000230AF09DFA58B9134AD8F83C321444DE
:102A4000C4E900670133C8F83C320120BDE8F883CF
:102A50000020BDE8F88308A3D3E900230AF022F997
:102A6000CBE700BFAFF30080F6285C8FC2F5F43FE0
:102A7000000000000088D340295C8FC2F528F83F91
:102A8000205A002030630020106400200000001352
:102A900019DDB14130B4064A064B02EBC101D1E960
:102AA000004503EBC000C0E9004530BC704700BFE3
:102AB00010640020F0610020024B03EBC00090ED99
:102AC000000B7047F0610020064B074A30B4C0008D
:102AD0000024002503441044C3E90045C0E9004533
:102AE00030BC70473063002010640020014B187028
:102AF000704700BF205A0020014B1878704700BF74
:102B0000205A0020034B0022D3F84002C3F8402291
:102B1000704700BF205A0020014BD3F84402704791
:102B2000205A0020014BD3F848027047205A002059
:102B3000014BD3F84C027047205A002038B5124C94
:102B400000250120E565FEF7EDFA104984F8B6503E
:102B5000C4F83C52C4F8CC11C4F8D011C4F8D41154
:102B6000C4F8D811C4F8DC11C4F8E011C4F8E411B9
:102B7000C4F8E81104F5947304F5E47243F8041FF3
:102B80009342FBD138BD00BF205A0020FFFFCDABE0
:102B9000FDF7ECBDF8B54F4C0378237243786373AF
:102BA0004378237383786372C378E3730279A272E4
:102BB0004279E2728279A27300222274022B0546C6
:102BC0000089608208BF01230E46434808BF637432
:102BD0004FF0010118BF6274FEF7FAFC2B783F4FEB
:102BE000217A03EB430317F823302375A878FDF708
:102BF000E7FC431E033306D92B78AA7803EB430383
:102C0000134457F82300334FA06107F11400FDF778
:102C10000BFEFDF7C9FC0238C0B2012833D9A878F1
:102C2000FDF7DCFCC0F34F00431E9BB24FF6FD7274
:102C30009342B88320D8FDF7C7FDA08BFDF7D0FDE8
:102C4000A38BE3832B79042B39D0F388A362B38859
:102C5000A4F816313388A4F818313288E2627288F9
:102C6000A4F81A21023A03FB02F3C4F81C3130899C
:102C7000BDE8F840FFF718BCAB78194A013B32F8C1
:102C80001300B883D7E73878FA7B397AA0F10200CD
:102C9000B0FA80F04009FDF761FC431E9BB24FF68D
:102CA000FD729342B883C6D93B7A0E4AA3F105035D
:102CB000B3FA83F35B0932F81300B883BBE718203B
:102CC000FDF774FB0020FEF7AFF80820FDF76EFB60
:102CD000BBE700BF205A0020285A002064150108D5
:102CE0004816010844160108044A054B12681040B2
:102CF00003EBC00393ED000B704700BFE8610020B9
:102D00001064002008B506220223037042700020E0
:102D1000FEF7A6F90020FEF7DBF90020BDE8084029
:102D2000FDF78EBE38B503460020DA6D1C7858607A
:102D30000132022CDA6532D0012CDA7808D0022A6E
:102D400013D0032A1DD00121032259709A7038BD77
:102D5000022A1BD0032AF6D11D46FEF70DF90223E5
:102D600085F8D2406C70AB7038BDDA8C48F2010146
:102D70008A421AD0B2F5004FE5D193F8E1209207CC
:102D8000E1D41846BDE83840FFF7BCBF93F8E21025
:102D9000C807D8D483F8D2405C709A7038BD062238
:102DA0005A70BDE83840FEF75BB993F8E12051074F
:102DB000C9D4E6E7044B1B681840C0B2072801D00D
:102DC000FFF7A6BD0F207047E861002010B50F4C3B
:102DD0000F4AE38C1268B3F5004F06D00F2048F27B
:102DE0000102934208BF0F2010BD0240D2B2012A57
:102DF00001D00F2010BDB4F85000FEF731F90020CB
:102E0000FEF7ECF8E38C0E20E9E700BF205A002023
:102E1000E861002008B5074B986D9B6CC01AFEF75F
:102E200039F80120FEF7DAF800B908BDBDE808401E
:102E3000FFF784BD205A00202DE9B04F86B000AFC7
:102E400003463960FB800F23FB7500233B610023A1
:102E5000FB60A04AFB684FF4F96101FB03F31344E4
:102E6000D0335B78002B05D10020FEF7F9F8002065
:102E7000FEF72EF93B6803F00103002B2CD0954A96
:102E8000FB684FF4F96101FB03F31344D0335B7823
:102E90005BB2012B01D101233B618E4AFB684FF4E9
:102EA000F96101FB03F3134403F514731B78002B42
:102EB0000AD1884AFB684FF4F96101FB03F313441C
:102EC000A8339B78032B07D10020FEF7C9F8002018
:102ED000FEF784F80E23F7E07E4AFB684FF4F961B1
:102EE00001FB03F31344583319687A4AFB684FF423
:102EF000F96000FB03F313444033D3E900234FEAA6
:102F0000122A4AEA036A4FEA132B5346CA18714938
:102F1000FB684FF4F96000FB03F30B4458331A606D
:102F20003B6803F00103002B15D16A4AFB684FF49C
:102F3000F96101FB03F31344D0335B785BB265495D
:102F4000FA684FF4F96000FB02F20A44A832927862
:102F50001344072B03D03B69012B40F0A6805D4A48
:102F6000FB684FF4F96101FB03F31344D0330222F1
:102F70001A70584AFB684FF4F96101FB03F31344DC
:102F800058331B681846FDF785FF0320FDF788FFBF
:102F90000346002B4BD00020FDF752FD4D4AFB6845
:102FA0004FF4F96101FB03F31344D03300221A708C
:102FB000484AFB684FF4F96101FB03F3134403F53E
:102FC0000C735B685A1C4349FB684FF4F96000FBC3
:102FD00003F30B4403F50C735A603E4AFB684FF44D
:102FE000F96101FB03F3134458331968394AFB684C
:102FF0004FF4F96000FB03F313444033D3E900239B
:103000004FEA122848EA03684FEA132943465B0057
:10301000CA183049FB684FF4F96000FB03F30B4416
:1030200058331A60FFF7F6FE0E23FB754BE0294A72
:10303000FB684FF4F96101FB03F31344583319683B
:10304000244AFB684FF4F96000FB03F31344403358
:10305000D3E90023140A44EA03641D0A2346CA186C
:103060001C49FB684FF4F96000FB03F30B44583331
:103070001A600C23FB75FDF78BF903461846154AB9
:10308000FB684FF4F96101FB03F3134403F5D763C5
:103090005860104AFB684FF4F96101FB03F31344D5
:1030A00003F5D7630122DA700DE0FB88002B06D10F
:1030B0000020FDF7D5FF0020FDF790FF01E0FFF7AE
:1030C000A9FE0E23FB75FB7D18461837BD46BDE8EB
:1030D000B08F00BF205A002090B585B000AF3B6094
:1030E0000346FB800B467B7113463B710023FB813B
:1030F000FB88DAB2804B1B68DBB21340DBB27B7318
:103100000023BB601323FB817C4ABB684FF4F96149
:1031100001FB03F31344B033FA899A80BB684FF480
:10312000F96202FB03F36033744A1344591D7B793F
:103130003A6813440846194602220AF035FD6F4AE0
:10314000BB684FF4F96101FB03F31344A833D8784B
:103150006A4ABB684FF4F96101FB03F3134460331F
:103160000246DA71654ABB684FF4F96101FB03F36B
:103170001344A933D878614ABB684FF4F96101FB65
:1031800003F3134461330246DA71BB684FF4F9620A
:1031900002FB03F36B33594A1344581C7B7BBA6818
:1031A0004FF4F97101FB02F213447A339B00534A46
:1031B00013440433194604220AF0F6FC7B7B4F4982
:1031C000BA684FF4F96000FB02F20A44134403F5B5
:1031D00084739879494ABB684FF4F96101FB03F3A2
:1031E00013446F3302465A707B7B4449BA684FF4EC
:1031F000F96000FB02F20A44134403F584730022D1
:103200009A713B7901331A463B68134418783B4A5C
:10321000BB684FF4F96101FB03F3134403F58473B6
:1032200002465A71354ABB684FF4F96101FB03F35A
:103230001344B0339B795A1CD4B23049BA684FF466
:10324000F96000FB02F20A44B032214691712B4929
:10325000BA684FF4F96000FB02F20A4460329370DE
:10326000264ABB684FF4F96101FB03F3134448336A
:103270005B681846FDF7E4FB204ABB684FF4F96130
:1032800001FB03F3134403F5907300225A601B4AB9
:10329000BB684FF4F96101FB03F313446933002267
:1032A0005A70164ABB684FF4F96101FB03F31344EB
:1032B0006A3300225A70114ABB684FF4F96101FB6E
:1032C00003F31344683372225A70FB8918460021B5
:1032D000FDF7B8FABB684FF4F96202FB03F3603301
:1032E000064A1344FA89104619460022FDF7ACF944
:1032F0001437BD4690BD00BFE8610020205A002071
:1033000090B589B000AF3B600346FB800B467B71F4
:1033100013463B710023FB83FB88DAB27D4B1B68AD
:10332000DBB21340DBB27B770023BB611323FB834B
:10333000794ABB694FF4F96101FB03F31344B033DD
:10334000FA8B9A80BB694FF4F96202FB03F3603396
:10335000714A1344591D7B793A681344084619464B
:1033600002220AF021FC6C4ABB694FF4F96101FBAF
:1033700003F31344A833D878674ABB694FF4F96163
:1033800001FB03F3134460330246DA71624ABB69FE
:103390004FF4F96101FB03F31344A933D8785E4A73
:1033A000BB694FF4F96101FB03F313446133024637
:1033B000DA71BB694FF4F96202FB03F36B33564ACF
:1033C0001344581C7B7FBA694FF4F97101FB02F278
:1033D00013444A339B00504A1344043319460422D1
:1033E0000AF0E2FB7B7F4C49BA694FF4F96000FBBD
:1033F00002F20A441344E0335879474ABB694FF458
:10340000F96101FB03F313446F3302465A707B7F6B
:103410004149BA694FF4F96000FB02F20A441344CF
:10342000E03300225A713B7901331A463B6813445A
:103430001878394ABB694FF4F96101FB03F313446F
:10344000E03302461A71344ABB694FF4F96101FB5B
:1034500003F31344B0339B795A1CD4B22E49BA6992
:103460004FF4F96000FB02F20A44B0322146917138
:103470002949BA694FF4F96000FB02F20A4460324C
:1034800093707B7F2449BA694FF4F97000FB02F214
:1034900013444A339B000B445B68204A93423FD05D
:1034A0001D4ABB694FF4F96101FB03F31344A833D0
:1034B0009B781A4601239340D8B2174ABB694FF450
:1034C000F96101FB03F31344E03302469A70124A98
:1034D000BB694FF4F96101FB03F31344A8339B78F4
:1034E0001C467B7F0C49BA694FF4F97000FB02F26D
:1034F00013444A339B000B445A680749BB694FF495
:10350000F97000FB03F3234472339B000B445A60B1
:1035100026E000BFE8610020205A0020FFFFCDAB6D
:10352000804ABB694FF4F96101FB03F31344A833EC
:103530009B7818467B4ABB694FF4F97101FB03F392
:10354000034472339B001344774A5A60754ABB693F
:103550004FF4F96101FB03F31344E03300229A7046
:10356000704ABB694FF4F96101FB03F3134448331C
:103570005B681846FDF764FA6A4ABB694FF4F96163
:1035800001FB03F3134403F514731B78002B00F0C5
:103590008A8000237B6100233B610023FB60614A3A
:1035A000BB694FF4F96101FB03F3134403F588731E
:1035B000DB881A463B6BB3FBF2F102FB01F29B1A6C
:1035C0003B61FB88DBB25749BA694FF4F96000FBF5
:1035D00002F20A4402F58C72128802FB03F3FB60CC
:1035E000FA683B69D31A7B614E4ABB694FF4F961B3
:1035F00001FB03F3134403F58873DB885B089BB27C
:103600005A427B699A4217DD464ABB694FF4F96119
:1036100001FB03F3134403F58873DB881A467B69C7
:103620001A444049BB694FF4F96000FB03F30B44B3
:1036300003F590735A600AE03A4ABB694FF4F961A6
:1036400001FB03F3134403F590737A695A60354A1A
:10365000BB694FF4F96101FB03F3134403F5907365
:103660005B68D8B22F4ABB694FF4F96101FB03F3E1
:103670001344693302465A702A4ABB694FF4F96110
:1036800001FB03F3134403F590735B681B12D8B27C
:10369000244ABB694FF4F96101FB03F313446A3315
:1036A00002465A701EE01F4ABB694FF4F96101FBE4
:1036B00003F3134403F5907300225A60194ABB695F
:1036C0004FF4F96101FB03F31344693300225A708C
:1036D000144ABB694FF4F96101FB03F313446A33E5
:1036E00000225A700F4ABB694FF4F96101FB03F3E2
:1036F0001344683370225A70FB8B18460021FDF783
:10370000A1F8BB694FF4F96202FB03F36033054A89
:103710001344FA8B104619460022FCF795FF243714
:10372000BD4690BD205A0020FFFFCDAB84B02DE9EF
:10373000F041114E9DF8B88096F8B94604EB840527
:1037400006EB451506AF013487E80F00E4B2002709
:1037500005F5167006A9A0228DF8B3700AF024FAB8
:10376000062C85F8588214BF86F8B94686F8B976D3
:10377000BDE8F04104B07047205A002084B080B505
:10378000A8B026AF07F1100E8EE80F0000237B6073
:103790004B4A7B684FF4F96101FB03F313441B7838
:1037A000022B46D1464A7B684FF4F96101FB03F3D3
:1037B0001344D0335B785BB2002B33DD404A7B6827
:1037C0004FF4F96101FB03F31344D0335B78DBB2B0
:1037D000DBB2013BDBB2D8B2394A7B684FF4F96106
:1037E00001FB03F31344D03302465A70002000213A
:1037F000FFF722FB0346BB7400233B7444237B7416
:103800000023BB8204232493694607F120039022FE
:10381000084619460AF0C8F907F110030FCBFFF765
:1038200085FF46E00020FDF71BFC0020FDF7D6FBDE
:103830003FE0234A7B684FF4F96101FB03F3134433
:103840001B78002B03D10020FDF7C8FB31E01C4A98
:103850007B684FF4F96101FB03F31344D0335B78C9
:10386000DBB2DBB2013BDBB2D8B2154A7B684FF466
:10387000F96101FB03F31344D03302465A70002070
:10388000FFF798FA0346BB7400233B7444237B7410
:103890000023BB8204232493694607F1200390226E
:1038A000084619460AF080F907F110030FCBFFF71D
:1038B0003DFF0837BD46BDE8804004B0704700BFFB
:1038C000205A00202DE9F04F8346ADF51F7D0025DD
:1038D0008DF890508DF891508DF892508DF893504E
:1038E0008DF89450FCF754FD9BF804302C9026ACD6
:1038F000022B49D0042B0CD02AA9902268460AF04A
:1039000053F994E80F00FFF739FF0DF51F7DBDE86F
:10391000F08FBE4E33780F22022BA27000F0108180
:1039200000250427214676A84FF000084FF0000933
:10393000A0222570A580256165616770C4E90289B0
:103940000AF032F996F8B9468DF8735204EB840305
:1039500006EB431676A906F51670A02201340AF08C
:1039600023F9E4B2A94B86F85872062C14BF83F8E9
:10397000B94683F8B956A6482021012203F05CFB22
:103980000DF51F7DBDE8F08F9BF80820BBF80610F1
:10399000A18002F0DF02412A00F0C3802F46AA4630
:1039A000A9464FF00108632624A8FCF7B7FEBBF830
:1039B00006102DA80022FCF7A1FE9DF892009DF8AC
:1039C00091109DF890309DF893E09DF894206670DA
:1039D000000400EB01210B4403EB0E6300201146B1
:1039E00020701206C01841F1000102EB13224FF0C3
:1039F0000F0E022E2361C4E90201626184F802E025
:103A00007FF47AAF814EA0442744327898F81C00A6
:103A10003B7F002A57D0012A00F0A180611903EBF7
:103A20000023087FA0F170019FB212294BD8DFE874
:103A300011F01300F5001300D2004A004A004A00BA
:103A40004A004A004A004A004A004A004A004A0026
:103A50004A004A009C00D200012A00F03181032A6A
:103A600000F06B81702800F04E8196F85022674B71
:103A70003AB193F80D211A4492F9C116022900F0C7
:103A80007F81F18C614B48F20202914240F00F813C
:103A900093F8C0261A4492F8C116080600F107816F
:103AA00093F8D1500131013D82F8C11683F8D1500D
:103AB0000020FDF7D5FA0020FCF7C2FF38460121AF
:103AC000FFF7BAF9A070012386F8D33021464EA83B
:103AD000A0220AF069F896F8B946DFF8308104EBC5
:103AE000840506EB4515002705F516704EA9A022A2
:103AF0008DF8D3710AF058F8022385F85832013452
:103B0000D6F83032E4B2062C03F1010314BF88F872
:103B1000B94688F8B976C6F830320DF51F7DBDE894
:103B2000F08F9BF8092002F0CC02882A7FF436AF90
:103B3000092507271E46A946BA464FF0080833E76D
:103B400096F8D1305AB2002A7FF7EAAE013BF08CEA
:103B500086F8D1300621FFF76FF9A070E0E696F8FD
:103B6000D110013986F8D11058E7012A36D0254402
:103B7000DFF8A4806B7FD8F80020A169009103F0E2
:103B80000F0307EA020503EB0515EDB206EB050E80
:103B90004FF0000C4A4651462DAB8EF8C1C6384650
:103BA00086F8C056FFF7ACFBB6F85400FDF758FA9C
:103BB0006369B365072386F8D130F08C0221FFF7E3
:103BC0003BF9D8F80030134AA0703B4006EB830362
:103BD000C3F82C2177E7012A7FF475AF96F8D1302E
:103BE00001332AA9902286F8D130684609F0DCFF1B
:103BF00094E80F00FFF7C2FDD6F8303201221344DB
:103C0000C6F8303286F8D3207FE600BF205A002065
:103C100000000240FFFFCDABE861002096F850E2C3
:103C2000DFF88481BEF1000F7FF44DAFB8F82610A5
:103C300048F2020399423FF646AF012ACED0DFF8A0
:103C400064B12544DBF800206B7F07EA020503F02E
:103C50000F03083503EB0515EDB208EB050C2DAB92
:103C600051464A46384688F8C0568CF8C1E6FFF7F8
:103C700033FA48F201039F4203D0B8F85400FDF72D
:103C8000EFF9F08C6269DBF80030B265C21B1340BB
:103C900086F8D1300321FFF7CFF8DBF80030404A37
:103CA000A0703B4006EB8303C3F8EC210BE7002038
:103CB000FDF7D6F90020FDF791F90E23A37002E776
:103CC00096F8E420374D32442B6892F8C1163B40F9
:103CD000D8B20131072882F8C1164CD10F2096F8CE
:103CE000E250A07003EB83020121073201FA03F3D3
:103CF00056FA82F02B4324A9052286F8E230693077
:103D000009F052FFDFE696F8C036DFF89CE0334456
:103D100093F8C1160D06CAD49EF8D12050B20028DF
:103D2000C5DD4D1C013A3846042183F8C1568EF892
:103D3000D120FFF781F8A070C5E696F80D31334425
:103D4000384693F8C126013283F8C126FFF73EF8C2
:103D500007F0030796F8E120A070012307EB870125
:103D6000BB407018134324A9052286F8E130703057
:103D700009F01AFFA7E6FEF7CBFD2B683B40AEE744
:103D800093F8E150384645F008050327052183F8EC
:103D9000E15082F8C176FFF74FF8A07093E600BFBC
:103DA000FFFFCDABE8610020205A00202DE9F04B49
:103DB000264D95F8B81601EB810149016C1804F500
:103DC000167294F858322BB9214A21481370537057
:103DD000BDE8F08B04F518731D4ED4F8687292F8A4
:103DE00002C0B2F804E03761D3E900898346294470
:103DF0005078D4F870327070D4F86C72B36101F5F9
:103E00001D7106F11C007F22C6E9028986F802C0F6
:103E1000A6F804E0776109F0C7FE95F8B83694F883
:103E2000581284F8F3B20133DBB20022062B08BF2C
:103E30001346317084F8582214BF85F8B83685F8D7
:103E4000B82685F8BA360248BDE8F08B205A002023
:103E50007063002038B50A4C04F5707520460021C7
:103E6000A034A02209F09EFFAC42F7D1054B0022FE
:103E700083F8B92683F8B82683F8BA2638BD00BF80
:103E8000785C0020205A002038B5254D00230222FE
:103E900040F60F002A706B7085F8D230FCF7E2FE16
:103EA00004460320FCF7E6FDB4BBFEF747FE4DF6E3
:103EB000CA63A5F8B83085F8D04085F8D34085F8B6
:103EC000D440FFF7C7FF0822214605F1AB0009F0F7
:103ED00069FF2046C5F82441FCF798FD2046FCF711
:103EE0007DFD10480121FDF703F90F480F49FCF74C
:103EF000B9FDFF2305F2C160F6214FF4807285F809
:103F0000BB46C5F83442C5F8384285F8D13009F0CF
:103F100049FFAC65204638BD4FF0FF3038BD00BFCB
:103F2000205A002080D02324D5270008C538000857
:103F3000F8B5364F364897F8BA3603EB830307EBEC
:103F4000431301210A4693F8584203F075F82F4DA8
:103F500021462846FDF786FD002406460028F6D0B7
:103F60002B480121224603F067F8022E34D095F841
:103F7000D430012B01D00020F8BD97F8D340234D59
:103F8000002CF8D12B78012BF5D1FCF701FAD5F8EC
:103F9000D830D5F8DC20C01A9042ECD995F8B93663
:103FA00085F8D44003EB8302520102F51671013308
:103FB0002944DBB22A44062B4FF084064FF004005C
:103FC0008C8081F89B404E7082F8580214BF85F8AF
:103FD000B93685F8B946CEE72B78012B06D095F88F
:103FE000D430002287F8D3207A60C2E7E86AAA6A50
:103FF000D5F8241185F8D43002440A44C5F8DC20F1
:10400000C5F82811C5F82441EBE700BF205A00206D
:1040100000080240014BC3F8C4077047205A002033
:1040200010B5074C94F82430012B00D010BD1E2091
:104030000021226AFCF7E0FB002384F8243010BD45
:10404000205A002010B5084C94F82530012B00D0E0
:1040500010BDE08BFCF7B8FBA08BFCF7C1FB002385
:1040600084F8253010BD00BF205A0020410900F01F
:104070001F0001238340024A42F82130704700BFED
:1040800000E100E0430900F01F00012282402033DC
:10409000014941F82320704700E100E02DE9F04F8D
:1040A0002DED028B634FDFF8B48185B00023B94654
:1040B000C346039303E0FEF725FD002846D197F899
:1040C000BB46FCF765F9D7F8BC66054604F0B0FEC0
:1040D000FFF72EFFFEF710FD012CC8F80000EAD113
:1040E000B9F81831AD1B9D42E5DD21460F20FCF7E4
:1040F0001BFB214605461920FCF716FB2146064608
:104100000A20FCF711FB214682460620FCF70CFB37
:1041100032462B468DE801044749484809F0A6FE7F
:10412000464806F089FCDBF800300022012B89F8B4
:10413000D0201CD0FCF720FF062389F80130002393
:1041400087F8BB36FEF7DEFC0028B8D0FEF7E4FCAB
:10415000FEF7E8FCFEF7ECFCD8F80030022B0AD0A2
:10416000012B4AD0FCF714F9354B1860A7E731480A
:10417000FEF7D8FDE3E70398FEF79EFC002251EC22
:10418000100BB0EE408AF0EE608A2E4B08F060FC17
:1041900008F0F8FE002848D1039C292501E0013DE4
:1041A00018D0631C272BD6BFA61C00241C46204613
:1041B000C8BF0126FEF780FC002251EC100BB0EEC8
:1041C000408AF0EE608A1F4B08F042FC08F0DAFEED
:1041D0000028E4D003961C4B1C491A681C4823464F
:1041E0008DED008B09F042FE194806F025FC039B7B
:1041F000272BB7DD00230393B4E7039D154A284618
:104200001468FEF771FD22468DED000B124910482F
:104210002B4609F02BFE2B4601331C460C4803931A
:1042200006F00AFC072CE5DC9CE7039B1C460133E7
:104230000393D0E7205A002074160108A0650020DF
:10424000A81B002000408F404866002090160108FF
:1042500000650020FC640020A41601086400002012
:1042600008B50D4B1B680D4A136002280FD1082BAF
:1042700007DD0B4B18686FEA40436FEA534398B26F
:1042800006E06FEA43436FEA534398B200E098B206
:10429000FEF77AFA08BD00BFB81B0020B01B002053
:1042A000E86100200346C0F3400003F004039BB222
:1042B00003B10230704700BF30B587B005464CA34C
:1042C000D3E90023CDE900231820FCF76FF8FEF7AF
:1042D0005FFC3F4B984217D03E4C204610210122F4
:1042E00002F0AAFE012004F0AFFD204610210022BA
:1042F00002F0A2FE072004F0A7FDFEF749FC344BB4
:1043000098425BD1FDF706F9FCF77AF86846FCF7AE
:10431000E7FAFFF7B9FD002853DB0820FCF746F861
:10432000FEF736FC2A4B98424ED105F008039BB2AB
:104330001BB90122284B1A6002E00222264B1A60A8
:10434000254C2088FFF78CFF2368022B05D1234BD7
:104350001B68082B01DD002222601F4B1868FEF746
:10436000C5FB2846FFF79EFF1D4B18601D4C8100C2
:104370000A185200A318A25C8DF80C201A4C226077
:10438000DA788DF80D205A788DF80E205A798DF84C
:1043900011209A798DF812201A89ADF814209A7894
:1043A0008DF80F201B798DF810300144490003A8C7
:1043B0000E4B1944FEF7EEFB054807E04FF0FF30C7
:1043C00004E04FF0FF3001E04FF0FF3007B030BDA8
:1043D0003001CADE0000024064000020B01B002053
:1043E000AC1B0020300000204466002000000020AC
:1043F0000BA7375E1068071008B50120FFF70AFE0B
:1044000008BD00BF08B50B480221012202F014FECE
:104410000948402102F016FEFCF7B6FE07481021BD
:1044200002F002FE0128EED002480221002202F032
:1044300003FE08BD000802400000024000040240E4
:10444000094C002108B520680A460B4605F082F9A0
:1044500000210B4620684FF0FF3205F07BF9012860
:10446000F6D1FFF7CFFFF3E74066002030B583B009
:104470000446FEF741FB054604F00204A4B20CB961
:10448000314A00E0314A324C324B1B6832490968EC
:1044900000912046314909F0E9FC204606F0CCFAAB
:1044A0002F4C20462F49304B1A68304B1B6809F0BF
:1044B000DDFC204606F0C0FA2D4C20462D492E4B3F
:1044C0001A6809F0D3FC204606F0B6FA2B4C2046B9
:1044D0002B492C4B1A6809F0C9FC204606F0ACFAAF
:1044E000294C204629492A4B1A6809F0BFFC20466E
:1044F00006F0A2FA274B1A68274B1A60274B1A605E
:10450000012D08D1264C2046264909F0AFFC204653
:1045100006F092FA15E0022D08D1214C20462249DE
:1045200009F0A4FC204606F087FA0AE008221B4B9B
:104530001A601B4C20461D4909F098FC204606F0E5
:104540007BFA03B030BD00BFF0170108B8160108B0
:10455000006500204466002058000020BC160108B9
:1045600054640020E01601085C00002028000020B0
:10457000AC640020081701082C000020F065002022
:104580002417010868000020506500204417010826
:1045900060000020B01B0020FC6400204866002062
:1045A000A065002064170108701701087C17010836
:1045B00008B500F0020083B20BB90E4A00E00E4AC3
:1045C0000E4C20460E490F4B1B6809F04FFC20464D
:1045D00006F032FA20460C49102209F0E5FA20468E
:1045E00006F02AFA4FF48050FEF7D4F8022004F0C7
:1045F0002BFCFBE7F0170108B81601080065002046
:1046000088170108446600209C17010808B5044B70
:104610001B7823B1034B1868002105F03FF808BD53
:10462000A41B002040660020F8B59FED270B00AFCB
:1046300006F086FC29A3D3E9002351EC100B08F007
:1046400031FB41EC100B06F0E7FB51EC100B08F0CE
:1046500099FC820002F10A031D491E4D086023F0F7
:104660000703ADEB030D461D00286C462E6003DDED
:104670006846002109F096FB304604F00BFC00234D
:104680000122827003704370C3702B68052B0646AD
:104690000EDD201FF11C042250F8043F003318BF28
:1046A000012301F8013F2B6801325C1E9442F3DCC8
:1046B00033440021084A03F8011C3046166004F018
:1046C0003BFCBD46F8BD00BF0000000000004440B8
:1046D000145A0020185A0020105A0020EF39FAFE10
:1046E000422EE63F0000000070B545488AB006F053
:1046F000A3F9444806F0A0F9FFF796FF424B18686B
:10470000002873DD414B424C1D682168013D0023A8
:1047100015F8012F9A400133114383422160F7D1EC
:1047200005280FDD394B3B4E1D683168431E1D4483
:104730000538002315F8012D9A40013311438342B7
:104740003160F7D1344B354D1868314E08F01AF905
:104750009FED290B41EC110B06F078FC0022304B49
:1047600051EC100B07F0C0FF08F00CFC28600A2089
:10477000FFF788FC2B4806F05FF92088FFF79CFDC7
:1047800001302FD0306800F03803382B80B22FD0A2
:10479000254CFFF76BFE0A20FFF768FC0FCC6D4637
:1047A0000FC554F8043B2B600021684604F01CFB45
:1047B0001E4B18600FCC05AD0FC523682B60002180
:1047C00005A804F011FB1A4B0322186000210120F8
:1047D00004F082FE174A184B106001221A70002064
:1047E0000AB070BD154806F027F9F8E7084C97E7BE
:1047F000FFF7DEFEAFF30080000000000000004085
:10480000B0170108BC170108185A0020105A0020E0
:10481000B41B0020B81B0020145A0020E8610020BF
:104820000000F03FD01701084C160108A4640020D6
:104830005064002040660020A41B0020E0170108FF
:1048400008B5FFF751FF0020BDE8084004F0EABAC0
:1048500010B5044602F076FF064BA3FB003080093A
:1048600000F09CF84FF0FF302146002200F04CF899
:10487000002010BDD34D621008B50B4B1A6842F4EE
:1048800000721A601A6842F480621A601A6842F470
:1048900080721A60032000F025F80020FFF7D8FF8F
:1048A00006F090F9002008BD003C0240024A13685F
:1048B00001331360704700BFBC1B0020014B186818
:1048C000704700BFBC1B002010B582B00190FFF7FD
:1048D000F5FF0446FFF7F2FF001B019B9842F9D356
:1048E00002B010BD00F00700064AD36823F4E0636D
:1048F0001B041B0C43EA002040F0BF6040F4003072
:10490000D060704700ED00E030B4164BDC68C4F3B3
:104910000224C4F10705042D28BF0425231D062BFE
:1049200001D9033C00E00024012303FA05F5013D11
:104930002940A140A340013B1A400A43002806DA5F
:1049400000F00F001201D2B2074B1A5407E0120117
:10495000D2B200F1604000F5614080F8002330BC25
:10496000704700BF00ED00E014ED00E0410900F0E9
:104970001F0001238340024A42F82130704700BFE4
:1049800000E100E0430900F01F00012282402033D3
:10499000014941F82320704700E100E00138B0F1FF
:1049A000807F0AD2064B5860F021064A82F8231015
:1049B0000020986007221A6070470120704700BFEE
:1049C00010E000E000ED00E0430900F01F000122CC
:1049D00082406033014941F82320704700E100E044
:1049E000042805D1054A136843F004031360704797
:1049F000024A136823F004031360704710E000E0DC
:104A000030B405682C6824F480242C60046863604A
:104A10008368402B04D103689A600368D96003E07F
:104A2000036899600368DA6030BC7047002831D0B1
:104A300010B40346022280F8352004682168184A21
:104A40000A40406899680843D968084319690843CF
:104A50005969084399690843D9690843196A0143A8
:104A60000A43596A042903D1D86A196B01430A43DE
:104A7000226019684A6922F00702586A0243042832
:104A800001D1986A02434A610020D864012283F868
:104A9000352001E0012070475DF8044B704700BFEE
:104AA0003F8010F038B590F83440012C2ED00446E9
:104AB000012084F83400022084F835002568286835
:104AC00020F0010028602046FFF79AFF2268136853
:104AD00043F0100313602268136843F00803136067
:104AE0002268136843F0040313602268536943F09B
:104AF000800353612268136843F002031360226845
:104B0000136843F001031360002038BD022038BD54
:104B100010B504460368B24A934257D9583A5268CE
:104B2000B0498B424CD001F580618B4246D0A1F553
:104B300068718B4240D001F580618B423AD0A1F57B
:104B400089618B4233D001F580618B422CD0A1F575
:104B500068718B4225D001F580618B421ED0A1F592
:104B600089618B4217D001F580618B4210D0A1F58D
:104B700068718B4209D001F580618B4202D14FF4FC
:104B800000211EE04FF000711BE04FF4002118E0FF
:104B90004FF4002115E04FF4002112E04FF40071B2
:104BA0000FE04FF400710CE04FF4007109E04FF496
:104BB000007106E0082104E0082102E0082100E07D
:104BC00008210A4214BF0122002218E1864A9342BA
:104BD00058D902F55272126882498B424CD001F5C5
:104BE00080618B4246D0A1F568718B4240D001F5BF
:104BF00080618B423AD0A1F589618B4233D001F5B7
:104C000080618B422CD0A1F568718B4225D001F5D3
:104C100080618B421ED0A1F589618B4217D001F5CE
:104C200080618B4210D0A1F568718B4209D001F5EB
:104C300080618B4202D14FF400211EE04FF00071E1
:104C40001BE04FF4002118E04FF4002115E04FF471
:104C5000002112E04FF400710FE04FF400710CE0FE
:104C60004FF4007109E04FF4007106E0082104E000
:104C7000082102E0082100E008210A4214BF0122B5
:104C80000022BCE0594A934257D9583A52685549D4
:104C90008B424CD001F580618B4246D0A1F5687102
:104CA0008B4240D001F580618B423AD0A1F58961F9
:104CB0008B4233D001F580618B422CD0A1F5687115
:104CC0008B4225D001F580618B421ED0A1F5896110
:104CD0008B4217D001F580618B4210D0A1F568712D
:104CE0008B4209D001F580618B4202D14FF4002143
:104CF0001EE04FF000711BE04FF4002118E04FF46C
:104D0000002115E04FF4002112E04FF400710FE094
:104D10004FF400710CE04FF4007109E04FF40071A2
:104D200006E0082104E0082102E0082100E0082153
:104D30000A4214BF0122002261E02D4A126829496B
:104D40008B4257D001F580618B4246D0A1F5687146
:104D50008B4240D001F580618B423AD0A1F5896148
:104D60008B4233D001F580618B422CD0A1F5687164
:104D70008B4225D001F580618B421ED0A1F589615F
:104D80008B4217D001F580618B4210D0A1F568717C
:104D90008B4209D001F580618B4202D14FF4002192
:104DA00029E04FF0007126E04FF4002123E04FF49A
:104DB000002120E04FF400211DE04FF400711AE0C3
:104DC0004FF4007117E04FF4007114E04FF40071DC
:104DD00011E008210FE008210DE008210BE000BFE1
:104DE0005864024010600240B860024058600240BF
:104DF0000060024008210A4214BF01220022002A5A
:104E000000F07D811A6812F0040F00F078811A68B2
:104E100022F004021A602368AA4A934254D9A2F5E8
:104E2000896293424CD002F58062934246D0A2F54B
:104E30006872934240D002F5806293423AD0A2F564
:104E40008962934233D002F5806293422CD0A2F55E
:104E50006872934225D002F5806293421ED0A2F57B
:104E60008962934217D002F58062934210D0A2F576
:104E70006872934209D002F58062934202D14FF4E6
:104E800000221EE04FF000721BE04FF4002218E0F9
:104E90004FF4002215E04FF4002212E04FF40072AC
:104EA0000FE04FF400720CE04FF4007209E04FF491
:104EB000007206E0082204E0082202E0082200E076
:104EC0000822814BDA600CE1804A934253D9A83A18
:104ED00093424CD002F58062934246D0A2F56872AC
:104EE000934240D002F5806293423AD0A2F58962A3
:104EF000934233D002F5806293422CD0A2F56872BF
:104F0000934225D002F5806293421ED0A2F58962B9
:104F1000934217D002F58062934210D0A2F56872D6
:104F2000934209D002F58062934202D14FF40022ED
:104F30001EE04FF000721BE04FF4002218E04FF427
:104F4000002215E04FF4002212E04FF400720FE04F
:104F50004FF400720CE04FF4007209E04FF400725D
:104F600006E0082204E0082202E0082200E008220D
:104F7000554B9A60B5E0564A934253D9483A93420A
:104F80004CD002F58062934246D0A2F568729342FB
:104F900040D002F5806293423AD0A2F589629342F2
:104FA00033D002F5806293422CD0A2F5687293420E
:104FB00025D002F5806293421ED0A2F58962934209
:104FC00017D002F58062934210D0A2F56872934226
:104FD00009D002F58062934202D14FF400221EE014
:104FE0004FF000721BE04FF4002218E04FF4002253
:104FF00015E04FF4002212E04FF400720FE04FF47E
:1050000000720CE04FF4007209E04FF4007206E009
:10501000082204E0082202E0082200E008222D4BCA
:10502000DA605EE02C4A934258D002F580629342E7
:1050300046D0A2F56872934240D002F58062934256
:105040003AD0A2F58962934233D002F5806293424E
:105050002CD0A2F56872934225D002F5806293426B
:105060001ED0A2F58962934217D002F58062934266
:1050700010D0A2F56872934209D002F58062934283
:1050800002D14FF400222AE04FF0007227E04FF4E3
:10509000002224E04FF4002221E04FF400221EE021
:1050A0004FF400721BE04FF4007218E04FF40072EE
:1050B00015E04FF4007212E0082210E008220EE022
:1050C00008220CE05864024000640240B8600240CC
:1050D0005860024000600240106002400822B24B5B
:1050E0009A60E36C43F00103E364042384F83530F1
:1050F000002384F83430A36C0BB120469847236812
:10510000AA4A934253D9583A5268A9498B4248D087
:1051100001F580618B4242D0A1F568718B423CD091
:1051200001F580618B4236D0A1F589618B4230D088
:1051300001F580618B422AD0A1F568718B4224D0A1
:1051400001F580618B421ED0A1F589618B4217D099
:1051500001F580618B4210D0A1F568718B4209D0B6
:1051600001F580618B4202D14FF480311AE04FF497
:10517000800117E04FF4803114E04FF4803111E0EA
:105180004FF480310EE040210CE040210AE0402144
:1051900008E0402106E0874904E0864902E08549AD
:1051A00000E084490A4214BF012200220DE1824A34
:1051B000934254D902F5527212687D498B4248D00D
:1051C00001F580618B4242D0A1F568718B423CD0E1
:1051D00001F580618B4236D0A1F589618B4230D0D8
:1051E00001F580618B422AD0A1F568718B4224D0F1
:1051F00001F580618B421ED0A1F589618B4217D0E9
:1052000001F580618B4210D0A1F568718B4209D005
:1052100001F580618B4202D14FF480311AE04FF4E6
:10522000800117E04FF4803114E04FF4803111E039
:105230004FF480310EE040210CE040210AE0402193
:1052400008E0402106E05B4904E05A4902E0594980
:1052500000E058490A4214BF01220022B5E0574A33
:10526000934253D9583A526851498B4248D001F57C
:1052700080618B4242D0A1F568718B423CD001F530
:1052800080618B4236D0A1F589618B4230D001F527
:1052900080618B422AD0A1F568718B4224D001F540
:1052A00080618B421ED0A1F589618B4217D001F538
:1052B00080618B4210D0A1F568718B4209D001F555
:1052C00080618B4202D14FF480311AE04FF48001AB
:1052D00017E04FF4803114E04FF4803111E04FF4C7
:1052E00080310EE040210CE040210AE0402108E03E
:1052F000402106E02F4904E02E4902E02D4900E05C
:105300002C490A4214BF012200225EE0264A12689C
:1053100027498B4254D001F580618B4242D0A1F5E0
:1053200068718B423CD001F580618B4236D0A1F58B
:1053300089618B4230D001F580618B422AD0A1F582
:1053400068718B4224D001F580618B421ED0A1F59B
:1053500089618B4217D001F580618B4210D0A1F595
:1053600068718B4209D001F580618B4202D14FF404
:10537000803126E04FF4800123E04FF4803120E0BB
:105380004FF480311DE04FF480311AE0402118E0E5
:10539000402116E0402114E0402112E0054910E0D0
:1053A00004490EE003490CE00060024058640240EA
:1053B0001060024001008000B86002405860024066
:1053C000AB490A4214BF01220022002A00F06F817B
:1053D0005A6912F0800F00F06A815A6922F0800247
:1053E0005A612368A34A934250D9A2F58962934235
:1053F00048D002F58062934242D0A2F5687293428F
:105400003CD002F58062934236D0A2F58962934285
:1054100030D002F5806293422AD0A2F5687293429E
:1054200024D002F5806293421ED0A2F58962934295
:1054300017D002F58062934210D0A2F568729342B1
:1054400009D002F58062934202D14FF480321AE013
:105450004FF4800217E04FF4803214E04FF48032B2
:1054600011E04FF480320EE040220CE040220AE0CE
:10547000402208E0402206E07D4A04E07C4A02E047
:105480007B4A00E07A4A7C4BDA6002E17B4A934235
:105490004FD9A83A934248D002F58062934242D055
:1054A000A2F5687293423CD002F58062934236D0F6
:1054B000A2F58962934230D002F5806293422AD0ED
:1054C000A2F56872934224D002F5806293421ED006
:1054D000A2F58962934217D002F58062934210D000
:1054E000A2F56872934209D002F58062934202D11C
:1054F0004FF480321AE04FF4800217E04FF480320C
:1055000014E04FF4803211E04FF480320EE040227C
:105510000CE040220AE0402208E0402206E0544A23
:1055200004E0534A02E0524A00E0514A524B9A606A
:10553000AFE0534A93424FD9483A934248D002F5DC
:105540008062934242D0A2F5687293423CD002F549
:105550008062934236D0A2F58962934230D002F540
:10556000806293422AD0A2F56872934224D002F559
:10557000806293421ED0A2F58962934217D002F551
:105580008062934210D0A2F56872934209D002F56E
:105590008062934202D14FF480321AE04FF48002CD
:1055A00017E04FF4803214E04FF4803211E04FF4F2
:1055B00080320EE040220CE040220AE0402208E067
:1055C000402206E02A4A04E0294A02E0284A00E094
:1055D000274A2C4BDA605CE02B4A934256D002F506
:1055E0008062934242D0A2F5687293423CD002F5A9
:1055F0008062934236D0A2F58962934230D002F5A0
:10560000806293422AD0A2F56872934224D002F5B8
:10561000806293421ED0A2F58962934217D002F5B0
:105620008062934210D0A2F56872934209D002F5CD
:105630008062934202D14FF4803228E04FF480021E
:1056400025E04FF4803222E04FF480321FE04FF427
:1056500080321CE040221AE0402218E0402216E08E
:10566000402214E0024A12E0014A10E0004A0EE033
:10567000010080005864024000640240B8600240AB
:10568000586002400060024010600240B44AB54BCE
:105690009A60E36C43F00203E364042384F835303A
:1056A000002384F83430A36C0BB12046984723685C
:1056B000AD4A934257D9583A5268AC498B424CD0C4
:1056C00001F580618B4246D0A1F568718B4240D0D4
:1056D00001F580618B423AD0A1F589618B4233D0CC
:1056E00001F580618B422CD0A1F568718B4225D0E9
:1056F00001F580618B421ED0A1F589618B4217D0E4
:1057000001F580618B4210D0A1F568718B4209D000
:1057100001F580618B4202D14FF480211EE04FF0F1
:1057200080711BE04FF4802118E04FF4802115E0D8
:105730004FF4802112E04FF480710FE04FF480713C
:105740000CE04FF4807109E04FF4807106E0884965
:1057500004E0874902E0864900E085490A4214BF17
:10576000012200221BE1834A934258D902F552726A
:1057700012687E498B424CD001F580618B4246D045
:10578000A1F568718B4240D001F580618B423AD01F
:10579000A1F589618B4233D001F580618B422CD019
:1057A000A1F568718B4225D001F580618B421ED036
:1057B000A1F589618B4217D001F580618B4210D031
:1057C000A1F568718B4209D001F580618B4202D14D
:1057D0004FF480211EE04FF080711BE04FF48021D8
:1057E00018E04FF4802115E04FF4802112E04FF4CF
:1057F00080710FE04FF480710CE04FF4807109E08C
:105800004FF4807106E05A4904E0594902E05849D2
:1058100000E057490A4214BF01220022BFE0564A65
:10582000934257D9583A526850498B424CD001F5AF
:1058300080618B4246D0A1F568718B4240D001F562
:1058400080618B423AD0A1F589618B4233D001F55A
:1058500080618B422CD0A1F568718B4225D001F577
:1058600080618B421ED0A1F589618B4217D001F572
:1058700080618B4210D0A1F568718B4209D001F58F
:1058800080618B4202D14FF480211EE04FF0807185
:105890001BE04FF4802118E04FF4802115E04FF415
:1058A000802112E04FF480710FE04FF480710CE022
:1058B0004FF4807109E04FF4807106E02C4904E058
:1058C0002B4902E02A4900E029490A4214BF01227B
:1058D000002264E0234A126824498B425AD001F521
:1058E00080618B4254D0A1F568718B424ED001F596
:1058F00080618B4248D0A1F589618B4241D001F58E
:1059000080618B423AD0A1F568718B4225D001F5B8
:1059100080618B421ED0A1F589618B4217D001F5C1
:1059200080618B4210D0A1F568718B4209D001F5DE
:1059300080618B4202D14FF480212CE04FF08071C6
:1059400029E04FF4802126E04FF4802123E04FF43A
:10595000802120E04FF480711DE04FF480711AE047
:105960000100800000600240586402401060024064
:1059700004008000B8600240586002404FF480711B
:1059800009E04FF4807106E0B54904E0B44902E053
:10599000B34900E0B2490A4214BF01220022002AA2
:1059A00000F07F811A6812F0020F00F07A811A6805
:1059B00022F002021A602368AA4A934254D9A2F53F
:1059C000896293424CD002F58062934246D0A2F5A0
:1059D0006872934240D002F5806293423AD0A2F5B9
:1059E0008962934233D002F5806293422CD0A2F5B3
:1059F0006872934225D002F5806293421ED0A2F5D0
:105A00008962934217D002F58062934210D0A2F5CA
:105A10006872934209D002F58062934202D14FF43A
:105A200080221EE04FF080721BE04FF4802218E0CD
:105A30004FF4802215E04FF4802212E04FF4807280
:105A40000FE04FF480720CE04FF4807209E04FF4E5
:105A5000807206E0824A04E0814A02E0804A00E067
:105A60007F4A814BDA600EE1804A934253D9A83ACB
:105A700093424CD002F58062934246D0A2F5687200
:105A8000934240D002F5806293423AD0A2F58962F7
:105A9000934233D002F5806293422CD0A2F5687213
:105AA000934225D002F5806293421ED0A2F589620E
:105AB000934217D002F58062934210D0A2F568722B
:105AC000934209D002F58062934202D14FF48022C2
:105AD0001EE04FF080721BE04FF4802218E04FF47C
