:020000040800F2
:1000000000000220590200085D02000859AB0008F8
:1000100075AB000879AB00087DAB0008000000005C
:10002000000000000000000000000000C58F000874
:1000300041030008000000005590000881AB000853
:10004000E58B0008E58B0008E58B0008E58B0008D0
:10005000E58B0008E58B0008F5AC0008E58B00088F
:10006000E58B0008E58B000801AD00088DAB0008AA
:10007000BDAB000881AC0008E58B0008E58B0008EB
:10008000EDAB000821AC0008E58B00080000000083
:100090000000000000000000000000000DAD00089E
:1000A000E58B0008E58B0008E58B0008E58B000870
:1000B000E58B0008E58B0008E58B0008E58B000860
:1000C000E58B0008E58B0008E58B0008E58B000850
:1000D000E58B0008E58B0008E58B000800000000B8
:1000E000E58B0008E58B0008E58B000800000000A8
:1000F000000000000000000000000000B9AC000893
:1001000000000000E58B0008E58B0008E5AC000866
:1001100000000000000000000000000000000000DF
:10012000E58B0008E58B0008E58B0008E58B0008EF
:10013000E58B000800000000000000000000000047
:10014000000000000000000000000000E58B000837
:10015000E58B0008E58B0008E58B0008E58B0008BF
:10016000E58B0008E58B000800000000000000009F
:10017000000000000000000000000000000000007F
:1001800000000000E58B00080000000000000000F7
:10019000E58B0008E58B000800B583B008F088FC0B
:1001A000224B234A03E011681960043304322149C9
:1001B0008B42F8D3204B02E000221A6004331F4A1E
:1001C0009342F9D308F082FC01A8694608F04AFC82
:1001D0001B4D1C4B5D1BAD10002404E0184B53F865
:1001E000243098470134A542F8DC174D174B5D1BAE
:1001F000AD10002404E0144B53F824309847013428
:10020000A542F8DC019800990AF0A6F80546104CC2
:10021000104B1C1BA41004E0013C0D4B53F8243080
:100220009847002CF8DC284608F0F6FB0000002078
:10023000B81A0108F40A0020F80A002050680020CB
:100240005C0300085C0300085C0300085C03000812
:100250005C0300085C0300083C480047FEE700BF61
:100260001EF0040F0CBFEFF30880EFF30980714616
:10027000374A10472DE9F04182B007468846084BBF
:100280005D6B9C6B9E6A074808F0F4FBCDF800801C
:10029000384631462A46234608F02CFCFEE700BFCC
:1002A00000ED00E0D8170108FEE700BF1EF0040FC4
:1002B0000CBFEFF30880EFF309807146254A104721
:1002C0002DE9F04182B007468846084B5D6B9C6B78
:1002D0009E6A074808F0CEFBCDF8008038463146CC
:1002E0002A46234608F006FCFEE700BF00ED00E0CA
:1002F000E81701081EF0040F0CBFEFF30880EFF3BE
:1003000009807146144A10472DE9F04182B0074632
:100310008846084B5D6B9C6B9E6A074808F0AAFBF9
:10032000CDF80080384631462A46234608F0E2FBE5
:10033000FEE700BF00ED00E0F4170108FEE700BF94
:10034000FEE700BFFEE700BF70470000990100080C
:0C03500075020008C10200080903000843
:1003600008B50A2000F018F8034620B14FF4806168
:10037000024AC2F88010184608BD00BF00E100E044
:1003800018B14FF48062014B1A60704700E100E041
:1003900008B508F0B3FC08BD034B1B68034201D04D
:1003A0000120704700207047003C014000B583B039
:1003B000104B1A6C42F400421A641B6C03F40043A5
:1003C0000193019B0C4B0D4A1A6000229A604FF476
:1003D00082715960DA601A615A614FF48021996123
:1003E000D8611A620722DA62184607F04DFA03B0A4
:1003F0005DF804FB0038024050660020003C0040DD
:1004000070B586B0012401940294022603960C4D27
:10041000284601A906F0C6FC28462146224606F0D9
:100420009FFD304608F0A4FC0194032302930023AF
:100430000393284601A906F0B5FC06B070BD00BFC5
:10044000000002402DE9F04700EB0208B8F5805F9C
:1004500031D81E46154604468946FFF781FFDFF86E
:1004600070A049462246074650460DF031FB314602
:100470002A460AEB04000DF02BFB11481021002244
:1004800006F06EFD1FFA88F251460E4807F03EFA5C
:100490000D4A5368002BFCD10C4A93689B07FCD58E
:1004A00010210122064806F05BFD3846FFF768FF81
:1004B0000020BDE8F0874FF0FF30BDE8F08700BFB7
:1004C0000000024050660020B8600240003C00403E
:1004D000F80A00202DE9F84386181FFA86F8B8F5C7
:1004E000805F04462CD889461D46FFF739FF10214E
:1004F00000220746144806F033FD144A14484946C2
:10050000434607F069FA134A5368002BFCD1124A9C
:100510009368DB07FCD4B44207D20C4A135D05F89C
:10052000013B0134A4B2B442F8D3102101220648A1
:1005300006F016FD3846FFF723FF0020BDE8F883DC
:100540004FF0FF30BDE8F88300000240F80A0020B9
:100550005066002040600240003C0040022902D06A
:10056000052909D011E0022A02D10E4BDA6911E007
:100570006AB90C4B1A6A0DE0022A02D1094B5A6A79
:1005800008E032B9074B9A6A04E0002202E0002238
:1005900000E0002200F001031B0122FA03F080B208
:1005A000704700BFFC1A0020014B987B704700BFCA
:1005B000FC1A0020014BD3F884007047FC1A00207D
:1005C000044B5B5C00EB4300034B03EB8000006BD0
:1005D000704700BF04120108FC1A00200138030113
:1005E000024A9069D84080B2704700BFFC1A0020D0
:1005F00000B583B0E1B160F03F007F298DF80400C1
:100600000DD961F07F00C9098DF805008DF806103D
:10061000032001A9FFF716FF03B05DF804FB8DF876
:100620000510022001A9FFF70DFF03B05DF804FBE0
:1006300060F07F008DF8040001A90120FFF702FFA0
:1006400003B05DF804FB00BF08B51318B3F5806F65
:1006500007DC0B461146821E0920FFF7C9FF002068
:1006600008BD4FF0FF3008BD30B583B00725062424
:1006700041F60601022201AB2E208DF804508DF8C0
:100680000540FFF7B5FF03B030BD00BF00B583B034
:1006900002AB012203F8012D03210D20FFF7A8FF73
:1006A00003B05DF804FB00BF00B583B0E1B140F0DA
:1006B00040007F298DF804000DD961F07F00C90941
:1006C0008DF805008DF80610032001A9FFF702FF41
:1006D00003B05DF804FB8DF80510022001A9FFF7B7
:1006E000F9FE03B05DF804FB8DF8040001A90120B8
:1006F000FFF7F0FE03B05DF804FB00BF10B40C463A
:1007000003461146112022465DF8044BFFF7CCBF8B
:100710000346002117200522FFF7C6BF034600212C
:1007200015200522FFF7C0BF00B5042283B080B2B8
:1007300089B20DEB0203FFF7B7FF20B14FF0FF3096
:1007400003B05DF804FB9DF807009DF806109DF8C6
:1007500005209DF80430A0F5807001EB002002EB2D
:10076000002003EB002003B05DF804FB08B5002077
:100770000146FFF7D9FF08BD00B583B080B289B24A
:10078000022201ABFFF790FF20B14FF6FF7003B0DC
:100790005DF804FB9DF805009DF8043003EB002094
:1007A00080B203B05DF804FB30B583B01446150A7F
:1007B00089B2022201AB80B28DF804408DF8055059
:1007C000FFF716FF03B030BD08B50246034B988211
:1007D0002E2041F60401FFF7E7FF08BDFC1A0020B8
:1007E00008B50246034BD88218200021FFF7DCFF32
:1007F00008BD00BFFC1A0020F0B5144683B0170AEC
:10080000160C150E042289B20DEB020380B28DF88E
:1008100004408DF805708DF806608DF80750FFF7DD
:10082000E7FE03B0F0BD00BF10B504462A200B213F
:1008300001222346FFF7DCFE1E2000216268FFF73D
:10084000DBFF10BD08B5054B1A69104340EA815221
:1008500000210820FFF7D0FF002008BDFC1A00206F
:1008600010B5002104460420FFF75EFF54B9094B80
:100870000340094C23631A4604200021BDE81040C0
:10088000FFF7BABF054B04F4FF7444F001040340C2
:100890002343EEE7FEFF47F0FC1A002001FE47F07D
:1008A00030B5022183B00446050A0A4601AB032095
:1008B0008DF804408DF80550FFF79AFE03B030BD67
:1008C00030B583B00446050A0021022201AB0320A3
:1008D0008DF804408DF80550FFF78AFE03B030BD57
:1008E0000346002101200822FFF782BE30B583B005
:1008F00002AC050A04F8040D0421234602222D202F
:100900008DF80550FFF774FE0325234606210122CA
:100910002D208DF80450FFF76BFE234601220024A2
:1009200006212D208DF80440FFF762FE0A212D20BC
:10093000FFF7FAFE03B030BD30B583B002AC002340
:1009400004F8043D02252346022101222C20FFF752
:100950004FFE2346294601222C208DF80450FFF734
:1009600047FE03B030BD00BF10B504210446362059
:10097000FFF7DAFE3CB920F4006204213620BDE81E
:100980001040FFF739BF40F4006204213620BDE873
:100990001040FFF731BF00BF30B583B002AB6D220E
:1009A000044603F8052D2E2040F606010122FFF72C
:1009B0001FFE74B90725162441F60601022201AB79
:1009C0002E208DF804508DF80540FFF711FE03B07E
:1009D00030BDFFF749FE03B030BD00BF0A4B1A6BB4
:1009E00040B983F82D0042F48052042000211A639C
:1009F000FFF702BF012122F4805283F82D1004205A
:100A000000211A63FFF7F8BEFC1A002000B50B4B5B
:100A100083B01A6B70B922F000521A6302AB120E47
:100A200003F8012D032101220420FFF7E1FD03B0AB
:100A30005DF804FB42F000521A63EFE7FC1A002055
:100A400010B5002104461A20FFF76EFE020DC4F314
:100A50001304120522431A200021BDE81040FFF7BD
:100A6000CBBE00BF024BC3F88800C3F88C107047A0
:100A7000FC1A0020F0B5044683B001AD14F0010665
:100A80002B464FF0260025D131460222FFF70CFEFF
:100A90009DF805303146262023F0140602222B460D
:100AA0008DF80560FFF7A4FDA30711D50F242A21B7
:100AB00001222B4636208DF80440FFF799FD0024D3
:100AC0002B4636202A2101228DF80440FFF790FDA5
:100AD00003B0F0BD00210222FFF7E6FD9DF80520DE
:100AE00002AB22F03C02012142F0140203F8032D74
:100AF00026200A46FFF77CFD2B46022101223620E4
:100B0000FFF7D2FD9DF804602B4666F07B060221BC
:100B1000012236208DF804601027FFF769FD0126B9
:100B20002B462821022236208DF804708DF80560AE
:100B3000FFF75EFDB8E700BF10B582B0044601AB19
:100B4000362000210222FFF7AFFD0D2C0ED8DFE882
:100B500004F0252E380D0D0D0D41500D0D075D1CB7
:100B60009DF8053043F002038DF8053001AB0021FC
:100B700001223620FFF73CFD01210A460DF1050355
:100B80003620FFF735FD02B010BD9DF8043023F08C
:100B9000300343F020038DF80430E7E79DF804307C
:100BA00023F0030343F001038DF80430DEE79DF8E2
:100BB0000530002223F001038DF805308DF8042064
:100BC000D4E79DF8043023F0030343F002038DF8CB
:100BD0000430CBE79DF804309DF8052023F04C034A
:100BE00043F0480362F07F028DF804308DF8052051
:100BF000BCE79DF804209DF8053022F04C0203F07C
:100C00007F038DF804208DF80530AFE79DF805309F
:100C100023F002038DF80530A8E700BF70B582B05D
:100C200002AB012403F8084D0021032502223620DF
:100C30008DF8015080260D46FFF7DAFC06210222CE
:100C400001AB2D208DF804508DF80560FFF7D0FC26
:100C5000204608F08DF82046FFF76EFF284602B0C8
:100C600070BD00BFF0B583B0064604238DF8073091
:100C70006A4C002384F87C3084F82D30C4F880302E
:100C800084F86930C4F8843084F87D30C4F8883042
:100C9000C4F88C30FFF76AFD2060614B984240F049
:100CA000A9800020FFF748FF2420002101220DF138
:100CB0000703FFF79DFC1E20FFF718FE0546C0F353
:100CC0000722A27306F008039BB223B10420FFF7AA
:100CD0000DFEC4F88400514B93F884304BB102AB45
:100CE000022203F8022D2D2012210122FFF780FCA1
:100CF00003E00022494BC3F884200620FFF7F6FDED
:100D0000464C60600720FFF7F1FDA0600023A3615F
:100D1000E36123626362A36206F002039BB2D3B174
:100D2000A37B012B04D81C20FFF7E0FDA06112E09B
:100D3000032B10D80D20FFF7D9FD384CE0610E20B1
:100D4000FFF7D4FD20620F20FFF7D0FD60621D2069
:100D5000FFF7CCFDA06216F0010F0ED005F01F05C5
:100D60002E4B83F82C50002D47D12E4B1B7803F0CF
:100D70001F032A4A82F82C303FE02A4B1B7803F0ED
:100D80001F03264A82F82C3037E02046FFF7AEFDDD
:100D900045F8040F0134BD42F7D104E0002243F8C6
:100DA000042F8B42FAD106F40066B6B216B1FFF7F3
:100DB00035FF0AE036200521FFF7DEFC20F4007045
:100DC00082B236200521FFF7EFFC0120FFF7B4FEC9
:100DD00004200021FFF7A8FC104B186326200021F7
:100DE000FFF7A2FC40F4A02226200021FFF704FD1B
:100DF000002011E04FF0FF300EE006F004039BB23C
:100E000023B9064901F130036031C7E7034F07F109
:100E1000300560371024B8E703B0F0BDFC1A00209D
:100E20003001CADE2C12010870B582B002AB032675
:100E300004460125344003F8085D002102223620D3
:100E400064018DF801602C43FFF7D2FB00261221CC
:100E5000022201AB2D208DF804408DF80560FFF7CC
:100E6000C7FB2846FFF768FE02B070BD10B5002032
:100E700082B0FFF761FE0421002402220DEB010382
:100E800036208DF804408DF80540FFF7B1FB02B025
:100E900010BD00BF024601210A20FFF7ADBC00BF14
:100EA00070B500F0020282B0044602F0FF0322BBDC
:100EB0000DF1070614F0010412D043F006040021DE
:100EC000012233460D208DF80740FFF791FB0F20DC
:100ED0000321FFF751FC10F481601FD102B070BDF7
:100EE00043F002052146334601220D208DF80750BC
:100EF000FFF77EFB204602B070BD02AE802306F8ED
:100F0000013D0021334601220D20FFF771FB0D4A00
:100F10009DF80730012182F87D10CBE7334601228E
:100F2000002140240D208DF80740FFF761FB0020D1
:100F3000FFF71AFD034B002283F87D204FF0FF30AE
:100F4000CCE700BFFC1A002000B583B001220DF1F0
:100F500007030F200321FFF7A7FB9DF8073023F0BD
:100F60007F0203F04003B2EB430F01D0FFF78EFB8B
:100F700003B05DF804FB00BF70B582B002AC402343
:100F800000210E2004F8013DFFF7CEFB0646FFF7D7
:100F9000E7F9002105460A460E20FFF72DFC2346FF
:100FA000002101220D20FFF723FB0021094A0F2019
:100FB000FFF722FCFFF7C8FF324600210E20FFF7A3
:100FC0001BFC2846FFF7DCF9034B002283F87D2049
:100FD00002B070BDF8FF2724FC1A002070B505464A
:100FE00082B0FFF7B1FF15F0010414D000242146B0
:100FF00001AB032602220D208DF804408DF8056018
:10100000FFF7F6FA31460F20FFF7B6FB10F48160C8
:101010000FD102B070BD01252146022201AB0D2087
:101020008DF804408DF80550FFF7E2FA204602B033
:1010300070BDFFF7A1FFAB0703D44FF0FF3002B044
:1010400070BD01AB214601250D2002228DF8044020
:101050008DF80550FFF7CCFA4FF0FF30D9E700BF0D
:1010600070B582B004460DF1030304200321012270
:10107000FFF71AFB9CB9154E9DF80340326B0DF13A
:10108000030322F0805524F01004032101220420E0
:1010900035638DF80340FFF7ABFA02B070BD0B4E1D
:1010A0008DF80440250A022201AB0C2000218DF8A6
:1010B0000550FFF79DFA9DF80340326B0DF10303D5
:1010C00042F0805544F01004DFE700BFFC1A002016
:1010D00030B583B00446050A2421022201AB272043
:1010E0008DF804408DF80550FFF782FA03B030BD4B
:1010F00070B50E460546FFF733F9002104460E2071
:10110000FFF712FB56B920EA05020E200021FFF777
:1011100073FB2046BDE87040FFF732B940EA050294
:10112000F3E700BF30B583B002AC022304F8013D01
:10113000054623462F2000210122FFF759FA45B129
:10114000012523462A462F2000218DF80750FFF75E
:101150004FFA03B030BD00BF10B582B002ACE0233F
:1011600004F8013D0321234601223620FFF740FA0F
:1011700023460321F024012236208DF80740FFF793
:1011800037FA02B010BD00BF2DE9F041BF4EC04D8F
:10119000C04882B04FF4806105F0E8FED6F80080C8
:1011A00095F82D3085F86E30002708F10103394697
:1011B0000F20336085F86870FFF7B6FA3368B64AD7
:1011C0006866092B044642F828004FF48061B14854
:1011D000C8BF376005F0CAFEB04B9C4200F0BD802E
:1011E000AC484FF4806105F0C1FE62056BD595F8FF
:1011F0002D60A74FF6B1A7484FF4806105F0B6FE09
:10120000620434D514F4801700F0BB80FFF7B4FEFD
:10121000FFF7A2FF2B6B9E489D0000F11881D0F8CC
:101220008C30032280F868200BB16430984702B0FC
:10123000BDE8F08104F46063B3F5606FDBD0FFF7C5
:101240009BFEFFF789FF3B6B9B0004F0F80400F165
:101250003981D7F88C30032287F8682013B107F161
:10126000640098478B484FF4806105F07FFE14F0CE
:10127000800153D114F400323FD1894A2240002A20
:10128000D5D00F200021FFF7B7FA2B6B002285F88D
:101290007D209A0040F12281FFF75EFFE30400F118
:1012A000E380270400F11D81E60340F11E8109233C
:1012B00085F86830D5F88C30002BB8D0794898473D
:1012C00002B0BDE8F08173484FF4806105F04EFE36
:1012D0006304CCD52B6B990040F18980FFF73CFF6C
:1012E000D5F88C300021032285F87D1085F8682020
:1012F000002B9CD06B489847E2E70F20FFF77CFA61
:10130000D5F88C30042285F868200BB165489847E1
:10131000002385F87D3002B0BDE8F081F8220F206F
:101320000021FFF769FA95F86920594B52B193F8FB
:101330002D20002183F8691022B993F87D300BB17C
:10134000FFF71AFED5F88830012285F86820002BB7
:101350003FF46DAF53489847B2E7FFF70DFEFFF734
:10136000FBFE4C484FF4806105F000FE49484FF405
:10137000806105F0FBFD4A4A2240002A3FF457AF46
:101380007FE739461020FFF7F7F9474B0646394605
:1013900011200222FFF788F96B7B5BB3C6F30906C5
:1013A00014F00801A5F86A60394A07D092F86C3049
:1013B00003F0200303F0FF00002B59D085F86910DB
:1013C000002795F82D10324E022385F86830A1B918
:1013D00004F4DE423A430F20FFF70EFAD6F88C30C1
:1013E000002B3FF424AF06F1640098471FE7FFF796
:1013F000C3FD73E706F07F06D2E7012632460DF102
:1014000002030F2003218DF80360FFF74DF99DF8CB
:10141000023023F07F0203F04003B2EB430F6AD0A7
:101420002B6B13F0005441D0D5F88C300BB11D4814
:1014300098470F200221FFF79FF9C4061ED5FFF73A
:101440009BFDFFF789FE2B6B98007FF5F0AE002423
:1014500001252146022201AB0D208DF804408DF8B4
:101460000550FFF7C5F8E2E6082385F8683021E764
:1014700082F8690082F87D000827A2E70321012293
:101480000DEB01030D20FFF7B3F8D0E6F81A0020AA
:10149000FC1A002000040240CC5900200300800008
:1014A00000902724601B0020681B00200126214695
:1014B000022201AB0D208DF804408DF80560FFF786
:1014C00097F8B1E701273146022201AB0D208DF8D4
:1014D00004608DF80570FFF78BF8C3E6FFF74CFD4D
:1014E000DAE6032385F86830E4E660010BD50A23C9
:1014F00085F86830DEE604F4C0423A4300210F204C
:10150000FFF77AF98CE7A102EBD50B2385F8683059
:10151000D0E600BF30B583B000248DF80040FFF75F
:10152000A5FC214601AB02222C208DF804408DF849
:101530000540FFF75DF86B46062101222C20FFF7DE
:1015400057F8FFF7F9F96B46032101223620FFF720
:10155000ABF89DF800506B460321012205F00F0502
:1015600036208DF80050FFF743F8012007F000FC0B
:101570009DF800506B4665F00F05032101223620CF
:101580008DF80050FFF734F8024B83F87D4003B02C
:1015900030BD00BFFC1A002010B582B00DF107036A
:1015A00004460E2101222B20FFF77EF89DF807202C
:1015B00004F01F0422F01F0214430DF107030E2153
:1015C00001222B208DF80740FFF712F802B010BD62
:1015D0002DE9F04383B004460F46057842798E4BDF
:1015E00033F812904678013E8C4BC3F88060042D8E
:1015F00006D0072D14BF4FF000084FF0010801E09E
:101600004FF001082278854B1A73E3793BB9834A7E
:10161000136B43F4800313634FEAD90904E07F4A54
:10162000136B23F480031363237A7C494B73237A6F
:101630001B0403F440330A6B1A430A63042000219D
:10164000FFF7DAF82E2042F604014A46FFF7ACF81D
:10165000F6B23046FFF7A0F9714B13F8059009EB8D
:1016600089032B2007210522DFF8D0E17344FEF720
:10167000BFFF2B200E2101226A4BFEF7B9FF282065
:101680000B210122684B4344FEF7B2FF28200C21B6
:10169000664B53F82920FFF7AFF8E279A37903EB03
:1016A000420327200221624A32F81320FFF77CF818
:1016B000272004215F4B33F81620FFF775F8E379F4
:1016C0002BB9272006216422FFF76EF822E0A378C9
:1016D000042B0FD110220DF1080808F8012D272046
:1016E0000621FFF761F82720262101224346FEF755
:1016F0007FFF0FE00DF10808282308F8013D27209F
:1017000006212022FFF750F82720262101224346F8
:10171000FEF76EFFE37803EB860327200821464A95
:1017200052F82320FFF768F8628941F241039A4298
:101730000BD027202021FFF737F863892BB927200A
:10174000202141F24102FFF72FF8DFF8F480232037
:101750000C21D8F80020FFF74FF808EB46082320AB
:101760000421B8F80420FFF71FF8A3795BB1E379EF
:10177000212000210122DFF8CCE07344FEF738FF7E
:101780000122032101E000221146607905F00F03D8
:1017900043EAC0632D01EDB21D4363789B0403F45B
:1017A00040231D4323799B0503F0F8631D4345EA5D
:1017B00001551F20002145EA4242FFF71DF8E2795A
:1017C000520342F400436178A2780A4343EA02429A
:1017D000124B1A6108200021FFF70EF817F0010FD5
:1017E00004D00E4B93F82C00FFF7D6FE17F0020F33
:1017F0000DD03601094CA069F040C0F34E00FEF751
:10180000E3FFA069F040C0F34E00FEF7E9FF0020BF
:1018100003B0BDE8F08300BF48120108FC1A0020A5
:10182000041201082C1201087C1201083012010870
:10183000C8110108F41101080C120108D4110108A3
:10184000F81101080012010810B582B00446FFF734
:101850000DFB00214FF4FF122820FEF7CDFF0F4AA9
:1018600000212820FEF7C8FF0220FFF765F90D20B0
:10187000FFF762F9032C8CBF2246042200210A20C4
:10188000FEF7BAFF02AB102203F8042D2421012237
:101890002F20FEF7ADFE02B010BD00BF00FF5F00BD
:1018A00038B504460D4610EE100A0BF011F8002270
:1018B000334B0BF061F80BF0F9FAFF2800DDFF2045
:1018C000012D26D1042C01D0072C10D12D4B195DF0
:1018D000002300E0013301EB011292001A442A4C6C
:1018E000A25C8242F6DB1C3B07EE903A36E0274BC7
:1018F000195D002300E0013301EBC10201EB82021C
:101900001A44234CA25C8242F5DB173B07EE903A67
:1019100024E0042C01D0072C11D11A4B195D0023AF
:1019200000E00133C1EB0112C1EB82021A44194CF1
:10193000A25C8242F5DB1E3B07EE903A0EE0134BB1
:101940001C5D002300E001331A2202FB043212491D
:101950008A5C8242F7DB113B07EE903AF8EEE77AB9
:1019600017EE900A0AF0B4FF03A3D3E900230BF0AB
:1019700003F841EC100B38BD7B14AE47E17A843F8D
:1019800000001040801201081C1301080C1401080B
:101990008812010814140108A4130108412380F8D7
:1019A0006030882380F86130B0F8D03080F8633040
:1019B0001B0A80F86430002380F86230704700BF53
:1019C00038B504460D46B0F8CC000021FEF73AFFCA
:1019D000012D02D1A06DFFF75DFA94F8E8002843CD
:1019E000C0B2FFF75DFA30B1D4F840320133C4F829
:1019F0004032012038BDFEF7CBFCC4F8C4060123F9
:101A000084F8C336002038BD2DE9F04705460F465F
:101A1000924698464FF000094C461CE0A60055F847
:101A200024100F4B994203D0204600F0BDFF00E088
:101A3000002001280BD00123A34098F8002022EABF
:101A4000030388F80030204601F036F800E0D14664
:101A5000034BAB510134A742E0DC4846BDE8F087B8
:101A6000FFFFCDAB2DE9F04F91B004460D46437812
:101A7000082B00F20C85DFE813F009009D00C80078
:101A800030010A057801E801FB017F000378012B92
:101A900005D0002B60D0022B2ED000F0F8BC18200F
:101AA000FEF7DEFEB4F8D000FEF7FAFE04F1C4053E
:101AB000284604F1260102220CF00AF82846FEF717
:101AC0000FFFE08CC4F85402FEF7FAFE0223A37065
:101AD0000123637084F8EA30002384F8FC30C4F8F2
:101AE0004431FEF767FD2046FFF758FFFEF750FC34
:101AF000C4F8F00000F0CBBC00F1C405284604F1A6
:101B0000260102220BF0E4FF2846FEF7E9FEB4F8B6
:101B1000D000FEF7C5FEE08C00F0030384F8C3306C
:101B2000FEF7CEFEE38CB3F5004F02D1012384F81B
:101B30005C320020FEF794FE0020FEF781FF0623B2
:101B400063700020FFF78CFA0020FFF7C1FA2046EF
:101B5000FFF724FF00F09BBC0020FEF781FE002071
:101B6000FEF76EFF0020FFF77BFA0020FFF7B0FAC8
:101B70000623637000F08BBC0A2002F0E7F80378BC
:101B8000042B03D00123636000F081BC0023636059
:101B900084F8EA30A2786270A370FEF7F9FBC4F80B
:101BA000F000032007F0E4F802F01CFA02F008FA53
:101BB00000F06DBC8378022B22D190F8EA20FAB1B4
:101BC00090F8FC30013380F8FC3002234360082396
:101BD000437000F505700321012204F1FA03FFF7B9
:101BE00013FFC4F84C0294F8FA3084F8FB30002359
:101BF00084F8FA30FEF7CCFBC4F8580200F047BC7A
:101C000063700023A37000F042BC0378012B02D163
:101C100090F8FC2001E090F82F2184F86A20012B35
:101C200001D1812300E0712384F869300D20A4F8EC
:101C3000CC0094F8CE305A1C84F8CE2084F8623060
:101C400094F8C43084F8673094F8C53084F868306C
:101C5000FF2384F8653084F8663004F160010022C7
:101C6000FEF7F2FCC820FEF7EBFE2378012B10D123
:101C700094F8FC302344002283F8C926032384F817
:101C8000E930B4F8500000EB400080B2FFF7E8F90B
:101C90000EE094F82F312344002283F8C926022352
:101CA00084F8E930B4F85000400080B2FFF7D8F96A
:101CB000002184F8FA1084F8F910022584F8E8501D
:101CC000B4F8CC00FEF7BEFD2846FFF7E9F805237F
:101CD0006370E57001236360D9E30378012B02D1BF
:101CE00090F8FC2001E090F82F2184F86A20012B65
:101CF00002D194F8FA2001E094F8F92084F88420C5
:101D0000012B01D1822300E0732384F8693027205E
:101D1000A4F8CC0094F8CE305A1C84F8CE2084F875
:101D2000623004F160010022FEF78EFC002384F88B
:101D3000E83020460121FFF743FE50B12378012B04
:101D400003D163700223A370A1E3204600F0C4FF17
:101D50009DE3052363700323E3702378012B01D1F6
:101D600084F8EA300123636091E30B2001F0EEFF79
:101D70000378012B0BD03BB1042B03D1012384F852
:101D8000F83001E001236360012363607FE30023F7
:101D90006360E378032B0AD12378012B03D16370AE
:101DA0000223A37073E3204600F096FF4DE094F801
:101DB000F820012A08D1204600F09EFF002384F875
:101DC000F83084F8E83062E3D0E90201C4E9360172
:101DD000022B32D12378012B0AD1D4E90C2312181B
:101DE0004B41B448FF2102400B40CDE90E2309E0EE
:101DF000D4E90E2312184B41AE48FF2102400B409C
:101E0000CDE90E23DDE90E01030A43EA0163A36570
:101E1000A28B002312184B4103F0FF0310A961E9C4
:101E2000022304F17F0005220BF052FE04F16B0047
:101E300004F1D80105220BF04BFEE3780B2B01D106
:101E40000423E37006236370002594F8E8301BB97F
:101E50000020FFF7C3F802E0002384F8E83023787D
:101E60000BB10123636007236370002D00F00F8323
:101E7000022D03D0042D00F0F28201E30F2001F0C7
:101E800065FF054600238DF830308DF831308DF830
:101E900032308DF833308DF834308DF835308DF8A0
:101EA00036308DF837308DF838308DF839308DF880
:101EB0003A308DF83B308DF83C308DF83D308DF860
:101EC0003E308DF83F3084F8EB30437F03F0CC0395
:101ED0008C2B27D002D8882B34D043E0C82B11D0CC
:101EE000CC2B3FD10CA805F1290108220BF0F0FD05
:101EF0000EA805F1210108220BF0EAFDAA461AF806
:101F0000316F30E00CA805F1230108220BF0E0FD51
:101F10000EA805F1210102220BF0DAFDAA461AF8FB
:101F20002B6F20E00CA805F1290102220BF0D0FD57
:101F30000EA805F1210108220BF0CAFDAA461AF8E5
:101F40002B6F10E00CA805F1230102220BF0C0FD5D
:101F50000EA805F1210102220BF0BAFDAA461AF8DB
:101F6000256F00E0002694F8EA303BB923782BB9BE
:101F7000062363700020FEF763FD88E29DF83020A1
:101F800002F00307A6F17003122B00F25B82DFE878
:101F900013F0490013004900170159025902590270
:101FA0005902590259025902590259025902590259
:101FB0005902590213001701D5E90201C4E9380199
:101FC000812E08D13C4B1B6813409AF80110234422
:101FD00083F8FD1004E09AF80130274487F8303187
:101FE000E18C48F2010399420CD19DF8313042EA6C
:101FF0000322B2F5004F05D1AA69B4F83631134473
:10200000C4F84031AB780C2B04D10523637009234D
:10201000E3701CE20E2B02D10723637017E2062344
:10202000637014E29AF807300133DFB29DF8313063
:1020300042EA0322B2F5004F0DD12378012B0AD1D9
:102040009AF802209AF8013003EB02231BB2C4F87D
:1020500044310023E362AB780C2B04D10523637079
:102060000A23E3702DE00E2B2BD02378012B04D113
:1020700094F8FA2012F0010F11D1E28C48F201011C
:102080008A4204D194F8F91011F0040F07D1B2F587
:10209000004F07D194F8F92012F0020F02D0032369
:1020A00063700EE0012B09D163700222A27084F8E4
:1020B000EA3006E000FEFFFFD8610020204600F075
:1020C0000BFE702E35D194F8FC30BB4220D19DF828
:1020D000300000F0030004EB800000F505700AF109
:1020E000030104220BF0F4FC9DF8302002F00302FF
:1020F00004EB8203D3F81412D04B994200F0A7816D
:102100000123934094F8FA20134384F8FA309EE1B7
:102110009DF8303003F0030304EB8302D2F814126D
:10212000C64A914200F0938104EB8303C3F8142262
:102130008DE194F85C32002B00F0898194F82F3106
:10214000BB4240F0848184F83031234493F9C9368E
:10215000032B24D19DF830009DF83830184400F04E
:10216000030004EB800000F50B700AF10301042268
:102170000BF0AEFC04F50B700321022204F1F9030D
:10218000FFF742FCC4F84C0294F8F93084F8FB30B5
:10219000002384F8F930AB69C4F8583257E19DF850
:1021A00030009DF83830184400F0030004EB800044
:1021B00000F50B700AF1030104220BF089FC46E1E3
:1021C00000200021CDE90601CDE90801CDE90A0191
:1021D0009AF81B1094F8C33003EB830B0BF1070B39
:1021E0005FFA8BFB822E0CD195480068104020448A
:1021F00090F8FDE09AF80100864502D0062363704E
:1022000025E1732E12D1E01990F830E19AF801001F
:10221000864508D194F85C0228B9B4F826E048F263
:102220000300864502D10623637010E1E08C48F27A
:10223000010E704509D19DF831E042EA0E22B2F557
:10224000004F02D1012284F8EC20C4F85002194159
:1022500011F0010F00F08E80D5E902890023A365FB
:1022600008A80AF1020105220BF032FC0AA80AEBC9
:102270000B0105220BF02CFC06A80AF11601052221
:102280000BF026FCDDE90801DDE90A23121A63EBF5
:102290000103CDE90023D4E936ABD4E93823BAEB06
:1022A00002026BEB0303104603F0FF01CDE90201CC
:1022B000B8EB0A0869EB0B0909F0FF09DDE9062311
:1022C000DDE90AABB2EB0A0A63EB0B0B0BF0FF0B79
:1022D000DDE9002303F0FF03104619460AF01EFB58
:1022E000CDE90001404649460AF018FB8046894680
:1022F000DDE9000142464B460AF03EFBCDE9040110
:10230000504659460AF00AFB82468B46DDE9020137
:102310000AF004FB02460B4650465946CDE902231B
:102320000AF02AFB02460B46DDE904010AF070F9C7
:10233000CDE9040140464946DDE902230AF06AF985
:1023400080468946DDE9000152465B460AF062F9A3
:1023500002460B46404649460AF05CF902460B46E7
:10236000DDE904010AF032FC0AF0A0FD80464FEAE4
:10237000E07903E0DFF8C4804FF00009822E39D104
:102380009DF830309DF8312003EB0222C4F854222E
:102390002B4B1B68134004EB8303C3F84C8104F5FB
:1023A00005700321012204F1FA03FFF72DFBC4F8A5
:1023B0004C0294F8FA3084F8FB30002384F8FA30A9
:1023C0001E4A0023994508BF90450FD09DF8300064
:1023D00094F8C31000F056FB94F8C33001229A40E1
:1023E00084F8FA2004EB8303C3F81482AB69C4F8C1
:1023F00058320AE09DF830309DF8312003EB02237B
:10240000C4F85432883744F8278094F8C826A318B3
:1024100093F8C93613F0800F08D15B42DBB2A118E4
:1024200081F8C93613B9FF2381F8C93601F0DAFD06
:1024300001F0C6FD0623637009E000BFFFFFCDABCE
:10244000D8610020062363700020FEF7F9FA2B7F85
:1024500013F0200F1BD0102001F078FC17E01120A2
:1024600001F074FC83780C2B04D1052363700B23DB
:10247000E3700CE00F2B0AD1204600F03DFC06E093
:102480000DB10123636063680BB901236360606869
:1024900011B0BDE8F08F00BF2DE9F8432DED028BA0
:1024A00004469FED9B0B08F04BFC51EC100B0AF01F
:1024B000FDFC00EB4000000107EE900AF8EEE77A21
:1024C000DFED998A77EEA88A9FED930B08F038FC30
:1024D00051EC100B0AF0EAFC00EB40004000C00099
:1024E000924BDB7B83B99FED928A68EE888ADFEDA1
:1024F000917A78EEA78A07EE900AF8EEE77A27EE4F
:10250000888ABDEEC88A22E0012B10D19FED8A8A0D
:1025100068EE888ADFED897A78EEA78A07EE900A5E
:10252000F8EEE77A27EE888ABDEEC88A0FE09FEDC5
:10253000848A68EE888ADFED817A78EEA78A07EED2
:10254000900AF8EEE77A27EE888ABDEEC88A7D4ABF
:10255000D35C764A927A043A302A1AD8DFE802F03D
:102560002E191919221919193119191919191919A5
:102570002B1919191F1919191919191919191919B3
:10258000281919191C1919191919191919191919A9
:102590002500DFED6D7A16E0DFED6C7A13E0DFEDFC
:1025A0006C7A10E0DFED6B7A0DE0DFED6B7A0AE01C
:1025B000DFED6A7A07E0DFED6A7A04E0DFED697A41
:1025C00001E0DFED697A594A527A012A0AD107EE11
:1025D000103AB8EEC77A77EE277A9FED647A67EE05
:1025E000877A09E007EE103AB8EEC77A77EE277AD5
:1025F0009FED5F7A67EE877A17EE900A0AF068F926
:1026000006460F46B8EEC88A78EE287A17EE900A8A
:102610000AF05EF90022574B0AF0D8FA02460B4640
:102620003046394609F0F6FF3DA3D3E900230AF00E
:10263000CDFA0AF03BFC054600F1100820460AF0EE
:1026400035F941EC100B00F087F9DFF8E090C9E9AB
:102650000C0104EBD474601064300AF027F941ECEB
:10266000100B00F079F9C9E90E0118EE900A0AF092
:102670002FF900223F4B0AF0A9FA02460B463046DA
:10268000394609F0C7FF0AF011FC99F80F30F3B989
:1026900005F53375C9F85050C9F8548000F59670A7
:1026A0000AF004F941EC100B00F056F9C9E91001E9
:1026B00047EC106B00F050F9000A40EA016010305E
:1026C000C9F848004FF49673C9F84C301BE005F583
:1026D0009E75164C2565C4F8548000F596700AF076
:1026E000E5F841EC100B00F037F9C4E9100147ECB4
:1026F000106B00F031F9000A40EA01601030A0646C
:102700004FF49673E364BDEC028BBDE8F88300BF21
:10271000000000E0917ADD3F0000000000000000B2
:102720000D71AC8BDB68F03F00001843085A0020A5
:1027300085340046004528487B3480440046A8463E
:10274000C3350043001201080000000000000045EE
:102750000000C044000080440000004400008043AA
:10276000000000430000804200008045EA5B7E3F9D
:10277000B341823F00408F40014BD884704700BF77
:10278000085A002030B5A1B005467F2468460C49A0
:1027900022460BF09DF91820FDF708FE2846FFF7AA
:1027A00053F8204669460022FDF74EFF20460021DF
:1027B000FEF748F80020FEF773FB002021B030BD83
:1027C000EC1401082DE9F043FBB0002406798DF8E4
:1027D00000408DF801408DF802408DF803408DF8DF
:1027E0000440FDF7D5FD012E08902BD0062E434D59
:1027F00022D102A9A02252A8ADF80C408DF80840C1
:102800008DF809600BF064F995F8C1768DF8E34115
:1028100007EB870805EB48180137FFB252A908F506
:102820001870A0220BF054F9062F88F8606214BFCC
:1028300085F8C17685F8C146002385F8C3367BB09C
:10284000BDE8F0836846FDF763FF9DF802009DF840
:1028500001109DF80030294D9DF803709DF804206B
:10286000B5F8CCE0ADF80CE0000400EB0121194410
:1028700001EB076314EB030891464FEA026202EB97
:10288000132749F10009724605F1600109A8069372
:10289000CDE9048907978DF808408DF80A408DF836
:1028A000096085F8EB400BF013F902A92AA8A022D1
:1028B0000BF00EF995F8C1768DF8434107EB8708C8
:1028C00005EB48182AA908F51870A0220BF000F9AA
:1028D000D5F8383288F860620137FFB20133062F2D
:1028E000C5F838324FF0000314BF85F8C17685F87B
:1028F000C14685F8C3367BB0BDE8F083085A002096
:1029000008B5094A92F9E930002B0ADD106D13FB76
:1029100000F080B2FEF7A4FB0020FEF75FFB0E2064
:1029200008BD0F2008BD00BF085A002010B5094C93
:10293000606D400080B2FEF793FB0020FEF74EFB77
:10294000B4F85400FEF78CFBD4F844320133C4F8D9
:10295000443210BD085A002008B551EC100B06A3F4
:10296000D3E900230AF032F905A3D3E900230AF0E2
:102970002DF90AF013FB08BDFA48CE3B1835B13DDE
:102980000000000080842E4108B509F08FFF04A3E9
:10299000D3E9002309F0F0FF41EC100B08BD00BFA4
:1029A000FA48CE3B1835B13D2DE9F84304460846B8
:1029B000FFF7EAFF31A3D3E9002351EC100B09F034
:1029C000DBFF2B4D2B4B6A7C95F80890E400064604
:1029D0000F462344C3E900673AB1B9F1050F32D07D
:1029E0001DA3D3E900230AF0F1F80AF087FA697A07
:1029F000DFF87C8000EE100A4846FEF751FF3046B3
:102A000053EC102B394609F003FE00220023064642
:102A10000F460AF023FA98B93046394610A3D3E995
:102A200000230AF039FA58B9134AD8F84832144446
:102A3000C4E900670133C8F848320120BDE8F883D3
:102A40000020BDE8F88308A3D3E900230AF0BEF80C
:102A5000CBE700BFAFF30080F6285C8FC2F5F43FF0
:102A6000000000000088D340295C8FC2F528F83FA1
:102A7000085A002070630020286400200000001322
:102A800019DDB14130B4064A064B02EBC101D1E970
:102A9000004503EBC000C0E9004530BC704700BFF3
:102AA00028640020E0610020024B03EBC00090EDA1
:102AB000000B7047E0610020064B074A30B4C000AD
:102AC0000024002503441044C3E90045C0E9004543
:102AD00030BC70477063002028640020014B1870E0
:102AE000704700BF085A0020014B1878704700BF9C
:102AF000085A0020034B0022D3F84C02C3F84C22A2
:102B0000704700BF085A0020014BD3F850027047AD
:102B1000085A0020014BD3F854027047085A00208D
:102B2000014BD3F858027047085A002038B50D4CB5
:102B300000250120E565FEF7F5FA0B4984F8CE5033
:102B4000C4F84852C4F81412C4F81812C4F81C127D
:102B500004F5A47304F5047243F8041F9342FBD1F7
:102B600038BD00BF085A0020FFFFCDABFDF7FEBD0A
:102B7000F8B54F4C0378237243786373437823731B
:102B800083786372C378E3730279A2724279E27246
:102B90008279A27300222274022B0546008960828A
:102BA00008BF01230E46434808BF63744FF001017C
:102BB00018BF6274FEF70CFD2B783F4F217A03EBB0
:102BC000430317F823302375A878FDF7F9FC431E5B
:102BD000033306D92B78AA7803EB4303134457F841
:102BE0002300334FA06107F11400FDF71DFEFDF730
:102BF000DBFC0238C0B2012833D9A878FDF7EEFC1F
:102C0000C0F34F00431E9BB24FF6FD729342B88350
:102C100020D8FDF7D9FDA08BFDF7E2FDA38BE38360
:102C20002B79042B39D0F388A362B388A4F834310C
:102C30003388A4F836313288E2627288A4F83821E9
:102C4000023A03FB02F3C4F83C313089BDE8F84096
:102C5000FFF722BCAB78194A013B32F81300B88366
:102C6000D7E73878FA7B397AA0F10200B0FA80F021
:102C70004009FDF773FC431E9BB24FF6FD72934271
:102C8000B883C6D93B7A0E4AA3F10503B3FA83F39E
:102C90005B0932F81300B883BBE71820FDF786FB09
:102CA0000020FEF7C1F80820FDF780FBBBE700BF5E
:102CB000085A0020105A00208C14010870150108D1
:102CC0006C150108034B00F0030003EBC00393ED08
:102CD000000B70472864002008B506220223037009
:102CE00042700020FEF7BCF90020FEF7F1F9002049
:102CF000BDE80840FDF7A4BE38B503460020DA6DF4
:102D00001C7858600132022CDA6532D0012CDA7856
:102D100008D0022A13D0032A1DD0012103225970A2
:102D20009A7038BD022A1BD0032AF6D11D46FEF741
:102D300023F9022385F8EA406C70AB7038BDDA8C59
:102D400048F201018A421AD0B2F5004FE5D193F85A
:102D5000F9209207E1D41846BDE83840FFF7BCBF20
:102D600093F8FA10C807D8D483F8EA405C709A70D8
:102D700038BD06225A70BDE83840FEF771B993F8A5
:102D8000F9205107C9D4E6E700F00300032801D079
:102D9000FFF7B6BD0F20704710B50E4CE38CB3F5AE
:102DA000004F06D00F2048F20102934208BF0F20C7
:102DB00010BD00F00300012801D00F2010BDB4F8B1
:102DC0005000FEF74DF90020FEF708F9E38C0E20C5
:102DD000E9E700BF085A002008B5074B986D9B6CC7
:102DE000C01AFEF757F80120FEF7F8F800B908BD41
:102DF000BDE80840FFF79ABD085A00202DE9B04F02
:102E000086B000AF03463960FB800F23FB750023BB
:102E10003B610023FB60A04AFB684FF4FA6101FBB1
:102E200003F31344E8335B78002B05D10020FEF751
:102E300017F90020FEF74CF93B6803F00103002B63
:102E40002CD0954AFB684FF4FA6101FB03F313445D
:102E5000E8335B785BB2012B01D101233B618E4AE1
:102E6000FB684FF4FA6101FB03F3134403F5167397
:102E70001B79002B0AD1884AFB684FF4FA6101FBE9
:102E800003F31344C033DB78032B07D10020FEF794
:102E9000E7F80020FEF7A2F80E23F7E07E4AFB6871
:102EA0004FF4FA6101FB03F31344583319687A4A6B
:102EB000FB684FF4FA6000FB03F313444033D3E99B
:102EC00000234FEA122A4AEA036A4FEA132B5346B9
:102ED000CA187149FB684FF4FA6000FB03F30B4416
:102EE00058331A603B6803F00103002B15D16A4A7E
:102EF000FB684FF4FA6101FB03F31344E8335B789A
:102F00005BB26549FA684FF4FA6000FB02F20A44CA
:102F1000C032D2781344022B03D03B69012B40F01E
:102F2000A6805D4AFB684FF4FA6101FB03F313448A
:102F3000E83302221A70584AFB684FF4FA6101FB29
:102F400003F3134458331B681846FDF7A3FF03200F
:102F5000FDF7A6FF0346002B4BD00020FDF770FDC8
:102F60004D4AFB684FF4FA6101FB03F31344E83365
:102F700000221A70484AFB684FF4FA6101FB03F320
:102F8000134403F510731B685A1C4349FB684FF444
:102F9000FA6000FB03F30B4403F510731A603E4A1A
:102FA000FB684FF4FA6101FB03F3134458331968CB
:102FB000394AFB684FF4FA6000FB03F313444033D3
:102FC000D3E900234FEA122848EA03684FEA13299D
:102FD00043465B00CA183049FB684FF4FA6000FBB7
:102FE00003F30B4458331A60FFF7F6FE0E23FB750C
:102FF0004BE0294AFB684FF4FA6101FB03F31344E9
:1030000058331968244AFB684FF4FA6000FB03F355
:1030100013444033D3E90023140A44EA03641D0A2D
:103020002346CA181C49FB684FF4FA6000FB03F3FF
:103030000B4458331A600C23FB75FDF7A9F90346BE
:103040001846154AFB684FF4FA6101FB03F3134479
:1030500003F5D8635860104AFB684FF4FA6101FB2E
:1030600003F3134403F5D8630122DA700DE0FB8803
:10307000002B06D10020FDF7F3FF0020FDF7AEFF87
:1030800001E0FFF7A9FE0E23FB75FB7D18461837FC
:10309000BD46BDE8B08F00BF085A002090B585B08E
:1030A00000AF3B600346FB800B467B7113463B71D0
:1030B0000023FB81FB88DBB203F003037B73002357
:1030C000BB601323FB817B4ABB684FF4FA6101FBB1
:1030D00003F31344C833FA899A80BB684FF4FA6249
:1030E00002FB03F36033734A1344591D7B793A683A
:1030F00013440846194602220AF0EAFC6D4ABB68EE
:103100004FF4FA6101FB03F31344C0331879694AA1
:10311000BB684FF4FA6101FB03F3134460330246CA
:10312000DA71644ABB684FF4FA6101FB03F313449C
:10313000C13318795F4ABB684FF4FA6101FB03F3AE
:10314000134461330246DA71BB684FF4FA6202FB42
:1031500003F36B33574A1344581C7B7BBA684FF414
:10316000FA7101FB02F2134488339B00514A134465
:10317000194604220AF0ACFC7B7B4E49BA684FF436
:10318000FA6000FB02F20A44134403F598731878BE
:10319000484ABB684FF4FA6101FB03F313446F33F1
:1031A00002465A707B7B4349BA684FF4FA6000FBD1
:1031B00002F20A44134403F5987300221A703B7913
:1031C00001331A463B68134418783A4ABB684FF4F7
:1031D000FA6101FB03F3134403F594730246DA71B9
:1031E000344ABB684FF4FA6101FB03F31344C8335C
:1031F0009B795A1CD4B22F49BA684FF4FA6000FB8D
:1032000002F20A44C832214691712A49BA684FF441
:10321000FA6000FB02F20A4460329370254ABB68F0
:103220004FF4FA6101FB03F3134448335B6818461B
:10323000FDF706FC1F4ABB684FF4FA6101FB03F37C
:10324000134403F5A07300225A601A4ABB684FF476
:10325000FA6101FB03F31344693300225A70154AE3
:10326000BB684FF4FA6101FB03F313446A33002295
:103270005A70104ABB684FF4FA6101FB03F3134420
:10328000683372225A70FB8918460021FDF7DAFA7A
:10329000BB684FF4FA6202FB03F36033054A134440
:1032A000FA89104619460022FDF7CEF91437BD46BB
:1032B00090BD00BF085A002090B589B000AF3B60B8
:1032C0000346FB800B467B7113463B710023FB8357
:1032D000FB88DAB27D4B1B68DBB21340DBB27B7735
:1032E0000023BB611323FB83794ABB694FF4FA6166
:1032F00001FB03F31344C833FA8B9A80BB694FF484
:10330000FA6202FB03F36033714A1344591D7B795F
:103310003A6813440846194602220AF0D9FB6C4A5F
:10332000BB694FF4FA6101FB03F31344C03318790E
:10333000674ABB694FF4FA6101FB03F3134460333E
:103340000246DA71624ABB694FF4FA6101FB03F38A
:103350001344C13318795E4ABB694FF4FA6101FB2B
:1033600003F3134461330246DA71BB694FF4FA6226
:1033700002FB03F36B33564A1344581C7B7FBA6934
:103380004FF4FA7101FB02F2134452339B00504A8E
:1033900013440433194604220AF09AFB7B7F4C49FC
:1033A000BA694FF4FA6000FB02F20A441344F8339E
:1033B0005879474ABB694FF4FA6101FB03F31344A0
:1033C0006F3302465A707B7F4149BA694FF4FA6005
:1033D00000FB02F20A441344F83300225A713B798D
:1033E00001331A463B6813441878394ABB694FF4D5
:1033F000FA6101FB03F31344F83302461A71344AAD
:10340000BB694FF4FA6101FB03F31344C8339B79A2
:103410005A1CD4B22E49BA694FF4FA6000FB02F28A
:103420000A44C832214691712949BA694FF4FA60B9
:1034300000FB02F20A44603293707B7F2449BA6930
:103440004FF4FA7000FB02F2134452339B000B441A
:103450005B68204A93423FD01D4ABB694FF4FA6132
:1034600001FB03F31344C033DB781A460123934076
:10347000D8B2174ABB694FF4FA6101FB03F3134456
:10348000F83302469A70124ABB694FF4FA6101FBA5
:1034900003F31344C033DB781C467B7F0C49BA69C5
:1034A0004FF4FA7000FB02F2134452339B000B44BA
:1034B0005A680749BB694FF4FA7000FB03F32344D1
:1034C00084339B000B445A6026E000BFD861002083
:1034D000085A0020FFFFCDAB804ABB694FF4FA6168
:1034E00001FB03F31344C033DB7818467B4ABB6906
:1034F0004FF4FA7101FB03F3034484339B0013443C
:10350000774A5A60754ABB694FF4FA6101FB03F3CD
:103510001344F83300229A70704ABB694FF4FA6181
:1035200001FB03F3134448335B681846FDF788FA40
:103530006A4ABB694FF4FA6101FB03F3134403F5D4
:1035400016731B79002B00F08A8000237B61002317
:103550003B610023FB60614ABB694FF4FA6101FBE8
:1035600003F3134403F598739B881A463B6BB3FB34
:10357000F2F102FB01F29B1A3B61FB88DBB2574977
:10358000BA694FF4FA6000FB02F20A4402F598723D
:10359000D28802FB03F3FB60FA683B69D31A7B61B4
:1035A0004E4ABB694FF4FA6101FB03F3134403F580
:1035B00098739B885B089BB25A427B699A4217DDDD
:1035C000464ABB694FF4FA6101FB03F3134403F568
:1035D00098739B881A467B691A444049BB694FF42B
:1035E000FA6000FB03F30B4403F5A0735A600AE092
:1035F0003A4ABB694FF4FA6101FB03F3134403F544
:10360000A0737A695A60354ABB694FF4FA6101FBCD
:1036100003F3134403F5A0735B68D8B22F4ABB6968
:103620004FF4FA6101FB03F31344693302465A7005
:103630002A4ABB694FF4FA6101FB03F3134403F513
:10364000A0735B681B12D8B2244ABB694FF4FA61BD
:1036500001FB03F313446A3302465A701EE01F4A0B
:10366000BB694FF4FA6101FB03F3134403F5A07344
:1036700000225A60194ABB694FF4FA6101FB03F357
:103680001344693300225A70144ABB694FF4FA613B
:1036900001FB03F313446A3300225A700F4ABB69DB
:1036A0004FF4FA6101FB03F31344683370225A703C
:1036B000FB8B18460021FDF7C5F8BB694FF4FA6291
:1036C00002FB03F36033054A1344FA8B1046194694
:1036D0000022FCF7B9FF2437BD4690BD085A0020F0
:1036E000FFFFCDAB84B02DE9F041114E9DF8B880BD
:1036F00096F8C14604EB840506EB451506AF013488
:1037000087E80F00E4B2002705F5187006A9A0228B
:103710008DF8B3700AF0DCF9062C85F8608214BFCE
:1037200086F8C14686F8C176BDE8F04104B070471E
:10373000085A002084B080B5A8B026AF07F1100E5B
:103740008EE80F0000237B604B4A7B684FF4FA61E0
:1037500001FB03F313441B78022B46D1464A7B68D6
:103760004FF4FA6101FB03F31344E8335B785BB277
:10377000002B33DD404A7B684FF4FA6101FB03F311
:103780001344E8335B78DBB2DBB2013BDBB2D8B287
:10379000394A7B684FF4FA6101FB03F31344E833C1
:1037A00002465A7000200021FFF728FB0346BB7435
:1037B00000233B7444237B740023BB8204232493A3
:1037C000694607F120039022084619460AF080F95D
:1037D00007F110030FCBFFF785FF46E00020FDF750
:1037E0003FFC0020FDF7FAFB3FE0234A7B684FF4E3
:1037F000FA6101FB03F313441B78002B03D1002073
:10380000FDF7ECFB31E01C4A7B684FF4FA6101FBE9
:1038100003F31344E8335B78DBB2DBB2013BDBB28A
:10382000D8B2154A7B684FF4FA6101FB03F31344E5
:10383000E83302465A700020FFF7A6FA0346BB742D
:1038400000233B7444237B740023BB820423249312
:10385000694607F120039022084619460AF038F914
:1038600007F110030FCBFFF73DFF0837BD46BDE85A
:10387000804004B0704700BF085A00202DE9F04F87
:103880008346ADF51F7D00258DF890508DF8915041
:103890008DF892508DF893508DF89450FCF778FD88
:1038A0009BF804302C9026AC022B49D0042B0CD072
:1038B0002AA9902268460AF00BF994E80F00FFF756
:1038C00039FF0DF51F7DBDE8F08FBE4E33780F2216
:1038D000022BA27000F0108100250427214676A853
:1038E0004FF000084FF00009A0222570A580256147
:1038F00065616770C4E902890AF0EAF896F8C14682
:103900008DF8735204EB840306EB431676A906F593
:103910001870A02201340AF0DBF8E4B2A94B86F853
:103920006072062C14BF83F8C14683F8C156A648BE
:103930002021012203F014FB0DF51F7DBDE8F08F5F
:103940009BF80820BBF80610A18002F0DF02412A94
:1039500000F0C3802F46AA46A9464FF0010863260F
:1039600024A8FCF7DBFEBBF806102DA80022FCF70C
:10397000C5FE9DF892009DF891109DF890309DF83D
:1039800093E09DF894206670000400EB01210B4445
:1039900003EB0E630020114620701206C01841F19F
:1039A000000102EB13224FF00F0E022E2361C4E937
:1039B0000201626184F802E07FF47AAF814EA04494
:1039C0002744327898F81C003B7F002A57D0012A00
:1039D00000F0A180611903EB0023087FA0F17001C2
:1039E0009FB212294BD8DFE811F01300F500130045
:1039F000D2004A004A004A004A004A004A004A00EF
:103A00004A004A004A004A004A004A009C00D2008C
:103A1000012A00F02D81032A00F06381702800F054
:103A2000468196F85C22674B3AB193F82F211A44ED
:103A300092F9C916022900F07581F18C614B48F2A8
:103A40000202914240F00B8193F8C8261A4492F882
:103A5000C916080600F1038193F8E9500131013DD0
:103A600082F8C91683F8E9500020FDF7F9FA002022
:103A7000FCF7E6FF38460121FFF7C0F9A0700123EB
:103A800086F8EB3021464EA8A0220AF021F896F8DD
:103A9000C146DFF8308104EB840506EB45150027AD
:103AA00005F518704EA9A0228DF8D3710AF010F810
:103AB000022385F860320134D6F83C32E4B2062C99
:103AC00003F1010314BF88F8C14688F8C176C6F82F
:103AD0003C320DF51F7DBDE8F08F9BF8092002F008
:103AE000CC02882A7FF436AF092507271E46A9464F
:103AF000BA464FF0080833E796F8E9305AB2002A80
:103B00007FF7EAAE013BF08C86F8E9300621FFF73B
:103B100075F9A070E0E696F8E910013986F8E91029
:103B200058E7012A36D02544DFF8A4806B7FD8F807
:103B30000020A169009103F00F0307EA020503EBDF
:103B40000515EDB206EB050E4FF0000C51464A4646
:103B50002DAB8EF8C9C6384686F8C856FFF7ACFBC1
:103B6000B6F85400FDF77CFA0223626986F8E93062
:103B70001946B265F08CFFF741F9D8F80030134AC6
:103B8000A0703B4006EB8303C3F84C2177E7012A82
:103B90007FF475AF96F8E93001332AA9902286F8B0
:103BA000E930684609F094FF94E80F00FFF7C2FD82
:103BB000D6F83C3201221344C6F83C3286F8EB209A
:103BC0007FE600BF085A002000000240FFFFCDAB97
:103BD000D861002096F85CE2DFF86C81BEF1000F3E
:103BE0007FF44DAFB8F8261048F2020399423FF631
:103BF00046AF012ACED025445FFA87FB6B7F0BF0DE
:103C0000030503F00F0303EB051545F0800508EBF2
:103C1000050C2DAB51464A46384688F8C8568CF8F4
:103C2000C9E6FFF73BFA48F201039F4203D0B8F818
:103C30005400FDF715FAF08C6369B365CBEB000314
:103C400003F0030386F8E9300321FFF7D7F807F004
:103C5000030388333B4AA07046F823200FE7002077
:103C6000FDF7FEF90020FDF7B9F90E23A37006E772
:103C700096F8FC30334407F0030793F8C926032F66
:103C800002F1010283F8C92649D10F2096F8FA20E3
:103C9000A070012307EB8701BB407018134324A9D0
:103CA000052286F8FA30703009F012FFE7E696F840
:103CB000C836DFF894E0334493F8C9160D06CED425
:103CC0009EF8E92050B20028C9DD4D1C013A384663
:103CD000042183F8C9568EF8E920FFF78FF8A07009
:103CE000CDE696F82F313344384693F8C926013291
:103CF00083F8C926FFF750F807F0030796F8F92074
:103D0000A070012307EB8701BB407018134324A95F
:103D1000052286F8F930703009F0DAFEAFE6FEF7DA
:103D2000EFFDB3E793F8F950384645F0080503274F
:103D3000052183F8F95082F8C976FFF75FF8A07083
:103D40009DE600BFFFFFCDAB085A00202DE9F04BE8
:103D5000264D95F8C01601EB810149016C1804F558
:103D6000187294F860322BB9214A214813705370AD
:103D7000BDE8F08B04F51A731D4ED4F8707292F8FA
:103D800002C0B2F804E03761D3E9008983462944D0
:103D90005078D4F878327070D4F87472B36101F549
:103DA0001F7106F11C007F22C6E9028986F802C055
:103DB000A6F804E0776109F08BFE95F8C03694F818
:103DC000601284F8FBB20133DBB20022062B08BF7D
:103DD0001346317084F8602214BF85F8C03685F828
:103DE000C02685F8C2360248BDE8F08B085A00208C
:103DF0008863002038B50A4C04F570752046002110
:103E0000A034A02209F062FFAC42F7D1054B00229A
:103E100083F8C12683F8C02683F8C22638BD00BFC8
:103E2000685C0020085A002038B5254D0023022286
:103E300040F60F002A706B7085F8EA30FCF712FF2D
:103E400004460320FCF716FEB4BBFEF76FFE4DF6EA
:103E5000CA63A5F8D03085F8E84085F8EB4085F8CE
:103E6000EC40FFF7C7FF0822214605F1C40009F026
:103E70002DFF2046C5F84441FCF7C8FD2046FCF75D
:103E8000ADFD10480121FDF733F90F480F49FCF74C
:103E9000E9FDFF2305F2C960F6214FF4807285F831
:103EA000C346C5F84042C5F8444285F8E93009F0F8
:103EB0000DFFAC65204638BD4FF0FF3038BD00BF68
:103EC000085A002080D02324C52700087D38000828
:103ED000F8B5364F364897F8C23603EB830307EB45
:103EE000431301210A4693F8604203F039F82F4D3D
:103EF00021462846FDF7B6FD002406460028F6D0E8
:103F00002B480121224603F02BF8022E34D095F8DD
:103F1000EC30012B01D00020F8BD97F8EB40234D89
:103F2000002CF8D12B78012BF5D1FCF731FAD5F81C
:103F3000F030D5F8F420C01A9042ECD995F8C1368B
:103F400085F8EC4003EB8302520102F5187101334E
:103F50002944DBB22A44062B4FF084064FF00400BC
:103F60008C8081F89B404E7082F8600214BF85F807
:103F7000C13685F8C146CEE72B78012B06D095F8DF
:103F8000EC30002287F8EB207A60C2E7E86AAA6A80
:103F9000D5F8441185F8EC3002440A44C5F8F42001
:103FA000C5F84811C5F84441EBE700BF085A0020A6
:103FB00000080240014BC3F8CC077047085A0020A4
:103FC00010B5074C94F82430012B00D010BD1E20F2
:103FD0000021226AFCF710FC002384F8243010BD75
:103FE000085A002010B5084C94F82530012B00D059
:103FF00010BDE08BFCF7E8FBA08BFCF7F1FB002386
:1040000084F8253010BD00BF085A0020410900F097
:104010001F0001238340024A42F82130704700BF4D
:1040200000E100E0430900F01F000122824020333C
:10403000014941F82320704700E100E02DE9F04FED
:104040002DED028B634FDFF8B48185B00023B946B4
:10405000C346039303E0FEF74DFD002846D197F8D1
:10406000C346FCF795F9D7F8C466054604F074FE1C
:10407000FFF72EFFFEF738FD012CC8F80000EAD14B
:10408000B9F83631AD1B9D42E5DD21460F20FCF726
:104090004BFB214605461920FCF746FB2146064608
:1040A0000A20FCF741FB214682460620FCF73CFB38
:1040B00032462B468DE801044749484809F06AFE1C
:1040C000464806F04DFCDBF800300022012B89F851
:1040D000E8201CD0FCF750FF062389F801300023AC
:1040E00087F8C336FEF706FD0028B8D0FEF70CFDB2
:1040F000FEF710FDFEF714FDD8F80030022B0AD0B1
:10410000012B4AD0FCF744F9354B1860A7E731483A
:10411000FEF7F2FDE3E70398FEF7C6FC002251EC40
:10412000100BB0EE408AF0EE608A2E4B08F024FCB3
:1041300008F0BCFE002848D1039C332501E0013D76
:1041400018D0631C312BD6BFA61C00241C46204669
:10415000C8BF0126FEF7A8FC002251EC100BB0EE00
:10416000408AF0EE608A1F4B08F006FC08F09EFEC5
:104170000028E4D003961C4B1C491A681C482346AF
:104180008DED008B09F006FE194806F0E9FB039B54
:10419000312BB7DD00230393B4E7039D154A28466E
:1041A0001468FEF78FFD22468DED000B1249104872
:1041B0002B4609F0EFFD2B4601331C460C480393B8
:1041C00006F0CEFB022CE5DC9CE7039B1C4601338A
:1041D0000393D0E7085A00209C150108A064002032
:1041E000901B002000408F40F8640020B8150108A3
:1041F000506400204C640020CC15010850000020C1
:1042000008B50A4B1B680A4A1360022807D1042B21
:1042100007DC6FEA43436FEA534398B203E098B276
:1042200001E048F20400FEF7A7FA08BDA01B002039
:10423000981B00200346C0F3400003F004039BB228
:1042400003B10230704700BF30B587B005464CA3BC
:10425000D3E90023CDE900231820FCF7A7F8FEF7E7
:1042600085FC3F4B984217D03E4C2046102101223E
:1042700002F076FE012004F07BFD20461021002292
:1042800002F06EFE072004F073FDFEF76FFC344B66
:1042900098425BD1FDF73EF9FCF7B2F86846FCF7AF
:1042A0001FFBFFF7C1FD002853DB0820FCF77EF859
:1042B000FEF75CFC2A4B98424ED105F008039BB2F6
:1042C0001BB90122284B1A6002E00222264B1A6019
:1042D000254C2088FFF794FF2368022B05D1234B40
:1042E0001B68042B01DD002222601F4B1868FEF7BB
:1042F000F5FB2846FFF79EFF1D4B18601D4C810003
:104300000A185200A318A25C8DF80C201A4C2260E7
:10431000DA788DF80D205A788DF80E205A798DF8BC
:1043200011209A798DF812201A89ADF814209A7804
:104330008DF80F201B798DF810300144490003A837
:104340000E4B1944FEF714FC054807E04FF0FF3010
:1043500004E04FF0FF3001E04FF0FF3007B030BD18
:104360003001CADE0000024050000020981B0020EF
:10437000941B002028000020F4640020000000208E
:104380000BA7375E1068071008B50120FFF712FE73
:1043900008BD00BF08B50B480221012202F0E0FD74
:1043A0000948402102F0E2FDFCF7EEFE074810212B
:1043B00002F0CEFD0128EED002480221002202F0D8
:1043C000CFFD08BD0008024000000240000402408A
:1043D000094C002108B520680A460B4605F04EF945
:1043E00000210B4620684FF0FF3205F047F9012805
:1043F000F6D1FFF7CFFFF3E7F064002038B50446AD
:10440000FEF772FB054604F00204A4B20CB91A4A86
:1044100000E01A4A1A4C20461A491B4B1B6809F047
:10442000B9FC204606F09CFA184B1A68184B1A6023
:10443000184B1A60012D08D1174C2046174909F076
:10444000A9FC204606F08CFA38BD022D08D1124C8A
:104450002046134909F09EFC204606F081FA38BD3B
:1044600004220C4B1A600C4C20460E4909F092FCB9
:10447000204606F075FA38BD84160108E0150108DB
:1044800050640020E4150108F4640020981B00200B
:104490004C640020F8640020A0640020F815010896
:1044A000041601081016010808B500F0020083B2D6
:1044B0000BB90E4A00E00E4A0E4C20460E490F4B37
:1044C0001B6809F067FC204606F04AFA20460C49B2
:1044D000102209F0FDFA204606F042FA4FF480500F
:1044E000FEF750F9022004F043FCFBE784160108B4
:1044F000E0150108506400201C160108F464002037
:104500003016010808B5044B1B7823B1034B18681B
:10451000002105F057F808BD8C1B0020F064002036
:10452000F8B59FED330B00AF06F09EFC36A3D3E940
:10453000002351EC100B08F049FB41EC100B06F086
:10454000FFFB51EC100B08F0B1FC840004F10A03EE
:10455000294A2A4D1060014623F00703ADEB030DF5
:10456000053001396E46286018D46C44022202E0FE
:1045700023604B1C12D0224B1340002B02EBD27253
:1045800001F1FF31A4F104044FEA6202F0DA013BC9
:1045900063F00103013323604B1CECD104F00EFCEB
:1045A00001230022027042708370C3702B68052BB8
:1045B00086460EDD311F0330042251F8043F0033DC
:1045C00018BF012300F8013F2B6801325C1E9442A2
:1045D000F3DC734400210B4A03F8011C7046C2F857
:1045E00000E004F03DFCBD46F8BD00BFAFF3008025
:1045F0000000000000004940FC590020005A002043
:1046000001000080F8590020EF39FAFE422EE63F03
:1046100070B545488AB006F0A3F9444806F0A0F901
:10462000FFF77EFF424B1868002873DD414B424C78
:104630001D682168013D002315F8012F9A400133C0
:10464000114383422160F7D105280FDD394B3B4EE2
:104650001D683168431E1D440538002315F8012DDF
:104660009A400133114383423160F7D1344B354DC9
:104670001868314E08F01AF99FED290B41EC110B27
:1046800006F078FC0022304B51EC100B07F0C0FF15
:1046900008F00CFC28600A20FFF7C4FC2B4806F049
:1046A0005FF92088FFF7D0FD01302FD0306800F08F
:1046B0003803382B80B22FD0254CFFF79FFE0A20FD
:1046C000FFF7A4FC0FCC6D460FC554F8043B2B60DC
:1046D0000021684604F01CFB1E4B18600FCC05AD92
:1046E0000FC523682B60002105A804F011FB1A4BAD
:1046F000032218600021012004F082FE174A184BA3
:10470000106001221A7000200AB070BD154806F032
:1047100027F9F8E7084C97E7FFF7C6FEAFF30080EC
:104720000000000000000040441601085016010877
:10473000005A0020F85900209C1B0020A01B0020DC
:10474000FC590020D86100200000F03F64160108E9
:10475000741501084464002040640020F0640020C7
:104760008C1B00207416010808B5FFF751FF0020CC
:10477000BDE8084004F0EABA10B5044602F076FF3E
:10478000064BA3FB0030800900F09CF84FF0FF308F
:104790002146002200F04CF8002010BDD34D6210DD
:1047A00008B50B4B1A6842F400721A601A6842F49A
:1047B00080621A601A6842F480721A60032000F066
:1047C00025F80020FFF7D8FF06F090F9002008BD7B
:1047D000003C0240024A136801331360704700BF77
:1047E000A41B0020014B1868704700BFA41B0020C9
:1047F00010B582B00190FFF7F5FF0446FFF7F2FF16
:10480000001B019B9842F9D302B010BD00F00700D5
:10481000064AD36823F4E0631B041B0C43EA002020
:1048200040F0BF6040F40030D060704700ED00E021
:1048300030B4164BDC68C4F30224C4F10705042D20
:1048400028BF0425231D062B01D9033C00E00024CA
:10485000012303FA05F5013D2940A140A340013B96
:104860001A400A43002806DA00F00F001201D2B203
:10487000074B1A5407E01201D2B200F1604000F574
:10488000614080F8002330BC704700BF00ED00E0BD
:1048900014ED00E0410900F01F0001238340024AAB
:1048A00042F82130704700BF00E100E0430900F00A
:1048B0001F00012282402033014941F82320704724
:1048C00000E100E00138B0F1807F0AD2064B586069
:1048D000F021064A82F823100020986007221A600F
:1048E00070470120704700BF10E000E000ED00E0DD
:1048F000430900F01F00012282406033014941F862
:104900002320704700E100E0042805D1054A136820
:1049100043F0040313607047024A136823F0040352
:104920001360704710E000E030B405682C6824F490
:1049300080242C60046863608368402B04D1036882
:104940009A600368D96003E0036899600368DA60DD
:1049500030BC7047002831D010B40346022280F8E2
:10496000352004682168184A0A404068996808435D
:10497000D968084319690843596908439969084384
:10498000D9690843196A01430A43596A042903D1C2
:10499000D86A196B01430A43226019684A6922F0F8
:1049A0000702586A0243042801D1986A02434A6107
:1049B0000020D864012283F8352001E001207047EF
:1049C0005DF8044B704700BF3F8010F038B590F899
:1049D0003440012C2ED00446012084F834000220FB
:1049E00084F835002568286820F0010028602046FA
:1049F000FFF79AFF2268136843F0100313602268E0
:104A0000136843F0080313602268136843F004033B
:104A100013602268536943F080035361226813686E
:104A200043F0020313602268136843F0010313602C
:104A3000002038BD022038BD10B504460368B24AD4
:104A4000934257D9583A5268B0498B424CD001F53D
:104A500080618B4246D0A1F568718B4240D001F550
:104A600080618B423AD0A1F589618B4233D001F548
:104A700080618B422CD0A1F568718B4225D001F565
:104A800080618B421ED0A1F589618B4217D001F560
:104A900080618B4210D0A1F568718B4209D001F57D
:104AA00080618B4202D14FF400211EE04FF0007173
:104AB0001BE04FF4002118E04FF4002115E04FF403
:104AC000002112E04FF400710FE04FF400710CE090
:104AD0004FF4007109E04FF4007106E0082104E092
:104AE000082102E0082100E008210A4214BF012247
:104AF000002218E1864A934258D902F55272126890
:104B000082498B424CD001F580618B4246D0A1F5A1
:104B100068718B4240D001F580618B423AD0A1F59B
:104B200089618B4233D001F580618B422CD0A1F595
:104B300068718B4225D001F580618B421ED0A1F5B2
:104B400089618B4217D001F580618B4210D0A1F5AD
:104B500068718B4209D001F580618B4202D14FF41C
:104B600000211EE04FF000711BE04FF4002118E01F
:104B70004FF4002115E04FF4002112E04FF40071D2
:104B80000FE04FF400710CE04FF4007109E04FF4B6
:104B9000007106E0082104E0082102E0082100E09D
:104BA00008210A4214BF01220022BCE0594A934264
:104BB00057D9583A526855498B424CD001F580611B
:104BC0008B4246D0A1F568718B4240D001F58061DF
:104BD0008B423AD0A1F589618B4233D001F58061D7
:104BE0008B422CD0A1F568718B4225D001F58061F4
:104BF0008B421ED0A1F589618B4217D001F58061EF
:104C00008B4210D0A1F568718B4209D001F580610B
:104C10008B4202D14FF400211EE04FF000711BE0E7
:104C20004FF4002118E04FF4002115E04FF400216B
:104C300012E04FF400710FE04FF400710CE04FF4FC
:104C4000007109E04FF4007106E0082104E008213A
:104C500002E0082100E008210A4214BF01220022DC
:104C600061E02D4A126829498B4257D001F58061D5
:104C70008B4246D0A1F568718B4240D001F580612E
:104C80008B423AD0A1F589618B4233D001F5806126
:104C90008B422CD0A1F568718B4225D001F5806143
:104CA0008B421ED0A1F589618B4217D001F580613E
:104CB0008B4210D0A1F568718B4209D001F580615B
:104CC0008B4202D14FF4002129E04FF0007126E021
:104CD0004FF4002123E04FF4002120E04FF40021A5
:104CE0001DE04FF400711AE04FF4007117E04FF42B
:104CF000007114E04FF4007111E008210FE0082169
:104D00000DE008210BE000BF586402401060024033
:104D1000B8600240586002400060024008210A4228
:104D200014BF01220022002A00F07D811A6812F0CF
:104D3000040F00F078811A6822F004021A602368D8
:104D4000AA4A934254D9A2F5896293424CD002F503
:104D50008062934246D0A2F56872934240D002F539
:104D6000806293423AD0A2F58962934233D002F531
:104D7000806293422CD0A2F56872934225D002F54E
:104D8000806293421ED0A2F58962934217D002F549
:104D90008062934210D0A2F56872934209D002F566
:104DA0008062934202D14FF400221EE04FF0007265
:104DB0001BE04FF4002218E04FF4002215E04FF4FE
:104DC000002212E04FF400720FE04FF400720CE08A
:104DD0004FF4007209E04FF4007206E0082204E08C
:104DE000082202E0082200E00822814BDA600CE190
:104DF000804A934253D9A83A93424CD002F580623C
:104E0000934246D0A2F56872934240D002F5806288
:104E100093423AD0A2F58962934233D002F5806280
:104E200093422CD0A2F56872934225D002F580629D
:104E300093421ED0A2F58962934217D002F5806298
:104E4000934210D0A2F56872934209D002F58062B5
:104E5000934202D14FF400221EE04FF000721BE09B
:104E60004FF4002218E04FF4002215E04FF4002226
:104E700012E04FF400720FE04FF400720CE04FF4B8
:104E8000007209E04FF4007206E0082204E00822F4
:104E900002E0082200E00822554B9A60B5E0564A2D
:104EA000934253D9483A93424CD002F580629342E0
:104EB00046D0A2F56872934240D002F580629342D8
:104EC0003AD0A2F58962934233D002F580629342D0
:104ED0002CD0A2F56872934225D002F580629342ED
:104EE0001ED0A2F58962934217D002F580629342E8
:104EF00010D0A2F56872934209D002F58062934205
:104F000002D14FF400221EE04FF000721BE04FF47C
:104F1000002218E04FF4002215E04FF4002212E0C6
:104F20004FF400720FE04FF400720CE04FF4007287
:104F300009E04FF4007206E0082204E0082202E0D3
:104F4000082200E008222D4BDA605EE02C4A9342F2
:104F500058D002F58062934246D0A2F5687293421F
:104F600040D002F5806293423AD0A2F58962934222
:104F700033D002F5806293422CD0A2F5687293423E
:104F800025D002F5806293421ED0A2F58962934239
:104F900017D002F58062934210D0A2F56872934256
:104FA00009D002F58062934202D14FF400222AE038
:104FB0004FF0007227E04FF4002224E04FF400226B
:104FC00021E04FF400221EE04FF400721BE04FF48A
:104FD000007218E04FF4007215E04FF4007212E016
:104FE000082210E008220EE008220CE0586402407B
:104FF00000640240B8600240586002400060024015
:10500000106002400822B24B9A60E36C43F0010347
:10501000E364042384F83530002384F83430A36C2F
:105020000BB1204698472368AA4A934253D9583A6D
:105030005268A9498B4248D001F580618B4242D029
:10504000A1F568718B423CD001F580618B4236D06E
:10505000A1F589618B4230D001F580618B422AD065
:10506000A1F568718B4224D001F580618B421ED07E
:10507000A1F589618B4217D001F580618B4210D078
:10508000A1F568718B4209D001F580618B4202D194
:105090004FF480311AE04FF4800117E04FF4803173
:1050A00014E04FF4803111E04FF480310EE04021E4
:1050B0000CE040210AE0402108E0402106E0874959
:1050C00004E0864902E0854900E084490A4214BFB1
:1050D000012200220DE1824A934254D902F5527214
:1050E00012687D498B4248D001F580618B4242D0E5
:1050F000A1F568718B423CD001F580618B4236D0BE
:10510000A1F589618B4230D001F580618B422AD0B4
:10511000A1F568718B4224D001F580618B421ED0CD
:10512000A1F589618B4217D001F580618B4210D0C7
:10513000A1F568718B4209D001F580618B4202D1E3
:105140004FF480311AE04FF4800117E04FF48031C2
:1051500014E04FF4803111E04FF480310EE0402133
:105160000CE040210AE0402108E0402106E05B49D4
:1051700004E05A4902E0594900E058490A4214BF84
:1051800001220022B5E0574A934253D9583A526857
:1051900051498B4248D001F580618B4242D0A1F544
:1051A00068718B423CD001F580618B4236D0A1F50D
:1051B00089618B4230D001F580618B422AD0A1F504
:1051C00068718B4224D001F580618B421ED0A1F51D
:1051D00089618B4217D001F580618B4210D0A1F517
:1051E00068718B4209D001F580618B4202D14FF486
:1051F00080311AE04FF4800117E04FF4803114E061
:105200004FF4803111E04FF480310EE040210CE08A
:1052100040210AE0402108E0402106E02F4904E057
:105220002E4902E02D4900E02C490A4214BF012218
:1052300000225EE0264A126827498B4254D001F5CD
:1052400080618B4242D0A1F568718B423CD001F560
:1052500080618B4236D0A1F589618B4230D001F557
:1052600080618B422AD0A1F568718B4224D001F570
:1052700080618B421ED0A1F589618B4217D001F568
:1052800080618B4210D0A1F568718B4209D001F585
:1052900080618B4202D14FF4803126E04FF48001CF
:1052A00023E04FF4803120E04FF480311DE04FF4D3
:1052B00080311AE0402118E0402116E0402114E03E
:1052C000402112E0054910E004490EE003490CE0DA
:1052D00000600240586402401060024001008000FB
:1052E000B860024058600240AB490A4214BF012234
:1052F0000022002A00F06F815A6912F0800F00F03E
:105300006A815A6922F080025A612368A34A934253
:1053100050D9A2F58962934248D002F58062934247
:1053200042D0A2F5687293423CD002F5806293426B
:1053300036D0A2F58962934230D002F58062934262
:105340002AD0A2F56872934224D002F5806293427B
:105350001ED0A2F58962934217D002F58062934273
:1053600010D0A2F56872934209D002F58062934290
:1053700002D14FF480321AE04FF4800217E04FF46C
:10538000803214E04FF4803211E04FF480320EE0AE
:1053900040220CE040220AE0402208E0402206E0E1
:1053A0007D4A04E07C4A02E07B4A00E07A4A7C4B7A
:1053B000DA6002E17B4A93424FD9A83A934248D03F
:1053C00002F58062934242D0A2F5687293423CD0CB
:1053D00002F58062934236D0A2F58962934230D0C2
:1053E00002F5806293422AD0A2F56872934224D0DB
:1053F00002F5806293421ED0A2F58962934217D0D3
:1054000002F58062934210D0A2F56872934209D0EF
:1054100002F58062934202D14FF480321AE04FF4D9
:10542000800217E04FF4803214E04FF4803211E034
:105430004FF480320EE040220CE040220AE040228D
:1054400008E0402206E0544A04E0534A02E0524A8F
:1054500000E0514A524B9A60AFE0534A93424FD911
:10546000483A934248D002F58062934242D0A2F576
:10547000687293423CD002F58062934236D0A2F526
:105480008962934230D002F5806293422AD0A2F51D
:105490006872934224D002F5806293421ED0A2F536
:1054A0008962934217D002F58062934210D0A2F530
:1054B0006872934209D002F58062934202D14FF4A0
:1054C00080321AE04FF4800217E04FF4803214E08B
:1054D0004FF4803211E04FF480320EE040220CE0B5
:1054E00040220AE0402208E0402206E02A4A04E086
:1054F000294A02E0284A00E0274A2C4BDA605CE0A7
:105500002B4A934256D002F58062934242D0A2F5D4
:10551000687293423CD002F58062934236D0A2F585
:105520008962934230D002F5806293422AD0A2F57C
:105530006872934224D002F5806293421ED0A2F595
:105540008962934217D002F58062934210D0A2F58F
:105550006872934209D002F58062934202D14FF4FF
:10556000803228E04FF4800225E04FF4803222E0C0
:105570004FF480321FE04FF480321CE040221AE0EA
:10558000402218E0402216E0402214E0024A12E0D5
:10559000014A10E0004A0EE0010080005864024019
:1055A00000640240B860024058600240006002405F
:1055B00010600240B44AB54B9A60E36C43F00203BA
:1055C000E364042384F83530002384F83430A36C7A
:1055D0000BB1204698472368AD4A934257D9583AB1
:1055E0005268AC498B424CD001F580618B4246D069
:1055F000A1F568718B4240D001F580618B423AD0B1
:10560000A1F589618B4233D001F580618B422CD0AA
:10561000A1F568718B4225D001F580618B421ED0C7
:10562000A1F589618B4217D001F580618B4210D0C2
:10563000A1F568718B4209D001F580618B4202D1DE
:105640004FF480211EE04FF080711BE04FF4802169
:1056500018E04FF4802115E04FF4802112E04FF460
:1056600080710FE04FF480710CE04FF4807109E01D
:105670004FF4807106E0884904E0874902E08649DA
:1056800000E085490A4214BF012200221BE1834A3F
:10569000934258D902F5527212687E498B424CD01F
:1056A00001F580618B4246D0A1F568718B4240D0F4
:1056B00001F580618B423AD0A1F589618B4233D0EC
:1056C00001F580618B422CD0A1F568718B4225D009
:1056D00001F580618B421ED0A1F589618B4217D004
:1056E00001F580618B4210D0A1F568718B4209D021
:1056F00001F580618B4202D14FF480211EE04FF012
:1057000080711BE04FF4802118E04FF4802115E0F8
:105710004FF4802112E04FF480710FE04FF480715C
:105720000CE04FF4807109E04FF4807106E05A49B3
:1057300004E0594902E0584900E057490A4214BFC1
:1057400001220022BFE0564A934257D9583A526884
:1057500050498B424CD001F580618B4246D0A1F577
:1057600068718B4240D001F580618B423AD0A1F53F
:1057700089618B4233D001F580618B422CD0A1F539
:1057800068718B4225D001F580618B421ED0A1F556
:1057900089618B4217D001F580618B4210D0A1F551
:1057A00068718B4209D001F580618B4202D14FF4C0
:1057B00080211EE04FF080711BE04FF4802118E043
:1057C0004FF4802115E04FF4802112E04FF48071F6
:1057D0000FE04FF480710CE04FF4807109E04FF45A
:1057E000807106E02C4904E02B4902E02A4900E0E0
:1057F00029490A4214BF0122002264E0234A1268A8
:1058000024498B425AD001F580618B4254D0A1F5D6
:1058100068718B424ED001F580618B4248D0A1F572
:1058200089618B4241D001F580618B423AD0A1F56C
:1058300068718B4225D001F580618B421ED0A1F5A5
:1058400089618B4217D001F580618B4210D0A1F5A0
:1058500068718B4209D001F580618B4202D14FF40F
:1058600080212CE04FF0807129E04FF4802126E068
:105870004FF4802123E04FF4802120E04FF4807129
:105880001DE04FF480711AE00100800000600240CA
:10589000586402401060024004008000B86002407A
:1058A000586002404FF4807109E04FF4807106E0C7
:1058B000B54904E0B44902E0B34900E0B2490A4204
:1058C00014BF01220022002A00F07F811A6812F022
:1058D000020F00F07A811A6822F002021A6023682F
:1058E000AA4A934254D9A2F5896293424CD002F558
:1058F0008062934246D0A2F56872934240D002F58E
:10590000806293423AD0A2F58962934233D002F585
:10591000806293422CD0A2F56872934225D002F5A2
:10592000806293421ED0A2F58962934217D002F59D
:105930008062934210D0A2F56872934209D002F5BA
:105940008062934202D14FF480221EE04FF08072B9
:105950001BE04FF4802218E04FF4802215E04FF452
:10596000802212E04FF480720FE04FF480720CE05E
:105970004FF4807209E04FF4807206E0824A04E03E
:10598000814A02E0804A00E07F4A814BDA600EE102
:10599000804A934253D9A83A93424CD002F5806290
:1059A000934246D0A2F56872934240D002F58062DD
:1059B00093423AD0A2F58962934233D002F58062D5
:1059C00093422CD0A2F56872934225D002F58062F2
:1059D00093421ED0A2F58962934217D002F58062ED
:1059E000934210D0A2F56872934209D002F580620A
:1059F000934202D14FF480221EE04FF080721BE0F0
:105A00004FF4802218E04FF4802215E04FF48022FA
:105A100012E04FF480720FE04FF480720CE04FF40C
:105A2000807209E04FF4807206E0574A04E0564A5B
:105A300002E0554A00E0544A554B9A60B7E0564A96
:105A4000934253D9483A93424CD002F58062934234
:105A500046D0A2F56872934240D002F5806293422C
:105A60003AD0A2F58962934233D002F58062934224
:105A70002CD0A2F56872934225D002F58062934241
:105A80001ED0A2F58962934217D002F5806293423C
:105A900010D0A2F56872934209D002F58062934259
:105AA00002D14FF480221EE04FF080721BE04FF4D1
:105AB000802218E04FF4802215E04FF4802212E09B
:105AC0004FF480720FE04FF480720CE04FF480725C
:105AD00009E04FF4807206E02B4A04E02A4A02E013
