:020000040800F2
:1000000000000220590200085D02000839AC000817
:1000100055AC000859AC00085DAC000800000000B9
:10002000000000000000000000000000A590000893
:1000300041030008000000003591000861AC000891
:10004000C58C0008C58C0008C58C0008C58C00084C
:10005000C58C0008C58C0008D5AD0008C58C00080B
:10006000C58C0008C58C0008E1AD00086DAC000827
:100070009DAC000861AD0008C58C0008C58C000867
:10008000CDAC000801AD0008C58C000800000000E0
:10009000000000000000000000000000EDAD0008BE
:1000A000C58C0008C58C0008C58C0008C58C0008EC
:1000B000C58C0008C58C0008C58C0008C58C0008DC
:1000C000C58C0008C58C0008C58C0008C58C0008CC
:1000D000C58C0008C58C0008C58C00080000000015
:1000E000C58C0008C58C0008C58C00080000000005
:1000F00000000000000000000000000099AD0008B2
:1001000000000000C58C0008C58C0008C5AD0008C3
:1001100000000000000000000000000000000000DF
:10012000C58C0008C58C0008C58C0008C58C00086B
:10013000C58C000800000000000000000000000066
:10014000000000000000000000000000C58C000856
:10015000C58C0008C58C0008C58C0008C58C00083B
:10016000C58C0008C58C00080000000000000000DD
:10017000000000000000000000000000000000007F
:1001800000000000C58C0008000000000000000016
:10019000C58C0008C58C000800B583B008F0F8FCD9
:1001A000224B234A03E011681960043304322149C9
:1001B0008B42F8D3204B02E000221A6004331F4A1E
:1001C0009342F9D308F0F2FC01A8694608F0BAFCA2
:1001D0001B4D1C4B5D1BAD10002404E0184B53F865
:1001E000243098470134A542F8DC174D174B5D1BAE
:1001F000AD10002404E0144B53F824309847013428
:10020000A542F8DC019800990AF016F90546104C51
:10021000104B1C1BA41004E0013C0D4B53F8243080
:100220009847002CF8DC284608F066FC0000002007
:10023000301C01080C0B0020100B0020606A00200D
:100240005C0300085C0300085C0300085C03000812
:100250005C0300085C0300083C480047FEE700BF61
:100260001EF0040F0CBFEFF30880EFF30980714616
:10027000374A10472DE9F04182B007468846084BBF
:100280005D6B9C6B9E6A074808F064FCCDF80080AB
:10029000384631462A46234608F09CFCFEE700BF5C
:1002A00000ED00E04C190108FEE700BF1EF0040F4E
:1002B0000CBFEFF30880EFF309807146254A104721
:1002C0002DE9F04182B007468846084B5D6B9C6B78
:1002D0009E6A074808F03EFCCDF80080384631465B
:1002E0002A46234608F076FCFEE700BF00ED00E05A
:1002F0005C1901081EF0040F0CBFEFF30880EFF348
:1003000009807146144A10472DE9F04182B0074632
:100310008846084B5D6B9C6B9E6A074808F01AFC88
:10032000CDF80080384631462A46234608F052FC74
:10033000FEE700BF00ED00E068190108FEE700BF1E
:10034000FEE700BFFEE700BF70470000990100080C
:0C03500075020008C10200080903000843
:1003600008B50A2000F018F8034620B14FF4806168
:10037000024AC2F88010184608BD00BF00E100E044
:1003800018B14FF48062014B1A60704700E100E041
:1003900008B508F023FD08BD034B1B68034201D0DC
:1003A0000120704700207047003C014000B583B039
:1003B000104B1A6C42F400421A641B6C03F40043A5
:1003C0000193019B0C4B0D4A1A6000229A604FF476
:1003D00082715960DA601A615A614FF48021996123
:1003E000D8611A620722DA62184607F0BDFA03B034
:1003F0005DF804FB0038024060680020003C0040CB
:1004000070B586B0012401940294022603960C4D27
:10041000284601A906F036FD28462146224606F068
:100420000FFE304608F014FD0194032302930023CD
:100430000393284601A906F025FD06B070BD00BF54
:10044000000002402DE9F04700EB0208B8F5805F9C
:1004500031D81E46154604468946FFF781FFDFF86E
:1004600070A049462246074650460DF0A1FB314692
:100470002A460AEB04000DF09BFB114810210022D4
:1004800006F0DEFD1FFA88F251460E4807F0AEFA7C
:100490000D4A5368002BFCD10C4A93689B07FCD58E
:1004A00010210122064806F0CBFD3846FFF768FF11
:1004B0000020BDE8F0874FF0FF30BDE8F08700BFB7
:1004C0000000024060680020B8600240003C00402C
:1004D000100B00202DE9F84386181FFA86F8B8F5AE
:1004E000805F04462CD889461D46FFF739FF10214E
:1004F00000220746144806F0A3FD144A1448494652
:10050000434607F0D9FA134A5368002BFCD1124A2C
:100510009368DB07FCD4B44207D20C4A135D05F89C
:10052000013B0134A4B2B442F8D3102101220648A1
:1005300006F086FD3846FFF723FF0020BDE8F8836C
:100540004FF0FF30BDE8F88300000240100B0020A0
:100550006068002040600240003C0040022902D058
:10056000052909D011E0022A02D10E4BDA6911E007
:100570006AB90C4B1A6A0DE0022A02D1094B5A6A79
:1005800008E032B9074B9A6A04E0002202E0002238
:1005900000E0002200F001031B0122FA03F080B208
:1005A000704700BF141B0020014B987B704700BFB1
:1005B000141B0020014BD3F884007047141B00204B
:1005C000044B5B5C00EB4300034B03EB8000006BD0
:1005D000704700BFE4120108141B0020013803011A
:1005E000024A9069D84080B2704700BF141B0020B7
:1005F00000B583B0E1B160F03F007F298DF80400C1
:100600000DD961F07F00C9098DF805008DF806103D
:10061000032001A9FFF716FF03B05DF804FB8DF876
:100620000510022001A9FFF70DFF03B05DF804FBE0
:1006300060F07F008DF8040001A90120FFF702FFA0
:1006400003B05DF804FB00BF08B51318B3F5806F65
:1006500007DC0B461146821E0920FFF7C9FF002068
:1006600008BD4FF0FF3008BD30B583B00725062424
:1006700041F60601022201AB2E208DF804508DF8C0
:100680000540FFF7B5FF03B030BD00BF00B583B034
:1006900002AB012203F8012D03210D20FFF7A8FF73
:1006A00003B05DF804FB00BF00B583B0E1B140F0DA
:1006B00040007F298DF804000DD961F07F00C90941
:1006C0008DF805008DF80610032001A9FFF702FF41
:1006D00003B05DF804FB8DF80510022001A9FFF7B7
:1006E000F9FE03B05DF804FB8DF8040001A90120B8
:1006F000FFF7F0FE03B05DF804FB00BF10B40C463A
:1007000003461146112022465DF8044BFFF7CCBF8B
:100710000346002117200522FFF7C6BF034600212C
:1007200015200522FFF7C0BF00B5042283B080B2B8
:1007300089B20DEB0203FFF7B7FF20B14FF0FF3096
:1007400003B05DF804FB9DF807009DF806109DF8C6
:1007500005209DF80430A0F5807001EB002002EB2D
:10076000002003EB002003B05DF804FB08B5002077
:100770000146FFF7D9FF08BD00B583B080B289B24A
:10078000022201ABFFF790FF20B14FF6FF7003B0DC
:100790005DF804FB9DF805009DF8043003EB002094
:1007A00080B203B05DF804FB30B583B01446150A7F
:1007B00089B2022201AB80B28DF804408DF8055059
:1007C000FFF716FF03B030BD08B50246034B988211
:1007D0002E2041F60401FFF7E7FF08BD141B00209F
:1007E00008B50246034BD88218200021FFF7DCFF32
:1007F00008BD00BF141B0020F0B5144683B0170AD3
:10080000160C150E042289B20DEB020380B28DF88E
:1008100004408DF805708DF806608DF80750FFF7DD
:10082000E7FE03B0F0BD00BF10B504462A200B213F
:1008300001222346FFF7DCFE1E2000216268FFF73D
:10084000DBFF10BD08B5054B1A69104340EA815221
:1008500000210820FFF7D0FF002008BD141B002056
:1008600010B5002104460420FFF75EFF54B9094B80
:100870000340094C23631A4604200021BDE81040C0
:10088000FFF7BABF054B04F4FF7444F001040340C2
:100890002343EEE7FEFF47F0141B002001FE47F064
:1008A00030B5022183B00446050A0A4601AB032095
:1008B0008DF804408DF80550FFF79AFE03B030BD67
:1008C00030B583B00446050A0021022201AB0320A3
:1008D0008DF804408DF80550FFF78AFE03B030BD57
:1008E0000346002101200822FFF782BE30B583B005
:1008F00002AC050A04F8040D0421234602222D202F
:100900008DF80550FFF774FE0325234606210122CA
:100910002D208DF80450FFF76BFE234601220024A2
:1009200006212D208DF80440FFF762FE0A212D20BC
:10093000FFF7FAFE03B030BD30B583B002AC002340
:1009400004F8043D02252346022101222C20FFF752
:100950004FFE2346294601222C208DF80450FFF734
:1009600047FE03B030BD00BF10B504210446362059
:10097000FFF7DAFE3CB920F4006204213620BDE81E
:100980001040FFF739BF40F4006204213620BDE873
:100990001040FFF731BF00BF30B583B002AB6D220E
:1009A000044603F8052D2E2040F606010122FFF72C
:1009B0001FFE74B90725162441F60601022201AB79
:1009C0002E208DF804508DF80540FFF711FE03B07E
:1009D00030BDFFF749FE03B030BD00BF0A4B1A6BB4
:1009E00040B983F82D0042F48052042000211A639C
:1009F000FFF702BF012122F4805283F82D1004205A
:100A000000211A63FFF7F8BE141B002000B50B4B42
:100A100083B01A6B70B922F000521A6302AB120E47
:100A200003F8012D032101220420FFF7E1FD03B0AB
:100A30005DF804FB42F000521A63EFE7141B00203C
:100A400010B5002104461A20FFF76EFE020DC4F314
:100A50001304120522431A200021BDE81040FFF7BD
:100A6000CBBE00BF024BC3F88800C3F88C107047A0
:100A7000141B0020F0B5044683B001AD14F001064C
:100A80002B464FF0260025D131460222FFF70CFEFF
:100A90009DF805303146262023F0140602222B460D
:100AA0008DF80560FFF7A4FDA30711D50F242A21B7
:100AB00001222B4636208DF80440FFF799FD0024D3
:100AC0002B4636202A2101228DF80440FFF790FDA5
:100AD00003B0F0BD00210222FFF7E6FD9DF80520DE
:100AE00002AB22F03C02012142F0140203F8032D74
:100AF00026200A46FFF77CFD2B46022101223620E4
:100B0000FFF7D2FD9DF804602B4666F07B060221BC
:100B1000012236208DF804601027FFF769FD0126B9
:100B20002B462821022236208DF804708DF80560AE
:100B3000FFF75EFDB8E700BF10B582B0044601AB19
:100B4000362000210222FFF7AFFD0D2C0ED8DFE882
:100B500004F0252E380D0D0D0D41500D0D075D1CB7
:100B60009DF8053043F002038DF8053001AB0021FC
:100B700001223620FFF73CFD01210A460DF1050355
:100B80003620FFF735FD02B010BD9DF8043023F08C
:100B9000300343F020038DF80430E7E79DF804307C
:100BA00023F0030343F001038DF80430DEE79DF8E2
:100BB0000530002223F001038DF805308DF8042064
:100BC000D4E79DF8043023F0030343F002038DF8CB
:100BD0000430CBE79DF804309DF8052023F04C034A
:100BE00043F0480362F07F028DF804308DF8052051
:100BF000BCE79DF804209DF8053022F04C0203F07C
:100C00007F038DF804208DF80530AFE79DF805309F
:100C100023F002038DF80530A8E700BF70B582B05D
:100C200002AB012403F8084D0021032502223620DF
:100C30008DF8015080260D46FFF7DAFC06210222CE
:100C400001AB2D208DF804508DF80560FFF7D0FC26
:100C5000204608F0FDF82046FFF76EFF284602B058
:100C600070BD00BFF0B583B0064604238DF8073091
:100C70006A4C002384F87C3084F82D30C4F880302E
:100C800084F86930C4F8843084F87D30C4F8883042
:100C9000C4F88C30FFF76AFD2060614B984240F049
:100CA000A9800020FFF748FF2420002101220DF138
:100CB0000703FFF79DFC1E20FFF718FE0546C0F353
:100CC0000722A27306F008039BB223B10420FFF7AA
:100CD0000DFEC4F88400514B93F884304BB102AB45
:100CE000022203F8022D2D2012210122FFF780FCA1
:100CF00003E00022494BC3F884200620FFF7F6FDED
:100D0000464C60600720FFF7F1FDA0600023A3615F
:100D1000E36123626362A36206F002039BB2D3B174
:100D2000A37B012B04D81C20FFF7E0FDA06112E09B
:100D3000032B10D80D20FFF7D9FD384CE0610E20B1
:100D4000FFF7D4FD20620F20FFF7D0FD60621D2069
:100D5000FFF7CCFDA06216F0010F0ED005F01F05C5
:100D60002E4B83F82C50002D47D12E4B1B7803F0CF
:100D70001F032A4A82F82C303FE02A4B1B7803F0ED
:100D80001F03264A82F82C3037E02046FFF7AEFDDD
:100D900045F8040F0134BD42F7D104E0002243F8C6
:100DA000042F8B42FAD106F40066B6B216B1FFF7F3
:100DB00035FF0AE036200521FFF7DEFC20F4007045
:100DC00082B236200521FFF7EFFC0120FFF7B4FEC9
:100DD00004200021FFF7A8FC104B186326200021F7
:100DE000FFF7A2FC40F4A02226200021FFF704FD1B
:100DF000002011E04FF0FF300EE006F004039BB23C
:100E000023B9064901F130036031C7E7034F07F109
:100E1000300560371024B8E703B0F0BD141B002084
:100E20003001CADE0C13010870B582B002AB032694
:100E300004460125344003F8085D002102223620D3
:100E400064018DF801602C43FFF7D2FB00261221CC
:100E5000022201AB2D208DF804408DF80560FFF7CC
:100E6000C7FB2846FFF768FE02B070BD10B5002032
:100E700082B0FFF761FE0421002402220DEB010382
:100E800036208DF804408DF80540FFF7B1FB02B025
:100E900010BD00BF024601210A20FFF7ADBC00BF14
:100EA00070B500F0020282B0044602F0FF0322BBDC
:100EB0000DF1070614F0010412D043F006040021DE
:100EC000012233460D208DF80740FFF791FB0F20DC
:100ED0000321FFF751FC10F481601FD102B070BDF7
:100EE00043F002052146334601220D208DF80750BC
:100EF000FFF77EFB204602B070BD02AE802306F8ED
:100F0000013D0021334601220D20FFF771FB0D4A00
:100F10009DF80730012182F87D10CBE7334601228E
:100F2000002140240D208DF80740FFF761FB0020D1
:100F3000FFF71AFD034B002283F87D204FF0FF30AE
:100F4000CCE700BF141B002000B583B001220DF1D7
:100F500007030F200321FFF7A7FB9DF8073023F0BD
:100F60007F0203F04003B2EB430F01D0FFF78EFB8B
:100F700003B05DF804FB00BF70B582B002AC402343
:100F800000210E2004F8013DFFF7CEFB0646FFF7D7
:100F9000E7F9002105460A460E20FFF72DFC2346FF
:100FA000002101220D20FFF723FB0021094A0F2019
:100FB000FFF722FCFFF7C8FF324600210E20FFF7A3
:100FC0001BFC2846FFF7DCF9034B002283F87D2049
:100FD00002B070BDF8FF2724141B002070B5054631
:100FE00082B0FFF7B1FF15F0010414D000242146B0
:100FF00001AB032602220D208DF804408DF8056018
:10100000FFF7F6FA31460F20FFF7B6FB10F48160C8
:101010000FD102B070BD01252146022201AB0D2087
:101020008DF804408DF80550FFF7E2FA204602B033
:1010300070BDFFF7A1FFAB0703D44FF0FF3002B044
:1010400070BD01AB214601250D2002228DF8044020
:101050008DF80550FFF7CCFA4FF0FF30D9E700BF0D
:1010600070B582B004460DF1030304200321012270
:10107000FFF71AFB9CB9154E9DF80340326B0DF13A
:10108000030322F0805524F01004032101220420E0
:1010900035638DF80340FFF7ABFA02B070BD0B4E1D
:1010A0008DF80440250A022201AB0C2000218DF8A6
:1010B0000550FFF79DFA9DF80340326B0DF10303D5
:1010C00042F0805544F01004DFE700BF141B0020FD
:1010D00030B583B00446050A2421022201AB272043
:1010E0008DF804408DF80550FFF782FA03B030BD4B
:1010F00070B50E460546FFF733F9002104460E2071
:10110000FFF712FB56B920EA05020E200021FFF777
:1011100073FB2046BDE87040FFF732B940EA050294
:10112000F3E700BF30B583B002AC022304F8013D01
:10113000054623462F2000210122FFF759FA45B129
:10114000012523462A462F2000218DF80750FFF75E
:101150004FFA03B030BD00BF10B582B002ACE0233F
:1011600004F8013D0321234601223620FFF740FA0F
:1011700023460321F024012236208DF80740FFF793
:1011800037FA02B010BD00BF2DE9F041BF4EC04D8F
:10119000C04882B04FF4806105F058FFD6F8008057
:1011A00095F82D3085F86E30002708F10103394697
:1011B0000F20336085F86870FFF7B6FA3368B64AD7
:1011C0006866092B044642F828004FF48061B14854
:1011D000C8BF376005F03AFFB04B9C4200F0BD80BD
:1011E000AC484FF4806105F031FF62056BD595F88E
:1011F0002D60A74FF6B1A7484FF4806105F026FF98
:10120000620434D514F4801700F0BB80FFF7B4FEFD
:10121000FFF7A2FF2B6B9E489D0000F11881D0F8CC
:101220008C30032280F868200BB16430984702B0FC
:10123000BDE8F08104F46063B3F5606FDBD0FFF7C5
:101240009BFEFFF789FF3B6B9B0004F0F80400F165
:101250003981D7F88C30032287F8682013B107F161
:10126000640098478B484FF4806105F0EFFE14F05E
:10127000800153D114F400323FD1894A2240002A20
:10128000D5D00F200021FFF7B7FA2B6B002285F88D
:101290007D209A0040F12281FFF75EFFE30400F118
:1012A000E380270400F11D81E60340F11E8109233C
:1012B00085F86830D5F88C30002BB8D0794898473D
:1012C00002B0BDE8F08173484FF4806105F0BEFEC6
:1012D0006304CCD52B6B990040F18980FFF73CFF6C
:1012E000D5F88C300021032285F87D1085F8682020
:1012F000002B9CD06B489847E2E70F20FFF77CFA61
:10130000D5F88C30042285F868200BB165489847E1
:10131000002385F87D3002B0BDE8F081F8220F206F
:101320000021FFF769FA95F86920594B52B193F8FB
:101330002D20002183F8691022B993F87D300BB17C
:10134000FFF71AFED5F88830012285F86820002BB7
:101350003FF46DAF53489847B2E7FFF70DFEFFF734
:10136000FBFE4C484FF4806105F070FE49484FF495
:10137000806105F06BFE4A4A2240002A3FF457AFD5
:101380007FE739461020FFF7F7F9474B0646394605
:1013900011200222FFF788F96B7B5BB3C6F30906C5
:1013A00014F00801A5F86A60394A07D092F86C3049
:1013B00003F0200303F0FF00002B59D085F86910DB
:1013C000002795F82D10324E022385F86830A1B918
:1013D00004F4DE423A430F20FFF70EFAD6F88C30C1
:1013E000002B3FF424AF06F1640098471FE7FFF796
:1013F000C3FD73E706F07F06D2E7012632460DF102
:1014000002030F2003218DF80360FFF74DF99DF8CB
:10141000023023F07F0203F04003B2EB430F6AD0A7
:101420002B6B13F0005441D0D5F88C300BB11D4814
:1014300098470F200221FFF79FF9C4061ED5FFF73A
:101440009BFDFFF789FE2B6B98007FF5F0AE002423
:1014500001252146022201AB0D208DF804408DF8B4
:101460000550FFF7C5F8E2E6082385F8683021E764
:1014700082F8690082F87D000827A2E70321012293
:101480000DEB01030D20FFF7B3F8D0E6101B002091
:10149000141B002000040240E459002003008000D7
:1014A00000902724781B0020801B00200126214665
:1014B000022201AB0D208DF804408DF80560FFF786
:1014C00097F8B1E701273146022201AB0D208DF8D4
:1014D00004608DF80570FFF78BF8C3E6FFF74CFD4D
:1014E000DAE6032385F86830E4E660010BD50A23C9
:1014F00085F86830DEE604F4C0423A4300210F204C
:10150000FFF77AF98CE7A102EBD50B2385F8683059
:10151000D0E600BF30B583B000248DF80040FFF75F
:10152000A5FC214601AB02222C208DF804408DF849
:101530000540FFF75DF86B46062101222C20FFF7DE
:1015400057F8FFF7F9F96B46032101223620FFF720
:10155000ABF89DF800506B460321012205F00F0502
:1015600036208DF80050FFF743F8012007F070FC9B
:101570009DF800506B4665F00F05032101223620CF
:101580008DF80050FFF734F8024B83F87D4003B02C
:1015900030BD00BF141B002010B582B00DF1070351
:1015A00004460E2101222B20FFF77EF89DF807202C
:1015B00004F01F0422F01F0214430DF107030E2153
:1015C00001222B208DF80740FFF712F802B010BD62
:1015D0002DE9F04383B004460F46057842798E4BDF
:1015E00033F812904678013E8C4BC3F88060042D8E
:1015F00006D0072D14BF4FF000084FF0010801E09E
:101600004FF001082278854B1A73E3793BB9834A7E
:10161000136B43F4800313634FEAD90904E07F4A54
:10162000136B23F480031363237A7C494B73237A6F
:101630001B0403F440330A6B1A430A63042000219D
:10164000FFF7DAF82E2042F604014A46FFF7ACF81D
:10165000F6B23046FFF7A0F9714B13F8059009EB8D
:1016600089032B2007210522DFF8D0E17344FEF720
:10167000BFFF2B200E2101226A4BFEF7B9FF282065
:101680000B210122684B4344FEF7B2FF28200C21B6
:10169000664B53F82920FFF7AFF8E279A37903EB03
:1016A000420327200221624A32F81320FFF77CF818
:1016B000272004215F4B33F81620FFF775F8E379F4
:1016C0002BB9272006216422FFF76EF822E0A378C9
:1016D000042B0FD110220DF1080808F8012D272046
:1016E0000621FFF761F82720262101224346FEF755
:1016F0007FFF0FE00DF10808282308F8013D27209F
:1017000006212022FFF750F82720262101224346F8
:10171000FEF76EFFE37803EB860327200821464A95
:1017200052F82320FFF768F8628941F241039A4298
:101730000BD027202021FFF737F863892BB927200A
:10174000202141F24102FFF72FF8DFF8F480232037
:101750000C21D8F80020FFF74FF808EB46082320AB
:101760000421B8F80420FFF71FF8A3795BB1E379EF
:10177000212000210122DFF8CCE07344FEF738FF7E
:101780000122032101E000221146607905F00F03D8
:1017900043EAC0632D01EDB21D4363789B0403F45B
:1017A00040231D4323799B0503F0F8631D4345EA5D
:1017B00001551F20002145EA4242FFF71DF8E2795A
:1017C000520342F400436178A2780A4343EA02429A
:1017D000124B1A6108200021FFF70EF817F0010FD5
:1017E00004D00E4B93F82C00FFF7D6FE17F0020F33
:1017F0000DD03601094CA069F040C0F34E00FEF751
:10180000E3FFA069F040C0F34E00FEF7E9FF0020BF
:1018100003B0BDE8F08300BF28130108141B0020AB
:10182000E41201080C1301085C13010810130108ED
:10183000A8120108D4120108EC120108B412010820
:10184000D8120108E012010810B582B00446FFF773
:101850000DFB00214FF4FF122820FEF7CDFF0F4AA9
:1018600000212820FEF7C8FF0220FFF765F90D20B0
:10187000FFF762F9032C8CBF2246042200210A20C4
:10188000FEF7BAFF02AB102203F8042D2421012237
:101890002F20FEF7ADFE02B010BD00BF00FF5F00BD
:1018A00038B504460D4610EE100A0BF081F8002200
:1018B000334B0BF0D1F80BF069FBFF2800DDFF2064
:1018C000012D26D1042C01D0072C10D12D4B195DF0
:1018D000002300E0013301EB011292001A442A4C6C
:1018E000A25C8242F6DB1C3B07EE903A36E0274BC7
:1018F000195D002300E0013301EBC10201EB82021C
:101900001A44234CA25C8242F5DB173B07EE903A67
:1019100024E0042C01D0072C11D11A4B195D0023AF
:1019200000E00133C1EB0112C1EB82021A44194CF1
:10193000A25C8242F5DB1E3B07EE903A0EE0134BB1
:101940001C5D002300E001331A2202FB043212491D
:101950008A5C8242F7DB113B07EE903AF8EEE77AB9
:1019600017EE900A0BF024F803A3D3E900230BF041
:1019700073F841EC100B38BD7B14AE47E17A843F1D
:101980000000104060130108FC130108EC1401086A
:1019900068130108F414010884140108412380F835
:1019A0006030882380F86130B0F8903080F8633080
:1019B0001B0A80F86430002380F86230704700BF53
:1019C00038B504460D46B0F88C000021FEF73AFF0A
:1019D000012D02D1A06DFFF75DFA94F8A80028430D
:1019E000C0B2FFF75DFA30B1D4F874320133C4F8F5
:1019F0007432012038BDFEF7CBFCC4F8FC0601238D
:101A000084F8FB36002038BD2DE9F04705460F4627
:101A1000924698464FF000094C461CE0A60055F847
:101A200024100F4B994203D0204600F0C5FF00E080
:101A3000002001280BD00123A34098F8002022EABF
:101A4000030388F80030204601F03EF800E0D1465C
:101A5000034BAB510134A742E0DC4846BDE8F087B8
:101A6000FFFFCDAB2DE9F04F91B004460D46437812
:101A7000082B00F21485DFE813F009009E00C9006E
:101A8000300112057801EC01FF0180000378012B81
:101A900005D0002B61D0022B2ED000F000BD182005
:101AA000FEF7DEFEB4F89000FEF7FAFE04F18305BF
:101AB000284604F1260102220CF07AF82846FEF7A7
:101AC0000FFFE08CC4F88802FEF7FAFE0223A37031
:101AD0000123637084F8AA30002384F8BC30C4F872
:101AE0000431FEF767FD2046FFF758FFFEF750FC74
:101AF000C4F8B00000F0D3BC00F18305284604F11F
:101B0000260102220CF054F82846FEF7E9FEB4F84C
:101B10009000FEF7C5FEE08CB54B1B68034084F8CF
:101B20008230FEF7CDFEE38CB3F5004F02D10123E6
:101B300084F890320020FEF793FE0020FEF780FF2D
:101B4000062363700020FFF78BFA0020FFF7C0FA2E
:101B50002046FFF723FF00F0A2BC0020FEF780FE26
:101B60000020FEF76DFF0020FFF77AFA0020FFF754
:101B7000AFFA0623637000F092BC0A2002F01AF953
:101B80000378042B03D00123636000F088BC00239A
:101B9000636084F8AA30A2786270A370FEF7F8FB45
:101BA000C4F8B000032007F053F902F04FFA02F036
:101BB0003BFA00F074BC8378022B22D190F8AA2063
:101BC000FAB190F8BC30013380F8BC300223436096
:101BD0000823437000F5D6701021012204F1BA03E6
:101BE000FFF712FFC4F8800294F8BA3084F8BB30D3
:101BF000002384F8BA30FEF7CBFBC4F88C0200F067
:101C00004EBC63700023A37000F049BC0378012B25
:101C100002D190F8BC2001E090F8E52084F86A2019
:101C2000012B01D1812300E0712384F869300D205C
:101C3000A4F88C0094F88E305A1C84F88E2084F816
:101C4000623094F8833084F8673094F8843084F8F4
:101C50006830FF2384F8653084F8663004F1600151
:101C60000022FEF7F1FCC820FEF7EAFE2378012BE4
:101C70000FD194F8BC302344002283F801271023AD
:101C800084F8A930B4F85000000180B2FFF7E8F9F9
:101C90000EE094F8E5302344002283F80127022364
:101CA00084F8A930B4F85000400080B2FFF7D8F9AA
:101CB000002184F8BA1084F8B910022584F8A850DD
:101CC000B4F88C00FEF7BEFD2846FFF7E9F80523BF
:101CD0006370E57001236360E1E30378012B02D1B7
:101CE00090F8BC2001E090F8E52084F86A20012BF0
:101CF00002D194F8BA2001E094F8B92084F8C52004
:101D0000012B01D1822300E0732384F8693068201D
:101D1000A4F88C0094F88E305A1C84F88E2084F835
:101D2000623004F160010022FEF78EFC002384F88B
:101D3000A83020460121FFF743FE50B12378012B44
:101D400003D163700223A370A9E3204600F0EAFFE9
:101D5000A5E3052363700323E3702378012B01D1EE
:101D600084F8AA300123636099E30B2002F022F883
:101D70000378012B0BD03BB1042B03D1012384F852
:101D8000B83001E0012363600123636087E300232F
:101D90006360E378032B0AD12378012B03D16370AE
:101DA0000223A3707BE3204600F0BCFF51E094F8CF
:101DB000B820012A08D1204600F0C4FF002384F88F
:101DC000B83084F8A8306AE3D0E90201C4E92601FA
:101DD000022B36D12378012B0ED1D4E90C23121813
:101DE0004B410448FF2102400B40CDE90E230DE09A
:101DF0002862002000FEFFFFD4E90E2312184B4199
:101E0000AF48FF2102400B40CDE90E23DDE90E0172
:101E1000030A43EA0163A365A28B002312184B4116
:101E200003F0FF0310A961E9022304F1C0000522B9
:101E30000BF0BEFE04F16B0004F1980105220BF0DB
:101E4000B7FEE3780B2B01D10423E3700623637004
:101E5000002594F8A8301BB90020FFF7BFF802E076
:101E6000002384F8A83023780BB101236360072393
:101E70006370002D00F01383022D03D0042D00F0B9
:101E8000F68205E30F2001F095FF054600238DF84B
:101E900030308DF831308DF832308DF833308DF8A8
:101EA00034308DF835308DF836308DF837308DF888
:101EB00038308DF839308DF83A308DF83B308DF868
:101EC0003C308DF83D308DF83E308DF83F3084F851
:101ED000AB30437F03F0CC038C2B27D002D8882B68
:101EE00034D043E0C82B11D0CC2B3FD10CA805F146
:101EF000290108220BF05CFE0EA805F12101082241
:101F00000BF056FEAA461AF8316F30E00CA805F126
:101F1000230108220BF04CFE0EA805F1210102223C
:101F20000BF046FEAA461AF82B6F20E00CA805F12C
:101F3000290102220BF03CFE0EA805F12101082226
:101F40000BF036FEAA461AF82B6F10E00CA805F12C
:101F5000230102220BF02CFE0EA805F12101022222
:101F60000BF026FEAA461AF8256F00E0002694F82A
:101F7000AA303BB923782BB9062363700020FEF703
:101F80005FFD8CE29DF830E04E4B1A680EEA0207C6
:101F9000A6F17003122B00F25D82DFE813F0480017
:101FA000130048001B015B025B025B025B025B02E9
:101FB0005B025B025B025B025B025B025B025B0239
:101FC00013001B01D5E90201C4E92801812E07D1C4
:101FD00002EA0E039AF80120234483F8BD2004E0AE
:101FE0009AF80130274487F8E630E28C48F2010382
:101FF0009A420CD19DF831304EEA0323B3F5004FDD
:1020000005D1AA69B4F8F8301344C4F80031AB78AC
:102010000C2B04D1052363700923E3701FE20E2B00
:1020200002D1072363701AE20623637017E29AF85D
:1020300007300133DFB29DF831304EEA0323B3F5A8
:10204000004F0DD12378012B0AD19AF802209AF87B
:10205000013003EB02231BB2C4F804310023E36216
:10206000AB780C2B04D1052363700A23E3702EE0B8
:102070000E2B2CD02378012B04D194F8BA2012F027
:10208000010F11D1E28C48F201018A4204D194F887
:10209000B91011F0040F07D1B2F5004F07D194F831
:1020A000B92012F0020F02D0032363700FE0012B5E
:1020B0000AD163700222A27084F8AA3007E000BF40
:1020C00000FEFFFF28620020204600F02BFE702E4D
:1020D00037D194F8BC30BB4221D19DF83000C94EB5
:1020E0003368034004EB830000F5D6700AF1030166
:1020F00004220BF05DFD9DF8302033681A4004EB9C
:102100008203D3F8AC11C04B994200F0A88101239F
:10211000934094F8BA20134384F8BA309FE19DF8B5
:102120003020B84B1B68134004EB8302D2F8AC118B
:10213000B54A914200F0938104EB8303C3F8AC21CC
:102140008DE194F89032002B00F0898194F8E5300D
:10215000BB4240F0848184F8E630234493F9013790
:10216000032B25D19DF830009DF838301844A54B3D
:102170001B68184004EB800000F50B700AF10301A6
:1021800004220BF015FD04F50B701021022204F15E
:10219000B903FFF739FCC4F8800294F8B93084F829
:1021A000BB30002384F8B930AB69C4F88C3256E1F7
:1021B0009DF830009DF838301844924B1B68184049
:1021C00004EB800000F50B700AF1030104220BF010
:1021D000EFFC44E100200021CDE90601CDE9080132
:1021E000CDE90A019AF85C0094F8821001EB810BAA
:1021F0000BF1070B5FFA8BFB822E0BD102EA0E026A
:10220000224492F8BD209AF801309A4202D0062367
:10221000637024E1732E11D1E31993F8E6209AF844
:1022200001309A4207D194F8903223B9E28C48F2F7
:1022300003039A4202D10623637010E1E28C48F254
:1022400001039A4209D19DF831304EEA0323B3F5D8
:10225000004F02D1012384F8AC30C4F88422084135
:1022600010F0010F00F08E80D5E902890023A365EC
:1022700008A80AF1020105220BF09AFC0AA80AEB51
:102280000B0105220BF094FC06A80AF15701052268
:102290000BF08EFCDDE90801DDE90A23121A63EB7D
:1022A0000103CDE90023D4E926ABD4E92823BAEB16
:1022B00002026BEB0303104603F0FF01CDE90201BC
:1022C000B8EB0A0869EB0B0909F0FF09DDE9062301
:1022D000DDE90AABB2EB0A0A63EB0B0B0BF0FF0B69
:1022E000DDE9002303F0FF03104619460AF086FBE0
:1022F000CDE90001404649460AF080FB8046894608
:10230000DDE9000142464B460AF0A6FBCDE9040197
:10231000504659460AF072FB82468B46DDE90201BF
:102320000AF06CFB02460B4650465946CDE90223A3
:102330000AF092FB02460B46DDE904010AF0D8F9E7
:10234000CDE9040140464946DDE902230AF0D2F90D
:1023500080468946DDE9000152465B460AF0CAF92B
:1023600002460B46404649460AF0C4F902460B466F
:10237000DDE904010AF09AFC0AF008FE80464FEA03
:10238000E07903E0DFF880804FF00009822E3DD134
:102390009DF830309DF8312003EB0222C4F88822EA
:1023A000184B1B68134004EB8303C3F80C8104F53E
:1023B000D6701021012204F1BA03FFF725FBC4F8FF
:1023C000800294F8BA3084F8BB30002384F8BA3025
:1023D0000D4A0023994508BF90450FD09DF8300065
:1023E00094F8821000F056FB94F8823001229A4053
:1023F00084F8BA2004EB8303C3F8AC81AB69C4F85A
:102400008C320FE028620020FFFFCDAB9DF830300A
:102410009DF8312003EB0223C4F8883204EB8707D0
:10242000C7F8EC8194F80027A31893F8013713F04C
:10243000800F08D15B42DBB2A11881F8013713B9D4
:10244000FF2381F8013701F001FE01F0EDFD0623C5
:10245000637004E0062363700020FEF7F1FA2B7F1F
:1024600013F0200F1BD0102001F0A4FC17E0112066
:1024700001F0A0FC83780C2B04D1052363700B239F
:10248000E3700CE00F2B0AD1204600F05BFC06E065
:102490000DB10123636063680BB901236360606859
:1024A00011B0BDE8F08F00BF2DE9F8432DED028B90
:1024B00004469FED9B0B08F0B3FC51EC100B0AF0A7
:1024C00065FD00EB4000000107EE900AF8EEE77AA8
:1024D000DFED998A77EEA88A9FED930B08F0A0FCB8
:1024E00051EC100B0AF052FD00EB40004000C00020
:1024F000924BDB7B83B99FED928A68EE888ADFED91
:10250000917A78EEA78A07EE900AF8EEE77A27EE3E
:10251000888ABDEEC88A22E0012B10D19FED8A8AFD
:1025200068EE888ADFED897A78EEA78A07EE900A4E
:10253000F8EEE77A27EE888ABDEEC88A0FE09FEDB5
:10254000848A68EE888ADFED817A78EEA78A07EEC2
:10255000900AF8EEE77A27EE888ABDEEC88A7D4AAF
:10256000D35C764A927A043A302A1AD8DFE802F02D
:102570002E19191922191919311919191919191995
:102580002B1919191F1919191919191919191919A3
:10259000281919191C191919191919191919191999
:1025A0002500DFED6D7A16E0DFED6C7A13E0DFEDEC
:1025B0006C7A10E0DFED6B7A0DE0DFED6B7A0AE00C
:1025C000DFED6A7A07E0DFED6A7A04E0DFED697A31
:1025D00001E0DFED697A594A527A012A0AD107EE01
:1025E000103AB8EEC77A77EE277A9FED647A67EEF5
:1025F000877A09E007EE103AB8EEC77A77EE277AC5
:102600009FED5F7A67EE877A17EE900A0AF0D0F9AD
:1026100006460F46B8EEC88A78EE287A17EE900A7A
:102620000AF0C6F90022574B0AF040FB02460B465F
:10263000304639460AF05EF83DA3D3E900230AF09C
:1026400035FB0AF0A3FC054600F1100820460AF00D
:102650009DF941EC100B00F087F9DFF8E090C9E933
:102660000C0104EBD474601064300AF08FF941EC73
:10267000100B00F079F9C9E90E0118EE900A0AF082
:1026800097F900223F4B0AF011FB02460B463046F9
:1026900039460AF02FF80AF079FC99F80F30F3B9AF
:1026A00005F53375C9F85050C9F8548000F5967097
:1026B0000AF06CF941EC100B00F056F9C9E9100171
:1026C00047EC106B00F050F9000A40EA016010304E
:1026D000C9F848004FF49673C9F84C301BE005F573
:1026E0009E75164C2565C4F8548000F596700AF066
:1026F0004DF941EC100B00F037F9C4E9100147EC3B
:10270000106B00F031F9000A40EA01601030A0645B
:102710004FF49673E364BDEC028BBDE8F88300BF11
:10272000000000E0917ADD3F0000000000000000A2
:102730000D71AC8BDB68F03F00001843205A00207D
:1027400085340046004528487B3480440046A8462E
:10275000C3350043E01201080000000000000045FE
:102760000000C0440000804400000044000080439A
:10277000000000430000804200008045EA5B7E3F8D
:10278000B341823F00408F40014BD884704700BF67
:10279000205A002030B5A1B005467F2468460C4978
:1027A00022460BF005FA1820FDF700FE2846FFF739
:1027B0004BF8204669460022FDF746FF20460021DF
:1027C000FEF740F80020FEF76BFB002021B030BD83
:1027D000CC1501082DE9F043FBB0002406798DF8F3
:1027E00000408DF801408DF802408DF803408DF8CF
:1027F0000440FDF7CDFD012E08902BD0062E434D51
:1028000022D102A9A02252A8ADF80C408DF80840B0
:102810008DF809600BF0CCF995F8F9768DF8E34165
:1028200007EB870805EB48180137FFB252A908F5F6
:102830002670A0220BF0BCF9062F88F8986214BF0E
:1028400085F8F97685F8F946002385F8FB367BB0E4
:10285000BDE8F0836846FDF75BFF9DF802009DF838
:1028600001109DF80030294D9DF803709DF804205B
:10287000B5F88CE0ADF80CE0000400EB0121194440
:1028800001EB076314EB030891464FEA026202EB87
:10289000132749F10009724605F1600109A8069362
:1028A000CDE9048907978DF808408DF80A408DF826
:1028B000096085F8AB400BF07BF902A92AA8A02299
:1028C0000BF076F995F8F9768DF8434107EB870818
:1028D00005EB48182AA908F52670A0220BF068F924
:1028E000D5F86C3288F898620137FFB20133062FB1
:1028F000C5F86C324FF0000314BF85F8F97685F8FF
:10290000F94685F8FB367BB0BDE8F083205A0020FD
:1029100008B5094A92F9A930002B0ADD106D13FBA6
:1029200000F080B2FEF79CFB0020FEF757FB0E2064
:1029300008BD0F2008BD00BF205A002010B5094C6B
:10294000606D400080B2FEF78BFB0020FEF746FB77
:10295000B4F85400FEF784FBD4F878320133C4F89D
:10296000783210BD205A002008B551EC100B06A398
:10297000D3E900230AF09AF905A3D3E900230AF06A
:1029800095F90AF07BFB08BDFA48CE3B1835B13DFE
:102990000000000080842E4108B509F0F7FF04A371
:1029A000D3E900230AF058F841EC100B08BD00BF32
:1029B000FA48CE3B1835B13D2DE9F84304460846A8
:1029C000FFF7EAFF31A3D3E9002351EC100B0AF023
:1029D00043F82B4D2B4B6A7C95F80890E400064693
:1029E0000F462344C3E900673AB1B9F1050F32D06D
:1029F0001DA3D3E900230AF059F90AF0EFFA697A26
:102A0000DFF87C8000EE100A4846FEF749FF3046AA
:102A100053EC102B394609F06BFE002200230646CA
:102A20000F460AF08BFA98B93046394610A3D3E91D
:102A300000230AF0A1FA58B9134AD8F87C3214449A
:102A4000C4E900670133C8F87C320120BDE8F8838F
:102A50000020BDE8F88308A3D3E900230AF026F993
:102A6000CBE700BFAFF30080F6285C8FC2F5F43FE0
:102A7000000000000088D340295C8FC2F528F83F91
:102A8000205A002070630020906400200000001392
:102A900019DDB14130B4064A064B02EBC101D1E960
:102AA000004503EBC000C0E9004530BC704700BFE3
:102AB0009064002030620020024B03EBC00090EDD8
:102AC000000B704730620020064B074A30B4C0004C
:102AD0000024002503441044C3E90045C0E9004533
:102AE00030BC70477063002090640020014B187068
:102AF000704700BF205A0020014B1878704700BF74
:102B0000205A0020034B0022D3F88002C3F8802211
:102B1000704700BF205A0020014BD3F88402704751
:102B2000205A0020014BD3F888027047205A002019
:102B3000014BD3F88C027047205A002038B51A4C4C
:102B400000250120E565FEF7EDFA184984F88E505E
:102B5000C4F87C52C4F8AC11C4F8B011C4F8B41174
:102B6000C4F8B811C4F8BC11C4F8C011C4F8C41139
:102B7000C4F8C811C4F8CC11C4F8D011C4F8D411E9
:102B8000C4F8D811C4F8DC11C4F8E011C4F8E41199
:102B9000C4F8E81104F5847304F5D47243F8041FF3
:102BA0009342FBD138BD00BF205A0020FFFFCDABC0
:102BB000FDF7DCBDF8B54F4C03782372437863739F
:102BC0004378237383786372C378E3730279A272C4
:102BD0004279E2728279A27300222274022B0546A6
:102BE0000089608208BF01230E46434808BF637412
:102BF0004FF0010118BF6274FEF7EAFC2B783F4FDB
:102C0000217A03EB430317F823302375A878FDF7E7
:102C1000D7FC431E033306D92B78AA7803EB430372
:102C2000134457F82300334FA06107F11400FDF758
:102C3000FBFDFDF7B9FC0238C0B2012833D9A878F2
:102C4000FDF7CCFCC0F34F00431E9BB24FF6FD7264
:102C50009342B88320D8FDF7B7FDA08BFDF7C0FDE8
:102C6000A38BE3832B79042B39D0F388A362B38839
:102C7000A4F8F6303388A4F8F8303288E26272881B
:102C8000A4F8FA20023A03FB02F3C4F8FC303089BE
:102C9000BDE8F840FFF708BCAB78194A013B32F8B1
:102CA0001300B883D7E73878FA7B397AA0F10200AD
:102CB000B0FA80F04009FDF751FC431E9BB24FF67D
:102CC000FD729342B883C6D93B7A0E4AA3F105033D
:102CD000B3FA83F35B0932F81300B883BBE718201B
:102CE000FDF764FB0020FEF79FF80820FDF75EFB70
:102CF000BBE700BF205A0020285A00206C150108AD
:102D0000501601084C160108044A054B1268104081
:102D100003EBC00393ED000B704700BF2862002057
:102D20009064002008B50622022303704270002040
:102D3000FEF796F90020FEF7CBF90020BDE8084029
:102D4000FDF77EBE38B503460020DA6D1C7858606A
:102D50000132022CDA6532D0012CDA7808D0022A4E
:102D600013D0032A1DD00121032259709A7038BD57
:102D7000022A1BD0032AF6D11D46FEF7FDF80223D6
:102D800085F8AA406C70AB7038BDDA8C48F201014E
:102D90008A421AD0B2F5004FE5D193F8B9209207D4
:102DA000E1D41846BDE83840FFF7BCBF93F8BA102D
:102DB000C807D8D483F8AA405C709A7038BD062240
:102DC0005A70BDE83840FEF74BB993F8B920510767
:102DD000C9D4E6E7044B1B681840C0B20F2801D0E5
:102DE000FFF796BD704700BF2862002010B50F4C5A
:102DF0000F4AE38C1268B3F5004F06D00F2048F25B
:102E00000102934208BF0F2010BD0240D2B2012A36
:102E100001D00F2010BDB4F85000FEF721F90020BA
:102E2000FEF7DCF8E38C0E20E9E700BF205A002013
:102E30002862002008B5074B986D9B6CC01AFEF7FE
:102E400029F80120FEF7CAF800B908BDBDE808401E
:102E5000FFF774BD205A00202DE9B04F86B000AFB7
:102E600003463960FB800F23FB7500233B61002381
:102E7000FB60A049FA6813461B021344DB000B44B5
:102E8000A8335B78002B05D10020FEF7E9F800207D
:102E9000FEF71EF93B6803F00103002B2CD0954987
:102EA000FA6813461B021344DB000B44A8335B781B
:102EB0005BB2012B01D101233B618E49FA681346B5
:102EC0001B021344DB000B4403F524731B78002B17
:102ED0000AD18849FA6813461B021344DB000B44ED
:102EE00080339B78032B07D10020FEF7B9F8002030
:102EF000FEF774F80E23F7E07E49FA6813461B02CA
:102F00001344DB000B44583319687A48FA681346B7
:102F10001B021344DB0003444033D3E900234FEA90
:102F2000122A4AEA036A4FEA132B5346194471489E
:102F3000FA6813461B021344DB000344583319603C
:102F40003B6803F00103002B15D16A49FA68134668
:102F50001B021344DB000B44A8335B7859B265486D
:102F6000FA6813461B021344DB00034480339B784A
:102F70000B440F2B03D03B69012B40F0A6805D4929
:102F8000FA6813461B021344DB000B44A8330222E9
:102F90001A705849FA6813461B021344DB000B44AD
:102FA00058331B681846FDF775FF0320FDF778FFBF
:102FB0000346002B4BD00020FDF742FD4D49FA6837
:102FC00013461B021344DB000B44A83300221A7083
:102FD0004849FA6813461B021344DB000B4403F50F
:102FE0001C735B68591C4348FA6813461B02134460
:102FF000DB00034403F51C7359603E49FA6813462D
:103000001B021344DB000B44583319683948FA6833
:1030100013461B021344DB0003444033D3E900236F
:103020004FEA122848EA03684FEA132943465B0037
:1030300019443048FA6813461B021344DB0003446A
:1030400058331960FFF7F6FE0E23FB754BE0294954
:10305000FA6813461B021344DB000B44583319680B
:103060002448FA6813461B021344DB000344403330
:10307000D3E90023140A44EA03641D0A23461944D1
:103080001C48FA6813461B021344DB000344583300
:1030900019600C23FB75FDF77BF9034618461549AB
:1030A000FA6813461B021344DB000B4403F5DF638D
:1030B00058601049FA6813461B021344DB000B44A6
:1030C00003F5DF630122DA700DE0FB88002B06D1E7
:1030D0000020FDF7C5FF0020FDF780FF01E0FFF7AE
:1030E000A9FE0E23FB75FB7D18461837BD46BDE8CB
:1030F000B08F00BF205A002090B585B000AF3B6074
:103100000346FB800B467B7113463B710023FB811A
:10311000FB88DAB27E4B1B68DBB21340DBB27B73F9
:103120000023BB601323FB817A49BA6813461B0254
:103130001344DB000B448833FA899A80BA6813463B
:103140001B021344DB006033724A1344591D7B7920
:103150003A6813440846194602220AF029FD6D49CF
:10316000BA6813461B021344DB000B448033D87843
:103170006849BA6813461B021344DB000B446033F2
:103180000246DA716349BA6813461B021344DB0036
:103190000B448133D8785F49BA6813461B02134445
:1031A000DB000B4461330246DA71BA6813461B0236
:1031B0001344DB006B33574A1344581C797BBA68BD
:1031C00013461B0213445B000B447A339B00514AA5
:1031D00013440433194604220AF0EAFC797B4D4873
:1031E000BA6813461B021344DB0003440B44E0336C
:1031F00098794849BA6813461B021344DB000B4414
:103200006F3302465A70797B4248BA6813461B02F4
:103210001344DB0003440B44E03300229A713B79F2
:1032200001331A463B68134418783A49BA68134682
:103230001B021344DB000B44E03302465A7135494C
:10324000BA6813461B021344DB000B4488339A7997
:10325000531CDCB22F48B9680B461B020B44DB0041
:1032600003448833214699712A48B9680B461B02EA
:103270000B44DB00034460339A702649BA68134656
:103280001B021344DB000B4448335B681846FDF710
:10329000D7FB2049BA6813461B021344DB000B44DA
:1032A00003F5807300225A601A49BA6813461B025C
:1032B0001344DB000B44693300225A701549BA6885
:1032C00013461B021344DB000B446A3300225A707E
:1032D0001049BA6813461B021344DB000B446833E1
:1032E00072225A70FB8918460021FDF7ABFABA68C2
:1032F00013461B021344DB006033064A1344FA8969
:10330000104619460022FDF79FF91437BD4690BDBF
:1033100028620020205A002090B589B000AF3B60A1
:103320000346FB800B467B7113463B710023FB83F6
:10333000FB88DAB2C14B1B68DBB21340DBB27B7790
:103340000023BB611323FB83BD49BA6913461B02EB
:103350001344DB000B448833FA8B9A80BA69134616
:103360001B021344DB006033B54A1344591D7B79BB
:103370003A6813440846194602220AF019FCB0497B
:10338000BA6913461B021344DB000B448033D87820
:10339000AB49BA6913461B021344DB000B4460338C
:1033A0000246DA71A649BA6913461B021344DB00D0
:1033B0000B448133D878A249BA6913461B021344DF
:1033C000DB000B4461330246DA71BA6913461B0213
:1033D0001344DB006B339A4A1344581C797FBA6953
:1033E00013461B0213445B000B4442339B00944A78
:1033F00013440433194604220AF0DAFB797F90481B
:10340000BA6913461B021344DB0003440B44B83370
:1034100058798B49BA6913461B021344DB000B44ED
:103420006F3302465A70797F8548BA6913461B028A
:103430001344DB0003440B44B83300225A713B7938
:1034400001331A463B68134418787D49BA6913461C
:103450001B021344DB000B44B83302461A7178494F
:10346000BA6913461B021344DB000B4488339A7974
:10347000531CDCB27248B9690B461B020B44DB00DB
:1034800003448833214699716D48B9690B461B0284
:103490000B44DB00034460339A70797F6848BA6953
:1034A00013461B0213445B000B4442339B0003444E
:1034B0005B68644A934238D06149BA6913461B027B
:1034C0001344DB000B4480339B781A46012393405E
:1034D000D8B25B49BA6913461B021344DB000B44A4
:1034E000B83302469A705649BA6913461B02134410
:1034F000DB000B4480339B781C46797F5048BA69C7
:1035000013461B0213445B000B4442339B000344ED
:1035100059684B48BA6913461B0213445B002344A5
:103520006A339B00034459601FE04549BA6913465A
:103530001B021344DB000B4480339B781846404940
:10354000BA6913461B0213445B0003446A339B00B1
:103550000B443C4A5A603A49BA6913461B02134469
:10356000DB000B44B83300229A703549BA69134620
:103570001B021344DB000B4448335B681846FDF71D
:103580005FFA2F49BA6913461B021344DB000B4450
:1035900003F524731B78002B00F08D8000237B61E2
:1035A00000233B610023FB602549BA6913461B02D7
:1035B0001344DB000B44F033DB881A463B6BB3FB50
:1035C000F2F102FB01F29B1A3B61FB88D9B21C4865
:1035D000BA6913461B021344DB000344F8331B880B
:1035E00003FB01F3FB60FA683B69D31A7B61144962
:1035F000BA6913461B021344DB000B44F033DB882B
:103600005B089BB25A427B699A421DDD0C49BA693C
:1036100013461B021344DB000B44F033DB881A46CD
:103620007B69D1180648BA6913461B021344DB00B4
:10363000034403F58073596011E000BF2862002045
:10364000205A0020FFFFCDAB3A49BA6913461B024E
:103650001344DB000B4403F580737A695A603549E3
:10366000BA6913461B021344DB000B4403F5807355
:103670005B68D8B22F49BA6913461B021344DB00BA
:103680000B44693302465A702A49BA6913461B0231
:103690001344DB000B4403F580735B681B12D8B244
:1036A0002449BA6913461B021344DB000B446A33F6
:1036B00002465A701EE01F49BA6913461B021344A2
:1036C000DB000B4403F5807300225A601949BA6984
:1036D00013461B021344DB000B44693300225A706B
:1036E0001449BA6913461B021344DB000B446A33C6
:1036F00000225A700F49BA6913461B021344DB00BB
:103700000B44683370225A70FB8B18460021FDF77A
:1037100099F8BA6913461B021344DB006033054A6B
:103720001344FA8B104619460022FCF78DFF24370C
:10373000BD4690BD205A002084B02DE9F041114EC5
:103740009DF8B88096F8F94604EB840506EB45151C
:1037500006AF013487E80F00E4B2002705F52670B4
:1037600006A9A0228DF8B3700AF022FA062C85F87B
:10377000988214BF86F8F94686F8F976BDE8F041DC
:1037800004B07047205A002084B080B5A8B026AF9E
:1037900007F1100E8EE80F0000237B604B497A681A
:1037A00013461B021344DB000B441B78022B46D14B
:1037B00046497A6813461B021344DB000B44A833C6
:1037C0005B785BB2002B33DD40497A6813461B02FD
:1037D0001344DB000B44A8335B78DBB2DBB2013B64
:1037E000DBB2D8B239497A6813461B021344DB00B6
:1037F0000B44A83302465A7000200021FFF72CFB2F
:103800000346BB7400233B7444237B740023BB82B8
:1038100004232493694607F12003902208461946A1
:103820000AF0C6F907F110030FCBFFF785FF46E05A
:103830000020FDF715FC0020FDF7D0FB3FE02349F9
:103840007A6813461B021344DB000B441B78002BE1
:1038500003D10020FDF7C2FB31E01C497A68134612
:103860001B021344DB000B44A8335B78DBB2DBB2F2
:10387000013BDBB2D8B215497A6813461B021344E8
:10388000DB000B44A83302465A700020FFF7A2FA6F
:103890000346BB7400233B7444237B740023BB8228
:1038A00004232493694607F1200390220846194611
:1038B0000AF07EF907F110030FCBFFF73DFF083741
:1038C000BD46BDE8804004B0704700BF205A0020CC
:1038D0002DE9F04F8346ADF51F7D00258DF8905002
:1038E0008DF891508DF892508DF893508DF894503A
:1038F000FCF74EFD9BF804302C9026AC022B49D0EF
:10390000042B0CD02AA9902268460AF051F994E8B9
:103910000F00FFF739FF0DF51F7DBDE8F08FBE4E9C
:1039200033780F22022BA27000F0108100250427AB
:10393000214676A84FF000084FF00009A02225701C
:10394000A580256165616770C4E902890AF030F9D4
:1039500096F8F9468DF8735204EB840306EB431690
:1039600076A906F52670A02201340AF021F9E4B206
:10397000A94B86F89872062C14BF83F8F94683F891
:10398000F956A6482021012203F05AFB0DF51F7DB0
:10399000BDE8F08F9BF80820BBF80610A18002F06C
:1039A000DF02412A00F0C3802F46AA46A9464FF005
:1039B0000108632624A8FCF7B1FEBBF806102DA869
:1039C0000022FCF79BFE9DF892009DF891109DF857
:1039D00090309DF893E09DF894206670000400EB11
:1039E00001210B4403EB0E630020114620701206E8
:1039F000C01841F1000102EB13224FF00F0E022E0E
:103A00002361C4E90201626184F802E07FF47AAFC5
:103A1000814EA0442744327898F81C003B7F002A4E
:103A200057D0012A00F0A180611903EB0023087F21
:103A3000A0F170019FB212294BD8DFE811F01300FA
:103A4000F5001300D2004A004A004A004A004A002A
:103A50004A004A004A004A004A004A004A004A0016
:103A60009C00D200012A00F03181032A00F06A8113
:103A7000702800F04D8196F89022674B3AB193F888
:103A8000E5201A4492F90117022900F07E81F18C99
:103A9000614B48F20202914240F00F8193F80027F7
:103AA0001A4492F80117080600F1078193F8A9500B
:103AB0000131013D82F8011783F8A9500020FDF77C
:103AC000CFFA0020FCF7BCFF38460121FFF7C4F90C
:103AD000A070012386F8AB3021464EA8A0220AF040
:103AE00067F896F8F946DFF8308104EB840506EBB9
:103AF0004515002705F526704EA9A0228DF8D37133
:103B00000AF056F8022385F898320134D6F870325C
:103B1000E4B2062C03F1010314BF88F8F94688F8D3
:103B2000F976C6F870320DF51F7DBDE8F08F9BF871
:103B3000092002F0CC02882A7FF436AF0925072736
:103B40001E46A946BA464FF0080833E796F8A93052
:103B50005AB2002A7FF7EAAE013BF08C86F8A93012
:103B60000621FFF779F9A070E0E696F8A91001396F
:103B700086F8A91058E7012A36D02544DFF8A4803A
:103B80006B7FD8F80020A169009103F00F0307EACA
:103B9000020503EB0515EDB206EB050E4FF0000C28
:103BA0004A4651462DAB8EF801C7384686F8005775
:103BB000FFF7B2FBB6F85400FDF752FA6369B3653C
:103BC0000F2386F8A930F08C0221FFF745F9D8F8C9
:103BD0000030134AA0703B4006EB8303C3F80C216E
:103BE00077E7012A7FF475AF96F8A93001332AA947
:103BF000902286F8A930684609F0DAFF94E80F00B1
:103C0000FFF7C2FDD6F8703201221344C6F87032B5
:103C100086F8AB207FE600BF205A0020000002405B
:103C2000FFFFCDAB2862002096F890E2DFF880819C
:103C3000BEF1000F7FF44DAFB8F8261048F2020332
:103C400099423FF646AF012ACED0DFF860B1254455
:103C5000DBF800206B7F07EA020503F00F0308354D
:103C600003EB0515EDB208EB050C2DAB51464A46AA
:103C7000384688F800578CF801E7FFF73DFA48F21C
:103C800001039F4203D0B8F85400FDF7E9F9F08C26
:103C90006269DBF80030B265C21B134086F8A930B8
:103CA0000321FFF7D9F8DBF800303F4AA0703B4012
:103CB00006EB8303C3F8EC210BE70020FDF7D0F9F6
:103CC0000020FDF78BF90E23A37002E796F8BC20C5
:103CD000364D32442B6892F801173B40D8B201317F
:103CE0000F2882F801174BD196F8BA50A07003EB59
:103CF00083020121073201FA03F356FA82F02B43C3
:103D000024A9052286F8BA30693009F051FFE0E6AF
:103D100096F80037DFF898E0334493F801170D0662
:103D2000CBD49EF8A92050B20028C6DD4D1C013A24
:103D30003846042183F801578EF8A920FFF78CF844
:103D4000A070C6E696F8E5303344384693F801276C
:103D5000013283F80127FFF749F807F0030796F8C7
:103D6000B920A070012307EB8701BB4070181343F3
:103D700024A9052286F8B930703009F019FFA8E6A9
:103D8000FEF7C6FD2B683B40AEE793F8B9503846C6
:103D900045F008050327052183F8B95082F801771B
:103DA000FFF75AF8A07094E6FFFFCDAB2862002021
:103DB000205A00202DE9F04B264D95F8F81601EB1E
:103DC000810149016C1804F5267294F898322BB9D8
:103DD000214A214813705370BDE8F08B04F5287315
:103DE0001D4ED4F8A87292F802C0B2F804E0376110
:103DF000D3E90089834629445078D4F8B0327070F2
:103E0000D4F8AC72B36101F52D7106F11C007F226C
:103E1000C6E9028986F802C0A6F804E0776109F0D5
:103E2000C7FE95F8F83694F8981284F833B3013346
:103E3000DBB20022062B08BF1346317084F89822AB
:103E400014BF85F8F83685F8F82685F8FA36024862
:103E5000BDE8F08B205A0020F063002038B50A4CF2
:103E600004F5707520460021A034A02209F09EFFC1
:103E7000AC42F7D1054B002283F8F92683F8F826E7
:103E800083F8FA2638BD00BFB85C0020205A002015
:103E900038B5254D0023022240F60F002A706B70C2
:103EA00085F8AA30FCF7DEFE04460320FCF7E2FDAD
:103EB000B4BBFEF743FE4DF6CA63A5F8903085F813
:103EC000A84085F8AB4085F8AC40FFF7C7FF082253
:103ED000214605F1830009F069FF2046C5F8044139
:103EE000FCF794FD2046FCF779FD10480121FDF711
:103EF000FFF80F480F49FCF7B5FDFF2305F20170ED
:103F0000F6214FF4807285F8FB46C5F87442C5F877
:103F1000784285F8A93009F049FFAC65204638BDE4
:103F20004FF0FF3038BD00BF205A002080D023243E
:103F3000D5270008D1380008F8B5364F364897F82D
:103F4000FA3603EB830307EB431301210A4693F888
:103F5000984203F075F82F4D21462846FDF782FD63
:103F6000002406460028F6D02B480121224603F003
:103F700067F8022E34D095F8AC30012B01D0002028
:103F8000F8BD97F8AB40234D002CF8D12B78012BCE
:103F9000F5D1FCF7FDF9D5F8B030D5F8B420C01A4A
:103FA0009042ECD995F8F93685F8AC4003EB8302E2
:103FB000520102F5267101332944DBB22A44062B53
:103FC0004FF084064FF004008C8081F89B404E70C7
:103FD00082F8980214BF85F8F93685F8F946CEE7DD
:103FE0002B78012B06D095F8AC30002287F8AB2057
:103FF0007A60C2E7E86AAA6AD5F8041185F8AC309D
:1040000002440A44C5F8B420C5F80811C5F80441B3
:10401000EBE700BF205A002000080240014BC3F824
:1040200004087047205A002010B5074C94F824303B
:10403000012B00D010BD1E200021226AFCF7DCFB02
:10404000002384F8243010BD205A002010B5084CFD
:1040500094F82530012B00D010BDE08BFCF7B4FBA9
:10406000A08BFCF7BDFB002384F8253010BD00BFFA
:10407000205A0020410900F01F0001238340024A1A
:1040800042F82130704700BF00E100E0430900F032
:104090001F00012282402033014941F8232070474C
:1040A00000E100E02DE9F04F2DED028B634FDFF8CA
:1040B000B48185B00023B946C346039303E0FEF7FD
:1040C00021FD002846D197F8FB46FCF761F9D7F8A7
:1040D000FC66054604F0B0FEFFF72EFFFEF70CFD70
:1040E000012CC8F80000EAD1B9F8F830AD1B9D42A8
:1040F000E5DD21460F20FCF717FB21460546192078
:10410000FCF712FB214606460A20FCF70DFB214670
:1041100082460620FCF708FB32462B468DE8010458
:104120004749484809F0A6FE464806F089FCDBF8F6
:1041300000300022012B89F8A8201CD0FCF71CFFBE
:10414000062389F80130002387F8FB36FEF7DAFCF6
:104150000028B8D0FEF7E0FCFEF7E4FCFEF7E8FC30
:10416000D8F80030022B0AD0012B4AD0FCF710F906
:10417000354B1860A7E73148FEF7E4FDE3E7039805
:10418000FEF79AFC002251EC100BB0EE408AF0EEE4
:10419000608A2E4B08F060FC08F0F8FE002848D139
:1041A000039C292501E0013D18D0631C272BD6BFB5
:1041B000A61C00241C462046C8BF0126FEF77CFC36
:1041C000002251EC100BB0EE408AF0EE608A1F4BDB
:1041D00008F042FC08F0DAFE0028E4D003961C4BFD
:1041E0001C491A681C4823468DED008B09F042FEDD
:1041F000194806F025FC039B272BB7DD002303930A
:10420000B4E7039D154A28461468FEF77DFD224653
:104210008DED000B124910482B4609F02BFE2B4662
:1042200001331C460C48039306F00AFC0F2CE5DC16
:104230009CE7039B1C4601330393D0E7205A0020E0
:104240007C16010860660020A81B002000408F40FB
:104250000867002098160108C0650020BC65002092
:10426000AC1601086400002008B50D4B1B680D4A10
:10427000136002280FD1102B07DD0B4B18686FEA73
:1042800040436FEA534398B206E06FEA43436FEA54
:10429000534398B200E098B2FEF776FA08BD00BF2B
:1042A000B81B0020B01B0020286200200346C0F38A
:1042B000400003F004039BB203B10230704700BF1B
:1042C00030B587B005464CA3D3E90023CDE90023E0
:1042D0001820FCF76BF8FEF76BFC3F4B984217D0A9
:1042E0003E4C20461021012202F0AAFE012004F0DB
:1042F000AFFD20461021002202F0A2FE072004F0AC
:10430000A7FDFEF755FC344B98425BD1FDF702F94F
:10431000FCF776F86846FCF7E3FAFFF7B9FD0028EA
:1043200053DB0820FCF742F8FEF742FC2A4B984288
:104330004ED105F008039BB21BB90122284B1A602D
:1043400002E00222264B1A60254C2088FFF78CFFE2
:104350002368022B05D1234B1B68102B01DD0022A3
:1043600022601F4B1868FEF7C1FB2846FFF79EFF2F
:104370001D4B18601D4C81000A185200A318A25C46
:104380008DF80C201A4C2260DA788DF80D205A78BE
:104390008DF80E205A798DF811209A798DF8122017
:1043A0001A89ADF814209A788DF80F201B798DF8B2
:1043B00010300144490003A80E4B1944FEF7FAFBE4
:1043C000054807E04FF0FF3004E04FF0FF3001E018
:1043D0004FF0FF3007B030BD3001CADE00000240B0
:1043E00064000020B01B0020AC1B00203000002027
:1043F00004670020000000200BA7375E106807103C
:1044000008B50120FFF70AFE08BD00BF08B50B483C
:104410000221012202F014FE0948402102F016FE9A
:10442000FCF7B2FE0748102102F002FE0128EED090
:1044300002480221002202F003FE08BD00080240EB
:104440000000024000040240094C002108B5206829
:104450000A460B4605F082F900210B4620684FF012
:10446000FF3205F07BF90128F6D1FFF7CFFFF3E724
:104470000067002030B583B00446FEF73DFB0546DB
:1044800004F00204A4B20CB9314A00E0314A324CC3
:10449000324B1B683249096800912046314909F0C6
:1044A000E9FC204606F0CCFA2F4C20462F49304B31
:1044B0001A68304B1B6809F0DDFC204606F0C0FA94
:1044C0002D4C20462D492E4B1A6809F0D3FC20466E
:1044D00006F0B6FA2B4C20462B492C4B1A6809F0F3
:1044E000C9FC204606F0ACFA294C204629492A4B43
:1044F0001A6809F0BFFC204606F0A2FA274B1A689A
:10450000274B1A60274B1A60012D08D1264C2046F4
:10451000264909F0AFFC204606F092FA15E0022D7C
:1045200008D1214C2046224909F0A4FC204606F07F
:1045300087FA0AE010221B4B1A601B4C20461D49CB
:1045400009F098FC204606F07BFA03B030BD00BFAE
:10455000F8170108C0160108C06500200467002094
:1045600058000020C416010814650020E816010850
:104570005C000020280000206C6500201017010856
:104580002C000020B06600202C17010868000020D5
:10459000106600204C17010860000020B01B0020AE
:1045A000BC65002008670020606600206C170108C9
:1045B000781701088417010808B500F0020083B2DB
:1045C0000BB90E4A00E00E4A0E4C20460E490F4B26
:1045D0001B6809F04FFC204606F032FA20460C49D1
:1045E000102209F0E5FA204606F02AFA4FF480502E
:1045F000FEF7D0F8022004F02BFCFBE7F8170108C7
:10460000C0160108C065002090170108046700204B
:10461000A417010808B5044B1B7823B1034B186895
:10462000002105F03FF808BDA41B00200067002012
:10463000F8B59FED270B00AF06F086FC29A3D3E960
:10464000002351EC100B08F031FB41EC100B06F08D
:10465000E7FB51EC100B08F099FC820002F10A0311
:104660001D491E4D086023F00703ADEB030D461DE9
:1046700000286C462E6003DD6846002109F096FB99
:10468000304604F00BFC002301228270037043705B
:10469000C3702B68052B06460EDD201FF11C04227B
:1046A00050F8043F003318BF012301F8013F2B6885
:1046B00001325C1E9442F3DC33440021084A03F8C3
:1046C000011C3046166004F03BFCBD46F8BD00BF3F
:1046D0000000000000004440145A0020185A002036
:1046E000105A0020EF39FAFE422EE63F000000008B
:1046F00070B545488AB006F0A3F9444806F0A0F921
:10470000FFF796FF424B1868002873DD414B424C7F
:104710001D682168013D002315F8012F9A400133DF
:10472000114383422160F7D105280FDD394B3B4E01
:104730001D683168431E1D440538002315F8012DFE
:104740009A400133114383423160F7D1344B354DE8
:104750001868314E08F01AF99FED290B41EC110B46
:1047600006F078FC0022304B51EC100B07F0C0FF34
:1047700008F00CFC28600A20FFF788FC2B4806F0A4
:104780005FF92088FFF79CFD01302FD0306800F0E2
:104790003803382B80B22FD0254CFFF76BFE0A2050
:1047A000FFF768FC0FCC6D460FC554F8043B2B6037
:1047B0000021684604F01CFB1E4B18600FCC05ADB1
:1047C0000FC523682B60002105A804F011FB1A4BCC
:1047D000032218600021012004F082FE174A184BC2
:1047E000106001221A7000200AB070BD154806F052
:1047F00027F9F8E7084C97E7FFF7DEFEAFF30080F4
:104800000000000000000040B8170108C4170108AC
:10481000185A0020105A0020B41B0020B81B00209A
:10482000145A0020286200200000F03FD817010829
:104830005416010864650020106500200067002000
:10484000A41B0020E817010808B5FFF751FF00205E
:10485000BDE8084004F0EABA10B5044602F076FF5D
:10486000064BA3FB0030800900F09CF84FF0FF30AE
:104870002146002200F04CF8002010BDD34D6210FC
:1048800008B50B4B1A6842F400721A601A6842F4B9
:1048900080621A601A6842F480721A60032000F085
:1048A00025F80020FFF7D8FF06F090F9002008BD9A
:1048B000003C0240024A136801331360704700BF96
:1048C000BC1B0020014B1868704700BFBC1B0020B8
:1048D00010B582B00190FFF7F5FF0446FFF7F2FF35
:1048E000001B019B9842F9D302B010BD00F00700F5
:1048F000064AD36823F4E0631B041B0C43EA002040
:1049000040F0BF6040F40030D060704700ED00E040
:1049100030B4164BDC68C4F30224C4F10705042D3F
:1049200028BF0425231D062B01D9033C00E00024E9
:10493000012303FA05F5013D2940A140A340013BB5
:104940001A400A43002806DA00F00F001201D2B222
:10495000074B1A5407E01201D2B200F1604000F593
:10496000614080F8002330BC704700BF00ED00E0DC
:1049700014ED00E0410900F01F0001238340024ACA
:1049800042F82130704700BF00E100E0430900F029
:104990001F00012282402033014941F82320704743
:1049A00000E100E00138B0F1807F0AD2064B586088
:1049B000F021064A82F823100020986007221A602E
:1049C00070470120704700BF10E000E000ED00E0FC
:1049D000430900F01F00012282406033014941F881
:1049E0002320704700E100E0042805D1054A136840
:1049F00043F0040313607047024A136823F0040372
:104A00001360704710E000E030B405682C6824F4AF
:104A100080242C60046863608368402B04D10368A1
:104A20009A600368D96003E0036899600368DA60FC
:104A300030BC7047002831D010B40346022280F801
:104A4000352004682168184A0A404068996808437C
:104A5000D9680843196908435969084399690843A3
:104A6000D9690843196A01430A43596A042903D1E1
:104A7000D86A196B01430A43226019684A6922F017
:104A80000702586A0243042801D1986A02434A6126
:104A90000020D864012283F8352001E0012070470E
:104AA0005DF8044B704700BF3F8010F038B590F8B8
:104AB0003440012C2ED00446012084F8340002201A
:104AC00084F835002568286820F001002860204619
:104AD000FFF79AFF2268136843F0100313602268FF
:104AE000136843F0080313602268136843F004035B
:104AF00013602268536943F080035361226813688E
:104B000043F0020313602268136843F0010313604B
:104B1000002038BD022038BD10B504460368B24AF3
:104B2000934257D9583A5268B0498B424CD001F55C
:104B300080618B4246D0A1F568718B4240D001F56F
:104B400080618B423AD0A1F589618B4233D001F567
:104B500080618B422CD0A1F568718B4225D001F584
:104B600080618B421ED0A1F589618B4217D001F57F
:104B700080618B4210D0A1F568718B4209D001F59C
:104B800080618B4202D14FF400211EE04FF0007192
:104B90001BE04FF4002118E04FF4002115E04FF422
:104BA000002112E04FF400710FE04FF400710CE0AF
:104BB0004FF4007109E04FF4007106E0082104E0B1
:104BC000082102E0082100E008210A4214BF012266
:104BD000002218E1864A934258D902F552721268AF
:104BE00082498B424CD001F580618B4246D0A1F5C1
:104BF00068718B4240D001F580618B423AD0A1F5BB
:104C000089618B4233D001F580618B422CD0A1F5B4
:104C100068718B4225D001F580618B421ED0A1F5D1
:104C200089618B4217D001F580618B4210D0A1F5CC
:104C300068718B4209D001F580618B4202D14FF43B
:104C400000211EE04FF000711BE04FF4002118E03E
:104C50004FF4002115E04FF4002112E04FF40071F1
:104C60000FE04FF400710CE04FF4007109E04FF4D5
:104C7000007106E0082104E0082102E0082100E0BC
:104C800008210A4214BF01220022BCE0594A934283
:104C900057D9583A526855498B424CD001F580613A
:104CA0008B4246D0A1F568718B4240D001F58061FE
:104CB0008B423AD0A1F589618B4233D001F58061F6
:104CC0008B422CD0A1F568718B4225D001F5806113
:104CD0008B421ED0A1F589618B4217D001F580610E
:104CE0008B4210D0A1F568718B4209D001F580612B
:104CF0008B4202D14FF400211EE04FF000711BE007
:104D00004FF4002118E04FF4002115E04FF400218A
:104D100012E04FF400710FE04FF400710CE04FF41B
:104D2000007109E04FF4007106E0082104E0082159
:104D300002E0082100E008210A4214BF01220022FB
:104D400061E02D4A126829498B4257D001F58061F4
:104D50008B4246D0A1F568718B4240D001F580614D
:104D60008B423AD0A1F589618B4233D001F5806145
:104D70008B422CD0A1F568718B4225D001F5806162
:104D80008B421ED0A1F589618B4217D001F580615D
:104D90008B4210D0A1F568718B4209D001F580617A
:104DA0008B4202D14FF4002129E04FF0007126E040
:104DB0004FF4002123E04FF4002120E04FF40021C4
:104DC0001DE04FF400711AE04FF4007117E04FF44A
:104DD000007114E04FF4007111E008210FE0082188
:104DE0000DE008210BE000BF586402401060024053
:104DF000B8600240586002400060024008210A4248
:104E000014BF01220022002A00F07D811A6812F0EE
:104E1000040F00F078811A6822F004021A602368F7
:104E2000AA4A934254D9A2F5896293424CD002F522
:104E30008062934246D0A2F56872934240D002F558
:104E4000806293423AD0A2F58962934233D002F550
:104E5000806293422CD0A2F56872934225D002F56D
:104E6000806293421ED0A2F58962934217D002F568
:104E70008062934210D0A2F56872934209D002F585
:104E80008062934202D14FF400221EE04FF0007284
:104E90001BE04FF4002218E04FF4002215E04FF41D
:104EA000002212E04FF400720FE04FF400720CE0A9
:104EB0004FF4007209E04FF4007206E0082204E0AB
:104EC000082202E0082200E00822814BDA600CE1AF
:104ED000804A934253D9A83A93424CD002F580625B
:104EE000934246D0A2F56872934240D002F58062A8
:104EF00093423AD0A2F58962934233D002F58062A0
:104F000093422CD0A2F56872934225D002F58062BC
:104F100093421ED0A2F58962934217D002F58062B7
:104F2000934210D0A2F56872934209D002F58062D4
:104F3000934202D14FF400221EE04FF000721BE0BA
:104F40004FF4002218E04FF4002215E04FF4002245
:104F500012E04FF400720FE04FF400720CE04FF4D7
:104F6000007209E04FF4007206E0082204E0082213
:104F700002E0082200E00822554B9A60B5E0564A4C
:104F8000934253D9483A93424CD002F580629342FF
:104F900046D0A2F56872934240D002F580629342F7
:104FA0003AD0A2F58962934233D002F580629342EF
:104FB0002CD0A2F56872934225D002F5806293420C
:104FC0001ED0A2F58962934217D002F58062934207
:104FD00010D0A2F56872934209D002F58062934224
:104FE00002D14FF400221EE04FF000721BE04FF49C
:104FF000002218E04FF4002215E04FF4002212E0E6
:105000004FF400720FE04FF400720CE04FF40072A6
:1050100009E04FF4007206E0082204E0082202E0F2
:10502000082200E008222D4BDA605EE02C4A934211
:1050300058D002F58062934246D0A2F5687293423E
:1050400040D002F5806293423AD0A2F58962934241
:1050500033D002F5806293422CD0A2F5687293425D
:1050600025D002F5806293421ED0A2F58962934258
:1050700017D002F58062934210D0A2F56872934275
:1050800009D002F58062934202D14FF400222AE057
:105090004FF0007227E04FF4002224E04FF400228A
:1050A00021E04FF400221EE04FF400721BE04FF4A9
:1050B000007218E04FF4007215E04FF4007212E035
:1050C000082210E008220EE008220CE0586402409A
:1050D00000640240B8600240586002400060024034
:1050E000106002400822B24B9A60E36C43F0010367
:1050F000E364042384F83530002384F83430A36C4F
:105100000BB1204698472368AA4A934253D9583A8C
:105110005268A9498B4248D001F580618B4242D048
:10512000A1F568718B423CD001F580618B4236D08D
:10513000A1F589618B4230D001F580618B422AD084
:10514000A1F568718B4224D001F580618B421ED09D
:10515000A1F589618B4217D001F580618B4210D097
:10516000A1F568718B4209D001F580618B4202D1B3
:105170004FF480311AE04FF4800117E04FF4803192
:1051800014E04FF4803111E04FF480310EE0402103
:105190000CE040210AE0402108E0402106E0874978
:1051A00004E0864902E0854900E084490A4214BFD0
:1051B000012200220DE1824A934254D902F5527233
:1051C00012687D498B4248D001F580618B4242D004
:1051D000A1F568718B423CD001F580618B4236D0DD
:1051E000A1F589618B4230D001F580618B422AD0D4
:1051F000A1F568718B4224D001F580618B421ED0ED
:10520000A1F589618B4217D001F580618B4210D0E6
:10521000A1F568718B4209D001F580618B4202D102
:105220004FF480311AE04FF4800117E04FF48031E1
:1052300014E04FF4803111E04FF480310EE0402152
:105240000CE040210AE0402108E0402106E05B49F3
:1052500004E05A4902E0594900E058490A4214BFA3
:1052600001220022B5E0574A934253D9583A526876
:1052700051498B4248D001F580618B4242D0A1F563
:1052800068718B423CD001F580618B4236D0A1F52C
:1052900089618B4230D001F580618B422AD0A1F523
:1052A00068718B4224D001F580618B421ED0A1F53C
:1052B00089618B4217D001F580618B4210D0A1F536
:1052C00068718B4209D001F580618B4202D14FF4A5
:1052D00080311AE04FF4800117E04FF4803114E080
:1052E0004FF4803111E04FF480310EE040210CE0AA
:1052F00040210AE0402108E0402106E02F4904E077
:105300002E4902E02D4900E02C490A4214BF012237
:1053100000225EE0264A126827498B4254D001F5EC
:1053200080618B4242D0A1F568718B423CD001F57F
:1053300080618B4236D0A1F589618B4230D001F576
:1053400080618B422AD0A1F568718B4224D001F58F
:1053500080618B421ED0A1F589618B4217D001F587
:1053600080618B4210D0A1F568718B4209D001F5A4
:1053700080618B4202D14FF4803126E04FF48001EE
:1053800023E04FF4803120E04FF480311DE04FF4F2
:1053900080311AE0402118E0402116E0402114E05D
:1053A000402112E0054910E004490EE003490CE0F9
:1053B000006002405864024010600240010080001A
:1053C000B860024058600240AB490A4214BF012253
:1053D0000022002A00F06F815A6912F0800F00F05D
:1053E0006A815A6922F080025A612368A34A934273
:1053F00050D9A2F58962934248D002F58062934267
:1054000042D0A2F5687293423CD002F5806293428A
:1054100036D0A2F58962934230D002F58062934281
:105420002AD0A2F56872934224D002F5806293429A
:105430001ED0A2F58962934217D002F58062934292
:1054400010D0A2F56872934209D002F580629342AF
:1054500002D14FF480321AE04FF4800217E04FF48B
:10546000803214E04FF4803211E04FF480320EE0CD
:1054700040220CE040220AE0402208E0402206E000
:105480007D4A04E07C4A02E07B4A00E07A4A7C4B99
:10549000DA6002E17B4A93424FD9A83A934248D05E
:1054A00002F58062934242D0A2F5687293423CD0EA
:1054B00002F58062934236D0A2F58962934230D0E1
:1054C00002F5806293422AD0A2F56872934224D0FA
:1054D00002F5806293421ED0A2F58962934217D0F2
:1054E00002F58062934210D0A2F56872934209D00F
:1054F00002F58062934202D14FF480321AE04FF4F9
:10550000800217E04FF4803214E04FF4803211E053
:105510004FF480320EE040220CE040220AE04022AC
:1055200008E0402206E0544A04E0534A02E0524AAE
:1055300000E0514A524B9A60AFE0534A93424FD930
:10554000483A934248D002F58062934242D0A2F595
:10555000687293423CD002F58062934236D0A2F545
:105560008962934230D002F5806293422AD0A2F53C
:105570006872934224D002F5806293421ED0A2F555
:105580008962934217D002F58062934210D0A2F54F
:105590006872934209D002F58062934202D14FF4BF
:1055A00080321AE04FF4800217E04FF4803214E0AA
:1055B0004FF4803211E04FF480320EE040220CE0D4
:1055C00040220AE0402208E0402206E02A4A04E0A5
:1055D000294A02E0284A00E0274A2C4BDA605CE0C6
:1055E0002B4A934256D002F58062934242D0A2F5F4
:1055F000687293423CD002F58062934236D0A2F5A5
:105600008962934230D002F5806293422AD0A2F59B
:105610006872934224D002F5806293421ED0A2F5B4
:105620008962934217D002F58062934210D0A2F5AE
:105630006872934209D002F58062934202D14FF41E
:10564000803228E04FF4800225E04FF4803222E0DF
:105650004FF480321FE04FF480321CE040221AE009
:10566000402218E0402216E0402214E0024A12E0F4
:10567000014A10E0004A0EE0010080005864024038
:1056800000640240B860024058600240006002407E
:1056900010600240B44AB54B9A60E36C43F00203D9
:1056A000E364042384F83530002384F83430A36C99
:1056B0000BB1204698472368AD4A934257D9583AD0
:1056C0005268AC498B424CD001F580618B4246D088
:1056D000A1F568718B4240D001F580618B423AD0D0
:1056E000A1F589618B4233D001F580618B422CD0CA
:1056F000A1F568718B4225D001F580618B421ED0E7
:10570000A1F589618B4217D001F580618B4210D0E1
:10571000A1F568718B4209D001F580618B4202D1FD
:105720004FF480211EE04FF080711BE04FF4802188
:1057300018E04FF4802115E04FF4802112E04FF47F
:1057400080710FE04FF480710CE04FF4807109E03C
:105750004FF4807106E0884904E0874902E08649F9
:1057600000E085490A4214BF012200221BE1834A5E
:10577000934258D902F5527212687E498B424CD03E
:1057800001F580618B4246D0A1F568718B4240D013
:1057900001F580618B423AD0A1F589618B4233D00B
:1057A00001F580618B422CD0A1F568718B4225D028
:1057B00001F580618B421ED0A1F589618B4217D023
:1057C00001F580618B4210D0A1F568718B4209D040
:1057D00001F580618B4202D14FF480211EE04FF031
:1057E00080711BE04FF4802118E04FF4802115E018
:1057F0004FF4802112E04FF480710FE04FF480717C
:105800000CE04FF4807109E04FF4807106E05A49D2
:1058100004E0594902E0584900E057490A4214BFE0
:1058200001220022BFE0564A934257D9583A5268A3
:1058300050498B424CD001F580618B4246D0A1F596
:1058400068718B4240D001F580618B423AD0A1F55E
:1058500089618B4233D001F580618B422CD0A1F558
:1058600068718B4225D001F580618B421ED0A1F575
:1058700089618B4217D001F580618B4210D0A1F570
:1058800068718B4209D001F580618B4202D14FF4DF
:1058900080211EE04FF080711BE04FF4802118E062
:1058A0004FF4802115E04FF4802112E04FF4807115
:1058B0000FE04FF480710CE04FF4807109E04FF479
:1058C000807106E02C4904E02B4902E02A4900E0FF
:1058D00029490A4214BF0122002264E0234A1268C7
:1058E00024498B425AD001F580618B4254D0A1F5F6
:1058F00068718B424ED001F580618B4248D0A1F592
:1059000089618B4241D001F580618B423AD0A1F58B
:1059100068718B4225D001F580618B421ED0A1F5C4
:1059200089618B4217D001F580618B4210D0A1F5BF
:1059300068718B4209D001F580618B4202D14FF42E
:1059400080212CE04FF0807129E04FF4802126E087
:105950004FF4802123E04FF4802120E04FF4807148
:105960001DE04FF480711AE00100800000600240E9
:10597000586402401060024004008000B860024099
:10598000586002404FF4807109E04FF4807106E0E6
:10599000B54904E0B44902E0B34900E0B2490A4223
:1059A00014BF01220022002A00F07F811A6812F041
:1059B000020F00F07A811A6822F002021A6023684E
:1059C000AA4A934254D9A2F5896293424CD002F577
:1059D0008062934246D0A2F56872934240D002F5AD
:1059E000806293423AD0A2F58962934233D002F5A5
:1059F000806293422CD0A2F56872934225D002F5C2
:105A0000806293421ED0A2F58962934217D002F5BC
:105A10008062934210D0A2F56872934209D002F5D9
:105A20008062934202D14FF480221EE04FF08072D8
:105A30001BE04FF4802218E04FF4802215E04FF471
:105A4000802212E04FF480720FE04FF480720CE07D
:105A50004FF4807209E04FF4807206E0824A04E05D
:105A6000814A02E0804A00E07F4A814BDA600EE121
:105A7000804A934253D9A83A93424CD002F58062AF
:105A8000934246D0A2F56872934240D002F58062FC
:105A900093423AD0A2F58962934233D002F58062F4
:105AA00093422CD0A2F56872934225D002F5806211
:105AB00093421ED0A2F58962934217D002F580620C
:105AC000934210D0A2F56872934209D002F5806229
:105AD000934202D14FF480221EE04FF080721BE00F
