:020000040800F2
:1000000000000220590200085D02000829AC000827
:1000100045AC000849AC00084DAC000800000000E9
:1000200000000000000000000000000095900008A3
:1000300041030008000000002591000851AC0008B1
:10004000B58C0008B58C0008B58C0008B58C00088C
:10005000B58C0008B58C0008C5AD0008B58C00084B
:10006000B58C0008B58C0008D1AD00085DAC000867
:100070008DAC000851AD0008B58C0008B58C0008A7
:10008000BDAC0008F1AC0008B58C00080000000011
:10009000000000000000000000000000DDAD0008CE
:1000A000B58C0008B58C0008B58C0008B58C00082C
:1000B000B58C0008B58C0008B58C0008B58C00081C
:1000C000B58C0008B58C0008B58C0008B58C00080C
:1000D000B58C0008B58C0008B58C00080000000045
:1000E000B58C0008B58C0008B58C00080000000035
:1000F00000000000000000000000000089AD0008C2
:1001000000000000B58C0008B58C0008B5AD0008F3
:1001100000000000000000000000000000000000DF
:10012000B58C0008B58C0008B58C0008B58C0008AB
:10013000B58C000800000000000000000000000076
:10014000000000000000000000000000B58C000866
:10015000B58C0008B58C0008B58C0008B58C00087B
:10016000B58C0008B58C00080000000000000000FD
:10017000000000000000000000000000000000007F
:1001800000000000B58C0008000000000000000026
:10019000B58C0008B58C000800B583B008F0F0FC01
:1001A000224B234A03E011681960043304322149C9
:1001B0008B42F8D3204B02E000221A6004331F4A1E
:1001C0009342F9D308F0EAFC01A8694608F0B2FCB2
:1001D0001B4D1C4B5D1BAD10002404E0184B53F865
:1001E000243098470134A542F8DC174D174B5D1BAE
:1001F000AD10002404E0144B53F824309847013428
:10020000A542F8DC019800990AF00EF90546104C59
:10021000104B1C1BA41004E0013C0D4B53F8243080
:100220009847002CF8DC284608F05EFC000000200F
:10023000081C0108040B0020080B0020186900208E
:100240005C0300085C0300085C0300085C03000812
:100250005C0300085C0300083C480047FEE700BF61
:100260001EF0040F0CBFEFF30880EFF30980714616
:10027000374A10472DE9F04182B007468846084BBF
:100280005D6B9C6B9E6A074808F05CFCCDF80080B3
:10029000384631462A46234608F094FCFEE700BF64
:1002A00000ED00E028190108FEE700BF1EF0040F72
:1002B0000CBFEFF30880EFF309807146254A104721
:1002C0002DE9F04182B007468846084B5D6B9C6B78
:1002D0009E6A074808F036FCCDF800803846314663
:1002E0002A46234608F06EFCFEE700BF00ED00E062
:1002F000381901081EF0040F0CBFEFF30880EFF36C
:1003000009807146144A10472DE9F04182B0074632
:100310008846084B5D6B9C6B9E6A074808F012FC90
:10032000CDF80080384631462A46234608F04AFC7C
:10033000FEE700BF00ED00E044190108FEE700BF42
:10034000FEE700BFFEE700BF70470000990100080C
:0C03500075020008C10200080903000843
:1003600008B50A2000F018F8034620B14FF4806168
:10037000024AC2F88010184608BD00BF00E100E044
:1003800018B14FF48062014B1A60704700E100E041
:1003900008B508F01BFD08BD034B1B68034201D0E4
:1003A0000120704700207047003C014000B583B039
:1003B000104B1A6C42F400421A641B6C03F40043A5
:1003C0000193019B0C4B0D4A1A6000229A604FF476
:1003D00082715960DA601A615A614FF48021996123
:1003E000D8611A620722DA62184607F0B5FA03B03C
:1003F0005DF804FB0038024018670020003C004014
:1004000070B586B0012401940294022603960C4D27
:10041000284601A906F02EFD28462146224606F070
:1004200007FE304608F00CFD0194032302930023DD
:100430000393284601A906F01DFD06B070BD00BF5C
:10044000000002402DE9F04700EB0208B8F5805F9C
:1004500031D81E46154604468946FFF781FFDFF86E
:1004600070A049462246074650460DF099FB31469A
:100470002A460AEB04000DF093FB114810210022DC
:1004800006F0D6FD1FFA88F251460E4807F0A6FA8C
:100490000D4A5368002BFCD10C4A93689B07FCD58E
:1004A00010210122064806F0C3FD3846FFF768FF19
:1004B0000020BDE8F0874FF0FF30BDE8F08700BFB7
:1004C0000000024018670020B8600240003C004075
:1004D000080B00202DE9F84386181FFA86F8B8F5B6
:1004E000805F04462CD889461D46FFF739FF10214E
:1004F00000220746144806F09BFD144A144849465A
:10050000434607F0D1FA134A5368002BFCD1124A34
:100510009368DB07FCD4B44207D20C4A135D05F89C
:10052000013B0134A4B2B442F8D3102101220648A1
:1005300006F07EFD3846FFF723FF0020BDE8F88374
:100540004FF0FF30BDE8F88300000240080B0020A8
:100550001867002040600240003C0040022902D0A1
:10056000052909D011E0022A02D10E4BDA6911E007
:100570006AB90C4B1A6A0DE0022A02D1094B5A6A79
:1005800008E032B9074B9A6A04E0002202E0002238
:1005900000E0002200F001031B0122FA03F080B208
:1005A000704700BF0C1B0020014B987B704700BFB9
:1005B0000C1B0020014BD3F8840070470C1B00205B
:1005C000044B5B5C00EB4300034B03EB8000006BD0
:1005D000704700BFD41201080C1B00200138030132
:1005E000024A9069D84080B2704700BF0C1B0020BF
:1005F00000B583B0E1B160F03F007F298DF80400C1
:100600000DD961F07F00C9098DF805008DF806103D
:10061000032001A9FFF716FF03B05DF804FB8DF876
:100620000510022001A9FFF70DFF03B05DF804FBE0
:1006300060F07F008DF8040001A90120FFF702FFA0
:1006400003B05DF804FB00BF08B51318B3F5806F65
:1006500007DC0B461146821E0920FFF7C9FF002068
:1006600008BD4FF0FF3008BD30B583B00725062424
:1006700041F60601022201AB2E208DF804508DF8C0
:100680000540FFF7B5FF03B030BD00BF00B583B034
:1006900002AB012203F8012D03210D20FFF7A8FF73
:1006A00003B05DF804FB00BF00B583B0E1B140F0DA
:1006B00040007F298DF804000DD961F07F00C90941
:1006C0008DF805008DF80610032001A9FFF702FF41
:1006D00003B05DF804FB8DF80510022001A9FFF7B7
:1006E000F9FE03B05DF804FB8DF8040001A90120B8
:1006F000FFF7F0FE03B05DF804FB00BF10B40C463A
:1007000003461146112022465DF8044BFFF7CCBF8B
:100710000346002117200522FFF7C6BF034600212C
:1007200015200522FFF7C0BF00B5042283B080B2B8
:1007300089B20DEB0203FFF7B7FF20B14FF0FF3096
:1007400003B05DF804FB9DF807009DF806109DF8C6
:1007500005209DF80430A0F5807001EB002002EB2D
:10076000002003EB002003B05DF804FB08B5002077
:100770000146FFF7D9FF08BD00B583B080B289B24A
:10078000022201ABFFF790FF20B14FF6FF7003B0DC
:100790005DF804FB9DF805009DF8043003EB002094
:1007A00080B203B05DF804FB30B583B01446150A7F
:1007B00089B2022201AB80B28DF804408DF8055059
:1007C000FFF716FF03B030BD08B50246034B988211
:1007D0002E2041F60401FFF7E7FF08BD0C1B0020A7
:1007E00008B50246034BD88218200021FFF7DCFF32
:1007F00008BD00BF0C1B0020F0B5144683B0170ADB
:10080000160C150E042289B20DEB020380B28DF88E
:1008100004408DF805708DF806608DF80750FFF7DD
:10082000E7FE03B0F0BD00BF10B504462A200B213F
:1008300001222346FFF7DCFE1E2000216268FFF73D
:10084000DBFF10BD08B5054B1A69104340EA815221
:1008500000210820FFF7D0FF002008BD0C1B00205E
:1008600010B5002104460420FFF75EFF54B9094B80
:100870000340094C23631A4604200021BDE81040C0
:10088000FFF7BABF054B04F4FF7444F001040340C2
:100890002343EEE7FEFF47F00C1B002001FE47F06C
:1008A00030B5022183B00446050A0A4601AB032095
:1008B0008DF804408DF80550FFF79AFE03B030BD67
:1008C00030B583B00446050A0021022201AB0320A3
:1008D0008DF804408DF80550FFF78AFE03B030BD57
:1008E0000346002101200822FFF782BE30B583B005
:1008F00002AC050A04F8040D0421234602222D202F
:100900008DF80550FFF774FE0325234606210122CA
:100910002D208DF80450FFF76BFE234601220024A2
:1009200006212D208DF80440FFF762FE0A212D20BC
:10093000FFF7FAFE03B030BD30B583B002AC002340
:1009400004F8043D02252346022101222C20FFF752
:100950004FFE2346294601222C208DF80450FFF734
:1009600047FE03B030BD00BF10B504210446362059
:10097000FFF7DAFE3CB920F4006204213620BDE81E
:100980001040FFF739BF40F4006204213620BDE873
:100990001040FFF731BF00BF30B583B002AB6D220E
:1009A000044603F8052D2E2040F606010122FFF72C
:1009B0001FFE74B90725162441F60601022201AB79
:1009C0002E208DF804508DF80540FFF711FE03B07E
:1009D00030BDFFF749FE03B030BD00BF0A4B1A6BB4
:1009E00040B983F82D0042F48052042000211A639C
:1009F000FFF702BF012122F4805283F82D1004205A
:100A000000211A63FFF7F8BE0C1B002000B50B4B4A
:100A100083B01A6B70B922F000521A6302AB120E47
:100A200003F8012D032101220420FFF7E1FD03B0AB
:100A30005DF804FB42F000521A63EFE70C1B002044
:100A400010B5002104461A20FFF76EFE020DC4F314
:100A50001304120522431A200021BDE81040FFF7BD
:100A6000CBBE00BF024BC3F88800C3F88C107047A0
:100A70000C1B0020F0B5044683B001AD14F0010654
:100A80002B464FF0260025D131460222FFF70CFEFF
:100A90009DF805303146262023F0140602222B460D
:100AA0008DF80560FFF7A4FDA30711D50F242A21B7
:100AB00001222B4636208DF80440FFF799FD0024D3
:100AC0002B4636202A2101228DF80440FFF790FDA5
:100AD00003B0F0BD00210222FFF7E6FD9DF80520DE
:100AE00002AB22F03C02012142F0140203F8032D74
:100AF00026200A46FFF77CFD2B46022101223620E4
:100B0000FFF7D2FD9DF804602B4666F07B060221BC
:100B1000012236208DF804601027FFF769FD0126B9
:100B20002B462821022236208DF804708DF80560AE
:100B3000FFF75EFDB8E700BF10B582B0044601AB19
:100B4000362000210222FFF7AFFD0D2C0ED8DFE882
:100B500004F0252E380D0D0D0D41500D0D075D1CB7
:100B60009DF8053043F002038DF8053001AB0021FC
:100B700001223620FFF73CFD01210A460DF1050355
:100B80003620FFF735FD02B010BD9DF8043023F08C
:100B9000300343F020038DF80430E7E79DF804307C
:100BA00023F0030343F001038DF80430DEE79DF8E2
:100BB0000530002223F001038DF805308DF8042064
:100BC000D4E79DF8043023F0030343F002038DF8CB
:100BD0000430CBE79DF804309DF8052023F04C034A
:100BE00043F0480362F07F028DF804308DF8052051
:100BF000BCE79DF804209DF8053022F04C0203F07C
:100C00007F038DF804208DF80530AFE79DF805309F
:100C100023F002038DF80530A8E700BF70B582B05D
:100C200002AB012403F8084D0021032502223620DF
:100C30008DF8015080260D46FFF7DAFC06210222CE
:100C400001AB2D208DF804508DF80560FFF7D0FC26
:100C5000204608F0F5F82046FFF76EFF284602B060
:100C600070BD00BFF0B583B0064604238DF8073091
:100C70006A4C002384F87C3084F82D30C4F880302E
:100C800084F86930C4F8843084F87D30C4F8883042
:100C9000C4F88C30FFF76AFD2060614B984240F049
:100CA000A9800020FFF748FF2420002101220DF138
:100CB0000703FFF79DFC1E20FFF718FE0546C0F353
:100CC0000722A27306F008039BB223B10420FFF7AA
:100CD0000DFEC4F88400514B93F884304BB102AB45
:100CE000022203F8022D2D2012210122FFF780FCA1
:100CF00003E00022494BC3F884200620FFF7F6FDED
:100D0000464C60600720FFF7F1FDA0600023A3615F
:100D1000E36123626362A36206F002039BB2D3B174
:100D2000A37B012B04D81C20FFF7E0FDA06112E09B
:100D3000032B10D80D20FFF7D9FD384CE0610E20B1
:100D4000FFF7D4FD20620F20FFF7D0FD60621D2069
:100D5000FFF7CCFDA06216F0010F0ED005F01F05C5
:100D60002E4B83F82C50002D47D12E4B1B7803F0CF
:100D70001F032A4A82F82C303FE02A4B1B7803F0ED
:100D80001F03264A82F82C3037E02046FFF7AEFDDD
:100D900045F8040F0134BD42F7D104E0002243F8C6
:100DA000042F8B42FAD106F40066B6B216B1FFF7F3
:100DB00035FF0AE036200521FFF7DEFC20F4007045
:100DC00082B236200521FFF7EFFC0120FFF7B4FEC9
:100DD00004200021FFF7A8FC104B186326200021F7
:100DE000FFF7A2FC40F4A02226200021FFF704FD1B
:100DF000002011E04FF0FF300EE006F004039BB23C
:100E000023B9064901F130036031C7E7034F07F109
:100E1000300560371024B8E703B0F0BD0C1B00208C
:100E20003001CADEFC12010870B582B002AB0326A5
:100E300004460125344003F8085D002102223620D3
:100E400064018DF801602C43FFF7D2FB00261221CC
:100E5000022201AB2D208DF804408DF80560FFF7CC
:100E6000C7FB2846FFF768FE02B070BD10B5002032
:100E700082B0FFF761FE0421002402220DEB010382
:100E800036208DF804408DF80540FFF7B1FB02B025
:100E900010BD00BF024601210A20FFF7ADBC00BF14
:100EA00070B500F0020282B0044602F0FF0322BBDC
:100EB0000DF1070614F0010412D043F006040021DE
:100EC000012233460D208DF80740FFF791FB0F20DC
:100ED0000321FFF751FC10F481601FD102B070BDF7
:100EE00043F002052146334601220D208DF80750BC
:100EF000FFF77EFB204602B070BD02AE802306F8ED
:100F0000013D0021334601220D20FFF771FB0D4A00
:100F10009DF80730012182F87D10CBE7334601228E
:100F2000002140240D208DF80740FFF761FB0020D1
:100F3000FFF71AFD034B002283F87D204FF0FF30AE
:100F4000CCE700BF0C1B002000B583B001220DF1DF
:100F500007030F200321FFF7A7FB9DF8073023F0BD
:100F60007F0203F04003B2EB430F01D0FFF78EFB8B
:100F700003B05DF804FB00BF70B582B002AC402343
:100F800000210E2004F8013DFFF7CEFB0646FFF7D7
:100F9000E7F9002105460A460E20FFF72DFC2346FF
:100FA000002101220D20FFF723FB0021094A0F2019
:100FB000FFF722FCFFF7C8FF324600210E20FFF7A3
:100FC0001BFC2846FFF7DCF9034B002283F87D2049
:100FD00002B070BDF8FF27240C1B002070B5054639
:100FE00082B0FFF7B1FF15F0010414D000242146B0
:100FF00001AB032602220D208DF804408DF8056018
:10100000FFF7F6FA31460F20FFF7B6FB10F48160C8
:101010000FD102B070BD01252146022201AB0D2087
:101020008DF804408DF80550FFF7E2FA204602B033
:1010300070BDFFF7A1FFAB0703D44FF0FF3002B044
:1010400070BD01AB214601250D2002228DF8044020
:101050008DF80550FFF7CCFA4FF0FF30D9E700BF0D
:1010600070B582B004460DF1030304200321012270
:10107000FFF71AFB9CB9154E9DF80340326B0DF13A
:10108000030322F0805524F01004032101220420E0
:1010900035638DF80340FFF7ABFA02B070BD0B4E1D
:1010A0008DF80440250A022201AB0C2000218DF8A6
:1010B0000550FFF79DFA9DF80340326B0DF10303D5
:1010C00042F0805544F01004DFE700BF0C1B002005
:1010D00030B583B00446050A2421022201AB272043
:1010E0008DF804408DF80550FFF782FA03B030BD4B
:1010F00070B50E460546FFF733F9002104460E2071
:10110000FFF712FB56B920EA05020E200021FFF777
:1011100073FB2046BDE87040FFF732B940EA050294
:10112000F3E700BF30B583B002AC022304F8013D01
:10113000054623462F2000210122FFF759FA45B129
:10114000012523462A462F2000218DF80750FFF75E
:101150004FFA03B030BD00BF10B582B002ACE0233F
:1011600004F8013D0321234601223620FFF740FA0F
:1011700023460321F024012236208DF80740FFF793
:1011800037FA02B010BD00BF2DE9F041BF4EC04D8F
:10119000C04882B04FF4806105F050FFD6F800805F
:1011A00095F82D3085F86E30002708F10103394697
:1011B0000F20336085F86870FFF7B6FA3368B64AD7
:1011C0006866092B044642F828004FF48061B14854
:1011D000C8BF376005F032FFB04B9C4200F0BD80C5
:1011E000AC484FF4806105F029FF62056BD595F896
:1011F0002D60A74FF6B1A7484FF4806105F01EFFA0
:10120000620434D514F4801700F0BB80FFF7B4FEFD
:10121000FFF7A2FF2B6B9E489D0000F11881D0F8CC
:101220008C30032280F868200BB16430984702B0FC
:10123000BDE8F08104F46063B3F5606FDBD0FFF7C5
:101240009BFEFFF789FF3B6B9B0004F0F80400F165
:101250003981D7F88C30032287F8682013B107F161
:10126000640098478B484FF4806105F0E7FE14F066
:10127000800153D114F400323FD1894A2240002A20
:10128000D5D00F200021FFF7B7FA2B6B002285F88D
:101290007D209A0040F12281FFF75EFFE30400F118
:1012A000E380270400F11D81E60340F11E8109233C
:1012B00085F86830D5F88C30002BB8D0794898473D
:1012C00002B0BDE8F08173484FF4806105F0B6FECE
:1012D0006304CCD52B6B990040F18980FFF73CFF6C
:1012E000D5F88C300021032285F87D1085F8682020
:1012F000002B9CD06B489847E2E70F20FFF77CFA61
:10130000D5F88C30042285F868200BB165489847E1
:10131000002385F87D3002B0BDE8F081F8220F206F
:101320000021FFF769FA95F86920594B52B193F8FB
:101330002D20002183F8691022B993F87D300BB17C
:10134000FFF71AFED5F88830012285F86820002BB7
:101350003FF46DAF53489847B2E7FFF70DFEFFF734
:10136000FBFE4C484FF4806105F068FE49484FF49D
:10137000806105F063FE4A4A2240002A3FF457AFDD
:101380007FE739461020FFF7F7F9474B0646394605
:1013900011200222FFF788F96B7B5BB3C6F30906C5
:1013A00014F00801A5F86A60394A07D092F86C3049
:1013B00003F0200303F0FF00002B59D085F86910DB
:1013C000002795F82D10324E022385F86830A1B918
:1013D00004F4DE423A430F20FFF70EFAD6F88C30C1
:1013E000002B3FF424AF06F1640098471FE7FFF796
:1013F000C3FD73E706F07F06D2E7012632460DF102
:1014000002030F2003218DF80360FFF74DF99DF8CB
:10141000023023F07F0203F04003B2EB430F6AD0A7
:101420002B6B13F0005441D0D5F88C300BB11D4814
:1014300098470F200221FFF79FF9C4061ED5FFF73A
:101440009BFDFFF789FE2B6B98007FF5F0AE002423
:1014500001252146022201AB0D208DF804408DF8B4
:101460000550FFF7C5F8E2E6082385F8683021E764
:1014700082F8690082F87D000827A2E70321012293
:101480000DEB01030D20FFF7B3F8D0E6081B002099
:101490000C1B002000040240DC59002003008000E7
:1014A00000902724701B0020781B00200126214675
:1014B000022201AB0D208DF804408DF80560FFF786
:1014C00097F8B1E701273146022201AB0D208DF8D4
:1014D00004608DF80570FFF78BF8C3E6FFF74CFD4D
:1014E000DAE6032385F86830E4E660010BD50A23C9
:1014F00085F86830DEE604F4C0423A4300210F204C
:10150000FFF77AF98CE7A102EBD50B2385F8683059
:10151000D0E600BF30B583B000248DF80040FFF75F
:10152000A5FC214601AB02222C208DF804408DF849
:101530000540FFF75DF86B46062101222C20FFF7DE
:1015400057F8FFF7F9F96B46032101223620FFF720
:10155000ABF89DF800506B460321012205F00F0502
:1015600036208DF80050FFF743F8012007F068FCA3
:101570009DF800506B4665F00F05032101223620CF
:101580008DF80050FFF734F8024B83F87D4003B02C
:1015900030BD00BF0C1B002010B582B00DF1070359
:1015A00004460E2101222B20FFF77EF89DF807202C
:1015B00004F01F0422F01F0214430DF107030E2153
:1015C00001222B208DF80740FFF712F802B010BD62
:1015D0002DE9F04383B004460F46057842798E4BDF
:1015E00033F812904678013E8C4BC3F88060042D8E
:1015F00006D0072D14BF4FF000084FF0010801E09E
:101600004FF001082278854B1A73E3793BB9834A7E
:10161000136B43F4800313634FEAD90904E07F4A54
:10162000136B23F480031363237A7C494B73237A6F
:101630001B0403F440330A6B1A430A63042000219D
:10164000FFF7DAF82E2042F604014A46FFF7ACF81D
:10165000F6B23046FFF7A0F9714B13F8059009EB8D
:1016600089032B2007210522DFF8D0E17344FEF720
:10167000BFFF2B200E2101226A4BFEF7B9FF282065
:101680000B210122684B4344FEF7B2FF28200C21B6
:10169000664B53F82920FFF7AFF8E279A37903EB03
:1016A000420327200221624A32F81320FFF77CF818
:1016B000272004215F4B33F81620FFF775F8E379F4
:1016C0002BB9272006216422FFF76EF822E0A378C9
:1016D000042B0FD110220DF1080808F8012D272046
:1016E0000621FFF761F82720262101224346FEF755
:1016F0007FFF0FE00DF10808282308F8013D27209F
:1017000006212022FFF750F82720262101224346F8
:10171000FEF76EFFE37803EB860327200821464A95
:1017200052F82320FFF768F8628941F241039A4298
:101730000BD027202021FFF737F863892BB927200A
:10174000202141F24102FFF72FF8DFF8F480232037
:101750000C21D8F80020FFF74FF808EB46082320AB
:101760000421B8F80420FFF71FF8A3795BB1E379EF
:10177000212000210122DFF8CCE07344FEF738FF7E
:101780000122032101E000221146607905F00F03D8
:1017900043EAC0632D01EDB21D4363789B0403F45B
:1017A00040231D4323799B0503F0F8631D4345EA5D
:1017B00001551F20002145EA4242FFF71DF8E2795A
:1017C000520342F400436178A2780A4343EA02429A
:1017D000124B1A6108200021FFF70EF817F0010FD5
:1017E00004D00E4B93F82C00FFF7D6FE17F0020F33
:1017F0000DD03601094CA069F040C0F34E00FEF751
:10180000E3FFA069F040C0F34E00FEF7E9FF0020BF
:1018100003B0BDE8F08300BF181301080C1B0020C3
:10182000D4120108FC1201084C130108001301082E
:1018300098120108C4120108DC120108A412010860
:10184000C8120108D012010810B582B00446FFF793
:101850000DFB00214FF4FF122820FEF7CDFF0F4AA9
:1018600000212820FEF7C8FF0220FFF765F90D20B0
:10187000FFF762F9032C8CBF2246042200210A20C4
:10188000FEF7BAFF02AB102203F8042D2421012237
:101890002F20FEF7ADFE02B010BD00BF00FF5F00BD
:1018A00038B504460D4610EE100A0BF079F8002208
:1018B000334B0BF0C9F80BF061FBFF2800DDFF2074
:1018C000012D26D1042C01D0072C10D12D4B195DF0
:1018D000002300E0013301EB011292001A442A4C6C
:1018E000A25C8242F6DB1C3B07EE903A36E0274BC7
:1018F000195D002300E0013301EBC10201EB82021C
:101900001A44234CA25C8242F5DB173B07EE903A67
:1019100024E0042C01D0072C11D11A4B195D0023AF
:1019200000E00133C1EB0112C1EB82021A44194CF1
:10193000A25C8242F5DB1E3B07EE903A0EE0134BB1
:101940001C5D002300E001331A2202FB043212491D
:101950008A5C8242F7DB113B07EE903AF8EEE77AB9
:1019600017EE900A0BF01CF803A3D3E900230BF049
:101970006BF841EC100B38BD7B14AE47E17A843F25
:101980000000104050130108EC130108DC1401089A
:1019900058130108E414010874140108412380F865
:1019A0006030882380F86130B0F8CC3080F8633044
:1019B0001B0A80F86430002380F86230704700BF53
:1019C00038B504460D46B0F8C8000021FEF73AFFCE
:1019D000012D02D1A06DFFF75DFA94F8E0002843D5
:1019E000C0B2FFF75DFA30B1D4F804320133C4F865
:1019F0000432012038BDFEF7CBFCC4F88C0601236D
:101A000084F88B36002038BD2DE9F04705460F4697
:101A1000924698464FF000094C461CE0A60055F847
:101A200024100F4B994203D0204600F0C5FF00E080
:101A3000002001280BD00123A34098F8002022EABF
:101A4000030388F80030204601F03EF800E0D1465C
:101A5000034BAB510134A742E0DC4846BDE8F087B8
:101A6000FFFFCDAB2DE9F04F91B004460D46437812
:101A7000082B00F21285DFE813F009009E00C90070
:101A8000310110057901EE01010280000378012B7C
:101A900005D0002B61D0022B2ED000F0FEBC182008
:101AA000FEF7DEFEB4F8CC00FEF7FAFE04F1BF0547
:101AB000284604F1260102220CF072F82846FEF7AF
:101AC0000FFFE08CC4F81802FEF7FAFE0223A370A1
:101AD0000123637084F8E230002384F8F430C4F802
:101AE0003031FEF767FD2046FFF758FFFEF750FC48
:101AF000C4F8E80000F0D1BC00F1BF05284604F1AD
:101B0000260102220CF04CF82846FEF7E9FEB4F854
:101B1000CC00FEF7C5FEE08CB64B1B68034084F892
:101B2000BE30FEF7CDFEE38CB3F5004F02D10123AA
:101B300084F820320020FEF793FE0020FEF780FF9D
:101B4000062363700020FFF78BFA0020FFF7C0FA2E
:101B50002046FFF723FF00F0A0BC0020FEF780FE28
:101B60000020FEF76DFF0020FFF77AFA0020FFF754
:101B7000AFFA0623637000F090BC0A2002F0FEF872
:101B80000378042B03D00123636000F086BC00239C
:101B9000636084F8E230A2786270A370FEF7F8FB0D
:101BA000C4F8E800032007F04BF902F033FA02F022
:101BB0001FFA00F072BC8378022B22D190F8E22049
:101BC000FAB190F8F430013380F8F4300223436026
:101BD0000823437000F5EC700321012204F1F203A5
:101BE000FFF712FFC4F8100294F8F23084F8F330D3
:101BF000002384F8F230FEF7CBFBC4F81C0200F09F
:101C00004CBC63700023A37000F047BC0378012B29
:101C100002D190F8F42001E090F81D2184F86A20A8
:101C2000012B01D1812300E0712384F869300D205C
:101C3000A4F8C80094F8CA305A1C84F8CA2084F862
:101C4000623094F8BF3084F8673094F8C03084F87C
:101C50006830FF2384F8653084F8663004F1600151
:101C60000022FEF7F1FCC820FEF7EAFE2378012BE4
:101C700010D194F8F4302344002283F891260323F2
:101C800084F8E130B4F8500000EB400080B2FFF778
:101C9000E7F90EE094F81D312344002283F89126E1
:101CA000022384F8E130B4F85000400080B2FFF71E
:101CB000D7F9002184F8F21084F8F110022584F895
:101CC000E050B4F8C800FEF7BDFD2846FFF7E8F87D
:101CD00005236370E57001236360DEE30378012B65
:101CE00002D190F8F42001E090F81D2184F86A20D8
:101CF000012B02D194F8F22001E094F8F12084F84D
:101D00008920012B01D1822300E0732384F86930FC
:101D10002C20A4F8C80094F8CA305A1C84F8CA20B1
:101D200084F8623004F160010022FEF78DFC00238C
:101D300084F8E03020460121FFF742FE50B12378BD
:101D4000012B03D163700223A370A6E3204600F0A9
:101D5000CBFFA2E3052363700323E3702378012BF9
:101D600001D184F8E2300123636096E30B2002F096
:101D700005F80378012B0BD03BB1042B03D10123D1
:101D800084F8F03001E0012363600123636084E3A1
:101D900000236360E378032B0AD12378012B03D15E
:101DA00063700223A37078E3204600F09DFF52E0A9
:101DB00094F8F020012A08D1204600F0A5FF002366
:101DC00084F8F03084F8E03067E3D0E90201C4E938
:101DD0003401022B37D12378012B0FD1D4E90C2306
:101DE00012184B410448FF2102400B40CDE90E235D
:101DF0000EE000BFB061002000FEFFFFD4E90E231B
:101E000012184B41AF48FF2102400B40CDE90E2391
:101E1000DDE90E01030A43EA0163A365A28B0023F7
:101E200012184B4103F0FF0310A961E9022304F1EA
:101E3000840005220BF0B4FE04F16B0004F1D00124
:101E400005220BF0ADFEE3780B2B01D10423E370E8
:101E500006236370002594F8E0301BB90020FFF7DB
:101E6000BDF802E0002384F8E03023780BB10123B1
:101E7000636007236370002D00F00F83022D03D0F1
:101E8000042D00F0F28201E30F2001F077FF0546F8
:101E900000238DF830308DF831308DF832308DF8E8
:101EA00033308DF834308DF835308DF836308DF88C
:101EB00037308DF838308DF839308DF83A308DF86C
:101EC0003B308DF83C308DF83D308DF83E308DF84C
:101ED0003F3084F8E330437F03F0CC038C2B27D0D2
:101EE00002D8882B34D043E0C82B11D0CC2B3FD163
:101EF0000CA805F1290108220BF052FE0EA805F1ED
:101F0000210108220BF04CFEAA461AF8316F30E08E
:101F10000CA805F1230108220BF042FE0EA805F1E2
:101F2000210102220BF03CFEAA461AF82B6F20E09A
:101F30000CA805F1290102220BF032FE0EA805F1D2
:101F4000210108220BF02CFEAA461AF82B6F10E094
:101F50000CA805F1230102220BF022FE0EA805F1C8
:101F6000210102220BF01CFEAA461AF8256F00E0A0
:101F7000002694F8E2303BB923782BB9062363702E
:101F80000020FEF75DFD88E29DF830E04E4B1A68B8
:101F90000EEA0207A6F17003122B00F25982DFE865
:101FA00013F0480013004800180157025702570267
:101FB0005702570257025702570257025702570259
:101FC0005702570213001801D5E90201C4E936018E
:101FD000812E07D102EA0E039AF80120234483F8E8
:101FE000F52004E09AF80130274487F81E31E28C8E
:101FF00048F201039A420CD19DF831304EEA032396
:10200000B3F5004F05D1AA69B4F824311344C4F8DC
:102010002C31AB780C2B04D1052363700923E370BA
:102020001BE20E2B02D10723637016E206236370B6
:1020300013E29AF807300133DFB29DF831304EEAEF
:102040000323B3F5004F0DD12378012B0AD19AF861
:1020500002209AF8013003EB02231BB2C4F830319E
:102060000023E362AB780C2B04D1052363700A23B1
:10207000E3702EE00E2B2CD02378012B04D194F8A2
:10208000F22012F0010F11D1E28C48F201018A42D4
:1020900004D194F8F11011F0040F07D1B2F5004FFC
:1020A00007D194F8F12012F0020F02D003236370DD
:1020B0000FE0012B0AD163700222A27084F8E23093
:1020C00007E000BF00FEFFFFB0610020204600F0E7
:1020D0000BFE702E36D194F8F430BB4221D19DF81E
:1020E0003000C74E3368034003F1760004EB8000F4
:1020F0000AF1030104220BF053FD9DF830203368F0
:102100001A4002F1760354F82310BE4B994200F0B6
:10211000A4810123934094F8F220134384F8F23011
:102120009BE19DF83020B64B1B68134003F176020B
:1021300054F82210B34A914200F08F81763344F86C
:1021400023208AE194F82032002B00F0868194F855
:102150001D31BB4240F0818184F81E31234493F944
:102160009136032B24D19DF830009DF83830184467
:10217000A34B1B6818407C3004EB80000AF103017C
:1021800004220BF00DFD04F5F8700321022204F186
:10219000F103FFF739FCC4F8100294F8F13084F829
:1021A000F330002384F8F130AB69C4F81C3254E1F9
:1021B0009DF830009DF838301844914B1B6818404A
:1021C0007C3004EB80000AF1030104220BF0E8FCF0
:1021D00043E100200021CDE90601CDE90801CDE968
:1021E0000A019AF8200094F8BE1001EB810B0BF164
:1021F000070B5FFA8BFB822E0BD102EA0E02224400
:1022000092F8F5209AF801309A4202D006236370C2
:1022100023E1732E11D1E31993F81E219AF80130AE
:102220009A4207D194F8203223B9E28C48F2030392
:102230009A4202D1062363700FE1E28C48F2010357
:102240009A4209D19DF831304EEA0323B3F5004F8D
:1022500002D1012384F8E430C4F81422084110F0BC
:10226000010F00F08E80D5E902890023A36508A83C
:102270000AF1020105220BF093FC0AA80AEB0B01FC
:1022800005220BF08DFC06A80AF11B0105220BF0BC
:1022900087FCDDE90801DDE90A23121A63EB01037B
:1022A000CDE90023D4E934ABD4E93623BAEB0202FA
:1022B0006BEB0303104603F0FF01CDE90201B8EB1D
:1022C0000A0869EB0B0909F0FF09DDE90623DDE9DE
:1022D0000AABB2EB0A0A63EB0B0B0BF0FF0BDDE969
:1022E000002303F0FF03104619460AF07FFBCDE9F7
:1022F0000001404649460AF079FB80468946DDE9FF
:10230000000142464B460AF09FFBCDE904015046CE
:1023100059460AF06BFB82468B46DDE902010AF062
:1023200065FB02460B4650465946CDE902230AF0AA
:102330008BFB02460B46DDE904010AF0D1F9CDE939
:10234000040140464946DDE902230AF0CBF9804604
:102350008946DDE9000152465B460AF0C3F90246B0
:102360000B46404649460AF0BDF902460B46DDE9F8
:1023700004010AF093FC0AF001FE80464FEAE0797E
:1023800003E0DFF880804FF00009822E3CD19DF8F9
:1023900030309DF8312003EB0222C4F81822184B8C
:1023A0001B6813404E3344F8238004F5EC7003217E
:1023B000012204F1F203FFF727FBC4F8100294F89E
:1023C000F23084F8F330002384F8F2300D4A002311
:1023D000994508BF90450ED09DF8300094F8BE1086
:1023E00000F058FB94F8BE3001229A4084F8F220A5
:1023F000763344F82380AB69C4F81C3210E000BF88
:10240000B0610020FFFFCDAB9DF830309DF831204A
:1024100003EB0223C4F8183204EB8707C7F8E48102
:1024200094F89026A31893F8913613F0800F08D1F2
:102430005B42DBB2A11881F8913613B9FF2381F812
:10244000913601F0E7FD01F0D3FD0623637004E04F
:10245000062363700020FEF7F3FA2B7F13F0200FA2
:102460001BD0102001F08AFC17E0112001F086FC3F
:1024700083780C2B04D1052363700B23E3700CE0ED
:102480000F2B0AD1204600F03FFC06E00DB10123DE
:10249000636063680BB901236360606811B0BDE8D5
:1024A000F08F00BF000000002DE9F8432DED028BF6
:1024B00004469FED9B0B08F0ABFC51EC100B0AF0AF
:1024C0005DFD00EB4000000107EE900AF8EEE77AB0
:1024D000DFED998A77EEA88A9FED930B08F098FCC0
:1024E00051EC100B0AF04AFD00EB40004000C00028
:1024F000924BDB7B83B99FED928A68EE888ADFED91
:10250000917A78EEA78A07EE900AF8EEE77A27EE3E
:10251000888ABDEEC88A22E0012B10D19FED8A8AFD
:1025200068EE888ADFED897A78EEA78A07EE900A4E
:10253000F8EEE77A27EE888ABDEEC88A0FE09FEDB5
:10254000848A68EE888ADFED817A78EEA78A07EEC2
:10255000900AF8EEE77A27EE888ABDEEC88A7D4AAF
:10256000D35C764A927A043A302A1AD8DFE802F02D
:102570002E19191922191919311919191919191995
:102580002B1919191F1919191919191919191919A3
:10259000281919191C191919191919191919191999
:1025A0002500DFED6D7A16E0DFED6C7A13E0DFEDEC
:1025B0006C7A10E0DFED6B7A0DE0DFED6B7A0AE00C
:1025C000DFED6A7A07E0DFED6A7A04E0DFED697A31
:1025D00001E0DFED697A594A527A012A0AD107EE01
:1025E000103AB8EEC77A77EE277A9FED647A67EEF5
:1025F000877A09E007EE103AB8EEC77A77EE277AC5
:102600009FED5F7A67EE877A17EE900A0AF0C8F9B5
:1026100006460F46B8EEC88A78EE287A17EE900A7A
:102620000AF0BEF90022574B0AF038FB02460B466F
:10263000304639460AF056F83DA3D3E900230AF0A4
:102640002DFB0AF09BFC054600F1100820460AF01D
:1026500095F941EC100B00F087F9DFF8E090C9E93B
:102660000C0104EBD474601064300AF087F941EC7B
:10267000100B00F079F9C9E90E0118EE900A0AF082
:102680008FF900223F4B0AF009FB02460B46304609
:1026900039460AF027F80AF071FC99F80F30F3B9BF
:1026A00005F53375C9F85050C9F8548000F5967097
:1026B0000AF064F941EC100B00F056F9C9E9100179
:1026C00047EC106B00F050F9000A40EA016010304E
:1026D000C9F848004FF49673C9F84C301BE005F573
:1026E0009E75164C2565C4F8548000F596700AF066
:1026F00045F941EC100B00F037F9C4E9100147EC43
:10270000106B00F031F9000A40EA01601030A0645B
:102710004FF49673E364BDEC028BBDE8F88300BF11
:10272000000000E0917ADD3F0000000000000000A2
:102730000D71AC8BDB68F03F00001843185A002085
:1027400085340046004528487B3480440046A8462E
:10275000C3350043D012010800000000000000450E
:102760000000C0440000804400000044000080439A
:10277000000000430000804200008045EA5B7E3F8D
:10278000B341823F00408F40014BD884704700BF67
:10279000185A002030B5A1B005467F2468460C4980
:1027A00022460BF0FDF91820FDF700FE2846FFF742
:1027B0004BF8204669460022FDF746FF20460021DF
:1027C000FEF740F80020FEF76BFB002021B030BD83
:1027D000BC1501082DE9F043FBB0002406798DF803
:1027E00000408DF801408DF802408DF803408DF8CF
:1027F0000440FDF7CDFD012E08902BD0062E434D51
:1028000022D102A9A02252A8ADF80C408DF80840B0
:102810008DF809600BF0C4F995F889768DF8E341DD
:1028200007EB870805EB48180137FFB252A908F5F6
:102830000A70A0220BF0B4F9062F88F8286214BFA2
:1028400085F8897685F88946002385F88B367BB034
:10285000BDE8F0836846FDF75BFF9DF802009DF838
:1028600001109DF80030294D9DF803709DF804205B
:10287000B5F8C8E0ADF80CE0000400EB0121194404
:1028800001EB076314EB030891464FEA026202EB87
:10289000132749F10009724605F1600109A8069362
:1028A000CDE9048907978DF808408DF80A408DF826
:1028B000096085F8E3400BF073F902A92AA8A02269
:1028C0000BF06EF995F889768DF8434107EB870890
:1028D00005EB48182AA908F50A70A0220BF060F948
:1028E000D5F8FC3188F828620137FFB20133062F92
:1028F000C5F8FC314FF0000314BF85F8897685F8E0
:10290000894685F88B367BB0BDE8F083185A0020E5
:1029100008B5094A92F9E130002B0ADD106D13FB6E
:1029200000F080B2FEF79CFB0020FEF757FB0E2064
:1029300008BD0F2008BD00BF185A002010B5094C73
:10294000606D400080B2FEF78BFB0020FEF746FB77
:10295000B4F85400FEF784FBD4F808320133C4F80D
:10296000083210BD185A002008B551EC100B06A310
:10297000D3E900230AF092F905A3D3E900230AF072
:102980008DF90AF073FB08BDFA48CE3B1835B13D0E
:102990000000000080842E4108B509F0EFFF04A379
:1029A000D3E900230AF050F841EC100B08BD00BF3A
:1029B000FA48CE3B1835B13D2DE9F84304460846A8
:1029C000FFF7EAFF31A3D3E9002351EC100B0AF023
:1029D0003BF82B4D2B4B6A7C95F80890E40006469B
:1029E0000F462344C3E900673AB1B9F1050F32D06D
:1029F0001DA3D3E900230AF051F90AF0E7FA697A36
:102A0000DFF87C8000EE100A4846FEF749FF3046AA
:102A100053EC102B394609F063FE002200230646D2
:102A20000F460AF083FA98B93046394610A3D3E925
:102A300000230AF099FA58B9134AD8F80C32144412
:102A4000C4E900670133C8F80C320120BDE8F883FF
:102A50000020BDE8F88308A3D3E900230AF01EF99B
:102A6000CBE700BFAFF30080F6285C8FC2F5F43FE0
:102A7000000000000088D340295C8FC2F528F83F91
:102A8000185A0020F8620020B063002000000013F4
:102A900019DDB14130B4064A064B02EBC101D1E960
:102AA000004503EBC000C0E9004530BC704700BFE3
:102AB000B0630020B8610020024B03EBC00090ED32
:102AC000000B7047B8610020064B074A30B4C000C5
:102AD0000024002503441044C3E90045C0E9004533
:102AE00030BC7047F8620020B0630020014B1870C2
:102AF000704700BF185A0020014B1878704700BF7C
:102B0000185A0020034B0022D3F81002C3F81022F9
:102B1000704700BF185A0020014BD3F814027047C9
:102B2000185A0020014BD3F818027047185A002099
:102B3000014BD3F81C027047185A002038B50D4CD1
:102B400000250120E565FEF7EDFA0B4984F8CA502F
:102B5000C4F80C52C4F8D811C4F8DC11C4F8E01160
:102B600004F59A7304F5EA7243F8041F9342FBD10B
:102B700038BD00BF185A0020FFFFCDABFDF7F6BDF2
:102B8000F8B54F4C0378237243786373437823730B
:102B900083786372C378E3730279A2724279E27236
:102BA0008279A27300222274022B0546008960827A
:102BB00008BF01230E46434808BF63744FF001016C
:102BC00018BF6274FEF704FD2B783F4F217A03EBA8
:102BD000430317F823302375A878FDF7F1FC431E53
:102BE000033306D92B78AA7803EB4303134457F831
:102BF0002300334FA06107F11400FDF715FEFDF728
:102C0000D3FC0238C0B2012833D9A878FDF7E6FC1E
:102C1000C0F34F00431E9BB24FF6FD729342B88340
:102C200020D8FDF7D1FDA08BFDF7DAFDA38BE38360
:102C30002B79042B39D0F388A362B388A4F822310E
:102C40003388A4F824313288E2627288A4F82621FD
:102C5000023A03FB02F3C4F828313089BDE8F8409A
:102C6000FFF722BCAB78194A013B32F81300B88356
:102C7000D7E73878FA7B397AA0F10200B0FA80F011
:102C80004009FDF76BFC431E9BB24FF6FD72934269
:102C9000B883C6D93B7A0E4AA3F10503B3FA83F38E
:102CA0005B0932F81300B883BBE71820FDF77EFB01
:102CB0000020FEF7B9F80820FDF778FBBBE700BF5E
:102CC000185A0020205A00205C15010840160108FF
:102CD0003C160108034B00F0030003EBC00393ED27
:102CE000000B7047B063002008B506220223037072
:102CF00042700020FEF7B4F90020FEF7E9F9002049
:102D0000BDE80840FDF79CBE38B503460020DA6DEB
:102D10001C7858600132022CDA6532D0012CDA7846
:102D200008D0022A13D0032A1DD001210322597092
:102D30009A7038BD022A1BD0032AF6D11D46FEF731
:102D40001BF9022385F8E2406C70AB7038BDDA8C59
:102D500048F201018A421AD0B2F5004FE5D193F84A
:102D6000F1209207E1D41846BDE83840FFF7BCBF18
:102D700093F8F210C807D8D483F8E2405C709A70D8
:102D800038BD06225A70BDE83840FEF769B993F89D
:102D9000F1205107C9D4E6E7044B1B681840C0B2C4
:102DA000022801D0FFF7B4BD0F207047B0610020AA
:102DB00010B50F4C0F4AE38C1268B3F5004F06D0E4
:102DC0000F2048F20102934208BF0F2010BD0240BD
:102DD000D2B2012A01D00F2010BDB4F85000FEF786
:102DE0003FF90020FEF7FAF8E38C0E20E9E700BF78
:102DF000185A0020B061002008B5074B986D9B6CF5
:102E0000C01AFEF747F80120FEF7E8F800B908BD40
:102E1000BDE80840FFF792BD185A00202DE9B04FD9
:102E200086B000AF03463960FB800F23FB7500239B
:102E30003B610023FB60A04AFB684FF4F36101FB98
:102E400003F31344E0335B78002B05D10020FEF739
:102E500007F90020FEF73CF93B6803F00103002B63
:102E60002CD0954AFB684FF4F36101FB03F3134444
:102E7000E0335B785BB2012B01D101233B618E4AC9
:102E8000FB684FF4F36101FB03F3134403F508738C
:102E90001B78002B0AD1884AFB684FF4F36101FBD1
:102EA00003F31344B8339B79032B07D10020FEF7BB
:102EB000D7F80020FEF792F80E23F7E07E4AFB6871
:102EC0004FF4F36101FB03F31344583319687A4A52
:102ED000FB684FF4F36000FB03F313444033D3E982
:102EE00000234FEA122A4AEA036A4FEA132B534699
:102EF000CA187149FB684FF4F36000FB03F30B44FD
:102F000058331A603B6803F00103002B15D16A4A5D
:102F1000FB684FF4F36101FB03F31344E0335B7888
:102F20005BB26549FA684FF4F36000FB02F20A44B1
:102F3000B83292791344022B03D03B69012B40F045
:102F4000A6805D4AFB684FF4F36101FB03F3134471
:102F5000E03302221A70584AFB684FF4F36101FB18
:102F600003F3134458331B681846FDF793FF0320FF
:102F7000FDF796FF0346002B4BD00020FDF760FDC8
:102F80004D4AFB684FF4F36101FB03F31344E03354
:102F900000221A70484AFB684FF4F36101FB03F307
:102FA000134403F500735B685A1C4349FB684FF4F4
:102FB000F36000FB03F30B4403F500735A603E4AD1
:102FC000FB684FF4F36101FB03F3134458331968B2
:102FD000394AFB684FF4F36000FB03F313444033BA
:102FE000D3E900234FEA122848EA03684FEA13297D
:102FF00043465B00CA183049FB684FF4F36000FB9E
:1030000003F30B4458331A60FFF7F6FE0E23FB75EB
:103010004BE0294AFB684FF4F36101FB03F31344CF
:1030200058331968244AFB684FF4F36000FB03F33C
:1030300013444033D3E90023140A44EA03641D0A0D
:103040002346CA181C49FB684FF4F36000FB03F3E6
:103050000B4458331A600C23FB75FDF799F90346AE
:103060001846154AFB684FF4F36101FB03F3134460
:1030700003F5D1635860104AFB684FF4F36101FB1C
:1030800003F3134403F5D1630122DA700DE0FB88EA
:10309000002B06D10020FDF7E3FF0020FDF79EFF87
:1030A00001E0FFF7A9FE0E23FB75FB7D18461837DC
:1030B000BD46BDE8B08F00BF185A002090B585B05E
:1030C00000AF3B600346FB800B467B7113463B71B0
:1030D0000023FB81FB88DAB2804B1B68DBB2134014
:1030E000DBB27B730023BB601323FB817C4ABB688C
:1030F0004FF4F36101FB03F31344C833FA891A80D8
:10310000BB684FF4F36202FB03F36033744A134469
:10311000591D7B793A6813440846194602220AF081
:103120003FFD6F4ABB684FF4F36101FB03F31344A7
:10313000B833D8796A4ABB684FF4F36101FB03F3F3
:10314000134460330246DA71654ABB684FF4F36199
:1031500001FB03F31344B933D879614ABB684FF4D8
:10316000F36101FB03F3134461330246DA71BB6878
:103170004FF4F36202FB03F36B33594A1344581CB8
:103180007B7BBA684FF4F37101FB02F2134478338E
:103190009B00534A13440433194604220AF000FDED
:1031A0007B7B4F49BA684FF4F36000FB02F20A449C
:1031B000134403F58C739879494ABB684FF4F36163
:1031C00001FB03F313446F3302465A707B7B44497F
:1031D000BA684FF4F36000FB02F20A44134403F5AB
:1031E0008C7300229A713B7901331A463B68134471
:1031F00018783B4ABB684FF4F36101FB03F31344B7
:1032000003F58C7302465A71354ABB684FF4F3617B
:1032100001FB03F31344C8339B785A1CD4B23049E2
:10322000BA684FF4F36000FB02F20A44C832214648
:1032300091702B49BA684FF4F36000FB02F20A4424
:1032400060329370264ABB684FF4F36101FB03F3CD
:10325000134448335B681846FDF7F2FB204ABB680D
:103260004FF4F36101FB03F3134403F59873002259
:103270001A601B4ABB684FF4F36101FB03F313446C
:10328000693300225A70164ABB684FF4F36101FBA0
:1032900003F313446A3300225A70114ABB684FF497
:1032A000F36101FB03F31344683372225A70FB8904
:1032B00018460021FDF7C6FABB684FF4F36202FB23
:1032C00003F36033064A1344FA8910461946002274
:1032D000FDF7BAF91437BD4690BD00BFB0610020BC
:1032E000185A002090B589B000AF3B600346FB80C0
:1032F0000B467B7113463B710023FB83FB88DAB2DC
:10330000C04B1B68DBB21340DBB27B770023BB6191
:103310001323FB83BC4ABB694FF4F36101FB03F346
:103320001344C833FA8B1A80BB694FF4F36202FB73
:1033300003F36033B44A1344591D7B793A6813444C
:103340000846194602220AF02BFCAF4ABB694FF42B
:10335000F36101FB03F31344B833D879AA4ABB697C
:103360004FF4F36101FB03F3134460330246DA7157
:10337000A54ABB694FF4F36101FB03F31344B9336E
:10338000D879A14ABB694FF4F36101FB03F31344FD
:1033900061330246DA71BB694FF4F36202FB03F357
:1033A0006B33994A1344581C7B7FBA694FF4F3710D
:1033B00001FB02F213444E339B00934A1344194617
:1033C00004220AF0EDFB7B7F8F49BA694FF4F3606A
:1033D00000FB02F20A441344F03358798A4ABB696D
:1033E0004FF4F36101FB03F313446F3302465A7049
:1033F0007B7F8549BA694FF4F36000FB02F20A440F
:103400001344F03300225A713B7901331A463B686A
:10341000134418787C4ABB694FF4F36101FB03F352
:103420001344F03302461A71774ABB694FF4F361D3
:1034300001FB03F31344C8339B785A1CD4B272497E
:10344000BA694FF4F36000FB02F20A44C832214625
:1034500091706D49BA694FF4F36000FB02F20A44BF
:10346000603293707B7F6849BA694FF4F37000FB58
:1034700002F213444E3351F82330644A934236D05B
:10348000614ABB694FF4F36101FB03F31344B833A2
:103490009B791A4601239340D8B25B4ABB694FF42B
:1034A000F36101FB03F31344F03302469A70564A6A
:1034B000BB694FF4F36101FB03F31344B8339B7909
:1034C0001C467B7F5049BA694FF4F37000FB02F24F
:1034D00013444E3351F823204B49BB694FF4F3702A
:1034E00000FB03F32344763341F823201EE0464AD1
:1034F000BB694FF4F36101FB03F31344B8339B79C9
:103500001846414ABB694FF4F37101FB03F30344CE
:1035100076333E4942F823103B4ABB694FF4F361CE
:1035200001FB03F31344F03300229A70364ABB695F
:103530004FF4F36101FB03F3134448335B6818460F
:10354000FDF77EFA304ABB694FF4F36101FB03F3E8
:10355000134403F508731B78002B00F090800023C0
:103560007B6100233B610023FB60274ABB694FF46A
:10357000F36101FB03F3134403F590735B881A4670
:103580003B6BB3FBF2F102FB01F29B1A3B61FB8840
:10359000DBB21D49BA694FF4F36000FB02F20A4442
:1035A00002F59072928802FB03F3FB60FA683B69B4
:1035B000D31A7B61144ABB694FF4F36101FB03F337
:1035C000134403F590735B885B089BB25A427B6996
:1035D0009A421DDD0C4ABB694FF4F36101FB03F312
:1035E000134403F590735B881A467B691A440649B5
:1035F000BB694FF4F36000FB03F30B4403F59873CE
:103600001A6010E0B0610020185A0020FFFFCDAB17
:103610003A4ABB694FF4F36101FB03F3134403F52A
:1036200098737A691A60354ABB694FF4F36101FBFC
:1036300003F3134403F598731B68D8B22F4ABB6990
:103640004FF4F36101FB03F31344693302465A70EC
:103650002A4ABB694FF4F36101FB03F3134403F5FA
:1036600098731B681B12D8B2244ABB694FF4F361EC
:1036700001FB03F313446A3302465A701EE01F4AEB
:10368000BB694FF4F36101FB03F3134403F5987333
:1036900000221A60194ABB694FF4F36101FB03F37E
:1036A0001344693300225A70144ABB694FF4F36122
:1036B00001FB03F313446A3300225A700F4ABB69BB
:1036C0004FF4F36101FB03F31344683370225A7023
:1036D000FB8B18460021FDF7B5F8BB694FF4F36288
:1036E00002FB03F36033054A1344FA8B1046194674
:1036F0000022FCF7A9FF2437BD4690BD185A0020D0
:1037000084B02DE9F041114E9DF8B88096F88946B5
:1037100004EB840506EB451506AF013487E80F007E
:10372000E4B2002705F50A7006A9A0228DF8B3704F
:103730000AF036FA062C85F8288214BF86F88946E6
:1037400086F88976BDE8F04104B07047185A002029
:1037500084B080B5A8B026AF07F1100E8EE80F0038
:1037600000237B604B4A7B684FF4F36101FB03F35A
:1037700013441B78022B46D1464A7B684FF4F36111
:1037800001FB03F31344E0335B785BB2002B33DDC2
:10379000404A7B684FF4F36101FB03F31344E033C9
:1037A0005B78DBB2DBB2013BDBB2D8B2394A7B6873
:1037B0004FF4F36101FB03F31344E03302465A7004
:1037C00000200021FFF72AFB0346BB7400233B7453
:1037D00044237B740023BB8204232493694607F1AE
:1037E00020039022084619460AF0DAF907F110037F
:1037F0000FCBFFF785FF46E00020FDF731FC0020EE
:10380000FDF7ECFB3FE0234A7B684FF4F36101FBDB
:1038100003F313441B78002B03D10020FDF7DEFBDC
:1038200031E01C4A7B684FF4F36101FB03F313445E
:10383000E0335B78DBB2DBB2013BDBB2D8B2154AD6
:103840007B684FF4F36101FB03F31344E03302465A
:103850005A700020FFF7A0FA0346BB7400233B74A4
:1038600044237B740023BB8204232493694607F11D
:1038700020039022084619460AF092F907F1100336
:103880000FCBFFF73DFF0837BD46BDE8804004B0D1
:10389000704700BF185A00202DE9F04F8346ADF560
:1038A0001F7D00258DF890508DF891508DF8925025
:1038B0008DF893508DF89450FCF76AFD9BF8043016
:1038C0002C9026AC022B49D0042B0CD02AA9902294
:1038D00068460AF065F994E80F00FFF739FF0DF527
:1038E0001F7DBDE8F08FBD4E33780F22022BA270F2
:1038F00000F0108100250427214676A84FF000082B
:103900004FF00009A0222570A580256165616770D0
:10391000C4E902890AF044F996F889468DF8735291
:1039200004EB840306EB431676A906F50A70A02281
:1039300001340AF035F9E4B2A84B86F82872062C57
:1039400014BF83F8894683F88956A54820210122AF
:1039500003F06EFB0DF51F7DBDE8F08F9BF808208E
:10396000BBF80610A18002F0DF02412A00F0C380FC
:103970002F46AA46A9464FF00108632624A8FCF763
:10398000CDFEBBF806102DA80022FCF7B7FE9DF86F
:1039900092009DF891109DF890309DF893E09DF86D
:1039A00094206670000400EB01210B4403EB0E63CE
:1039B0000020114620701206C01841F1000102EBF0
:1039C00013224FF00F0E022E2361C4E9020162613F
:1039D00084F802E07FF47AAF804EA0442744327826
:1039E00098F81C003B7F002A57D0012A00F0A180E4
:1039F000611903EB0023087FA0F170019FB2122927
:103A00004BD8DFE811F01300F3001300D1004A0097
:103A10004A004A004A004A004A004A004A004A0056
:103A20004A004A004A004A009C00D100012A00F0E6
:103A30002F81032A00F06981702800F04C8196F8EC
:103A40002022664B3AB193F81D211A4492F991163F
:103A5000022900F07D81F18C604B48F20202914214
:103A600040F00D8193F890261A4492F891160806BA
:103A700000F1058193F8E1500131013D82F8911682
:103A800083F8E1500020FDF7EBFA0020FCF7D8FFA7
:103A900038460121FFF7C2F9A070012386F8E33010
:103AA00021464EA8A0220AF07BF896F88946DFF856
:103AB0002C8104EB840506EB4515002705F50A70FB
:103AC0004EA9A0228DF8D3710AF06AF8022385F876
:103AD00028320134D6F80032E4B2062C03F1010397
:103AE00014BF88F8894688F88976C6F800320DF543
:103AF0001F7DBDE8F08F9BF8092002F0CC02882AD8
:103B00007FF436AF092507271E46A946BA464FF06F
:103B1000080833E796F8E1305AB2002A7FF7EAAE98
:103B2000013BF08C86F8E1300621FFF777F9A070B1
:103B3000E0E696F8E110013986F8E11058E7012A2D
:103B400035D02544DFF8A0806B7FD8F80020A1692C
:103B5000009103F00F0307EA020503EB0515EDB230
:103B600006EB050E4FF0000C51464A462DAB8EF881
:103B700091C6384686F89056FFF7B4FBB6F8540065
:103B8000FDF76EFA0223626986F8E1301946B265E4
:103B9000F08CFFF743F9D8F80030124AA0703B4090
:103BA0004E3346F8232078E7012A7FF476AF96F863
:103BB000E13001332AA9902286F8E130684609F005
:103BC000EFFF94E80F00FFF7C3FDD6F800320122A3
:103BD0001344C6F8003286F8E32080E6185A002025
:103BE00000000240FFFFCDABB061002096F820E25C
:103BF000DFF88481BEF1000F7FF44FAFB8F82610D4
:103C000048F2020399423FF648AF012ACFD0DFF8CD
:103C100064B12544DBF800206B7F07EA020503F05E
:103C20000F03083503EB0515EDB208EB050C2DABC2
:103C300051464A46384688F890568CF891E6FFF788
:103C40003DFA48F201039F4203D0B8F85400FDF753
:103C500007FAF08C6269DBF80030B265C21B1340D2
:103C600086F8E1300321FFF7D9F8DBF80030404A4D
:103C7000A0703B4006EB8303C3F8E4210DE700206E
:103C8000FDF7EEF90020FDF7A9F90E23A37004E774
:103C900096F8F420374D32442B6892F891163B4049
:103CA000D8B20131022882F891164CD10F2096F833
:103CB000F250A07003EB83020121073201FA03F3F3
:103CC00056FA82F02B4324A9052286F8F230693097
:103CD00009F066FFE1E696F89036DFF89CE03344A1
:103CE00093F891160D06CAD49EF8E12050B2002830
:103CF000C5DD4D1C013A3846042183F891568EF8F3
:103D0000E120FFF78BF8A070C7E696F81D31334429
:103D1000384693F89126013283F89126FFF748F848
:103D200007F0030796F8F120A070012307EB870145
:103D3000BB407018134324A9052286F8F130703077
:103D400009F02EFFA9E6FEF7E3FD2B683B40AEE746
:103D500093F8F150384645F008050327052183F80C
:103D6000F15082F89176FFF759F8A07095E600BF00
:103D7000FFFFCDABB0610020185A00202DE9F04BB9
:103D8000264D95F8881601EB810149016C1804F560
:103D90000A7294F828322BB9214A214813705370C3
:103DA000BDE8F08B04F50C731D4ED4F8387292F810
:103DB00002C0B2F804E03761D3E9008983462944A0
:103DC0005078D4F840327070D4F83C72B36101F589
:103DD000117106F11C007F22C6E9028986F802C033
:103DE000A6F804E0776109F0DBFE95F8883694F8D0
:103DF000281284F8C3B20133DBB20022062B08BFBD
:103E00001346317084F8282214BF85F8883685F867
:103E1000882685F88A360248BDE8F08B185A0020BB
:103E20001063002038B50A4C04F570752046002157
:103E3000A034A02209F0B2FFAC42F7D1054B00221A
:103E400083F8892683F8882683F88A2638BD00BF40
:103E5000405C0020185A002038B5254D002302226E
:103E600040F60F002A706B7085F8E230FCF7FAFE1E
:103E700004460320FCF7FEFDB4BBFEF75FFE4DF6E3
:103E8000CA63A5F8CC3085F8E04085F8E34085F8B2
:103E9000E440FFF7C7FF0822214605F1BF0009F003
:103EA0007DFF2046C5F83041FCF7B0FD2046FCF709
:103EB00095FD10480121FDF71BF90F480F49FCF74C
:103EC000D1FDFF2305F29160F6214FF4807285F851
:103ED0008B46C5F80442C5F8084285F8E13009F080
:103EE0005DFFAC65204638BD4FF0FF3038BD00BFE8
:103EF000185A002080D02324D527000899380008BC
:103F0000F8B5364F364897F88A3603EB830307EB4C
:103F1000431301210A4693F8284203F089F82F4DF4
:103F200021462846FDF79EFD002406460028F6D0CF
:103F30002B480121224603F07BF8022E34D095F85D
:103F4000E430012B01D00020F8BD97F8E340234D69
:103F5000002CF8D12B78012BF5D1FCF719FAD5F804
:103F6000E830D5F8EC20C01A9042ECD995F88936A3
:103F700085F8E44003EB8302520102F50A71013334
:103F80002944DBB22A44062B4FF084064FF004008C
:103F90008C8081F89B404E7082F8280214BF85F80F
:103FA000893685F88946CEE72B78012B06D095F81F
:103FB000E430002287F8E3207A60C2E7E86AAA6A60
:103FC000D5F8301185F8E43002440A44C5F8EC20F5
:103FD000C5F83411C5F83041EBE700BF185A00208E
:103FE00000080240014BC3F894077047185A00209C
:103FF00010B5074C94F82430012B00D010BD1E20C2
:104000000021226AFCF7F8FB002384F8243010BD5D
:10401000185A002010B5084C94F82530012B00D018
:1040200010BDE08BFCF7D0FBA08BFCF7D9FB002385
:1040300084F8253010BD00BF185A0020410900F057
:104040001F0001238340024A42F82130704700BF1D
:1040500000E100E0430900F01F000122824020330C
:10406000014941F82320704700E100E02DE9F04FBD
:104070002DED028B634FDFF8B48185B00023B94684
:10408000C346039303E0FEF73DFD002846D197F8B1
:104090008B46FCF77DF9D7F88C66054604F0C4FE24
:1040A000FFF72EFFFEF728FD012CC8F80000EAD12B
:1040B000B9F82431AD1B9D42E5DD21460F20FCF708
:1040C00033FB214605461920FCF72EFB2146064608
:1040D0000A20FCF729FB214682460620FCF724FB38
:1040E00032462B468DE801044749484809F0BAFE9C
:1040F000464806F09DFCDBF800300022012B89F8D1
:10410000E0201CD0FCF738FF062389F8013000239B
:1041100087F88B36FEF7F6FC0028B8D0FEF7FCFCDB
:10412000FEF700FDFEF704FDD8F80030022B0AD0A0
:10413000012B4AD0FCF72CF9354B1860A7E7314822
:10414000FEF7E2FDE3E70398FEF7B6FC002251EC30
:10415000100BB0EE408AF0EE608A2E4B08F074FC33
:1041600008F00CFF002848D1039C292501E0013DFF
:1041700018D0631C272BD6BFA61C00241C46204643
:10418000C8BF0126FEF798FC002251EC100BB0EEE0
:10419000408AF0EE608A1F4B08F056FC08F0EEFEF5
:1041A0000028E4D003961C4B1C491A681C4823467F
:1041B0008DED008B09F056FE194806F039FC039B83
:1041C000272BB7DD00230393B4E7039D154A284648
:1041D0001468FEF77FFD22468DED000B1249104852
:1041E0002B4609F03FFE2B4601331C460C48039337
:1041F00006F01EFC022CE5DC9CE7039B1C46013309
:104200000393D0E7185A00206C16010818650020A7
:10421000A01B002000408F40C065002088160108C8
:1042200078640020746400209C160108600000205F
:1042300008B50D4B1B680D4A136002280FD1042BE3
:1042400007DD0B4B18686FEA40436FEA534398B29F
:1042500006E06FEA43436FEA534398B200E098B236
:10426000FEF792FA08BD00BFB01B0020A81B00207B
:10427000B06100200346C0F3400003F004039BB28A
:1042800003B10230704700BF30B587B005464CA37C
:10429000D3E90023CDE900231820FCF787F8FEF7C7
:1042A0006DFC3F4B984217D03E4C20461021012216
:1042B00002F0BEFE012004F0C3FD204610210022C2
:1042C00002F0B6FE072004F0BBFDFEF757FC344BAE
:1042D00098425BD1FDF71EF9FCF792F86846FCF7AF
:1042E000FFFAFFF7B9FD002853DB0820FCF75EF862
:1042F000FEF744FC2A4B98424ED105F008039BB2CE
:104300001BB90122284B1A6002E00222264B1A60D8
:10431000254C2088FFF78CFF2368022B05D1234B07
:104320001B68042B01DD002222601F4B1868FEF77A
:10433000DDFB2846FFF79EFF1D4B18601D4C8100DA
:104340000A185200A318A25C8DF80C201A4C2260A7
:10435000DA788DF80D205A788DF80E205A798DF87C
:1043600011209A798DF812201A89ADF814209A78C4
:104370008DF80F201B798DF810300144490003A8F7
:104380000E4B1944FEF7FCFB054807E04FF0FF30E9
:1043900004E04FF0FF3001E04FF0FF3007B030BDD8
:1043A0003001CADE0000024060000020A81B00208F
:1043B000A41B00202C000020BC6500200000002071
:1043C0000BA7375E1068071008B50120FFF70AFE3B
:1043D00008BD00BF08B50B480221012202F028FEEB
:1043E0000948402102F02AFEFCF7CEFE07481021C2
:1043F00002F016FE0128EED002480221002202F04F
:1044000017FE08BD00080240000002400004024000
:10441000094C002108B520680A460B4605F096F9BC
:1044200000210B4620684FF0FF3205F08FF901287C
:10443000F6D1FFF7CFFFF3E7B865002030B583B0C2
:104440000446FEF759FB054604F00204A4B20CB979
:10445000304A00E0304A314C314B1B683149096821
:1044600000912046304909F0FDFC204606F0E0FAB4
:104470002E4C20462E492F4B1A6809F0F3FC20469B
:1044800006F0D6FA2C4C20462C492D4B1A6809F020
:10449000E9FC204606F0CCFA2A4C20462A492B4B50
:1044A0001A6809F0DFFC204606F0C2FA284C2046C4
:1044B0002849294B1A6809F0D5FC204606F0B8FABD
:1044C000264B1A68264B1A60264B1A60012D08D11C
:1044D000254C2046254909F0C5FC204606F0A8FADF
:1044E00015E0022D08D1204C2046214909F0BAFCE4
:1044F000204606F09DFA0AE004221A4B1A601A4C74
:1045000020461C4909F0AEFC204606F091FA03B0A3
:1045100030BD00BFD4170108B01601087864002030
:10452000BC65002054000020B4160108CC630020B4
:10453000D81601085800002024640020EC16010859
:10454000280000206865002008170108640000208A
:10455000C8640020281701085C000020A81B002068
:1045600074640020C0650020186500204817010809
:10457000541701086017010808B500F0020083B263
:104580000BB90E4A00E00E4A0E4C20460E490F4B66
:104590001B6809F067FC204606F04AFA20460C49E1
:1045A000102209F0FDFA204606F042FA4FF480503E
:1045B000FEF7F0F8022004F043FCFBE7D4170108F3
:1045C000B0160108786400206C170108BC65002053
:1045D0008017010808B5044B1B7823B1034B1868FA
:1045E000002105F057F808BD9C1B0020B86500208D
:1045F000F8B59FED330B00AF06F09EFC36A3D3E970
:10460000002351EC100B08F049FB41EC100B06F0B5
:10461000FFFB51EC100B08F0B1FC840004F10A031D
:10462000294A2A4D1060014623F00703ADEB030D24
:10463000053001396E46286018D46C440A2202E025
:1046400023604B1C12D0224B1340002B02EBD27282
:1046500001F1FF31A4F104044FEA6202F0DA013BF8
:1046600063F00103013323604B1CECD104F00EFC1A
:1046700000230122827003704370C3702B68052BE6
:1046800086460EDD311F0330042251F8043F00330B
:1046900018BF012300F8013F2B6801325C1E9442D1
:1046A000F3DC734400210B4A03F8011C7046C2F886
:1046B00000E004F03DFCBD46F8BD00BFAFF3008054
:1046C00000000000000044400C5A0020105A002056
:1046D00001000080085A0020EF39FAFE422EE63F22
:1046E00070B545488AB006F0A3F9444806F0A0F931
:1046F000FFF77EFF424B1868002873DD414B424CA8
:104700001D682168013D002315F8012F9A400133EF
:10471000114383422160F7D105280FDD394B3B4E11
:104720001D683168431E1D440538002315F8012D0E
:104730009A400133114383423160F7D1344B354DF8
:104740001868314E08F01AF99FED290B41EC110B56
:1047500006F078FC0022304B51EC100B07F0C0FF44
:1047600008F00CFC28600A20FFF774FC2B4806F0C8
:104770005FF92088FFF788FD01302FD0306800F006
:104780003803382B80B22FD0254CFFF757FE0A2074
:10479000FFF754FC0FCC6D460FC554F8043B2B605B
:1047A0000021684604F01CFB1E4B18600FCC05ADC1
:1047B0000FC523682B60002105A804F011FB1A4BDC
:1047C000032218600021012004F082FE174A184BD2
:1047D000106001221A7000200AB070BD154806F062
:1047E00027F9F8E7084C97E7FFF7C6FEAFF300801C
:1047F000000000000000004094170108A017010805
:10480000105A0020085A0020AC1B0020B01B0020CA
:104810000C5A0020B06100200000F03FB4170108DE
:10482000441601081C640020C8630020B8650020FD
:104830009C1B0020C417010808B5FFF751FF00209A
:10484000BDE8084004F0EABA10B5044602F076FF6D
:10485000064BA3FB0030800900F09CF84FF0FF30BE
:104860002146002200F04CF8002010BDD34D62100C
:1048700008B50B4B1A6842F400721A601A6842F4C9
:1048800080621A601A6842F480721A60032000F095
:1048900025F80020FFF7D8FF06F090F9002008BDAA
:1048A000003C0240024A136801331360704700BFA6
:1048B000B41B0020014B1868704700BFB41B0020D8
:1048C00010B582B00190FFF7F5FF0446FFF7F2FF45
:1048D000001B019B9842F9D302B010BD00F0070005
:1048E000064AD36823F4E0631B041B0C43EA002050
:1048F00040F0BF6040F40030D060704700ED00E051
:1049000030B4164BDC68C4F30224C4F10705042D4F
:1049100028BF0425231D062B01D9033C00E00024F9
:10492000012303FA05F5013D2940A140A340013BC5
:104930001A400A43002806DA00F00F001201D2B232
:10494000074B1A5407E01201D2B200F1604000F5A3
:10495000614080F8002330BC704700BF00ED00E0EC
:1049600014ED00E0410900F01F0001238340024ADA
:1049700042F82130704700BF00E100E0430900F039
:104980001F00012282402033014941F82320704753
:1049900000E100E00138B0F1807F0AD2064B586098
:1049A000F021064A82F823100020986007221A603E
:1049B00070470120704700BF10E000E000ED00E00C
:1049C000430900F01F00012282406033014941F891
:1049D0002320704700E100E0042805D1054A136850
:1049E00043F0040313607047024A136823F0040382
:1049F0001360704710E000E030B405682C6824F4C0
:104A000080242C60046863608368402B04D10368B1
:104A10009A600368D96003E0036899600368DA600C
:104A200030BC7047002831D010B40346022280F811
:104A3000352004682168184A0A404068996808438C
:104A4000D9680843196908435969084399690843B3
:104A5000D9690843196A01430A43596A042903D1F1
:104A6000D86A196B01430A43226019684A6922F027
:104A70000702586A0243042801D1986A02434A6136
:104A80000020D864012283F8352001E0012070471E
:104A90005DF8044B704700BF3F8010F038B590F8C8
:104AA0003440012C2ED00446012084F8340002202A
:104AB00084F835002568286820F001002860204629
:104AC000FFF79AFF2268136843F01003136022680F
:104AD000136843F0080313602268136843F004036B
:104AE00013602268536943F080035361226813689E
:104AF00043F0020313602268136843F0010313605C
:104B0000002038BD022038BD10B504460368B24A03
:104B1000934257D9583A5268B0498B424CD001F56C
:104B200080618B4246D0A1F568718B4240D001F57F
:104B300080618B423AD0A1F589618B4233D001F577
:104B400080618B422CD0A1F568718B4225D001F594
:104B500080618B421ED0A1F589618B4217D001F58F
:104B600080618B4210D0A1F568718B4209D001F5AC
:104B700080618B4202D14FF400211EE04FF00071A2
:104B80001BE04FF4002118E04FF4002115E04FF432
:104B9000002112E04FF400710FE04FF400710CE0BF
:104BA0004FF4007109E04FF4007106E0082104E0C1
:104BB000082102E0082100E008210A4214BF012276
:104BC000002218E1864A934258D902F552721268BF
:104BD00082498B424CD001F580618B4246D0A1F5D1
:104BE00068718B4240D001F580618B423AD0A1F5CB
:104BF00089618B4233D001F580618B422CD0A1F5C5
:104C000068718B4225D001F580618B421ED0A1F5E1
:104C100089618B4217D001F580618B4210D0A1F5DC
:104C200068718B4209D001F580618B4202D14FF44B
:104C300000211EE04FF000711BE04FF4002118E04E
:104C40004FF4002115E04FF4002112E04FF4007101
:104C50000FE04FF400710CE04FF4007109E04FF4E5
:104C6000007106E0082104E0082102E0082100E0CC
:104C700008210A4214BF01220022BCE0594A934293
:104C800057D9583A526855498B424CD001F580614A
:104C90008B4246D0A1F568718B4240D001F580610E
:104CA0008B423AD0A1F589618B4233D001F5806106
:104CB0008B422CD0A1F568718B4225D001F5806123
:104CC0008B421ED0A1F589618B4217D001F580611E
:104CD0008B4210D0A1F568718B4209D001F580613B
:104CE0008B4202D14FF400211EE04FF000711BE017
:104CF0004FF4002118E04FF4002115E04FF400219B
:104D000012E04FF400710FE04FF400710CE04FF42B
:104D1000007109E04FF4007106E0082104E0082169
:104D200002E0082100E008210A4214BF012200220B
:104D300061E02D4A126829498B4257D001F5806104
:104D40008B4246D0A1F568718B4240D001F580615D
:104D50008B423AD0A1F589618B4233D001F5806155
:104D60008B422CD0A1F568718B4225D001F5806172
:104D70008B421ED0A1F589618B4217D001F580616D
:104D80008B4210D0A1F568718B4209D001F580618A
:104D90008B4202D14FF4002129E04FF0007126E050
:104DA0004FF4002123E04FF4002120E04FF40021D4
:104DB0001DE04FF400711AE04FF4007117E04FF45A
:104DC000007114E04FF4007111E008210FE0082198
:104DD0000DE008210BE000BF586402401060024063
:104DE000B8600240586002400060024008210A4258
:104DF00014BF01220022002A00F07D811A6812F0FF
:104E0000040F00F078811A6822F004021A60236807
:104E1000AA4A934254D9A2F5896293424CD002F532
:104E20008062934246D0A2F56872934240D002F568
:104E3000806293423AD0A2F58962934233D002F560
:104E4000806293422CD0A2F56872934225D002F57D
:104E5000806293421ED0A2F58962934217D002F578
:104E60008062934210D0A2F56872934209D002F595
:104E70008062934202D14FF400221EE04FF0007294
:104E80001BE04FF4002218E04FF4002215E04FF42D
:104E9000002212E04FF400720FE04FF400720CE0B9
:104EA0004FF4007209E04FF4007206E0082204E0BB
:104EB000082202E0082200E00822814BDA600CE1BF
:104EC000804A934253D9A83A93424CD002F580626B
:104ED000934246D0A2F56872934240D002F58062B8
:104EE00093423AD0A2F58962934233D002F58062B0
:104EF00093422CD0A2F56872934225D002F58062CD
:104F000093421ED0A2F58962934217D002F58062C7
:104F1000934210D0A2F56872934209D002F58062E4
:104F2000934202D14FF400221EE04FF000721BE0CA
:104F30004FF4002218E04FF4002215E04FF4002255
:104F400012E04FF400720FE04FF400720CE04FF4E7
:104F5000007209E04FF4007206E0082204E0082223
:104F600002E0082200E00822554B9A60B5E0564A5C
:104F7000934253D9483A93424CD002F5806293420F
:104F800046D0A2F56872934240D002F58062934207
:104F90003AD0A2F58962934233D002F580629342FF
:104FA0002CD0A2F56872934225D002F5806293421C
:104FB0001ED0A2F58962934217D002F58062934217
:104FC00010D0A2F56872934209D002F58062934234
:104FD00002D14FF400221EE04FF000721BE04FF4AC
:104FE000002218E04FF4002215E04FF4002212E0F6
:104FF0004FF400720FE04FF400720CE04FF40072B7
:1050000009E04FF4007206E0082204E0082202E002
:10501000082200E008222D4BDA605EE02C4A934221
:1050200058D002F58062934246D0A2F5687293424E
:1050300040D002F5806293423AD0A2F58962934251
:1050400033D002F5806293422CD0A2F5687293426D
:1050500025D002F5806293421ED0A2F58962934268
:1050600017D002F58062934210D0A2F56872934285
:1050700009D002F58062934202D14FF400222AE067
:105080004FF0007227E04FF4002224E04FF400229A
:1050900021E04FF400221EE04FF400721BE04FF4B9
:1050A000007218E04FF4007215E04FF4007212E045
:1050B000082210E008220EE008220CE058640240AA
:1050C00000640240B8600240586002400060024044
:1050D000106002400822B24B9A60E36C43F0010377
:1050E000E364042384F83530002384F83430A36C5F
:1050F0000BB1204698472368AA4A934253D9583A9D
:105100005268A9498B4248D001F580618B4242D058
:10511000A1F568718B423CD001F580618B4236D09D
:10512000A1F589618B4230D001F580618B422AD094
:10513000A1F568718B4224D001F580618B421ED0AD
:10514000A1F589618B4217D001F580618B4210D0A7
:10515000A1F568718B4209D001F580618B4202D1C3
:105160004FF480311AE04FF4800117E04FF48031A2
:1051700014E04FF4803111E04FF480310EE0402113
:105180000CE040210AE0402108E0402106E0874988
:1051900004E0864902E0854900E084490A4214BFE0
:1051A000012200220DE1824A934254D902F5527243
:1051B00012687D498B4248D001F580618B4242D014
:1051C000A1F568718B423CD001F580618B4236D0ED
:1051D000A1F589618B4230D001F580618B422AD0E4
:1051E000A1F568718B4224D001F580618B421ED0FD
:1051F000A1F589618B4217D001F580618B4210D0F7
:10520000A1F568718B4209D001F580618B4202D112
:105210004FF480311AE04FF4800117E04FF48031F1
:1052200014E04FF4803111E04FF480310EE0402162
:105230000CE040210AE0402108E0402106E05B4903
:1052400004E05A4902E0594900E058490A4214BFB3
:1052500001220022B5E0574A934253D9583A526886
:1052600051498B4248D001F580618B4242D0A1F573
:1052700068718B423CD001F580618B4236D0A1F53C
:1052800089618B4230D001F580618B422AD0A1F533
:1052900068718B4224D001F580618B421ED0A1F54C
:1052A00089618B4217D001F580618B4210D0A1F546
:1052B00068718B4209D001F580618B4202D14FF4B5
:1052C00080311AE04FF4800117E04FF4803114E090
:1052D0004FF4803111E04FF480310EE040210CE0BA
:1052E00040210AE0402108E0402106E02F4904E087
:1052F0002E4902E02D4900E02C490A4214BF012248
:1053000000225EE0264A126827498B4254D001F5FC
:1053100080618B4242D0A1F568718B423CD001F58F
:1053200080618B4236D0A1F589618B4230D001F586
:1053300080618B422AD0A1F568718B4224D001F59F
:1053400080618B421ED0A1F589618B4217D001F597
:1053500080618B4210D0A1F568718B4209D001F5B4
:1053600080618B4202D14FF4803126E04FF48001FE
:1053700023E04FF4803120E04FF480311DE04FF402
:1053800080311AE0402118E0402116E0402114E06D
:10539000402112E0054910E004490EE003490CE009
:1053A000006002405864024010600240010080002A
:1053B000B860024058600240AB490A4214BF012263
:1053C0000022002A00F06F815A6912F0800F00F06D
:1053D0006A815A6922F080025A612368A34A934283
:1053E00050D9A2F58962934248D002F58062934277
:1053F00042D0A2F5687293423CD002F5806293429B
:1054000036D0A2F58962934230D002F58062934291
:105410002AD0A2F56872934224D002F580629342AA
:105420001ED0A2F58962934217D002F580629342A2
:1054300010D0A2F56872934209D002F580629342BF
:1054400002D14FF480321AE04FF4800217E04FF49B
:10545000803214E04FF4803211E04FF480320EE0DD
:1054600040220CE040220AE0402208E0402206E010
:105470007D4A04E07C4A02E07B4A00E07A4A7C4BA9
:10548000DA6002E17B4A93424FD9A83A934248D06E
:1054900002F58062934242D0A2F5687293423CD0FA
:1054A00002F58062934236D0A2F58962934230D0F1
:1054B00002F5806293422AD0A2F56872934224D00A
:1054C00002F5806293421ED0A2F58962934217D002
:1054D00002F58062934210D0A2F56872934209D01F
:1054E00002F58062934202D14FF480321AE04FF409
:1054F000800217E04FF4803214E04FF4803211E064
:105500004FF480320EE040220CE040220AE04022BC
:1055100008E0402206E0544A04E0534A02E0524ABE
:1055200000E0514A524B9A60AFE0534A93424FD940
:10553000483A934248D002F58062934242D0A2F5A5
:10554000687293423CD002F58062934236D0A2F555
:105550008962934230D002F5806293422AD0A2F54C
:105560006872934224D002F5806293421ED0A2F565
:105570008962934217D002F58062934210D0A2F55F
:105580006872934209D002F58062934202D14FF4CF
:1055900080321AE04FF4800217E04FF4803214E0BA
:1055A0004FF4803211E04FF480320EE040220CE0E4
:1055B00040220AE0402208E0402206E02A4A04E0B5
:1055C000294A02E0284A00E0274A2C4BDA605CE0D6
:1055D0002B4A934256D002F58062934242D0A2F504
:1055E000687293423CD002F58062934236D0A2F5B5
:1055F0008962934230D002F5806293422AD0A2F5AC
:105600006872934224D002F5806293421ED0A2F5C4
:105610008962934217D002F58062934210D0A2F5BE
:105620006872934209D002F58062934202D14FF42E
:10563000803228E04FF4800225E04FF4803222E0EF
:105640004FF480321FE04FF480321CE040221AE019
:10565000402218E0402216E0402214E0024A12E004
:10566000014A10E0004A0EE0010080005864024048
:1056700000640240B860024058600240006002408E
:1056800010600240B44AB54B9A60E36C43F00203E9
:10569000E364042384F83530002384F83430A36CA9
:1056A0000BB1204698472368AD4A934257D9583AE0
:1056B0005268AC498B424CD001F580618B4246D098
:1056C000A1F568718B4240D001F580618B423AD0E0
:1056D000A1F589618B4233D001F580618B422CD0DA
:1056E000A1F568718B4225D001F580618B421ED0F7
:1056F000A1F589618B4217D001F580618B4210D0F2
:10570000A1F568718B4209D001F580618B4202D10D
:105710004FF480211EE04FF080711BE04FF4802198
:1057200018E04FF4802115E04FF4802112E04FF48F
:1057300080710FE04FF480710CE04FF4807109E04C
:105740004FF4807106E0884904E0874902E0864909
:1057500000E085490A4214BF012200221BE1834A6E
:10576000934258D902F5527212687E498B424CD04E
:1057700001F580618B4246D0A1F568718B4240D023
:1057800001F580618B423AD0A1F589618B4233D01B
:1057900001F580618B422CD0A1F568718B4225D038
:1057A00001F580618B421ED0A1F589618B4217D033
:1057B00001F580618B4210D0A1F568718B4209D050
:1057C00001F580618B4202D14FF480211EE04FF041
:1057D00080711BE04FF4802118E04FF4802115E028
:1057E0004FF4802112E04FF480710FE04FF480718C
:1057F0000CE04FF4807109E04FF4807106E05A49E3
:1058000004E0594902E0584900E057490A4214BFF0
:1058100001220022BFE0564A934257D9583A5268B3
:1058200050498B424CD001F580618B4246D0A1F5A6
:1058300068718B4240D001F580618B423AD0A1F56E
:1058400089618B4233D001F580618B422CD0A1F568
:1058500068718B4225D001F580618B421ED0A1F585
:1058600089618B4217D001F580618B4210D0A1F580
:1058700068718B4209D001F580618B4202D14FF4EF
:1058800080211EE04FF080711BE04FF4802118E072
:105890004FF4802115E04FF4802112E04FF4807125
:1058A0000FE04FF480710CE04FF4807109E04FF489
:1058B000807106E02C4904E02B4902E02A4900E00F
:1058C00029490A4214BF0122002264E0234A1268D7
:1058D00024498B425AD001F580618B4254D0A1F506
:1058E00068718B424ED001F580618B4248D0A1F5A2
:1058F00089618B4241D001F580618B423AD0A1F59C
:1059000068718B4225D001F580618B421ED0A1F5D4
:1059100089618B4217D001F580618B4210D0A1F5CF
:1059200068718B4209D001F580618B4202D14FF43E
:1059300080212CE04FF0807129E04FF4802126E097
:105940004FF4802123E04FF4802120E04FF4807158
:105950001DE04FF480711AE00100800000600240F9
:10596000586402401060024004008000B8600240A9
:10597000586002404FF4807109E04FF4807106E0F6
:10598000B54904E0B44902E0B34900E0B2490A4233
:1059900014BF01220022002A00F07F811A6812F051
:1059A000020F00F07A811A6822F002021A6023685E
:1059B000AA4A934254D9A2F5896293424CD002F587
:1059C0008062934246D0A2F56872934240D002F5BD
:1059D000806293423AD0A2F58962934233D002F5B5
:1059E000806293422CD0A2F56872934225D002F5D2
:1059F000806293421ED0A2F58962934217D002F5CD
:105A00008062934210D0A2F56872934209D002F5E9
:105A10008062934202D14FF480221EE04FF08072E8
:105A20001BE04FF4802218E04FF4802215E04FF481
:105A3000802212E04FF480720FE04FF480720CE08D
:105A40004FF4807209E04FF4807206E0824A04E06D
:105A5000814A02E0804A00E07F4A814BDA600EE131
:105A6000804A934253D9A83A93424CD002F58062BF
:105A7000934246D0A2F56872934240D002F580620C
:105A800093423AD0A2F58962934233D002F5806204
:105A900093422CD0A2F56872934225D002F5806221
:105AA00093421ED0A2F58962934217D002F580621C
:105AB000934210D0A2F56872934209D002F5806239
:105AC000934202D14FF480221EE04FF080721BE01F
:105AD0004FF4802218E04FF4802215E04FF480222A
