:020000040800F2
:1000000000000220590200085D020008FDA9000856
:1000100019AA00081DAA000821AA00080000000073
:10002000000000000000000000000000698E0008D1
:100030004103000800000000F98E000825AA00080E
:10004000898A0008898A0008898A0008898A000844
:10005000898A0008898A000899AB0008898A000803
:10006000898A0008898A0008A5AB000831AA00081F
:1000700061AA000825AB0008898A0008898A00085F
:1000800091AA0008C5AA0008898A0008000000009B
:10009000000000000000000000000000B1AB0008FC
:1000A000898A0008898A0008898A0008898A0008E4
:1000B000898A0008898A0008898A0008898A0008D4
:1000C000898A0008898A0008898A0008898A0008C4
:1000D000898A0008898A0008898A000800000000CF
:1000E000898A0008898A0008898A000800000000BF
:1000F0000000000000000000000000005DAB0008F0
:1001000000000000898A0008898A000889AB00087D
:1001100000000000000000000000000000000000DF
:10012000898A0008898A0008898A0008898A000863
:10013000898A0008000000000000000000000000A4
:10014000000000000000000000000000898A000894
:10015000898A0008898A0008898A0008898A000833
:10016000898A0008898A0008000000000000000059
:10017000000000000000000000000000000000007F
:1001800000000000898A0008000000000000000054
:10019000898A0008898A000800B583B008F0DAFB74
:1001A000224B234A03E011681960043304322149C9
:1001B0008B42F8D3204B02E000221A6004331F4A1E
:1001C0009342F9D308F0D4FB01A8694608F09CFBE0
:1001D0001B4D1C4B5D1BAD10002404E0184B53F865
:1001E000243098470134A542F8DC174D174B5D1BAE
:1001F000AD10002404E0144B53F824309847013428
:10020000A542F8DC0198009909F0F8FF0546104C6A
:10021000104B1C1BA41004E0013C0D4B53F8243080
:100220009847002CF8DC284608F048FB0000002026
:10023000C0010108FC0A0020000B0020406C0020D7
:100240005C0300085C0300085C0300085C03000812
:100250005C0300085C0300083C480047FEE700BF61
:100260001EF0040F0CBFEFF30880EFF30980714616
:10027000374A10472DE9F04182B007468846084BBF
:100280005D6B9C6B9E6A074808F046FBCDF80080CA
:10029000384631462A46234608F07EFBFEE700BF7B
:1002A00000ED00E028FF0008FEE700BF1EF0040F8D
:1002B0000CBFEFF30880EFF309807146254A104721
:1002C0002DE9F04182B007468846084B5D6B9C6B78
:1002D0009E6A074808F020FBCDF80080384631467A
:1002E0002A46234608F058FBFEE700BF00ED00E079
:1002F00038FF00081EF0040F0CBFEFF30880EFF387
:1003000009807146144A10472DE9F04182B0074632
:100310008846084B5D6B9C6B9E6A074808F0FCFAA8
:10032000CDF80080384631462A46234608F034FB93
:10033000FEE700BF00ED00E044FF0008FEE700BF5D
:10034000FEE700BFFEE700BF70470000990100080C
:0C03500075020008C10200080903000843
:1003600008B50A2000F018F8034620B14FF4806168
:10037000024AC2F88010184608BD00BF00E100E044
:1003800018B14FF48062014B1A60704700E100E041
:1003900008B508F005FC08BD034B1B68034201D0FB
:1003A0000120704700207047003C014000B583B039
:1003B000104B1A6C42F400421A641B6C03F40043A5
:1003C0000193019B0C4B0D4A1A6000229A604FF476
:1003D00082715960DA601A615A614FF48021996123
:1003E000D8611A620722DA62184607F09FF903B053
:1003F0005DF804FB00380240406A0020003C0040E9
:1004000070B586B0012401940294022603960C4D27
:10041000284601A906F018FC28462146224606F087
:10042000F1FC304608F0F6FB01940323029300230D
:100430000393284601A906F007FC06B070BD00BF73
:10044000000002402DE9F04700EB0208B8F5805F9C
:1004500031D81E46154604468946FFF781FFDFF86E
:1004600070A049462246074650460BF0DBFE314657
:100470002A460AEB04000BF0D5FE11481021002299
:1004800006F0C0FC1FFA88F251460E4807F090F9BA
:100490000D4A5368002BFCD10C4A93689B07FCD58E
:1004A00010210122064806F0ADFC3846FFF768FF30
:1004B0000020BDE8F0874FF0FF30BDE8F08700BFB7
:1004C00000000240406A0020B8600240003C00404A
:1004D000000B00202DE9F84386181FFA86F8B8F5BE
:1004E000805F04462CD889461D46FFF739FF10214E
:1004F00000220746144806F085FC144A1448494671
:10050000434607F0BBF9134A5368002BFCD1124A4B
:100510009368DB07FCD4B44207D20C4A135D05F89C
:10052000013B0134A4B2B442F8D3102101220648A1
:1005300006F068FC3846FFF723FF0020BDE8F8838B
:100540004FF0FF30BDE8F88300000240000B0020B0
:10055000406A002040600240003C0040022902D076
:10056000052909D011E0022A02D10E4BDA6911E007
:100570006AB90C4B1A6A0DE0022A02D1094B5A6A79
:1005800008E032B9074B9A6A04E0002202E0002238
:1005900000E0002200F001031B0122FA03F080B208
:1005A000704700BF041B0020014B987B704700BFC1
:1005B000041B0020014BD3F884007047041B00206B
:1005C000044B5B5C00EB4300034B03EB8000006BD0
:1005D000704700BF54F90008041B002001380301D4
:1005E000024A9069D84080B2704700BF041B0020C7
:1005F00000B583B0E1B160F03F007F298DF80400C1
:100600000DD961F07F00C9098DF805008DF806103D
:10061000032001A9FFF716FF03B05DF804FB8DF876
:100620000510022001A9FFF70DFF03B05DF804FBE0
:1006300060F07F008DF8040001A90120FFF702FFA0
:1006400003B05DF804FB00BF08B51318B3F5806F65
:1006500007DC0B461146821E0920FFF7C9FF002068
:1006600008BD4FF0FF3008BD30B583B00725062424
:1006700041F60601022201AB2E208DF804508DF8C0
:100680000540FFF7B5FF03B030BD00BF00B583B034
:1006900002AB012203F8012D03210D20FFF7A8FF73
:1006A00003B05DF804FB00BF00B583B0E1B140F0DA
:1006B00040007F298DF804000DD961F07F00C90941
:1006C0008DF805008DF80610032001A9FFF702FF41
:1006D00003B05DF804FB8DF80510022001A9FFF7B7
:1006E000F9FE03B05DF804FB8DF8040001A90120B8
:1006F000FFF7F0FE03B05DF804FB00BF10B40C463A
:1007000003461146112022465DF8044BFFF7CCBF8B
:100710000346002117200522FFF7C6BF034600212C
:1007200015200522FFF7C0BF00B5042283B080B2B8
:1007300089B20DEB0203FFF7B7FF20B14FF0FF3096
:1007400003B05DF804FB9DF807009DF806109DF8C6
:1007500005209DF80430A0F5807001EB002002EB2D
:10076000002003EB002003B05DF804FB08B5002077
:100770000146FFF7D9FF08BD00B583B080B289B24A
:10078000022201ABFFF790FF20B14FF6FF7003B0DC
:100790005DF804FB9DF805009DF8043003EB002094
:1007A00080B203B05DF804FB30B583B01446150A7F
:1007B00089B2022201AB80B28DF804408DF8055059
:1007C000FFF716FF03B030BD08B50246034B988211
:1007D0002E2041F60401FFF7E7FF08BD041B0020AF
:1007E00008B50246034BD88218200021FFF7DCFF32
:1007F00008BD00BF041B0020F0B5144683B0170AE3
:10080000160C150E042289B20DEB020380B28DF88E
:1008100004408DF805708DF806608DF80750FFF7DD
:10082000E7FE03B0F0BD00BF10B504462A200B213F
:1008300001222346FFF7DCFE1E2000216268FFF73D
:10084000DBFF10BD08B5054B1A69104340EA815221
:1008500000210820FFF7D0FF002008BD041B002066
:1008600010B5002104460420FFF75EFF54B9094B80
:100870000340094C23631A4604200021BDE81040C0
:10088000FFF7BABF054B04F4FF7444F001040340C2
:100890002343EEE7FEFF47F0041B002001FE47F074
:1008A00030B5022183B00446050A0A4601AB032095
:1008B0008DF804408DF80550FFF79AFE03B030BD67
:1008C00030B583B00446050A0021022201AB0320A3
:1008D0008DF804408DF80550FFF78AFE03B030BD57
:1008E0000346002101200822FFF782BE30B583B005
:1008F00002AC050A04F8040D0421234602222D202F
:100900008DF80550FFF774FE0325234606210122CA
:100910002D208DF80450FFF76BFE234601220024A2
:1009200006212D208DF80440FFF762FE0A212D20BC
:10093000FFF7FAFE03B030BD30B583B002AC002340
:1009400004F8043D02252346022101222C20FFF752
:100950004FFE2346294601222C208DF80450FFF734
:1009600047FE03B030BD00BF10B504210446362059
:10097000FFF7DAFE3CB920F4006204213620BDE81E
:100980001040FFF739BF40F4006204213620BDE873
:100990001040FFF731BF00BF30B583B002AB6D220E
:1009A000044603F8052D2E2040F606010122FFF72C
:1009B0001FFE74B90725162441F60601022201AB79
:1009C0002E208DF804508DF80540FFF711FE03B07E
:1009D00030BDFFF749FE03B030BD00BF0A4B1A6BB4
:1009E00040B983F82D0042F48052042000211A639C
:1009F000FFF702BF012122F4805283F82D1004205A
:100A000000211A63FFF7F8BE041B002000B50B4B52
:100A100083B01A6B70B922F000521A6302AB120E47
:100A200003F8012D032101220420FFF7E1FD03B0AB
:100A30005DF804FB42F000521A63EFE7041B00204C
:100A400010B5002104461A20FFF76EFE020DC4F314
:100A50001304120522431A200021BDE81040FFF7BD
:100A6000CBBE00BF024BC3F88800C3F88C107047A0
:100A7000041B0020F0B5044683B001AD14F001065C
:100A80002B464FF0260025D131460222FFF70CFEFF
:100A90009DF805303146262023F0140602222B460D
:100AA0008DF80560FFF7A4FDA30711D50F242A21B7
:100AB00001222B4636208DF80440FFF799FD0024D3
:100AC0002B4636202A2101228DF80440FFF790FDA5
:100AD00003B0F0BD00210222FFF7E6FD9DF80520DE
:100AE00002AB22F03C02012142F0140203F8032D74
:100AF00026200A46FFF77CFD2B46022101223620E4
:100B0000FFF7D2FD9DF804602B4666F07B060221BC
:100B1000012236208DF804601027FFF769FD0126B9
:100B20002B462821022236208DF804708DF80560AE
:100B3000FFF75EFDB8E700BF10B582B0044601AB19
:100B4000362000210222FFF7AFFD0D2C0ED8DFE882
:100B500004F0252E380D0D0D0D41500D0D075D1CB7
:100B60009DF8053043F002038DF8053001AB0021FC
:100B700001223620FFF73CFD01210A460DF1050355
:100B80003620FFF735FD02B010BD9DF8043023F08C
:100B9000300343F020038DF80430E7E79DF804307C
:100BA00023F0030343F001038DF80430DEE79DF8E2
:100BB0000530002223F001038DF805308DF8042064
:100BC000D4E79DF8043023F0030343F002038DF8CB
:100BD0000430CBE79DF804309DF8052023F04C034A
:100BE00043F0480362F07F028DF804308DF8052051
:100BF000BCE79DF804209DF8053022F04C0203F07C
:100C00007F038DF804208DF80530AFE79DF805309F
:100C100023F002038DF80530A8E700BF70B582B05D
:100C200002AB012403F8084D0021032502223620DF
:100C30008DF8015080260D46FFF7DAFC06210222CE
:100C400001AB2D208DF804508DF80560FFF7D0FC26
:100C5000204607F0DFFF2046FFF76EFF284602B070
:100C600070BD00BFF0B583B0064604238DF8073091
:100C70006A4C002384F87C3084F82D30C4F880302E
:100C800084F86930C4F8843084F87D30C4F8883042
:100C9000C4F88C30FFF76AFD2060614B984240F049
:100CA000A9800020FFF748FF2420002101220DF138
:100CB0000703FFF79DFC1E20FFF718FE0546C0F353
:100CC0000722A27306F008039BB223B10420FFF7AA
:100CD0000DFEC4F88400514B93F884304BB102AB45
:100CE000022203F8022D2D2012210122FFF780FCA1
:100CF00003E00022494BC3F884200620FFF7F6FDED
:100D0000464C60600720FFF7F1FDA0600023A3615F
:100D1000E36123626362A36206F002039BB2D3B174
:100D2000A37B012B04D81C20FFF7E0FDA06112E09B
:100D3000032B10D80D20FFF7D9FD384CE0610E20B1
:100D4000FFF7D4FD20620F20FFF7D0FD60621D2069
:100D5000FFF7CCFDA06216F0010F0ED005F01F05C5
:100D60002E4B83F82C50002D47D12E4B1B7803F0CF
:100D70001F032A4A82F82C303FE02A4B1B7803F0ED
:100D80001F03264A82F82C3037E02046FFF7AEFDDD
:100D900045F8040F0134BD42F7D104E0002243F8C6
:100DA000042F8B42FAD106F40066B6B216B1FFF7F3
:100DB00035FF0AE036200521FFF7DEFC20F4007045
:100DC00082B236200521FFF7EFFC0120FFF7B4FEC9
:100DD00004200021FFF7A8FC104B186326200021F7
:100DE000FFF7A2FC40F4A02226200021FFF704FD1B
:100DF000002011E04FF0FF300EE006F004039BB23C
:100E000023B9064901F130036031C7E7034F07F109
:100E1000300560371024B8E703B0F0BD041B002094
:100E20003001CADE7CF9000870B582B002AB03263F
:100E300004460125344003F8085D002102223620D3
:100E400064018DF801602C43FFF7D2FB00261221CC
:100E5000022201AB2D208DF804408DF80560FFF7CC
:100E6000C7FB2846FFF768FE02B070BD10B5002032
:100E700082B0FFF761FE0421002402220DEB010382
:100E800036208DF804408DF80540FFF7B1FB02B025
:100E900010BD00BF024601210A20FFF7ADBC00BF14
:100EA00070B500F0020282B0044602F0FF0322BBDC
:100EB0000DF1070614F0010412D043F006040021DE
:100EC000012233460D208DF80740FFF791FB0F20DC
:100ED0000321FFF751FC10F481601FD102B070BDF7
:100EE00043F002052146334601220D208DF80750BC
:100EF000FFF77EFB204602B070BD02AE802306F8ED
:100F0000013D0021334601220D20FFF771FB0D4A00
:100F10009DF80730012182F87D10CBE7334601228E
:100F2000002140240D208DF80740FFF761FB0020D1
:100F3000FFF71AFD034B002283F87D204FF0FF30AE
:100F4000CCE700BF041B002000B583B001220DF1E7
:100F500007030F200321FFF7A7FB9DF8073023F0BD
:100F60007F0203F04003B2EB430F01D0FFF78EFB8B
:100F700003B05DF804FB00BF70B582B002AC402343
:100F800000210E2004F8013DFFF7CEFB0646FFF7D7
:100F9000E7F9002105460A460E20FFF72DFC2346FF
:100FA000002101220D20FFF723FB0021094A0F2019
:100FB000FFF722FCFFF7C8FF324600210E20FFF7A3
:100FC0001BFC2846FFF7DCF9034B002283F87D2049
:100FD00002B070BDF8FF2724041B002070B5054641
:100FE00082B0FFF7B1FF15F0010414D000242146B0
:100FF00001AB032602220D208DF804408DF8056018
:10100000FFF7F6FA31460F20FFF7B6FB10F48160C8
:101010000FD102B070BD01252146022201AB0D2087
:101020008DF804408DF80550FFF7E2FA204602B033
:1010300070BDFFF7A1FFAB0703D44FF0FF3002B044
:1010400070BD01AB214601250D2002228DF8044020
:101050008DF80550FFF7CCFA4FF0FF30D9E700BF0D
:1010600070B582B004460DF1030304200321012270
:10107000FFF71AFB9CB9154E9DF80340326B0DF13A
:10108000030322F0805524F01004032101220420E0
:1010900035638DF80340FFF7ABFA02B070BD0B4E1D
:1010A0008DF80440250A022201AB0C2000218DF8A6
:1010B0000550FFF79DFA9DF80340326B0DF10303D5
:1010C00042F0805544F01004DFE700BF041B00200D
:1010D00030B583B00446050A2421022201AB272043
:1010E0008DF804408DF80550FFF782FA03B030BD4B
:1010F00070B50E460546FFF733F9002104460E2071
:10110000FFF712FB56B920EA05020E200021FFF777
:1011100073FB2046BDE87040FFF732B940EA050294
:10112000F3E700BF30B583B002AC022304F8013D01
:10113000054623462F2000210122FFF759FA45B129
:10114000012523462A462F2000218DF80750FFF75E
:101150004FFA03B030BD00BF10B582B002ACE0233F
:1011600004F8013D0321234601223620FFF740FA0F
:1011700023460321F024012236208DF80740FFF793
:1011800037FA02B010BD00BF2DE9F041BF4EC04D8F
:10119000C04882B04FF4806105F03AFED6F8008076
:1011A00095F82D3085F86E30002708F10103394697
:1011B0000F20336085F86870FFF7B6FA3368B64AD7
:1011C0006866092B044642F828004FF48061B14854
:1011D000C8BF376005F01CFEB04B9C4200F0BD80DC
:1011E000AC484FF4806105F013FE62056BD595F8AD
:1011F0002D60A74FF6B1A7484FF4806105F008FEB7
:10120000620434D514F4801700F0BB80FFF7B4FEFD
:10121000FFF7A2FF2B6B9E489D0000F11881D0F8CC
:101220008C30032280F868200BB16430984702B0FC
:10123000BDE8F08104F46063B3F5606FDBD0FFF7C5
:101240009BFEFFF789FF3B6B9B0004F0F80400F165
:101250003981D7F88C30032287F8682013B107F161
:10126000640098478B484FF4806105F0D1FD14F07D
:10127000800153D114F400323FD1894A2240002A20
:10128000D5D00F200021FFF7B7FA2B6B002285F88D
:101290007D209A0040F12281FFF75EFFE30400F118
:1012A000E380270400F11D81E60340F11E8109233C
:1012B00085F86830D5F88C30002BB8D0794898473D
:1012C00002B0BDE8F08173484FF4806105F0A0FDE5
:1012D0006304CCD52B6B990040F18980FFF73CFF6C
:1012E000D5F88C300021032285F87D1085F8682020
:1012F000002B9CD06B489847E2E70F20FFF77CFA61
:10130000D5F88C30042285F868200BB165489847E1
:10131000002385F87D3002B0BDE8F081F8220F206F
:101320000021FFF769FA95F86920594B52B193F8FB
:101330002D20002183F8691022B993F87D300BB17C
:10134000FFF71AFED5F88830012285F86820002BB7
:101350003FF46DAF53489847B2E7FFF70DFEFFF734
:10136000FBFE4C484FF4806105F052FD49484FF4B4
:10137000806105F04DFD4A4A2240002A3FF457AFF4
:101380007FE739461020FFF7F7F9474B0646394605
:1013900011200222FFF788F96B7B5BB3C6F30906C5
:1013A00014F00801A5F86A60394A07D092F86C3049
:1013B00003F0200303F0FF00002B59D085F86910DB
:1013C000002795F82D10324E022385F86830A1B918
:1013D00004F4DE423A430F20FFF70EFAD6F88C30C1
:1013E000002B3FF424AF06F1640098471FE7FFF796
:1013F000C3FD73E706F07F06D2E7012632460DF102
:1014000002030F2003218DF80360FFF74DF99DF8CB
:10141000023023F07F0203F04003B2EB430F6AD0A7
:101420002B6B13F0005441D0D5F88C300BB11D4814
:1014300098470F200221FFF79FF9C4061ED5FFF73A
:101440009BFDFFF789FE2B6B98007FF5F0AE002423
:1014500001252146022201AB0D208DF804408DF8B4
:101460000550FFF7C5F8E2E6082385F8683021E764
:1014700082F8690082F87D000827A2E70321012293
:101480000DEB01030D20FFF7B3F8D0E6001B0020A1
:10149000041B002000040240D059002003008000FB
:1014A00000902724681B0020701B00200126214685
:1014B000022201AB0D208DF804408DF80560FFF786
:1014C00097F8B1E701273146022201AB0D208DF8D4
:1014D00004608DF80570FFF78BF8C3E6FFF74CFD4D
:1014E000DAE6032385F86830E4E660010BD50A23C9
:1014F00085F86830DEE604F4C0423A4300210F204C
:10150000FFF77AF98CE7A102EBD50B2385F8683059
:10151000D0E600BF30B583B000248DF80040FFF75F
:10152000A5FC214601AB02222C208DF804408DF849
:101530000540FFF75DF86B46062101222C20FFF7DE
:1015400057F8FFF7F9F96B46032101223620FFF720
:10155000ABF89DF800506B460321012205F00F0502
:1015600036208DF80050FFF743F8012007F052FBBA
:101570009DF800506B4665F00F05032101223620CF
:101580008DF80050FFF734F8024B83F87D4003B02C
:1015900030BD00BF041B002010B582B00DF1070361
:1015A00004460E2101222B20FFF77EF89DF807202C
:1015B00004F01F0422F01F0214430DF107030E2153
:1015C00001222B208DF80740FFF712F802B010BD62
:1015D0002DE9F04383B004460F46057842798E4BDF
:1015E00033F812904678013E8C4BC3F88060042D8E
:1015F00006D0072D14BF4FF000084FF0010801E09E
:101600004FF001082278854B1A73E3793BB9834A7E
:10161000136B43F4800313634FEAD90904E07F4A54
:10162000136B23F480031363237A7C494B73237A6F
:101630001B0403F440330A6B1A430A63042000219D
:10164000FFF7DAF82E2042F604014A46FFF7ACF81D
:10165000F6B23046FFF7A0F9714B13F8059009EB8D
:1016600089032B2007210522DFF8D0E17344FEF720
:10167000BFFF2B200E2101226A4BFEF7B9FF282065
:101680000B210122684B4344FEF7B2FF28200C21B6
:10169000664B53F82920FFF7AFF8E279A37903EB03
:1016A000420327200221624A32F81320FFF77CF818
:1016B000272004215F4B33F81620FFF775F8E379F4
:1016C0002BB9272006216422FFF76EF822E0A378C9
:1016D000042B0FD110220DF1080808F8012D272046
:1016E0000621FFF761F82720262101224346FEF755
:1016F0007FFF0FE00DF10808282308F8013D27209F
:1017000006212022FFF750F82720262101224346F8
:10171000FEF76EFFE37803EB860327200821464A95
:1017200052F82320FFF768F8628941F241039A4298
:101730000BD027202021FFF737F863892BB927200A
:10174000202141F24102FFF72FF8DFF8F480232037
:101750000C21D8F80020FFF74FF808EB46082320AB
:101760000421B8F80420FFF71FF8A3795BB1E379EF
:10177000212000210122DFF8CCE07344FEF738FF7E
:101780000122032101E000221146607905F00F03D8
:1017900043EAC0632D01EDB21D4363789B0403F45B
:1017A00040231D4323799B0503F0F8631D4345EA5D
:1017B00001551F20002145EA4242FFF71DF8E2795A
:1017C000520342F400436178A2780A4343EA02429A
:1017D000124B1A6108200021FFF70EF817F0010FD5
:1017E00004D00E4B93F82C00FFF7D6FE17F0020F33
:1017F0000DD03601094CA069F040C0F34E00FEF751
:10180000E3FFA069F040C0F34E00FEF7E9FF0020BF
:1018100003B0BDE8F08300BF98F90008041B002066
:1018200054F900087CF90008CCF9000880F9000898
:1018300018F9000844F900085CF9000824F90008C8
:1018400048F9000850F9000810B582B00446FFF7C7
:101850000DFB00214FF4FF122820FEF7CDFF0F4AA9
:1018600000212820FEF7C8FF0220FFF765F90D20B0
:10187000FFF762F9032C8CBF2246042200210A20C4
:10188000FEF7BAFF02AB102203F8042D2421012237
:101890002F20FEF7ADFE02B010BD00BF00FF5F00BD
:1018A00038B504460D4610EE100A09F0BBFB0022C5
:1018B000334B09F00BFC09F0A3FEFF2800DDFF20ED
:1018C000012D26D1042C01D0072C10D12D4B195DF0
:1018D000002300E0013301EB011292001A442A4C6C
:1018E000A25C8242F6DB1C3B07EE903A36E0274BC7
:1018F000195D002300E0013301EBC10201EB82021C
:101900001A44234CA25C8242F5DB173B07EE903A67
:1019100024E0042C01D0072C11D11A4B195D0023AF
:1019200000E00133C1EB0112C1EB82021A44194CF1
:10193000A25C8242F5DB1E3B07EE903A0EE0134BB1
:101940001C5D002300E001331A2202FB043212491D
:101950008A5C8242F7DB113B07EE903AF8EEE77AB9
:1019600017EE900A09F05EFB03A3D3E9002309F008
:10197000ADFB41EC100B38BD7B14AE47E17A843FE0
:1019800000001040D0F900086CFA00085CFB000869
:10199000D8F9000864FB0008F4FA0008412380F835
:1019A0006030882380F86130B0F8CC3080F8633044
:1019B0001B0A80F86430002380F86230704700BF53
:1019C00038B504460D46B0F8C8000021FEF73AFFCE
:1019D000012D02D1A06DFFF75DFA94F8E0002843D5
:1019E000C0B2FFF75DFA30B1D4F8C8330133C4F8A0
:1019F000C833012038BDFEF7CBFCC4F84C080123E6
:101A000084F84B38002038BD2DE9F04705460F46D5
:101A1000924698464FF000094C461CE0A60055F847
:101A200024100F4B994203D0204600F0B1FF00E094
:101A3000002001280BD00123A34098F8002022EABF
:101A4000030388F80030204601F02AF800E0D14670
:101A5000034BAB510134A742E0DC4846BDE8F087B8
:101A6000FFFFCDAB2DE9F04F91B004460D46437812
:101A7000082B00F2FE84DFE813F009009D00C80087
:101A80002F01FC047701E701FA017F000378012BA5
:101A900005D0002B60D0022B2ED000F0EABC18201D
:101AA000FEF7DEFEB4F8CC00FEF7FAFE04F1BF0547
:101AB000284604F1260102220AF0B4FB2846FEF76C
:101AC0000FFFE08CC4F8DC03FEF7FAFE0223A370DC
:101AD0000123637084F8E230002384F8F430C4F802
:101AE0008831FEF767FD2046FFF758FFFEF750FCF0
:101AF000C4F8E80000F0BDBC00F1BF05284604F1C1
:101B0000260102220AF08EFB2846FEF7E9FEB4F811
:101B1000CC00FEF7C5FEE08C00F0030384F8BE3075
:101B2000FEF7CEFEE38CB3F5004F02D1012384F81B
:101B3000E4330020FEF794FE0020FEF781FF062329
:101B400063700020FFF78CFA0020FFF7C1FA2046EF
:101B5000FFF724FF00F08DBC0020FEF781FE00207F
:101B6000FEF76EFF0020FFF77BFA0020FFF7B0FAC8
:101B70000623637000F07DBC0A2002F0BDF80378F4
:101B8000042B03D00123636000F073BC0023636067
:101B900084F8E230A2786270A370FEF7F9FBC4F813
:101BA000E800032007F036F802F0F2F902F0DEF95F
:101BB00000F05FBC8378022B22D190F8E220FAB1CA
:101BC00090F8F430013380F8F430022343600823A6
:101BD000437000F564700421012204F1F203FFF761
:101BE00013FFC4F8D40394F8F23084F8F3300023E0
:101BF00084F8F230FEF7CCFBC4F8E00300F039BC07
:101C000063700023A37000F034BC0378012B02D171
:101C100090F8F42001E090F8752184F86A20012BF7
:101C200001D1812300E0712384F869300D20A4F8EC
:101C3000C80094F8CA305A1C84F8CA2084F862306C
:101C400094F8BF3084F8673094F8C03084F8683076
:101C5000FF2384F8653084F8663004F160010022C7
:101C6000FEF7F2FCC820FEF7EBFE2378012B0FD124
:101C700094F8F4302344002283F85128042384F894
:101C8000E130B4F85000800080B2FFF7E9F90EE0CF
:101C900094F875312344002283F85128022384F8F4
:101CA000E130B4F85000400080B2FFF7D9F90021CC
:101CB00084F8F21084F8F110022584F8E050B4F8AA
:101CC000C800FEF7BFFD2846FFF7EAF8052363705A
:101CD000E57001236360CCE30378012B02D190F817
:101CE000F42001E090F8752184F86A20012B02D1DC
:101CF00094F8F22001E094F8F12084F88920012B77
:101D000001D1822300E0732384F869302C20A4F8E9
:101D1000C80094F8CA305A1C84F8CA2084F862308B
:101D200004F160010022FEF78FFC002384F8E0300C
:101D300020460121FFF744FE50B12378012B03D147
:101D400063700223A37094E3204600F0BBFF90E38E
:101D5000052363700323E3702378012B01D184F8FA
:101D6000E2300123636084E30B2001F0C5FF0378B8
:101D7000012B0BD03BB1042B03D1012384F8F030AD
:101D800001E0012363600123636072E30023636069
:101D9000E378032B0AD12378012B03D1637002234C
:101DA000A37066E3204600F08DFF4DE094F8F0202C
:101DB000012A08D1204600F095FF002384F8F03076
:101DC00084F8E03055E3D0E90201C4E93401022B84
:101DD00032D12378012B0AD1D4E90C2312184B41BC
:101DE000B348FF2102400B40CDE90E2309E0D4E9BE
:101DF0000E2312184B41AE48FF2102400B40CDE9A3
:101E00000E23DDE90E01030A43EA0163A365A28BF9
:101E1000002312184B4103F0FF0310A961E90223CC
:101E200004F1840005220AF0FDF904F16B0004F1CD
:101E3000D00105220AF0F6F9E3780B2B01D1042337
:101E4000E37006236370002594F8E0301BB900208E
:101E5000FFF7C4F802E0002384F8E03023780BB1E8
:101E60000123636007236370002D00F00283022DBD
:101E700003D0042D00F0E582F4E20F2001F03CFFD6
:101E8000054600238DF830308DF831308DF8323032
:101E90008DF833308DF834308DF835308DF836309C
:101EA0008DF837308DF838308DF839308DF83A307C
:101EB0008DF83B308DF83C308DF83D308DF83E305C
:101EC0008DF83F3084F8E330437F03F0CC038C2B54
:101ED00027D002D8882B34D043E0C82B11D0CC2B8C
:101EE0003FD10CA805F1290108220AF09BF90EA8A0
:101EF00005F1210108220AF095F9AA461AF8316F76
:101F000030E00CA805F1230108220AF08BF90EA895
:101F100005F1210102220AF085F9AA461AF82B6F71
:101F200020E00CA805F1290102220AF07BF90EA895
:101F300005F1210108220AF075F9AA461AF82B6F5B
:101F400010E00CA805F1230102220AF06BF90EA89B
:101F500005F1210102220AF065F9AA461AF8256F57
:101F600000E0002694F8E2303BB923782BB9062331
:101F700063700020FEF764FD7BE29DF8302002F0E4
:101F80000307A6F17003122B00F24E82DFE813F074
:101F900048001300480010014C024C024C024C0255
:101FA0004C024C024C024C024C024C024C024C02C1
:101FB0004C0213001001D5E90201C4E93601812E5B
:101FC00007D102F07F039AF80110234483F8F5103B
:101FD00004E09AF80130274487F87631E18C48F222
:101FE000010399420CD19DF8313042EA0322B2F547
:101FF000004F05D1AA69B4F87C311344C4F8843188
:10200000AB780C2B04D1052363700923E37010E235
:102010000E2B02D1072363700BE20623637008E2E4
:102020009AF807300133DFB29DF8313042EA0322DB
:10203000B2F5004F0DD12378012B0AD19AF8022076
:102040009AF8013003EB02231BB2C4F88831002355
:10205000E362AB780C2B04D1052363700A23E37091
:102060002BE00E2B29D02378012B04D194F8F220F9
:1020700012F0010F11D1E28C48F201018A4204D121
:1020800094F8F11011F0040F07D1B2F5004F07D109
:1020900094F8F12012F0020F02D0032363700CE0D9
:1020A000012B07D163700222A27084F8E23004E0B1
:1020B00000FEFFFF204600F005FE702E33D194F89D
:1020C000F430BB421FD19DF8300000F00300E43033
:1020D00004EB80000AF1030104220AF0A3F89DF842
:1020E000302002F0030202F1E40354F82310CD4B38
:1020F000994200F09E810123934094F8F22013430B
:1021000084F8F23095E19DF8303003F0030303F1D9
:10211000E40254F82210C34A914200F08A81E43369
:1021200044F8232085E194F8E433002B00F081810A
:1021300094F87531BB4240F07C8184F876312344B9
:1021400093F95138032B23D19DF830009DF8383096
:10215000184400F00300EC3004EB80000AF10301A6
:1021600004220AF05FF804F56C700421022204F1E5
:10217000F103FFF749FCC4F8D40394F8F13084F874
:10218000F330002384F8F130AB69C4F8E03350E158
:102190009DF830009DF83830184400F00300EC3012
:1021A00004EB80000AF1030104220AF03BF840E14D
:1021B00000200021CDE90601CDE90801CDE90A01A1
:1021C0009AF8201094F8BE3003EB830B0BF1070B49
:1021D0005FFA8BFB822E0BD102F07F00204490F837
:1021E000F5E09AF80100864502D00623637020E1ED
:1021F000732E12D1E01990F876E19AF80100864525
:1022000008D194F8E40328B9B4F826E048F20300B2
:10221000864502D1062363700BE1E08C48F2010E83
:10222000704509D19DF831E042EA0E22B2F5004F27
:1022300002D1012284F8E420C4F8D803194111F036
:10224000010F00F08E80D5E902890023A36508A85C
:102250000AF10201052209F0E5FF0AA80AEB0B01C9
:10226000052209F0DFFF06A80AF11B01052209F08B
:10227000D9FFDDE90801DDE90A23121A63EB010346
:10228000CDE90023D4E934ABD4E93623BAEB02021A
:102290006BEB0303104603F0FF01CDE90201B8EB3D
:1022A0000A0869EB0B0909F0FF09DDE90623DDE9FE
:1022B0000AABB2EB0A0A63EB0B0B0BF0FF0BDDE989
:1022C000002303F0FF031046194608F0D1FECDE9C4
:1022D00000014046494608F0CBFE80468946DDE9CC
:1022E000000142464B4608F0F1FECDE9040150469C
:1022F000594608F0BDFE82468B46DDE9020108F032
:10230000B7FE02460B4650465946CDE9022308F077
:10231000DDFE02460B46DDE9040108F023FDCDE9B0
:10232000040140464946DDE9022308F01DFD8046D0
:102330008946DDE9000152465B4608F015FD02467C
:102340000B464046494608F00FFD02460B46DDE9C4
:10235000040108F0E5FF09F053F980464FEAE079FF
:1023600003E0DFF8C0804FF00009822E36D19DF8DF
:1023700030309DF8312003EB0223C4F8DC3303F046
:102380007F03643344F8238004F564700421012240
:1023900004F1F203FFF738FBC4F8D40394F8F230E9
:1023A00084F8F330002384F8F2301E4A0023994564
:1023B00008BF90450ED09DF8300094F8BE1000F094
:1023C00055FB94F8BE3001229A4084F8F220E433A1
:1023D00044F82380AB69C4F8E0330AE09DF830305C
:1023E0009DF8312003EB0223C4F8DC33E83744F8CE
:1023F000278094F85028A31893F8513813F0800FD1
:1024000008D15B42DBB2A11881F8513813B9FF2320
:1024100081F8513801F0BCFD01F0A8FD062363707E
:1024200007E000BFFFFFCDAB062363700020FEF77F
:1024300007FB2B7F13F0200F1BD0102001F05CFC5A
:1024400017E0112001F058FC83780C2B04D10523F0
:1024500063700B23E3700CE00F2B0AD1204600F0D1
:1024600041FC06E00DB10123636063680BB90123F1
:102470006360606811B0BDE8F08F00BF000000002D
:102480002DE9F8432DED028B04469FED9B0B08F0E0
:10249000ABFB51EC100B09F0B3F800EB400000016E
:1024A00007EE900AF8EEE77ADFED998A77EEA88AD0
:1024B0009FED930B08F098FB51EC100B09F0A0F87E
:1024C00000EB40004000C000924BDB7B83B99FEDE6
:1024D000928A68EE888ADFED917A78EEA78A07EE15
:1024E000900AF8EEE77A27EE888ABDEEC88A22E0E5
:1024F000012B10D19FED8A8A68EE888ADFED897AF8
:1025000078EEA78A07EE900AF8EEE77A27EE888A37
:10251000BDEEC88A0FE09FED848A68EE888ADFED01
:10252000817A78EEA78A07EE900AF8EEE77A27EE2E
:10253000888ABDEEC88A7D4AD35C764A927A043A8C
:10254000302A1AD8DFE802F02E19191922191919A0
:1025500031191919191919192B1919191F191919BB
:102560001919191919191919281919191C191919C9
:1025700019191919191919192500DFED6D7A16E0C5
:10258000DFED6C7A13E0DFED6C7A10E0DFED6B7A53
:102590000DE0DFED6B7A0AE0DFED6A7A07E0DFED50
:1025A0006A7A04E0DFED697A01E0DFED697A594A81
:1025B000527A012A0AD107EE103AB8EEC77A77EEBE
:1025C000277A9FED647A67EE877A09E007EE103A82
:1025D000B8EEC77A77EE277A9FED5F7A67EE877A53
:1025E00017EE900A08F01EFD06460F46B8EEC88AA0
:1025F00078EE287A17EE900A08F014FD0022574B67
:1026000008F08EFE02460B463046394608F0ACFB19
:102610003DA3D3E9002308F083FE08F0F1FF05464F
:1026200000F11008204608F0EBFC41EC100B00F024
:1026300087F9DFF8E090C9E90C0104EBD47460106D
:10264000643008F0DDFC41EC100B00F079F9C9E9C9
:102650000E0118EE900A08F0E5FC00223F4B08F04E
:102660005FFE02460B463046394608F07DFB08F017
:10267000C7FF99F80F30F3B905F53375C9F8505015
:10268000C9F8548000F5967008F0BAFC41EC100BC4
:1026900000F056F9C9E9100147EC106B00F050F951
:1026A000000A40EA01601030C9F848004FF4967300
:1026B000C9F84C301BE005F59E75164C2565C4F82D
:1026C000548000F5967008F09BFC41EC100B00F074
:1026D00037F9C4E9100147EC106B00F031F9000A3A
:1026E00040EA01601030A0644FF49673E364BDECDF
:1026F000028BBDE8F88300BF000000E0917ADD3F67
:1027000000000000000000000D71AC8BDB68F03FA2
:1027100000001843F8590020853400460045284839
:102720007B3480440046A846C335004350F9000876
:1027300000000000000000450000C044000080448C
:10274000000000440000804300000043000080427D
:1027500000008045EA5B7E3FB341823F00408F40EE
:10276000014BD884704700BFF859002030B5A1B0A4
:1027700005467F2468460C49224609F053FD18207F
:10278000FDF714FE2846FFF75FF820466946002251
:10279000FDF75AFF20460021FEF754F80020FEF70F
:1027A0007FFB002021B030BD3CFC00082DE9F04348
:1027B000FBB0002406798DF800408DF801408DF8BB
:1027C00002408DF803408DF80440FDF7E1FD012E35
:1027D00008902BD0062E434D22D102A9A02252A848
:1027E000ADF80C408DF808408DF8096009F01AFD2D
:1027F00095F849788DF8E34107EB870805EB481811
:102800000137FFB252A908F57A70A02209F00AFD3B
:10281000062F88F8E86314BF85F8497885F8494899
:10282000002385F84B387BB0BDE8F0836846FDF7A0
:102830006FFF9DF802009DF801109DF80030294DB2
:102840009DF803709DF80420B5F8C8E0ADF80CE0E1
:10285000000400EB0121194401EB076314EB0308AA
:1028600091464FEA026202EB132749F100097246D2
:1028700005F1600109A80693CDE9048907978DF851
:1028800008408DF80A408DF8096085F8E34009F0AA
:10289000C9FC02A92AA8A02209F0C4FC95F849782D
:1028A0008DF8434107EB870805EB48182AA908F57E
:1028B0007A70A02209F0B6FCD5F8C03388F8E86336
:1028C0000137FFB20133062FC5F8C0334FF00003C4
:1028D00014BF85F8497885F8494885F84B387BB0AE
:1028E000BDE8F083F859002008B5094A92F9E130B3
:1028F000002B0ADD106D13FB00F080B2FEF7B0FB79
:102900000020FEF76BFB0E2008BD0F2008BD00BFA6
:10291000F859002010B5094C606D400080B2FEF7F8
:102920009FFB0020FEF75AFBB4F85400FEF798FB1B
:10293000D4F8CC330133C4F8CC3310BDF85900209F
:1029400008B551EC100B06A3D3E9002308F0E8FC0E
:1029500005A3D3E9002308F0E3FC08F0C9FE08BD95
:10296000FA48CE3B1835B13D0000000080842E416E
:1029700008B508F045FB04A3D3E9002308F0A6FB43
:1029800041EC100B08BD00BFFA48CE3B1835B13DF5
:102990002DE9F84304460846FFF7EAFF31A3D3E9DF
:1029A000002351EC100B08F091FB2B4D2B4B6A7C54
:1029B00095F80890E40006460F462344C3E90067F3
:1029C0003AB1B9F1050F32D01DA3D3E9002308F0C5
:1029D000A7FC08F03DFE697ADFF87C8000EE100A63
:1029E0004846FEF75DFF304653EC102B394608F0A1
:1029F000B9F90022002306460F4608F0D9FD98B920
:102A00003046394610A3D3E9002308F0EFFD58B94A
:102A1000134AD8F8D0331444C4E900670133C8F826
:102A2000D0330120BDE8F8830020BDE8F88308A377
:102A3000D3E9002308F074FCCBE700BFAFF30080BC
:102A4000F6285C8FC2F5F43F000000000088D340F8
:102A5000295C8FC2F528F83FF85900205067002004
:102A6000106800200000001319DDB14130B4064A9F
:102A7000064B02EBC101D1E9004503EBC000C0E900
:102A8000004530BC704700BF106800205063002034
:102A9000024B03EBC00090ED000B70475063002029
:102AA000064B074A30B4C0000024002503441044FC
:102AB000C3E90045C0E9004530BC704750670020BD
:102AC00010680020014B1870704700BFF8590020B3
:102AD000014B1878704700BFF8590020034B0022C3
:102AE000D3F8D403C3F8D423704700BFF8590020AB
:102AF000014BD3F8D8037047F8590020014BD3F8A5
:102B0000DC037047F8590020014BD3F8E00370470D
:102B1000F859002038B50E4C00250120E565FEF778
:102B200001FB0C4984F8CA50C4F8D053C4F8901380
:102B3000C4F89413C4F89813C4F89C1304F5C6732E
:102B400004F5637243F8041F9342FBD138BD00BF04
:102B5000F8590020FFFFCDABFDF708BEF8B54F4C8C
:102B600003782372437863734378237383786372A3
:102B7000C378E3730279A2724279E2728279A27316
:102B800000222274022B05460089608208BF0123BF
:102B90000E46434808BF63744FF0010118BF6274CA
:102BA000FEF716FD2B783F4F217A03EB430317F80E
:102BB00023302375A878FDF703FD431E033306D9A0
:102BC0002B78AA7803EB4303134457F82300334FC1
:102BD000A06107F11400FDF727FEFDF7E5FC0238C0
:102BE000C0B2012833D9A878FDF7F8FCC0F34F0034
:102BF000431E9BB24FF6FD729342B88320D8FDF777
:102C0000E3FDA08BFDF7ECFDA38BE3832B79042B75
:102C100039D0F388A362B388A4F87A313388A4F852
:102C20007C313288E2627288A4F87E21023A03FB8A
:102C300002F3C4F880313089BDE8F840FFF720BCCA
:102C4000AB78194A013B32F81300B883D7E73878DC
:102C5000FA7B397AA0F10200B0FA80F04009FDF762
:102C60007DFC431E9BB24FF6FD729342B883C6D9DA
:102C70003B7A0E4AA3F10503B3FA83F35B0932F8FA
:102C80001300B883BBE71820FDF790FB0020FEF788
:102C9000CBF80820FDF78AFBBBE700BFF8590020FE
:102CA000005A0020DCFB0008C0FC0008BCFC000847
:102CB000034B00F0030003EBC00393ED000B7047E0
:102CC0001068002008B5062202230370427000201D
:102CD000FEF7C6F90020FEF7FBF90020BDE808402A
:102CE000FDF7AEBE38B503460020DA6D1C7858609B
:102CF0000132022CDA6532D0012CDA7808D0022AAF
:102D000013D0032A1DD00121032259709A7038BDB7
:102D1000022A1BD0032AF6D11D46FEF72DF9022305
:102D200085F8E2406C70AB7038BDDA8C48F2010176
:102D30008A421AD0B2F5004FE5D193F8F1209207FC
:102D4000E1D41846BDE83840FFF7BCBF93F8F21055
:102D5000C807D8D483F8E2405C709A7038BD062268
:102D60005A70BDE83840FEF77BB993F8F12051075F
:102D7000C9D4E6E700F00300032801D0FFF7B4BD93
:102D80000F20704710B50E4CE38CB3F5004F06D002
:102D90000F2048F20102934208BF0F2010BD00F03F
:102DA0000300012801D00F2010BDB4F85000FEF739
:102DB00057F90020FEF712F9E38C0E20E9E700BF77
:102DC000F859002008B5074B986D9B6CC01AFEF7A8
:102DD00061F80120FEF702F900B908BDBDE808401E
:102DE000FFF798BDF85900202DE9B04F86B000AF2D
:102DF00003463960FB800F23FB7500233B610023F2
:102E0000FB60A04AFB6840F6581101FB03F3134432
:102E1000E0335B78002B05D10020FEF721F900207C
:102E2000FEF756F93B6803F00103002B2CD0954ABE
:102E3000FB6840F6581101FB03F31344E0335B7861
:102E40005BB2012B01D101233B618E4AFB6840F646
:102E5000581101FB03F3134403F578731B79002B1E
:102E60000AD1884AFB6840F6581101FB03F313446A
:102E7000B8339B79032B07D10020FEF7F1F800202F
:102E8000FEF7ACF80E23F7E07E4AFB6840F65811D7
:102E900001FB03F31344583319687A4AFB6840F680
:102EA000581000FB03F313444033D3E900234FEAE7
:102EB000122A4AEA036A4FEA132B5346CA18714989
:102EC000FB6840F6581000FB03F30B4458331A60BC
:102ED0003B6803F00103002B15D16A4AFB6840F6FA
:102EE000581101FB03F31344E0335B785BB265498F
:102EF000FA6840F6581000FB02F20A44B8329279A0
:102F00001344032B03D03B69012B40F0A6805D4A9C
:102F1000FB6840F6581101FB03F31344E03302222F
:102F20001A70584AFB6840F6581101FB03F313442A
:102F300058331B681846FDF7ADFF0320FDF7B0FFBF
:102F40000346002B4BD00020FDF77AFD4D4AFB686D
:102F500040F6581101FB03F31344E03300221A70CA
:102F6000484AFB6840F6581101FB03F3134403F58C
:102F700072731B685A1C4349FB6840F6581000FBEB
:102F800003F30B4403F572731A603E4AFB6840F684
:102F9000581101FB03F3134458331968394AFB688D
:102FA00040F6581000FB03F313444033D3E90023E9
:102FB0004FEA122848EA03684FEA132943465B00A8
:102FC000CA183049FB6840F6581000FB03F30B4465
:102FD00058331A60FFF7F6FE0E23FB754BE0294AC3
:102FE000FB6840F6581101FB03F31344583319688A
:102FF000244AFB6840F6581000FB03F313444033A7
:10300000D3E90023140A44EA03641D0A2346CA18BC
:103010001C49FB6840F6581000FB03F30B4458337F
:103020001A600C23FB75FDF7B3F903461846154AE1
:10303000FB6840F6581101FB03F3134403F6480301
:103040005860104AFB6840F6581101FB03F3134423
:1030500003F648030122DA700DE0FB88002B06D14D
:103060000020FDF7FDFF0020FDF7B8FF01E0FFF7AE
:10307000A9FE0E23FB75FB7D18461837BD46BDE83B
:10308000B08F00BFF859002090B585B000AF3B600D
:103090000346FB800B467B7113463B710023FB818B
:1030A000FB88DBB203F003037B730023BB601323B5
:1030B000FB817B4ABB6840F6581101FB03F31344C4
:1030C000C833FA891A80BB6840F6581202FB03F332
:1030D0006033734A1344591D7B793A681344084698
:1030E0001946022209F09EF86D4ABB6840F6581155
:1030F00001FB03F31344B833D879694ABB6840F63F
:10310000581101FB03F3134460330246DA71644A39
:10311000BB6840F6581101FB03F31344B933D87967
:103120005F4ABB6840F6581101FB03F31344613357
:103130000246DA71BB6840F6581202FB03F36B33A8
:10314000574A1344581C7B7BBA6840F2562101FB56
:1031500002F21344E8339B00514A134419460422F7
:1031600009F060F87B7B4E49BA6840F6581000FBC6
:1031700002F20A44134403F5B8739879484ABB68CD
:1031800040F6581101FB03F313446F3302465A70A3
:103190007B7B4349BA6840F6581000FB02F20A44B0
:1031A000134403F5B87300229A713B7901331A4630
:1031B0003B68134418783A4ABB6840F6581101FB43
:1031C00003F3134403F5B87302465A71344ABB68DB
:1031D00040F6581101FB03F31344C8339B785A1C83
:1031E000D4B22F49BA6840F6581000FB02F20A44E4
:1031F000C832214691702A49BA6840F6581000FB3F
:1032000002F20A4460329370254ABB6840F65811B6
:1032100001FB03F3134448335B681846FDF710FCC9
:103220001F4ABB6840F6581101FB03F3134403F532
:10323000C47300221A601A4ABB6840F6581101FB99
:1032400003F31344693300225A70154ABB6840F6F1
:10325000581101FB03F313446A3300225A70104AD9
:10326000BB6840F6581101FB03F313446833722224
:103270005A70FB8918460021FDF7E4FABB6840F656
:10328000581202FB03F36033054A1344FA891046CF
:1032900019460022FDF7D8F91437BD4690BD00BF8E
:1032A000F859002090B589B000AF3B600346FB8021
:1032B0000B467B7113463B710023FB83FB88DBB21B
:1032C00003F07F037B770023BB611323FB83BC4A9E
:1032D000BB6940F6581101FB03F31344C833FA8B62
:1032E0001A80BB6940F6581202FB03F36033B44AFC
:1032F0001344591D7B793A68134408461946022243
:1033000008F090FFAE4ABB6940F6581101FB03F389
:103310001344B833D879AA4ABB6940F6581101FB67
:1033200003F3134460330246DA71A54ABB6940F6E1
:10333000581101FB03F31344B933D879A04ABB6990
:1033400040F6581101FB03F3134461330246DA716E
:10335000BB6940F6581202FB03F36B33984A1344DF
:10336000581C7B7FBA6940F2562101FB02F21344DC
:1033700064339B00924A13441946042208F052FF1A
:103380007B7F8F49BA6940F6581000FB02F20A446D
:103390001344F03358798A4ABB6940F6581101FB4F
:1033A00003F313446F3302465A707B7F8449BA6932
:1033B00040F6581000FB02F20A441344F033002296
:1033C0005A713B7901331A463B68134418787C4A9A
:1033D000BB6940F6581101FB03F31344F033024676
:1033E0001A71774ABB6940F6581101FB03F3134485
:1033F000C8339B785A1CD4B27149BA6940F6581048
:1034000000FB02F20A44C832214691706C49BA6945
:1034100040F6581000FB02F20A44603293707B7F42
:103420006749BA6940F2562000FB02F21344643344
:1034300051F82330634A934236D0614ABB6940F663
:10344000581101FB03F31344B8339B791A46012347
:103450009340D8B25A4ABB6940F6581101FB03F3B6
:103460001344F03302469A70554ABB6940F658112E
:1034700001FB03F31344B8339B791C467B7F50490F
:10348000BA6940F2562000FB02F21344643351F84B
:1034900023204B49BB6940F2562000FB03F3234431
:1034A000E43341F823201EE0454ABB6940F6581139
:1034B00001FB03F31344B8339B791846404ABB69B8
:1034C00040F2562101FB03F30344E4333D4942F843
:1034D00023103B4ABB6940F6581101FB03F3134428
:1034E000F03300229A70364ABB6940F6581101FB4E
:1034F00003F3134448335B681846FDF7A1FA304ADA
:10350000BB6940F6581101FB03F3134403F57873CC
:103510001B79002B00F08F8000237B6100233B612F
:103520000023FB60264ABB6940F6581101FB03F3F8
:10353000134403F5BC735B881A463B6BB3FBF2F193
:1035400002FB01F29B1A3B61FB88DBB21C49BA69A2
:1035500040F6581000FB02F20A4402F5BC72928851
:1035600002FB03F3FB60FA683B69D31A7B61144AE0
:10357000BB6940F6581101FB03F3134403F5BC7318
:103580005B885B089BB25A427B699A421CDD0C4AFD
:10359000BB6940F6581101FB03F3134403F5BC73F8
:1035A0005B881A467B691A440549BB6940F6581086
:1035B00000FB03F30B4403F5C4731A600FE000BF74
:1035C000F8590020FFFFCDAB3A4ABB6940F65811CD
:1035D00001FB03F3134403F5C4737A691A60354A97
:1035E000BB6940F6581101FB03F3134403F5C473A0
:1035F0001B68D8B22F4ABB6940F6581101FB03F390
:103600001344693302465A702A4ABB6940F658117E
:1036100001FB03F3134403F5C4731B681B12D8B2F8
:10362000244ABB6940F6581101FB03F313446A3383
:1036300002465A701EE01F4ABB6940F6581101FB52
:1036400003F3134403F5C47300221A60194ABB69DB
:1036500040F6581101FB03F31344693300225A70FA
:10366000144ABB6940F6581101FB03F313446A3353
:1036700000225A700F4ABB6940F6581101FB03F350
:103680001344683370225A70FB8B18460021FDF7F3
:10369000D9F8BB6940F6581202FB03F36033054AC0
:1036A0001344FA8B104619460022FCF7CDFF24374D
:1036B000BD4690BDF859002084B02DE9F041114E6F
:1036C0009DF8B88096F8494804EB840506EB45154B
:1036D00006AF013487E80F00E4B2002705F57A70E1
:1036E00006A9A0228DF8B37008F09CFD062C85F881
:1036F000E88314BF86F8494886F84978BDE8F04168
:1037000004B07047F859002084B080B5A8B026AF47
:1037100007F1100E8EE80F0000237B604B4A7B6898
:1037200040F6581101FB03F313441B78022B46D1DA
:10373000464A7B6840F6581101FB03F31344E0331B
:103740005B785BB2002B33DD404A7B6840F6581152
:1037500001FB03F31344E0335B78DBB2DBB2013BE4
:10376000DBB2D8B2394A7B6840F6581101FB03F34B
:103770001344E03302465A7000200021FFF734FB67
:103780000346BB7400233B7444237B740023BB8239
:1037900004232493694607F1200390220846194622
:1037A00008F040FD07F110030FCBFFF785FF46E05F
:1037B0000020FDF755FC0020FDF710FC3FE0234AF8
:1037C0007B6840F6581101FB03F313441B78002B70
:1037D00003D10020FDF702FC31E01C4A7B6840F673
:1037E000581101FB03F31344E0335B78DBB2DBB227
:1037F000013BDBB2D8B2154A7B6840F6581101FB99
:1038000003F31344E03302465A700020FFF7B2FA84
:103810000346BB7400233B7444237B740023BB82A8
:1038200004232493694607F1200390220846194691
:1038300008F0F8FC07F110030FCBFFF73DFF083746
:10384000BD46BDE8804004B0704700BFF859002075
:103850002DE9F04F8346ADF51F7D00258DF8905082
:103860008DF891508DF892508DF893508DF89450BA
:10387000FCF78EFD9BF804302C9026AC022B49D02F
:10388000042B0CD02AA99022684608F0CBFC94E8BF
:103890000F00FFF739FF0DF51F7DBDE8F08FB54E26
:1038A00033780F22022BA27000F007810025042735
:1038B000214676A84FF000084FF00009A02225709D
:1038C000A580256165616770C4E9028908F0AAFCDA
:1038D00096F849488DF8735204EB840306EB4316BF
:1038E00076A906F57A70A022013408F09BFCE4B2B8
:1038F000A04B86F8E873062C14BF83F8494883F878
:1039000049589D482021012203F07CFA0DF51F7DC6
:10391000BDE8F08F9BF80820BBF80610A18002F0EC
:10392000DF02412A00F0BA802F46AA46A9464FF08E
:103930000108632624A8FCF7F1FEBBF806102DA8A9
:103940000022FCF7DBFE9DF892009DF891109DF897
:1039500090309DF893E09DF894206670000400EB91
:1039600001210B4403EB0E63002011462070120668
:10397000C01841F1000102EB13224FF00F0E022E8E
:103980002361C4E90201626184F802E07FF47AAF46
:10399000784EA0442744327898F81C003B7F002AD8
:1039A0004ED0012A00F09880611903EB0023087FB4
:1039B000A0F170019FB2122942D8DFE801F00AE1BC
:1039C0000AC141414141414141414141414141934C
:1039D000C100012A00F02281032A00F058817028DA
:1039E00000F03B8196F8E423624B3AB193F87521DD
:1039F0001A4492F95118022900F06A81F18C5D4B4A
:103A000048F20202914240F0008193F850281A4493
:103A100092F85118080600F1F88093F8E15001314E
:103A2000013D82F8511883F8E1500020FDF718FBA2
:103A30000020FDF705F838460121FFF7D5F9A07001
:103A4000012386F8E33021464EA8A02208F0EAFBC5
:103A500096F84948DFF81C8104EB840506EB451510
:103A6000002705F57A704EA9A0228DF8D37108F0D1
:103A7000D9FB022385F8E8330134D6F8C433E4B225
:103A8000062C03F1010314BF88F8494888F84978E7
:103A9000C6F8C4330DF51F7DBDE8F08F9BF80920F3
:103AA00002F0CC02882A7FF43FAF092507271E4683
:103AB000A946BA464FF008083CE796F8E1305AB2FA
:103AC000002A7FF7F3AE013BF08C86F8E130062147
:103AD000FFF78AF9A070E9E696F8E110013986F857
:103AE000E11061E7012A2ED025444FF0000C6D7FD4
:103AF000A369009305F00F0505EB0715EDB206EB82
:103B0000050E4A4651462DAB8EF851C8384686F808
:103B10005058FFF7C7FBB6F85400FDF7A1FA6369E8
:103B2000B365032386F8E130F08C0221FFF75CF9DE
:103B300007F07F036433114AA07046F823207FE723
:103B4000012A7FF47DAF96F8E13001332AA9902253
:103B500086F8E130684608F065FB94E80F00FFF74F
:103B6000D3FDD6F8C43301221344C6F8C43386F813
:103B7000E32090E6F859002000000240FFFFCDABA3
:103B800096F8E4E3DFF86C81BEF1000F7FF458AFE4
:103B9000B8F8261048F2020399423FF651AF012AC5
:103BA000D1D025445FFA87FB6B7F0BF0030503F050
:103BB0000F0303EB051545F0800508EB050C2DAB55
:103BC00051464A46384688F850588CF851E8FFF775
:103BD0005BFA48F201039F4203D0B8F85400FDF7A6
:103BE0003FFAF08C6369B365CBEB000303F003038A
:103BF00086F8E1300321FFF7F7F807F00303E83315
:103C00003B4AA07046F823201AE70020FDF728FA67
:103C10000020FDF7E3F90E23A37011E796F8F430C6
:103C2000334407F0030793F85128032F02F10102F0
:103C300083F8512849D10F2096F8F220A070012373
:103C400007EB8701BB407018134324A9052286F8AF
:103C5000F230703008F0E6FAF2E696F85038DFF805
:103C600094E0334493F851180D06CED49EF8E12029
:103C700050B20028C9DD4D1C013A3846042183F8B2
:103C800051588EF8E120FFF7AFF8A070D8E696F80B
:103C900075313344384693F85128013283F851285E
:103CA000FFF770F807F0030796F8F120A0700123E2
:103CB00007EB8701BB407018134324A9052286F83F
:103CC000F130703008F0AEFABAE6FEF70DFEB3E759
:103CD00093F8F150384645F008050327052183F88D
:103CE000F15082F85178FFF77FF8A070A8E600BF86
:103CF000FFFFCDABF85900202DE9F04B264D95F88C
:103D0000481801EB810149016C1804F57A7294F8A6
:103D1000E8332BB9214A214813705370BDE8F08B6A
:103D200004F57C731D4ED4F8F87392F802C0B2F813
:103D300004E03761D3E90089834629445078D4F8F8
:103D400000347070D4F8FC73B36101F2044106F1E1
:103D50001C007F22C6E9028986F802C0A6F804E0AA
:103D6000776108F05FFA95F8483894F8E81384F81A
:103D700083B40133DBB20022062B08BF1346317037
:103D800084F8E82314BF85F8483885F8482885F872
:103D90004A380248BDE8F08BF859002070670020CF
:103DA00038B50A4C04F5707520460021A034A022D5
:103DB00008F036FBAC42F7D1054B002283F84928C6
:103DC00083F8482883F84A2838BD00BFE05D00200A
:103DD000F859002038B5254D0023022240F60F0087
:103DE0002A706B7085F8E230FCF73CFF0446032034
:103DF000FCF740FEB4BBFEF78DFE4DF6CA63A5F896
:103E0000CC3085F8E04085F8E34085F8E440FFF7E2
:103E1000C7FF0822214605F1BF0008F001FB20463C
:103E2000C5F88841FCF7F2FD2046FCF7D7FD1048A5
:103E30000121FDF75DF90F480F49FCF713FEFF2341
:103E400005F65100F6214FF4807285F84B48C5F80D
:103E5000C843C5F8CC4385F8E13008F0E1FAAC6519
:103E6000204638BD4FF0FF3038BD00BFF859002064
:103E700080D02324AD27000851380008F8B5364F0C
:103E8000364897F84A3803EB830307EB43130121C5
:103E90000A4693F8E84302F0B5FF2F4D2146284625
:103EA000FDF7E0FD002406460028F6D02B4801214E
:103EB000224602F0A7FF022E34D095F8E430012B01
:103EC00001D00020F8BD97F8E340234D002CF8D135
:103ED0002B78012BF5D1FCF75BFAD5F8E830D5F853
:103EE000EC20C01A9042ECD995F8493885F8E440A6
:103EF00003EB8302520102F57A7101332944DBB2EC
:103F00002A44062B4FF084064FF004008C8081F881
:103F10009B404E7082F8E80314BF85F8493885F855
:103F20004948CEE72B78012B06D095F8E4300022E3
:103F300087F8E3207A60C2E7E86AAA6AD5F88811B0
:103F400085F8E43002440A44C5F8EC20C5F88C1129
:103F5000C5F88841EBE700BFF8590020000802408F
:103F6000014BC3F854097047F859002010B5074CAD
:103F700094F82430012B00D010BD1E200021226AAD
:103F8000FCF73AFC002384F8243010BDF8590020D7
:103F900010B5084C94F82530012B00D010BDE08BF3
:103FA000FCF712FCA08BFCF71BFC002384F82530E7
:103FB00010BD00BFF8590020410900F01F00012387
:103FC0008340024A42F82130704700BF00E100E020
:103FD000430900F01F00012282402033014941F8CB
:103FE0002320704700E100E02DE9F04F2DED028B1A
:103FF000634FDFF8B48185B00023B946C34603930D
:1040000003E0FEF76BFD002846D197F84B48FCF71C
:10401000BFF9D7F84C68054604F0F0FDFFF72EFF16
:10402000FEF756FD012CC8F80000EAD1B9F87C3142
:10403000AD1B9D42E5DD21460F20FCF775FB2146B7
:1040400005461920FCF770FB214606460A20FCF7BE
:104050006BFB214682460620FCF766FB32462B4668
:104060008DE801044749484808F03EFA464806F002
:10407000C9FBDBF800300022012B89F8E0201CD0BE
:10408000FCF77AFF062389F80130002387F84B38C4
:10409000FEF724FD0028B8D0FEF72AFDFEF72EFD1E
:1040A000FEF732FDD8F80030022B0AD0012B4AD09F
:1040B000FCF76EF9354B1860A7E73148FEF712FEA2
:1040C000E3E70398FEF7E4FC002251EC100BB0EE9E
:1040D000408AF0EE608A2E4B06F0F8FF07F090FA67
:1040E000002848D1039C812501E0013D18D0631CC4
:1040F0007F2BD6BFA61C00241C462046C8BF012625
:10410000FEF7C6FC002251EC100BB0EE408AF0EE38
:10411000608A1F4B06F0DAFF07F072FA0028E4D03D
:1041200003961C4B1C491A681C4823468DED008BD6
:1041300008F0DAF9194806F065FB039B7F2BB7DD21
:1041400000230393B4E7039D154A28461468FEF73D
:10415000AFFD22468DED000B124910482B4608F0AA
:10416000C3F92B4601331C460C48039306F04AFB67
:10417000032CE5DC9CE7039B1C4601330393D0E74B
:10418000F8590020ECFC000890680020981B0020E3
:1041900000408F40E868002008FD000840680020CB
:1041A0003C6800201CFD00085C00002038B5104B66
:1041B0001868104D05F10B040435002214F8013D78
:1041C000934018430132AC42F8D1094B18600229E0
:1041D00007D1042807DC6FEA40406FEA504080B204
:1041E00003E080B201E048F20400FEF7B9FA38BDFE
:1041F000A01B0020500000200346C0F3400003F045
:1042000004039BB203B10230704700BF00000000FE
:1042100030B587B005464EA3D3E90023CDE900238E
:104220001820FCF7C3F8FEF797FC414B984217D0D3
:10423000404C20461021012202F0E4FD012004F050
:10424000E9FC20461021002202F0DCFD072004F0EA
:10425000E1FCFEF781FC364B98425CD1FDF75AF940
:10426000FCF7CEF86846FCF73BFBFFF7B3FD0028F0
:1042700054DB0820FCF79AF8FEF76EFC2C4B9842B2
:104280004FD105F008039BB21BB901222A4B1A60DB
:1042900002E00222284B1A60274C28462188FFF7AB
:1042A00085FF2368022B05D1244B1B68042B01DDFD
:1042B00000222260204B1868FEF704FC2846FFF716
:1042C0009BFF1F4B18601F4C81000A185200A31857
:1042D000A25C8DF80C201C4C2260DA788DF80D2041
:1042E0005A788DF80E205A798DF811209A798DF828
:1042F00012201A89ADF814209A788DF80F201B79B6
:104300008DF810300144490003A8104B1944FEF702
:1043100025FC074807E04FF0FF3004E04FF0FF3086
:1043200001E04FF0FF3007B030BD00BFAFF30080B9
:104330003001CADE000002405C000020A01B00200B
:104340009C1B002028000020E468002000000020C2
:104350000BA7375E1068071008B50120FFF700FEB5
:1043600008BD00BF08B50B480221012202F04AFD3A
:104370000948402102F04CFDFCF706FF07481021D8
:1043800002F038FD0128EED002480221002202F09E
:1043900039FD08BD00080240000002400004024050
:1043A000094C002108B520680A460B4605F0B8F80C
:1043B00000210B4620684FF0FF3205F0B1F80128CC
:1043C000F6D1FFF7CFFFF3E7E068002038B50446E9
:1043D000FEF77EFB054604F00204A4B20CB91A4AAB
:1043E00000E01A4A1A4C20461A491B4B1B6808F079
:1043F0007BF8204606F006FA184B1A68184B1A602C
:10440000184B1A60012D08D1174C2046174908F0A7
:104410006BF8204606F0F6F938BD022D08D1124C93
:104420002046134908F060F8204606F0EBF938BD45
:1044300004220C4B1A600C4C20460E4908F054F82C
:10444000204606F0DFF938BDD4FD000830FD000835
:104450004068002034FD0008E4680020A01B002014
:104460003C680020E86800209068002048FD0008B3
:1044700054FD000860FD000808B500F0020083B29A
:104480000BB90E4A00E00E4A0E4C20460E490F4B67
:104490001B6808F029F8204606F0B4F920460C49BC
:1044A000102207F0BFFE204606F0ACF94FF4805012
:1044B000FEF75CF9022004F0ADFBFBE7D4FD000839
:1044C00030FD0008406800206CFD0008E468002012
:1044D00080FD000808B5044B1B7823B1034B186816
:1044E000002104F0C1FF08BD941B0020E0680020FB
:1044F0002DE9F04F3A483B4F3B4C8BB006F082F928
:104500003A4806F07FF923683E787D7897F802B044
:10451000F87897F804A0797997F80690FA7997F8DF
:10452000088097F809C097F80AE0FF7A1E4346EA28
:10453000450646EA8B0545EAC00545EA0A1040EA09
:10454000411040EA891141EAC21141EA082242EAD7
:104550004C2242EA8E2343EAC7230A202360FFF756
:1045600037FD234806F04EF92088FFF751FE013051
:1045700030D0206800F03803382B80B22ED01D4C8C
:10458000FFF724FF0A20FFF717FD0FCC6D460FC57C
:1045900054F8043B2B600021684604F00BFB164BDB
:1045A00018600FCC05AD0FC523682B60002105A84E
:1045B00004F000FB114B032218600021012004F0DD
:1045C00071FE0F4A0F4B106001221A7000200BB0D1
:1045D000BDE8F08F0C4806F015F9F7E7FFF74CFF40
:1045E00094FD000850000020A41B0020A0FD00083E
:1045F000B4FD0008C4FC00083468002030680020C6
:10460000E0680020941B0020C4FD000808B5FFF7F7
:104610006FFF0020BDE8084004F0EABA10B5044678
:1046200002F076FF064BA3FB0030800900F09CF8F7
:104630004FF0FF302146002200F04CF8002010BD62
:10464000D34D621008B50B4B1A6842F400721A6021
:104650001A6842F480621A601A6842F480721A6022
:10466000032000F025F80020FFF7D8FF06F090F9AE
:10467000002008BD003C0240024A13680133136069
:10468000704700BFA81B0020014B1868704700BF8F
:10469000A81B002010B582B00190FFF7F5FF04467B
:1046A000FFF7F2FF001B019B9842F9D302B010BD47
:1046B00000F00700064AD36823F4E0631B041B0CD8
:1046C00043EA002040F0BF6040F40030D060704703
:1046D00000ED00E030B4164BDC68C4F30224C4F1F2
:1046E0000705042D28BF0425231D062B01D9033CF3
:1046F00000E00024012303FA05F5013D2940A14013
:10470000A340013B1A400A43002806DA00F00F00DC
:104710001201D2B2074B1A5407E01201D2B200F1D3
:10472000604000F5614080F8002330BC704700BF56
:1047300000ED00E014ED00E0410900F01F0001234E
:104740008340024A42F82130704700BF00E100E098
:10475000430900F01F00012282402033014941F843
:104760002320704700E100E00138B0F1807F0AD2D9
:10477000064B5860F021064A82F82310002098600A
:1047800007221A6070470120704700BF10E000E068
:1047900000ED00E0430900F01F0001228240603379
:1047A000014941F82320704700E100E0042805D1C9
:1047B000054A136843F0040313607047024A136804
:1047C00023F004031360704710E000E030B4056884
:1047D0002C6824F480242C60046863608368402B78
:1047E00004D103689A600368D96003E003689960A4
:1047F0000368DA6030BC7047002831D010B403463B
:10480000022280F8352004682168184A0A4040686E
:1048100099680843D96808431969084359690843E6
:1048200099690843D9690843196A01430A43596AD7
:10483000042903D1D86A196B01430A43226019681D
:104840004A6922F00702586A0243042801D1986A93
:1048500002434A610020D864012283F8352001E038
:10486000012070475DF8044B704700BF3F8010F097
:1048700038B590F83440012C2ED00446012084F83D
:104880003400022084F835002568286820F00100F3
:1048900028602046FFF79AFF2268136843F0100350
:1048A00013602268136843F00803136022681368DA
:1048B00043F0040313602268536943F0800353619B
:1048C0002268136843F0020313602268136843F000
:1048D00001031360002038BD022038BD10B5044626
:1048E0000368B24A934257D9583A5268B0498B424A
:1048F0004CD001F580618B4246D0A1F568718B42A6
:1049000040D001F580618B423AD0A1F589618B429C
:1049100033D001F580618B422CD0A1F568718B42B8
:1049200025D001F580618B421ED0A1F589618B42B3
:1049300017D001F580618B4210D0A1F568718B42D0
:1049400009D001F580618B4202D14FF400211EE0B5
:104950004FF000711BE04FF4002118E04FF40021EC
:1049600015E04FF4002112E04FF400710FE04FF416
:1049700000710CE04FF4007109E04FF4007106E0A3
:10498000082104E0082102E0082100E008210A4291
:1049900014BF0122002218E1864A934258D902F539
:1049A0005272126882498B424CD001F580618B4271
:1049B00046D0A1F568718B4240D001F580618B42F1
:1049C0003AD0A1F589618B4233D001F580618B42E9
:1049D0002CD0A1F568718B4225D001F580618B4206
:1049E0001ED0A1F589618B4217D001F580618B4201
:1049F00010D0A1F568718B4209D001F580618B421E
:104A000002D14FF400211EE04FF000711BE04FF483
:104A1000002118E04FF4002115E04FF4002112E0CE
:104A20004FF400710FE04FF400710CE04FF400718F
:104A300009E04FF4007106E0082104E0082102E0DB
:104A4000082100E008210A4214BF01220022BCE034
:104A5000594A934257D9583A526855498B424CD0DB
:104A600001F580618B4246D0A1F568718B4240D040
:104A700001F580618B423AD0A1F589618B4233D038
:104A800001F580618B422CD0A1F568718B4225D055
:104A900001F580618B421ED0A1F589618B4217D050
:104AA00001F580618B4210D0A1F568718B4209D06D
:104AB00001F580618B4202D14FF400211EE04FF0DE
:104AC00000711BE04FF4002118E04FF4002115E0C5
:104AD0004FF4002112E04FF400710FE04FF4007129
:104AE0000CE04FF4007109E04FF4007106E008217A
:104AF00004E0082102E0082100E008210A4214BF76
:104B00000122002261E02D4A126829498B4257D0C8
:104B100001F580618B4246D0A1F568718B4240D08F
:104B200001F580618B423AD0A1F589618B4233D087
:104B300001F580618B422CD0A1F568718B4225D0A4
:104B400001F580618B421ED0A1F589618B4217D09F
:104B500001F580618B4210D0A1F568718B4209D0BC
:104B600001F580618B4202D14FF4002129E04FF022
:104B7000007126E04FF4002123E04FF4002120E0F3
:104B80004FF400211DE04FF400711AE04FF4007162
:104B900017E04FF4007114E04FF4007111E00821A8
:104BA0000FE008210DE008210BE000BF586402402F
:104BB00010600240B860024058600240006002404D
:104BC00008210A4214BF01220022002A00F07D8140
:104BD0001A6812F0040F00F078811A6822F00402BB
:104BE0001A602368AA4A934254D9A2F58962934273
:104BF0004CD002F58062934246D0A2F5687293428F
:104C000040D002F5806293423AD0A2F58962934285
:104C100033D002F5806293422CD0A2F568729342A1
:104C200025D002F5806293421ED0A2F5896293429C
:104C300017D002F58062934210D0A2F568729342B9
:104C400009D002F58062934202D14FF400221EE0A7
:104C50004FF000721BE04FF4002218E04FF40022E6
:104C600015E04FF4002212E04FF400720FE04FF411
:104C700000720CE04FF4007209E04FF4007206E09D
:104C8000082204E0082202E0082200E00822814B0A
:104C9000DA600CE1804A934253D9A83A93424CD04F
:104CA00002F58062934246D0A2F56872934240D0EA
:104CB00002F5806293423AD0A2F58962934233D0E2
:104CC00002F5806293422CD0A2F56872934225D0FF
:104CD00002F5806293421ED0A2F58962934217D0FA
:104CE00002F58062934210D0A2F56872934209D017
:104CF00002F58062934202D14FF400221EE04FF091
:104D000000721BE04FF4002218E04FF4002215E07F
:104D10004FF4002212E04FF400720FE04FF40072E3
:104D20000CE04FF4007209E04FF4007206E0082234
:104D300004E0082202E0082200E00822554B9A60B5
:104D4000B5E0564A934253D9483A93424CD002F5C3
:104D50008062934246D0A2F56872934240D002F539
:104D6000806293423AD0A2F58962934233D002F531
:104D7000806293422CD0A2F56872934225D002F54E
:104D8000806293421ED0A2F58962934217D002F549
:104D90008062934210D0A2F56872934209D002F566
:104DA0008062934202D14FF400221EE04FF0007265
:104DB0001BE04FF4002218E04FF4002215E04FF4FE
:104DC000002212E04FF400720FE04FF400720CE08A
:104DD0004FF4007209E04FF4007206E0082204E08C
:104DE000082202E0082200E008222D4BDA605EE093
:104DF0002C4A934258D002F58062934246D0A2F5E5
:104E00006872934240D002F5806293423AD0A2F594
:104E10008962934233D002F5806293422CD0A2F58E
:104E20006872934225D002F5806293421ED0A2F5AB
:104E30008962934217D002F58062934210D0A2F5A6
:104E40006872934209D002F58062934202D14FF416
:104E500000222AE04FF0007227E04FF4002224E005
:104E60004FF4002221E04FF400221EE04FF40072C4
:104E70001BE04FF4007218E04FF4007215E04FF49D
:104E8000007212E0082210E008220EE008220CE076
:104E90005864024000640240B8600240586002401A
:104EA00000600240106002400822B24B9A60E36C3E
:104EB00043F00103E364042384F83530002384F8CD
:104EC0003430A36C0BB1204698472368AA4A93421A
:104ED00053D9583A5268A9498B4248D001F58061AC
:104EE0008B4242D0A1F568718B423CD001F58061C4
:104EF0008B4236D0A1F589618B4230D001F58061BB
:104F00008B422AD0A1F568718B4224D001F58061D3
:104F10008B421ED0A1F589618B4217D001F58061CB
:104F20008B4210D0A1F568718B4209D001F58061E8
:104F30008B4202D14FF480311AE04FF4800117E028
:104F40004FF4803114E04FF4803111E04FF48031A0
:104F50000EE040210CE040210AE0402108E0402121
:104F600006E0874904E0864902E0854900E084497B
:104F70000A4214BF012200220DE1824A934254D911
:104F800002F5527212687D498B4248D001F580616A
:104F90008B4242D0A1F568718B423CD001F5806113
:104FA0008B4236D0A1F589618B4230D001F580610A
:104FB0008B422AD0A1F568718B4224D001F5806123
:104FC0008B421ED0A1F589618B4217D001F580611B
:104FD0008B4210D0A1F568718B4209D001F5806138
:104FE0008B4202D14FF480311AE04FF4800117E078
:104FF0004FF4803114E04FF4803111E04FF48031F0
:105000000EE040210CE040210AE0402108E0402170
:1050100006E05B4904E05A4902E0594900E058497A
:105020000A4214BF01220022B5E0574A934253D9E5
:10503000583A526851498B4248D001F580618B4201
:1050400042D0A1F568718B423CD001F580618B4262
:1050500036D0A1F589618B4230D001F580618B4259
:105060002AD0A1F568718B4224D001F580618B4272
:105070001ED0A1F589618B4217D001F580618B426A
:1050800010D0A1F568718B4209D001F580618B4287
:1050900002D14FF480311AE04FF4800117E04FF451
:1050A000803114E04FF4803111E04FF480310EE094
:1050B00040210CE040210AE0402108E0402106E0C8
:1050C0002F4904E02E4902E02D4900E02C490A4214
:1050D00014BF012200225EE0264A126827498B4253
:1050E00054D001F580618B4242D0A1F568718B42AA
:1050F0003CD001F580618B4236D0A1F589618B42AD
:1051000030D001F580618B422AD0A1F568718B42C5
:1051100024D001F580618B421ED0A1F589618B42BC
:1051200017D001F580618B4210D0A1F568718B42D8
:1051300009D001F580618B4202D14FF4803126E025
:105140004FF4800123E04FF4803120E04FF48031B0
:105150001DE04FF480311AE0402118E0402116E0B4
:10516000402114E0402112E0054910E004490EE01E
:1051700003490CE0006002405864024010600240A5
:1051800001008000B860024058600240AB490A420A
:1051900014BF01220022002A00F06F815A6912F028
:1051A000800F00F06A815A6922F080025A612368F8
:1051B000A34A934250D9A2F58962934248D002F59E
:1051C0008062934242D0A2F5687293423CD002F5CD
:1051D0008062934236D0A2F58962934230D002F5C4
:1051E000806293422AD0A2F56872934224D002F5DD
:1051F000806293421ED0A2F58962934217D002F5D5
:105200008062934210D0A2F56872934209D002F5F1
:105210008062934202D14FF480321AE04FF4800250
:1052200017E04FF4803214E04FF4803211E04FF475
:1052300080320EE040220CE040220AE0402208E0EA
:10524000402206E07D4A04E07C4A02E07B4A00E01E
:105250007A4A7C4BDA6002E17B4A93424FD9A83A02
:10526000934248D002F58062934242D0A2F5687220
:1052700093423CD002F58062934236D0A2F5896217
:10528000934230D002F5806293422AD0A2F5687230
:10529000934224D002F5806293421ED0A2F5896227
:1052A000934217D002F58062934210D0A2F5687243
:1052B000934209D002F58062934202D14FF48032CA
:1052C0001AE04FF4800217E04FF4803214E04FF4FC
:1052D000803211E04FF480320EE040220CE0402298
:1052E0000AE0402208E0402206E0544A04E0534A23
:1052F00002E0524A00E0514A524B9A60AFE0534AF2
:1053000093424FD9483A934248D002F58062934283
:1053100042D0A2F5687293423CD002F5806293427B
:1053200036D0A2F58962934230D002F58062934272
:105330002AD0A2F56872934224D002F5806293428B
:105340001ED0A2F58962934217D002F58062934283
:1053500010D0A2F56872934209D002F580629342A0
:1053600002D14FF480321AE04FF4800217E04FF47C
:10537000803214E04FF4803211E04FF480320EE0BE
:1053800040220CE040220AE0402208E0402206E0F1
:105390002A4A04E0294A02E0284A00E0274A2C4B26
:1053A000DA605CE02B4A934256D002F58062934269
:1053B00042D0A2F5687293423CD002F580629342DB
:1053C00036D0A2F58962934230D002F580629342D2
:1053D0002AD0A2F56872934224D002F580629342EB
:1053E0001ED0A2F58962934217D002F580629342E3
:1053F00010D0A2F56872934209D002F58062934200
:1054000002D14FF4803228E04FF4800225E04FF4BF
:10541000803222E04FF480321FE04FF480321CE0F3
:1054200040221AE0402218E0402216E0402214E018
:10543000024A12E0014A10E0004A0EE0010080003A
:105440005864024000640240B86002405860024064
:105450000060024010600240B44AB54B9A60E36CB1
:1054600043F00203E364042384F83530002384F816
:105470003430A36C0BB1204698472368AD4A934261
:1054800057D9583A5268AC498B424CD001F58061EB
:105490008B4246D0A1F568718B4240D001F5806106
:1054A0008B423AD0A1F589618B4233D001F58061FE
:1054B0008B422CD0A1F568718B4225D001F580611B
:1054C0008B421ED0A1F589618B4217D001F5806116
:1054D0008B4210D0A1F568718B4209D001F5806133
:1054E0008B4202D14FF480211EE04FF080711BE00F
:1054F0004FF4802118E04FF4802115E04FF4802113
:1055000012E04FF480710FE04FF480710CE04FF423
:10551000807109E04FF4807106E0884904E0874912
:1055200002E0864900E085490A4214BF01220022B8
:105530001BE1834A934258D902F5527212687E49A0
:105540008B424CD001F580618B4246D0A1F5687149
:105550008B4240D001F580618B423AD0A1F5896140
:105560008B4233D001F580618B422CD0A1F568715C
:105570008B4225D001F580618B421ED0A1F5896157
:105580008B4217D001F580618B4210D0A1F5687174
:105590008B4209D001F580618B4202D14FF480210A
:1055A0001EE04FF080711BE04FF4802118E04FF4B3
:1055B000802115E04FF4802112E04FF480710FE05C
:1055C0004FF480710CE04FF4807109E04FF480716A
:1055D00006E05A4904E0594902E0584900E05749B9
:1055E0000A4214BF01220022BFE0564A934257D913
:1055F000583A526850498B424CD001F580618B4239
:1056000046D0A1F568718B4240D001F580618B4294
:105610003AD0A1F589618B4233D001F580618B428C
:105620002CD0A1F568718B4225D001F580618B42A9
:105630001ED0A1F589618B4217D001F580618B42A4
:1056400010D0A1F568718B4209D001F580618B42C1
:1056500002D14FF480211EE04FF080711BE04FF427
:10566000802118E04FF4802115E04FF4802112E0F2
:105670004FF480710FE04FF480710CE04FF48071B3
:1056800009E04FF4807106E02C4904E02B4902E068
:105690002A4900E029490A4214BF0122002264E09D
:1056A000234A126824498B425AD001F580618B420B
:1056B00054D0A1F568718B424ED001F580618B42C8
:1056C00048D0A1F589618B4241D001F580618B42C0
:1056D0003AD0A1F568718B4225D001F580618B42EB
:1056E0001ED0A1F589618B4217D001F580618B42F4
:1056F00010D0A1F568718B4209D001F580618B4211
:1057000002D14FF480212CE04FF0807129E04FF45A
:10571000802126E04FF4802123E04FF4802120E017
:105720004FF480711DE04FF480711AE00100800099
:105730000060024058640240106002400400800093
:10574000B8600240586002404FF4807109E04FF4A5
:10575000807106E0B54904E0B44902E0B34900E0D5
:10576000B2490A4214BF01220022002A00F07F81C0
:105770001A6812F0020F00F07A811A6822F0020211
:105780001A602368AA4A934254D9A2F589629342C7
:105790004CD002F58062934246D0A2F568729342E3
:1057A00040D002F5806293423AD0A2F589629342DA
:1057B00033D002F5806293422CD0A2F568729342F6
:1057C00025D002F5806293421ED0A2F589629342F1
:1057D00017D002F58062934210D0A2F5687293420E
:1057E00009D002F58062934202D14FF480221EE07C
:1057F0004FF080721BE04FF4802218E04FF48022BB
:1058000015E04FF4802212E04FF480720FE04FF465
:1058100080720CE04FF4807209E04FF4807206E071
:10582000824A04E0814A02E0804A00E07F4A814BDC
:10583000DA600EE1804A934253D9A83A93424CD0A1
:1058400002F58062934246D0A2F56872934240D03E
:1058500002F5806293423AD0A2F58962934233D036
:1058600002F5806293422CD0A2F56872934225D053
:1058700002F5806293421ED0A2F58962934217D04E
:1058800002F58062934210D0A2F56872934209D06B
:1058900002F58062934202D14FF480221EE04FF065
:1058A00080721BE04FF4802218E04FF4802215E054
:1058B0004FF4802212E04FF480720FE04FF48072B8
:1058C0000CE04FF4807209E04FF4807206E0574A12
:1058D00004E0564A02E0554A00E0544A554B9A60AB
:1058E000B7E0564A934253D9483A93424CD002F516
:1058F0008062934246D0A2F56872934240D002F58E
:10590000806293423AD0A2F58962934233D002F585
:10591000806293422CD0A2F56872934225D002F5A2
:10592000806293421ED0A2F58962934217D002F59D
:105930008062934210D0A2F56872934209D002F5BA
:105940008062934202D14FF480221EE04FF08072B9
:105950001BE04FF4802218E04FF4802215E04FF452
:10596000802212E04FF480720FE04FF480720CE05E
:105970004FF4807209E04FF4807206E02B4A04E095
:105980002A4A02E0294A00E0284A2D4BDA6060E00A
:105990002C4A93425AD002F58062934254D0A2F529
:1059A0006872934240D002F5806293423AD0A2F5E9
:1059B0008962934233D002F5806293422CD0A2F5E3
:1059C0006872934225D002F5806293421ED0A2F500
:1059D0008962934217D002F58062934210D0A2F5FB
:1059E0006872934209D002F58062934202D14FF46B
:1059F00080222CE04FF0807229E04FF4802226E0D4
:105A00004FF4802223E04FF4802220E04FF4807294
:105A10001DE04FF480721AE04FF4807217E04FF4EB
:105A2000807214E0014A12E0004A10E00400800095
:105A30005864024000640240B8600240586002406E
:105A40000060024010600240B84A00E0B74AB84B1C
:105A50009A60E36C43F00403E364042384F8353074
:105A6000002384F83430A36C0BB120469847236898
:105A7000B04A934257D9583A5268AF498B424CD0FA
:105A800001F580618B4246D0A1F568718B4240D010
:105A900001F580618B423AD0A1F589618B4233D008
:105AA00001F580618B422CD0A1F568718B4225D025
:105AB00001F580618B421ED0A1F589618B4217D020
:105AC00001F580618B4210D0A1F568718B4209D03D
:105AD00001F580618B4202D14FF480111EE04FF03E
