:020000040800F2
:1000000000000220590200085D020008C9AB000888
:10001000E5AB0008E9AB0008EDAB0008000000000C
:100020000000000000000000000000003590000803
:100030004103000800000000C5900008F1AB000873
:10004000558C0008558C0008558C0008558C00080C
:10005000558C0008558C000865AD0008558C0008CB
:10006000558C0008558C000871AD0008FDAB0008E8
:100070002DAC0008F1AC0008558C0008558C000828
:100080005DAC000891AC0008558C00080000000031
:100090000000000000000000000000007DAD00082E
:1000A000558C0008558C0008558C0008558C0008AC
:1000B000558C0008558C0008558C0008558C00089C
:1000C000558C0008558C0008558C0008558C00088C
:1000D000558C0008558C0008558C00080000000065
:1000E000558C0008558C0008558C00080000000055
:1000F00000000000000000000000000029AD000822
:1001000000000000558C0008558C000855AD000813
:1001100000000000000000000000000000000000DF
:10012000558C0008558C0008558C0008558C00082B
:10013000558C0008000000000000000000000000D6
:10014000000000000000000000000000558C0008C6
:10015000558C0008558C0008558C0008558C0008FB
:10016000558C0008558C00080000000000000000BD
:10017000000000000000000000000000000000007F
:1001800000000000558C0008000000000000000086
:10019000558C0008558C000800B583B008F0C0FCF1
:1001A000224B234A03E011681960043304322149C9
:1001B0008B42F8D3204B02E000221A6004331F4A1E
:1001C0009342F9D308F0BAFC01A8694608F082FC12
:1001D0001B4D1C4B5D1BAD10002404E0184B53F865
:1001E000243098470134A542F8DC174D174B5D1BAE
:1001F000AD10002404E0144B53F824309847013428
:10020000A542F8DC019800990AF0DEF80546104C8A
:10021000104B1C1BA41004E0013C0D4B53F8243080
:100220009847002CF8DC284608F02EFC000000203F
:10023000301B0108F40A0020F80A00207066002034
:100240005C0300085C0300085C0300085C03000812
:100250005C0300085C0300083C480047FEE700BF61
:100260001EF0040F0CBFEFF30880EFF30980714616
:10027000374A10472DE9F04182B007468846084BBF
:100280005D6B9C6B9E6A074808F02CFCCDF80080E3
:10029000384631462A46234608F064FCFEE700BF94
:1002A00000ED00E050180108FEE700BF1EF0040F4B
:1002B0000CBFEFF30880EFF309807146254A104721
:1002C0002DE9F04182B007468846084B5D6B9C6B78
:1002D0009E6A074808F006FCCDF800803846314693
:1002E0002A46234608F03EFCFEE700BF00ED00E092
:1002F000601801081EF0040F0CBFEFF30880EFF345
:1003000009807146144A10472DE9F04182B0074632
:100310008846084B5D6B9C6B9E6A074808F0E2FBC1
:10032000CDF80080384631462A46234608F01AFCAC
:10033000FEE700BF00ED00E06C180108FEE700BF1B
:10034000FEE700BFFEE700BF70470000990100080C
:0C03500075020008C10200080903000843
:1003600008B50A2000F018F8034620B14FF4806168
:10037000024AC2F88010184608BD00BF00E100E044
:1003800018B14FF48062014B1A60704700E100E041
:1003900008B508F0EBFC08BD034B1B68034201D015
:1003A0000120704700207047003C014000B583B039
:1003B000104B1A6C42F400421A641B6C03F40043A5
:1003C0000193019B0C4B0D4A1A6000229A604FF476
:1003D00082715960DA601A615A614FF48021996123
:1003E000D8611A620722DA62184607F085FA03B06C
:1003F0005DF804FB0038024070640020003C0040BF
:1004000070B586B0012401940294022603960C4D27
:10041000284601A906F0FEFC28462146224606F0A1
:10042000D7FD304608F0DCFC01940323029300233F
:100430000393284601A906F0EDFC06B070BD00BF8D
:10044000000002402DE9F04700EB0208B8F5805F9C
:1004500031D81E46154604468946FFF781FFDFF86E
:1004600070A049462246074650460DF069FB3146CA
:100470002A460AEB04000DF063FB1148102100220C
:1004800006F0A6FD1FFA88F251460E4807F076FAEC
:100490000D4A5368002BFCD10C4A93689B07FCD58E
:1004A00010210122064806F093FD3846FFF768FF49
:1004B0000020BDE8F0874FF0FF30BDE8F08700BFB7
:1004C0000000024070640020B8600240003C004020
:1004D000F80A00202DE9F84386181FFA86F8B8F5C7
:1004E000805F04462CD889461D46FFF739FF10214E
:1004F00000220746144806F06BFD144A144849468A
:10050000434607F0A1FA134A5368002BFCD1124A64
:100510009368DB07FCD4B44207D20C4A135D05F89C
:10052000013B0134A4B2B442F8D3102101220648A1
:1005300006F04EFD3846FFF723FF0020BDE8F883A4
:100540004FF0FF30BDE8F88300000240F80A0020B9
:100550007064002040600240003C0040022902D04C
:10056000052909D011E0022A02D10E4BDA6911E007
:100570006AB90C4B1A6A0DE0022A02D1094B5A6A79
:1005800008E032B9074B9A6A04E0002202E0002238
:1005900000E0002200F001031B0122FA03F080B208
:1005A000704700BFFC1A0020014B987B704700BFCA
:1005B000FC1A0020014BD3F884007047FC1A00207D
:1005C000044B5B5C00EB4300034B03EB8000006BD0
:1005D000704700BF74120108FC1A002001380301A3
:1005E000024A9069D84080B2704700BFFC1A0020D0
:1005F00000B583B0E1B160F03F007F298DF80400C1
:100600000DD961F07F00C9098DF805008DF806103D
:10061000032001A9FFF716FF03B05DF804FB8DF876
:100620000510022001A9FFF70DFF03B05DF804FBE0
:1006300060F07F008DF8040001A90120FFF702FFA0
:1006400003B05DF804FB00BF08B51318B3F5806F65
:1006500007DC0B461146821E0920FFF7C9FF002068
:1006600008BD4FF0FF3008BD30B583B00725062424
:1006700041F60601022201AB2E208DF804508DF8C0
:100680000540FFF7B5FF03B030BD00BF00B583B034
:1006900002AB012203F8012D03210D20FFF7A8FF73
:1006A00003B05DF804FB00BF00B583B0E1B140F0DA
:1006B00040007F298DF804000DD961F07F00C90941
:1006C0008DF805008DF80610032001A9FFF702FF41
:1006D00003B05DF804FB8DF80510022001A9FFF7B7
:1006E000F9FE03B05DF804FB8DF8040001A90120B8
:1006F000FFF7F0FE03B05DF804FB00BF10B40C463A
:1007000003461146112022465DF8044BFFF7CCBF8B
:100710000346002117200522FFF7C6BF034600212C
:1007200015200522FFF7C0BF00B5042283B080B2B8
:1007300089B20DEB0203FFF7B7FF20B14FF0FF3096
:1007400003B05DF804FB9DF807009DF806109DF8C6
:1007500005209DF80430A0F5807001EB002002EB2D
:10076000002003EB002003B05DF804FB08B5002077
:100770000146FFF7D9FF08BD00B583B080B289B24A
:10078000022201ABFFF790FF20B14FF6FF7003B0DC
:100790005DF804FB9DF805009DF8043003EB002094
:1007A00080B203B05DF804FB30B583B01446150A7F
:1007B00089B2022201AB80B28DF804408DF8055059
:1007C000FFF716FF03B030BD08B50246034B988211
:1007D0002E2041F60401FFF7E7FF08BDFC1A0020B8
:1007E00008B50246034BD88218200021FFF7DCFF32
:1007F00008BD00BFFC1A0020F0B5144683B0170AEC
:10080000160C150E042289B20DEB020380B28DF88E
:1008100004408DF805708DF806608DF80750FFF7DD
:10082000E7FE03B0F0BD00BF10B504462A200B213F
:1008300001222346FFF7DCFE1E2000216268FFF73D
:10084000DBFF10BD08B5054B1A69104340EA815221
:1008500000210820FFF7D0FF002008BDFC1A00206F
:1008600010B5002104460420FFF75EFF54B9094B80
:100870000340094C23631A4604200021BDE81040C0
:10088000FFF7BABF054B04F4FF7444F001040340C2
:100890002343EEE7FEFF47F0FC1A002001FE47F07D
:1008A00030B5022183B00446050A0A4601AB032095
:1008B0008DF804408DF80550FFF79AFE03B030BD67
:1008C00030B583B00446050A0021022201AB0320A3
:1008D0008DF804408DF80550FFF78AFE03B030BD57
:1008E0000346002101200822FFF782BE30B583B005
:1008F00002AC050A04F8040D0421234602222D202F
:100900008DF80550FFF774FE0325234606210122CA
:100910002D208DF80450FFF76BFE234601220024A2
:1009200006212D208DF80440FFF762FE0A212D20BC
:10093000FFF7FAFE03B030BD30B583B002AC002340
:1009400004F8043D02252346022101222C20FFF752
:100950004FFE2346294601222C208DF80450FFF734
:1009600047FE03B030BD00BF10B504210446362059
:10097000FFF7DAFE3CB920F4006204213620BDE81E
:100980001040FFF739BF40F4006204213620BDE873
:100990001040FFF731BF00BF30B583B002AB6D220E
:1009A000044603F8052D2E2040F606010122FFF72C
:1009B0001FFE74B90725162441F60601022201AB79
:1009C0002E208DF804508DF80540FFF711FE03B07E
:1009D00030BDFFF749FE03B030BD00BF0A4B1A6BB4
:1009E00040B983F82D0042F48052042000211A639C
:1009F000FFF702BF012122F4805283F82D1004205A
:100A000000211A63FFF7F8BEFC1A002000B50B4B5B
:100A100083B01A6B70B922F000521A6302AB120E47
:100A200003F8012D032101220420FFF7E1FD03B0AB
:100A30005DF804FB42F000521A63EFE7FC1A002055
:100A400010B5002104461A20FFF76EFE020DC4F314
:100A50001304120522431A200021BDE81040FFF7BD
:100A6000CBBE00BF024BC3F88800C3F88C107047A0
:100A7000FC1A0020F0B5044683B001AD14F0010665
:100A80002B464FF0260025D131460222FFF70CFEFF
:100A90009DF805303146262023F0140602222B460D
:100AA0008DF80560FFF7A4FDA30711D50F242A21B7
:100AB00001222B4636208DF80440FFF799FD0024D3
:100AC0002B4636202A2101228DF80440FFF790FDA5
:100AD00003B0F0BD00210222FFF7E6FD9DF80520DE
:100AE00002AB22F03C02012142F0140203F8032D74
:100AF00026200A46FFF77CFD2B46022101223620E4
:100B0000FFF7D2FD9DF804602B4666F07B060221BC
:100B1000012236208DF804601027FFF769FD0126B9
:100B20002B462821022236208DF804708DF80560AE
:100B3000FFF75EFDB8E700BF10B582B0044601AB19
:100B4000362000210222FFF7AFFD0D2C0ED8DFE882
:100B500004F0252E380D0D0D0D41500D0D075D1CB7
:100B60009DF8053043F002038DF8053001AB0021FC
:100B700001223620FFF73CFD01210A460DF1050355
:100B80003620FFF735FD02B010BD9DF8043023F08C
:100B9000300343F020038DF80430E7E79DF804307C
:100BA00023F0030343F001038DF80430DEE79DF8E2
:100BB0000530002223F001038DF805308DF8042064
:100BC000D4E79DF8043023F0030343F002038DF8CB
:100BD0000430CBE79DF804309DF8052023F04C034A
:100BE00043F0480362F07F028DF804308DF8052051
:100BF000BCE79DF804209DF8053022F04C0203F07C
:100C00007F038DF804208DF80530AFE79DF805309F
:100C100023F002038DF80530A8E700BF70B582B05D
:100C200002AB012403F8084D0021032502223620DF
:100C30008DF8015080260D46FFF7DAFC06210222CE
:100C400001AB2D208DF804508DF80560FFF7D0FC26
:100C5000204608F0C5F82046FFF76EFF284602B090
:100C600070BD00BFF0B583B0064604238DF8073091
:100C70006A4C002384F87C3084F82D30C4F880302E
:100C800084F86930C4F8843084F87D30C4F8883042
:100C9000C4F88C30FFF76AFD2060614B984240F049
:100CA000A9800020FFF748FF2420002101220DF138
:100CB0000703FFF79DFC1E20FFF718FE0546C0F353
:100CC0000722A27306F008039BB223B10420FFF7AA
:100CD0000DFEC4F88400514B93F884304BB102AB45
:100CE000022203F8022D2D2012210122FFF780FCA1
:100CF00003E00022494BC3F884200620FFF7F6FDED
:100D0000464C60600720FFF7F1FDA0600023A3615F
:100D1000E36123626362A36206F002039BB2D3B174
:100D2000A37B012B04D81C20FFF7E0FDA06112E09B
:100D3000032B10D80D20FFF7D9FD384CE0610E20B1
:100D4000FFF7D4FD20620F20FFF7D0FD60621D2069
:100D5000FFF7CCFDA06216F0010F0ED005F01F05C5
:100D60002E4B83F82C50002D47D12E4B1B7803F0CF
:100D70001F032A4A82F82C303FE02A4B1B7803F0ED
:100D80001F03264A82F82C3037E02046FFF7AEFDDD
:100D900045F8040F0134BD42F7D104E0002243F8C6
:100DA000042F8B42FAD106F40066B6B216B1FFF7F3
:100DB00035FF0AE036200521FFF7DEFC20F4007045
:100DC00082B236200521FFF7EFFC0120FFF7B4FEC9
:100DD00004200021FFF7A8FC104B186326200021F7
:100DE000FFF7A2FC40F4A02226200021FFF704FD1B
:100DF000002011E04FF0FF300EE006F004039BB23C
:100E000023B9064901F130036031C7E7034F07F109
:100E1000300560371024B8E703B0F0BDFC1A00209D
:100E20003001CADE9C12010870B582B002AB032605
:100E300004460125344003F8085D002102223620D3
:100E400064018DF801602C43FFF7D2FB00261221CC
:100E5000022201AB2D208DF804408DF80560FFF7CC
:100E6000C7FB2846FFF768FE02B070BD10B5002032
:100E700082B0FFF761FE0421002402220DEB010382
:100E800036208DF804408DF80540FFF7B1FB02B025
:100E900010BD00BF024601210A20FFF7ADBC00BF14
:100EA00070B500F0020282B0044602F0FF0322BBDC
:100EB0000DF1070614F0010412D043F006040021DE
:100EC000012233460D208DF80740FFF791FB0F20DC
:100ED0000321FFF751FC10F481601FD102B070BDF7
:100EE00043F002052146334601220D208DF80750BC
:100EF000FFF77EFB204602B070BD02AE802306F8ED
:100F0000013D0021334601220D20FFF771FB0D4A00
:100F10009DF80730012182F87D10CBE7334601228E
:100F2000002140240D208DF80740FFF761FB0020D1
:100F3000FFF71AFD034B002283F87D204FF0FF30AE
:100F4000CCE700BFFC1A002000B583B001220DF1F0
:100F500007030F200321FFF7A7FB9DF8073023F0BD
:100F60007F0203F04003B2EB430F01D0FFF78EFB8B
:100F700003B05DF804FB00BF70B582B002AC402343
:100F800000210E2004F8013DFFF7CEFB0646FFF7D7
:100F9000E7F9002105460A460E20FFF72DFC2346FF
:100FA000002101220D20FFF723FB0021094A0F2019
:100FB000FFF722FCFFF7C8FF324600210E20FFF7A3
:100FC0001BFC2846FFF7DCF9034B002283F87D2049
:100FD00002B070BDF8FF2724FC1A002070B505464A
:100FE00082B0FFF7B1FF15F0010414D000242146B0
:100FF00001AB032602220D208DF804408DF8056018
:10100000FFF7F6FA31460F20FFF7B6FB10F48160C8
:101010000FD102B070BD01252146022201AB0D2087
:101020008DF804408DF80550FFF7E2FA204602B033
:1010300070BDFFF7A1FFAB0703D44FF0FF3002B044
:1010400070BD01AB214601250D2002228DF8044020
:101050008DF80550FFF7CCFA4FF0FF30D9E700BF0D
:1010600070B582B004460DF1030304200321012270
:10107000FFF71AFB9CB9154E9DF80340326B0DF13A
:10108000030322F0805524F01004032101220420E0
:1010900035638DF80340FFF7ABFA02B070BD0B4E1D
:1010A0008DF80440250A022201AB0C2000218DF8A6
:1010B0000550FFF79DFA9DF80340326B0DF10303D5
:1010C00042F0805544F01004DFE700BFFC1A002016
:1010D00030B583B00446050A2421022201AB272043
:1010E0008DF804408DF80550FFF782FA03B030BD4B
:1010F00070B50E460546FFF733F9002104460E2071
:10110000FFF712FB56B920EA05020E200021FFF777
:1011100073FB2046BDE87040FFF732B940EA050294
:10112000F3E700BF30B583B002AC022304F8013D01
:10113000054623462F2000210122FFF759FA45B129
:10114000012523462A462F2000218DF80750FFF75E
:101150004FFA03B030BD00BF10B582B002ACE0233F
:1011600004F8013D0321234601223620FFF740FA0F
:1011700023460321F024012236208DF80740FFF793
:1011800037FA02B010BD00BF2DE9F041BF4EC04D8F
:10119000C04882B04FF4806105F020FFD6F800808F
:1011A00095F82D3085F86E30002708F10103394697
:1011B0000F20336085F86870FFF7B6FA3368B64AD7
:1011C0006866092B044642F828004FF48061B14854
:1011D000C8BF376005F002FFB04B9C4200F0BD80F5
:1011E000AC484FF4806105F0F9FE62056BD595F8C7
:1011F0002D60A74FF6B1A7484FF4806105F0EEFED1
:10120000620434D514F4801700F0BB80FFF7B4FEFD
:10121000FFF7A2FF2B6B9E489D0000F11881D0F8CC
:101220008C30032280F868200BB16430984702B0FC
:10123000BDE8F08104F46063B3F5606FDBD0FFF7C5
:101240009BFEFFF789FF3B6B9B0004F0F80400F165
:101250003981D7F88C30032287F8682013B107F161
:10126000640098478B484FF4806105F0B7FE14F096
:10127000800153D114F400323FD1894A2240002A20
:10128000D5D00F200021FFF7B7FA2B6B002285F88D
:101290007D209A0040F12281FFF75EFFE30400F118
:1012A000E380270400F11D81E60340F11E8109233C
:1012B00085F86830D5F88C30002BB8D0794898473D
:1012C00002B0BDE8F08173484FF4806105F086FEFE
:1012D0006304CCD52B6B990040F18980FFF73CFF6C
:1012E000D5F88C300021032285F87D1085F8682020
:1012F000002B9CD06B489847E2E70F20FFF77CFA61
:10130000D5F88C30042285F868200BB165489847E1
:10131000002385F87D3002B0BDE8F081F8220F206F
:101320000021FFF769FA95F86920594B52B193F8FB
:101330002D20002183F8691022B993F87D300BB17C
:10134000FFF71AFED5F88830012285F86820002BB7
:101350003FF46DAF53489847B2E7FFF70DFEFFF734
:10136000FBFE4C484FF4806105F038FE49484FF4CD
:10137000806105F033FE4A4A2240002A3FF457AF0D
:101380007FE739461020FFF7F7F9474B0646394605
:1013900011200222FFF788F96B7B5BB3C6F30906C5
:1013A00014F00801A5F86A60394A07D092F86C3049
:1013B00003F0200303F0FF00002B59D085F86910DB
:1013C000002795F82D10324E022385F86830A1B918
:1013D00004F4DE423A430F20FFF70EFAD6F88C30C1
:1013E000002B3FF424AF06F1640098471FE7FFF796
:1013F000C3FD73E706F07F06D2E7012632460DF102
:1014000002030F2003218DF80360FFF74DF99DF8CB
:10141000023023F07F0203F04003B2EB430F6AD0A7
:101420002B6B13F0005441D0D5F88C300BB11D4814
:1014300098470F200221FFF79FF9C4061ED5FFF73A
:101440009BFDFFF789FE2B6B98007FF5F0AE002423
:1014500001252146022201AB0D208DF804408DF8B4
:101460000550FFF7C5F8E2E6082385F8683021E764
:1014700082F8690082F87D000827A2E70321012293
:101480000DEB01030D20FFF7B3F8D0E6F81A0020AA
:10149000FC1A002000040240CC5900200300800008
:1014A00000902724601B0020681B00200126214695
:1014B000022201AB0D208DF804408DF80560FFF786
:1014C00097F8B1E701273146022201AB0D208DF8D4
:1014D00004608DF80570FFF78BF8C3E6FFF74CFD4D
:1014E000DAE6032385F86830E4E660010BD50A23C9
:1014F00085F86830DEE604F4C0423A4300210F204C
:10150000FFF77AF98CE7A102EBD50B2385F8683059
:10151000D0E600BF30B583B000248DF80040FFF75F
:10152000A5FC214601AB02222C208DF804408DF849
:101530000540FFF75DF86B46062101222C20FFF7DE
:1015400057F8FFF7F9F96B46032101223620FFF720
:10155000ABF89DF800506B460321012205F00F0502
:1015600036208DF80050FFF743F8012007F038FCD3
:101570009DF800506B4665F00F05032101223620CF
:101580008DF80050FFF734F8024B83F87D4003B02C
:1015900030BD00BFFC1A002010B582B00DF107036A
:1015A00004460E2101222B20FFF77EF89DF807202C
:1015B00004F01F0422F01F0214430DF107030E2153
:1015C00001222B208DF80740FFF712F802B010BD62
:1015D0002DE9F04383B004460F46057842798E4BDF
:1015E00033F812904678013E8C4BC3F88060042D8E
:1015F00006D0072D14BF4FF000084FF0010801E09E
:101600004FF001082278854B1A73E3793BB9834A7E
:10161000136B43F4800313634FEAD90904E07F4A54
:10162000136B23F480031363237A7C494B73237A6F
:101630001B0403F440330A6B1A430A63042000219D
:10164000FFF7DAF82E2042F604014A46FFF7ACF81D
:10165000F6B23046FFF7A0F9714B13F8059009EB8D
:1016600089032B2007210522DFF8D0E17344FEF720
:10167000BFFF2B200E2101226A4BFEF7B9FF282065
:101680000B210122684B4344FEF7B2FF28200C21B6
:10169000664B53F82920FFF7AFF8E279A37903EB03
:1016A000420327200221624A32F81320FFF77CF818
:1016B000272004215F4B33F81620FFF775F8E379F4
:1016C0002BB9272006216422FFF76EF822E0A378C9
:1016D000042B0FD110220DF1080808F8012D272046
:1016E0000621FFF761F82720262101224346FEF755
:1016F0007FFF0FE00DF10808282308F8013D27209F
:1017000006212022FFF750F82720262101224346F8
:10171000FEF76EFFE37803EB860327200821464A95
:1017200052F82320FFF768F8628941F241039A4298
:101730000BD027202021FFF737F863892BB927200A
:10174000202141F24102FFF72FF8DFF8F480232037
:101750000C21D8F80020FFF74FF808EB46082320AB
:101760000421B8F80420FFF71FF8A3795BB1E379EF
:10177000212000210122DFF8CCE07344FEF738FF7E
:101780000122032101E000221146607905F00F03D8
:1017900043EAC0632D01EDB21D4363789B0403F45B
:1017A00040231D4323799B0503F0F8631D4345EA5D
:1017B00001551F20002145EA4242FFF71DF8E2795A
:1017C000520342F400436178A2780A4343EA02429A
:1017D000124B1A6108200021FFF70EF817F0010FD5
:1017E00004D00E4B93F82C00FFF7D6FE17F0020F33
:1017F0000DD03601094CA069F040C0F34E00FEF751
:10180000E3FFA069F040C0F34E00FEF7E9FF0020BF
:1018100003B0BDE8F08300BFB8120108FC1A002035
:10182000741201089C120108EC120108A0120108B0
:1018300038120108641201087C12010844120108E0
:10184000681201087012010810B582B00446FFF753
:101850000DFB00214FF4FF122820FEF7CDFF0F4AA9
:1018600000212820FEF7C8FF0220FFF765F90D20B0
:10187000FFF762F9032C8CBF2246042200210A20C4
:10188000FEF7BAFF02AB102203F8042D2421012237
:101890002F20FEF7ADFE02B010BD00BF00FF5F00BD
:1018A00038B504460D4610EE100A0BF049F8002238
:1018B000334B0BF099F80BF031FBFF2800DDFF20D4
:1018C000012D26D1042C01D0072C10D12D4B195DF0
:1018D000002300E0013301EB011292001A442A4C6C
:1018E000A25C8242F6DB1C3B07EE903A36E0274BC7
:1018F000195D002300E0013301EBC10201EB82021C
:101900001A44234CA25C8242F5DB173B07EE903A67
:1019100024E0042C01D0072C11D11A4B195D0023AF
:1019200000E00133C1EB0112C1EB82021A44194CF1
:10193000A25C8242F5DB1E3B07EE903A0EE0134BB1
:101940001C5D002300E001331A2202FB043212491D
:101950008A5C8242F7DB113B07EE903AF8EEE77AB9
:1019600017EE900A0AF0ECFF03A3D3E900230BF073
:101970003BF841EC100B38BD7B14AE47E17A843F55
:1019800000001040F01201088C1301087C140108BB
:10199000F81201088414010814140108412380F886
:1019A0006030882380F86130B0F8C63080F863304A
:1019B0001B0A80F86430002380F86230704700BF53
:1019C00038B504460D46B0F8C2000021FEF73AFFD4
:1019D000012D02D1A06DFFF75DFA94F8D8002843DD
:1019E000C0B2FFF75DFA30B1D4F880310133C4F8EA
:1019F0008031012038BDFEF7CBFCC4F8040601237A
:101A000084F80336002038BD2DE9F04705460F461F
:101A1000924698464FF000094C461CE0A60055F847
:101A200024100F4B994203D0204600F0C5FF00E080
:101A3000002001280BD00123A34098F8002022EABF
:101A4000030388F80030204601F03EF800E0D1465C
:101A5000034BAB510134A742E0DC4846BDE8F087B8
:101A6000FFFFCDAB2DE9F04F91B004460D46437812
:101A7000082B00F21585DFE813F009009E00C9006D
:101A8000310113057901EE01010280000378012B79
:101A900005D0002B61D0022B2ED000F001BD182004
:101AA000FEF7DEFEB4F8C600FEF7FAFE04F1BA0552
:101AB000284604F1260102220CF042F82846FEF7DF
:101AC0000FFFE08CC4F89401FEF7FAFE0223A37026
:101AD0000123637084F8DA30002384F8EC30C4F812
:101AE0000C31FEF767FD2046FFF758FFFEF750FC6C
:101AF000C4F8E00000F0D4BC00F1BA05284604F1B7
:101B0000260102220CF01CF82846FEF7E9FEB4F884
:101B1000C600FEF7C5FEE08CB64B1B68034084F898
:101B2000B930FEF7CDFEE38CB3F5004F02D10123AF
:101B300084F89C310020FEF793FE0020FEF780FF22
:101B4000062363700020FFF78BFA0020FFF7C0FA2E
:101B50002046FFF723FF00F0A3BC0020FEF780FE25
:101B60000020FEF76DFF0020FFF77AFA0020FFF754
:101B7000AFFA0623637000F093BC0A2002F010F95C
:101B80000378042B03D00123636000F089BC002399
:101B9000636084F8DA30A2786270A370FEF7F8FB15
:101BA000C4F8E000032007F01BF902F045FA02F048
:101BB00031FA00F075BC8378022B22D190F8DA203C
:101BC000FAB190F8EC30013380F8EC300223436036
:101BD0000823437000F59E700521012204F1EA03F9
:101BE000FFF712FFC4F88C0194F8EA3084F8EB3068
:101BF000002384F8EA30FEF7CBFBC4F8980100F02C
:101C00004FBC63700023A37000F04ABC0378012B23
:101C100002D190F8EC2001E090F8F72084F86A20D7
:101C2000012B01D1812300E0712384F869300D205C
:101C3000A4F8C20094F8C4305A1C84F8C42084F874
:101C4000623094F8BA3084F8673094F8BB3084F886
:101C50006830FF2384F8653084F8663004F1600151
:101C60000022FEF7F1FCC820FEF7EAFE2378012BE4
:101C700010D194F8EC302344002283F80926052380
:101C800084F8D930B4F8500000EB800080B2FFF740
:101C9000E7F90EE094F8F7302344002283F8092690
:101CA000022384F8D930B4F85000400080B2FFF726
:101CB000D7F9002184F8EA1084F8E910022584F8A5
:101CC000D850B4F8C200FEF7BDFD2846FFF7E8F88B
:101CD00005236370E57001236360E1E30378012B62
:101CE00002D190F8EC2001E090F8F72084F86A2007
:101CF000012B02D194F8EA2001E094F8E92084F85D
:101D00008E20012B01D1822300E0732384F86930F7
:101D10003120A4F8C20094F8C4305A1C84F8C420BE
:101D200084F8623004F160010022FEF78DFC00238C
:101D300084F8D83020460121FFF742FE50B12378C5
:101D4000012B03D163700223A370A9E3204600F0A6
:101D5000DFFFA5E3052363700323E3702378012BE2
:101D600001D184F8DA300123636099E30B2002F09B
:101D700017F80378012B0BD03BB1042B03D10123BF
:101D800084F8E83001E0012363600123636087E3A6
:101D900000236360E378032B0AD12378012B03D15E
:101DA00063700223A3707BE3204600F0B1FF52E092
:101DB00094F8E820012A08D1204600F0B9FF00235A
:101DC00084F8E83084F8D8306AE3D0E90201C4E945
:101DD0003201022B37D12378012B0FD1D4E90C2308
:101DE00012184B410448FF2102400B40CDE90E235D
:101DF0000EE000BF1861002000FEFFFFD4E90E23B3
:101E000012184B41AF48FF2102400B40CDE90E2391
:101E1000DDE90E01030A43EA0163A365A28B0023F7
:101E200012184B4103F0FF0310A961E9022304F1EA
:101E3000890005220BF084FE04F16B0004F1C80157
:101E400005220BF07DFEE3780B2B01D10423E37018
:101E500006236370002594F8D8301BB90020FFF7E3
:101E6000BDF802E0002384F8D83023780BB10123B9
:101E7000636007236370002D00F01283022D03D0EE
:101E8000042D00F0F58204E30F2001F089FF0546E0
:101E900000238DF830308DF831308DF832308DF8E8
:101EA00033308DF834308DF835308DF836308DF88C
:101EB00037308DF838308DF839308DF83A308DF86C
:101EC0003B308DF83C308DF83D308DF83E308DF84C
:101ED0003F3084F8DB30437F03F0CC038C2B27D0DA
:101EE00002D8882B34D043E0C82B11D0CC2B3FD163
:101EF0000CA805F1290108220BF022FE0EA805F11D
:101F0000210108220BF01CFEAA461AF8316F30E0BE
:101F10000CA805F1230108220BF012FE0EA805F112
:101F2000210102220BF00CFEAA461AF82B6F20E0CA
:101F30000CA805F1290102220BF002FE0EA805F102
:101F4000210108220BF0FCFDAA461AF82B6F10E0C5
:101F50000CA805F1230102220BF0F2FD0EA805F1F9
:101F6000210102220BF0ECFDAA461AF8256F00E0D1
:101F7000002694F8DA303BB923782BB90623637036
:101F80000020FEF75DFD8BE29DF830E04E4B1A68B5
:101F90000EEA0207A6F17003122B00F25C82DFE862
:101FA00013F04800130048001B015A025A025A025B
:101FB0005A025A025A025A025A025A025A025A0241
:101FC0005A025A0213001B01D5E90201C4E9340187
:101FD000812E07D102EA0E039AF80120234483F8E8
:101FE000ED2004E09AF80130274487F8F830E28CBD
:101FF00048F201039A420CD19DF831304EEA032396
:10200000B3F5004F05D1AA69B4F800311344C4F800
:102010000831AB780C2B04D1052363700923E370DE
:102020001EE20E2B02D10723637019E206236370B0
:1020300016E29AF807300133DFB29DF831304EEAEC
:102040000323B3F5004F0DD12378012B0AD19AF861
:1020500002209AF8013003EB02231BB2C4F80C31C2
:102060000023E362AB780C2B04D1052363700A23B1
:10207000E3702EE00E2B2CD02378012B04D194F8A2
:10208000EA2012F0010F11D1E28C48F201018A42DC
:1020900004D194F8E91011F0040F07D1B2F5004F04
:1020A00007D194F8E92012F0020F02D003236370E5
:1020B0000FE0012B0AD163700222A27084F8DA309B
:1020C00007E000BF00FEFFFF18610020204600F07F
:1020D0001FFE702E37D194F8EC30BB4221D19DF811
:1020E0003000C94E3368034004EB830000F59E7056
:1020F0000AF1030104220BF023FD9DF83020336820
:102100001A4004EB8203D3F83C11C04B994200F013
:10211000A7810123934094F8EA20134384F8EA301E
:102120009EE19DF83020B84B1B68134004EB8302FE
:10213000D2F83C11B54A914200F0928104EB83033E
:10214000C3F83C218CE194F89C31002B00F088818D
:1021500094F8F730BB4240F0838184F8F830234490
:1021600093F90936032B25D19DF830009DF83830BE
:102170001844A54B1B68184004EB800000F5B270B2
:102180000AF1030104220BF0DBFC04F5B270052117
:10219000022204F1E903FFF737FCC4F88C0194F83C
:1021A000E93084F8EB30002384F8E930AB69C4F8F7
:1021B000983155E19DF830009DF838301844924B25
:1021C0001B68184004EB800000F5B2700AF10301AF
:1021D00004220BF0B5FC43E100200021CDE906010B
:1021E000CDE90801CDE90A019AF8250094F8B91063
:1021F00001EB810B0BF1070B5FFA8BFB822E0BD1EE
:1022000002EA0E02224492F8ED209AF801309A4236
:1022100002D00623637023E1732E11D1E31993F8E2
:10222000F8209AF801309A4207D194F89C3123B9EA
:10223000E28C48F203039A4202D1062363700FE155
:10224000E28C48F201039A4209D19DF831304EEAFE
:102250000323B3F5004F02D1012384F8DC30C4F826
:102260009021084110F0010F00F08E80D5E902891D
:102270000023A36508A80AF1020105220BF060FC07
:102280000AA80AEB0B0105220BF05AFC06A80AF17A
:10229000200105220BF054FCDDE90801DDE90A23E9
:1022A000121A63EB0103CDE90023D4E932ABD4E980
:1022B0003423BAEB02026BEB0303104603F0FF0179
:1022C000CDE90201B8EB0A0869EB0B0909F0FF0937
:1022D000DDE90623DDE90AABB2EB0A0A63EB0B0B7F
:1022E0000BF0FF0BDDE9002303F0FF031046194656
:1022F0000AF04CFBCDE90001404649460AF046FB96
:1023000080468946DDE9000142464B460AF06CFBF7
:10231000CDE90401504659460AF038FB82468B4607
:10232000DDE902010AF032FB02460B4650465946EF
:10233000CDE902230AF058FB02460B46DDE9040111
:102340000AF09EF9CDE9040140464946DDE9022341
:102350000AF098F980468946DDE9000152465B465D
:102360000AF090F902460B46404649460AF08AF9BF
:1023700002460B46DDE904010AF060FC0AF0CEFDDE
:1023800080464FEAE07903E0DFF880804FF00009F3
:10239000822E3DD19DF830309DF8312003EB022292
:1023A000C4F89421184B1B68134004EB8303C3F853
:1023B000148104F59E700521012204F1EA03FFF760
:1023C00023FBC4F88C0194F8EA3084F8EB30002346
:1023D00084F8EA300D4A0023994508BF90450FD094
:1023E0009DF8300094F8B91000F054FB94F8B9301F
:1023F00001229A4084F8EA2004EB8303C3F83C816D
:10240000AB69C4F898310EE018610020FFFFCDAB36
:102410009DF830309DF8312003EB0223C4F894314D
:10242000543744F8278094F80826A31893F80936FF
:1024300013F0800F08D15B42DBB2A11881F8093696
:1024400013B9FF2381F8093601F0F6FD01F0E2FD32
:102450000623637004E0062363700020FEF7F0FAA1
:102460002B7F13F0200F1BD0102001F099FC17E0F8
:10247000112001F095FC83780C2B04D105236370A7
:102480000B23E3700CE00F2B0AD1204600F050FC28
:1024900006E00DB10123636063680BB9012363603B
:1024A000606811B0BDE8F08F2DE9F8432DED028B87
:1024B00004469FED9B0B08F07BFC51EC100B0AF0DF
:1024C0002DFD00EB4000000107EE900AF8EEE77AE0
:1024D000DFED998A77EEA88A9FED930B08F068FCF0
:1024E00051EC100B0AF01AFD00EB40004000C00058
:1024F000924BDB7B83B99FED928A68EE888ADFED91
:10250000917A78EEA78A07EE900AF8EEE77A27EE3E
:10251000888ABDEEC88A22E0012B10D19FED8A8AFD
:1025200068EE888ADFED897A78EEA78A07EE900A4E
:10253000F8EEE77A27EE888ABDEEC88A0FE09FEDB5
:10254000848A68EE888ADFED817A78EEA78A07EEC2
:10255000900AF8EEE77A27EE888ABDEEC88A7D4AAF
:10256000D35C764A927A043A302A1AD8DFE802F02D
:102570002E19191922191919311919191919191995
:102580002B1919191F1919191919191919191919A3
:10259000281919191C191919191919191919191999
:1025A0002500DFED6D7A16E0DFED6C7A13E0DFEDEC
:1025B0006C7A10E0DFED6B7A0DE0DFED6B7A0AE00C
:1025C000DFED6A7A07E0DFED6A7A04E0DFED697A31
:1025D00001E0DFED697A594A527A012A0AD107EE01
:1025E000103AB8EEC77A77EE277A9FED647A67EEF5
:1025F000877A09E007EE103AB8EEC77A77EE277AC5
:102600009FED5F7A67EE877A17EE900A0AF098F9E5
:1026100006460F46B8EEC88A78EE287A17EE900A7A
:102620000AF08EF90022574B0AF008FB02460B46CF
:10263000304639460AF026F83DA3D3E900230AF0D4
:10264000FDFA0AF06BFC054600F1100820460AF07E
:1026500065F941EC100B00F087F9DFF8E090C9E96B
:102660000C0104EBD474601064300AF057F941ECAB
:10267000100B00F079F9C9E90E0118EE900A0AF082
:102680005FF900223F4B0AF0D9FA02460B4630466A
:10269000394609F0F7FF0AF041FC99F80F30F3B919
:1026A00005F53375C9F85050C9F8548000F5967097
:1026B0000AF034F941EC100B00F056F9C9E91001A9
:1026C00047EC106B00F050F9000A40EA016010304E
:1026D000C9F848004FF49673C9F84C301BE005F573
:1026E0009E75164C2565C4F8548000F596700AF066
:1026F00015F941EC100B00F037F9C4E9100147EC73
:10270000106B00F031F9000A40EA01601030A0645B
:102710004FF49673E364BDEC028BBDE8F88300BF11
:10272000000000E0917ADD3F0000000000000000A2
:102730000D71AC8BDB68F03F00001843085A002095
:1027400085340046004528487B3480440046A8462E
:10275000C33500437012010800000000000000456E
:102760000000C0440000804400000044000080439A
:10277000000000430000804200008045EA5B7E3F8D
:10278000B341823F00408F40014BD884704700BF67
:10279000085A002030B5A1B005467F2468460C4990
:1027A00022460BF0CDF91820FDF700FE2846FFF772
:1027B0004BF8204669460022FDF746FF20460021DF
:1027C000FEF740F80020FEF76BFB002021B030BD83
:1027D0005C1501082DE9F043FBB0002406798DF863
:1027E00000408DF801408DF802408DF803408DF8CF
:1027F0000440FDF7CDFD012E08902BD0062E434D51
:1028000022D102A9A02252A8ADF80C408DF80840B0
:102810008DF809600BF094F995F801768DF8E34195
:1028200007EB870805EB48180137FFB252A908F5F6
:10283000D070A0220BF084F9062F88F8A06114BF95
:1028400085F8017685F80146002385F803367BB0CC
:10285000BDE8F0836846FDF75BFF9DF802009DF838
:1028600001109DF80030294D9DF803709DF804205B
:10287000B5F8C2E0ADF80CE0000400EB012119440A
:1028800001EB076314EB030891464FEA026202EB87
:10289000132749F10009724605F1600109A8069362
:1028A000CDE9048907978DF808408DF80A408DF826
:1028B000096085F8DB400BF043F902A92AA8A022A1
:1028C0000BF03EF995F801768DF8434107EB870848
:1028D00005EB48182AA908F5D070A0220BF030F9B2
:1028E000D5F8783188F8A0610137FFB20133062F9F
:1028F000C5F878314FF0000314BF85F8017685F8EC
:10290000014685F803367BB0BDE8F083085A002005
:1029100008B5094A92F9D930002B0ADD106D13FB76
:1029200000F080B2FEF79CFB0020FEF757FB0E2064
:1029300008BD0F2008BD00BF085A002010B5094C83
:10294000606D400080B2FEF78BFB0020FEF746FB77
:10295000B4F85400FEF784FBD4F884310133C4F892
:10296000843110BD085A002008B551EC100B06A3A5
:10297000D3E900230AF062F905A3D3E900230AF0A2
:102980005DF90AF043FB08BDFA48CE3B1835B13D6E
:102990000000000080842E4108B509F0BFFF04A3A9
:1029A000D3E900230AF020F841EC100B08BD00BF6A
:1029B000FA48CE3B1835B13D2DE9F84304460846A8
:1029C000FFF7EAFF31A3D3E9002351EC100B0AF023
:1029D0000BF82B4D2B4B6A7C95F80890E4000646CB
:1029E0000F462344C3E900673AB1B9F1050F32D06D
:1029F0001DA3D3E900230AF021F90AF0B7FA697A96
:102A0000DFF87C8000EE100A4846FEF749FF3046AA
:102A100053EC102B394609F033FE00220023064602
:102A20000F460AF053FA98B93046394610A3D3E955
:102A300000230AF069FA58B9134AD8F888311444C7
:102A4000C4E900670133C8F888310120BDE8F88384
:102A50000020BDE8F88308A3D3E900230AF0EEF8CC
:102A6000CBE700BFAFF30080F6285C8FC2F5F43FE0
:102A7000000000000088D340295C8FC2F528F83F91
:102A8000085A002070610020386200200000001306
:102A900019DDB14130B4064A064B02EBC101D1E960
:102AA000004503EBC000C0E9004530BC704700BFE3
:102AB0003862002020610020024B03EBC00090ED43
:102AC000000B704720610020064B074A30B4C0005D
:102AD0000024002503441044C3E90045C0E9004533
:102AE00030BC70477061002038620020014B1870C4
:102AF000704700BF085A0020014B1878704700BF8C
:102B0000085A0020034B0022D3F88C01C3F88C2113
:102B1000704700BF085A0020014BD3F8900170475E
:102B2000085A0020014BD3F894017047085A00203E
:102B3000014BD3F898017047085A002038B5154C5E
:102B400000250120E565FEF7EDFA134B84F8C4502B
:102B5000C4F88851C4F83C31C4F84031C4F8443159
:102B6000C4F84831C4F84C31C4F81431C4F81831F1
:102B7000C4F81C31C4F82031C4F82431C4F8283119
:102B8000C4F82C31C4F83031C4F83431C4F83831C9
:102B900038BD00BF085A0020FFFFCDABFDF7E6BDF2
:102BA000F8B54F4C037823724378637343782373EB
:102BB00083786372C378E3730279A2724279E27216
:102BC0008279A27300222274022B0546008960825A
:102BD00008BF01230E46434808BF63744FF001014C
:102BE00018BF6274FEF7F4FC2B783F4F217A03EB99
:102BF000430317F823302375A878FDF7E1FC431E43
:102C0000033306D92B78AA7803EB4303134457F810
:102C10002300334FA06107F11400FDF705FEFDF717
:102C2000C3FC0238C0B2012833D9A878FDF7D6FC1E
:102C3000C0F34F00431E9BB24FF6FD729342B88320
:102C400020D8FDF7C1FDA08BFDF7CAFDA38BE38360
:102C50002B79042B39D0F388A362B388A4F8FE3013
:102C60003388A4F800313288E2627288A4F8022125
:102C7000023A03FB02F3C4F804313089BDE8F8409E
:102C8000FFF712BCAB78194A013B32F81300B88346
:102C9000D7E73878FA7B397AA0F10200B0FA80F0F1
:102CA0004009FDF75BFC431E9BB24FF6FD72934259
:102CB000B883C6D93B7A0E4AA3F10503B3FA83F36E
:102CC0005B0932F81300B883BBE71820FDF76EFBF1
:102CD0000020FEF7A9F80820FDF768FBBBE700BF5E
:102CE000085A0020105A0020FC140108E0150108C1
:102CF000DC150108044A054B1268104003EBC003C1
:102D000093ED000B704700BF18610020386200206F
:102D100008B506220223037042700020FEF7A0F9D6
:102D20000020FEF7D5F90020BDE80840FDF788BE79
:102D300038B503460020DA6D1C7858600132022C49
:102D4000DA6532D0012CDA7808D0022A13D0032AAF
:102D50001DD00121032259709A7038BD022A1BD060
:102D6000032AF6D11D46FEF707F9022385F8DA405B
:102D70006C70AB7038BDDA8C48F201018A421AD00F
:102D8000B2F5004FE5D193F8E9209207E1D4184657
:102D9000BDE83840FFF7BCBF93F8EA10C807D8D4A5
:102DA00083F8DA405C709A7038BD06225A70BDE82C
:102DB0003840FEF755B993F8E9205107C9D4E6E742
:102DC000044B1B681840C0B2042801D0FFF7A0BD17
:102DD0000F2070471861002010B50F4C0F4AE38C8C
:102DE0001268B3F5004F06D00F2048F2010293425B
:102DF00008BF0F2010BD0240D2B2012A01D00F201F
:102E000010BDB4F85000FEF72BF90020FEF7E6F8ED
:102E1000E38C0E20E9E700BF085A0020186100206B
:102E200008B5074B986D9B6CC01AFEF733F801206C
:102E3000FEF7D4F800B908BDBDE80840FFF77EBD35
:102E4000085A00202DE9B04F86B000AF0346396024
:102E5000FB800F23FB7500233B610023FB60A04A2E
:102E6000FB684FF4E26101FB03F31344D8335B7852
:102E7000002B05D10020FEF7F3F80020FEF728F91B
:102E80003B6803F00103002B2CD0954AFB684FF4FC
:102E9000E26101FB03F31344D8335B785BB2012B8F
:102EA00001D101233B618E4AFB684FF4E26101FBD3
:102EB00003F3134403F5CC731B79002B0AD1884A22
:102EC000FB684FF4E26101FB03F31344B8335B7812
:102ED000032B07D10020FEF7C3F80020FEF77EF891
:102EE0000E23F7E07E4AFB684FF4E26101FB03F337
:102EF0001344583319687A4AFB684FF4E26000FBC8
:102F000003F313444033D3E900234FEA122A4AEA79
:102F1000036A4FEA132B5346CA187149FB684FF4F2
:102F2000E26000FB03F30B4458331A603B6803F084
:102F30000103002B15D16A4AFB684FF4E26101FBE3
:102F400003F31344D8335B785BB26549FA684FF4F6
:102F5000E26000FB02F20A44B83252781344042BB8
:102F600003D03B69012B40F0A6805D4AFB684FF41B
:102F7000E26101FB03F31344D83302221A70584A6A
:102F8000FB684FF4E26101FB03F3134458331B6801
:102F90001846FDF77FFF0320FDF782FF0346002B55
:102FA0004BD00020FDF74CFD4D4AFB684FF4E26129
:102FB00001FB03F31344D83300221A70484AFB681C
:102FC0004FF4E26101FB03F3134403F5C0731B6884
:102FD0005A1C4349FB684FF4E26000FB03F30B44C7
:102FE00003F5C0731A603E4AFB684FF4E26101FBCF
:102FF00003F3134458331968394AFB684FF4E2600D
:1030000000FB03F313444033D3E900234FEA1228B3
:1030100048EA03684FEA132943465B00CA1830495F
:10302000FB684FF4E26000FB03F30B4458331A6073
:10303000FFF7F6FE0E23FB754BE0294AFB684FF4C1
:10304000E26101FB03F3134458331968244AFB6817
:103050004FF4E26000FB03F313444033D3E9002351
:10306000140A44EA03641D0A2346CA181C49FB6873
:103070004FF4E26000FB03F30B4458331A600C2357
:10308000FB75FDF785F903461846154AFB684FF4B2
:10309000E26101FB03F3134403F5C0635860104A77
:1030A000FB684FF4E26101FB03F3134403F5C063D3
:1030B0000122DA700DE0FB88002B06D10020FDF71D
:1030C000CFFF0020FDF78AFF01E0FFF7A9FE0E23E6
:1030D000FB75FB7D18461837BD46BDE8B08F00BFB5
:1030E000085A002090B585B000AF3B600346FB80D6
:1030F0000B467B7113463B710023FB81FB88DAB2E0
:103100007E4B1B68DBB21340DBB27B730023BB60DA
:103110001323FB817A4ABB684FF4E26101FB03F39E
:103120001344C033FA895A80BB684FF4E26202FB51
:1031300003F36033724A1344591D7B793A68134490
:103140000846194602220AF0FBFC6D4ABB684FF4A0
:10315000E26101FB03F31344B8339878684ABB6813
:103160004FF4E26101FB03F3134460330246DA716A
:10317000634ABB684FF4E26101FB03F31344B933C4
:1031800098785F4ABB684FF4E26101FB03F3134494
:1031900061330246DA71BB684FF4E26202FB03F36B
:1031A0006B33574A1344581C7B7BBA684FF4E27167
:1031B00001FB02F2134454339B00514A1344194655
:1031C00004220AF0BDFC7B7B4D49BA684FF4E260F3
:1031D00000FB02F20A441344F8331878484ABB68EB
:1031E0004FF4E26101FB03F313446F3302465A705C
:1031F0007B7B4349BA684FF4E26000FB02F20A4469
:103200001344F83300221A703B7901331A463B68A5
:10321000134418783A4ABB684FF4E26101FB03F3A8
:103220001344F0330246DA71354ABB684FF4E26169
:1032300001FB03F31344C0331B795A1CD4B2304949
:10324000BA684FF4E26000FB02F20A44C032214641
:1032500011712B49BA684FF4E26000FB02F20A4494
:1032600060329370264ABB684FF4E26101FB03F3BE
:10327000134448335B681846FDF7E2FB204ABB68FD
:103280004FF4E26101FB03F3134403F5847300225E
:103290005A601B4ABB684FF4E26101FB03F313441D
:1032A000693300225A70164ABB684FF4E26101FB91
:1032B00003F313446A3300225A70114ABB684FF477
:1032C000E26101FB03F31344683372225A70FB89F5
:1032D00018460021FDF7B6FABB684FF4E26202FB24
:1032E00003F36033064A1344FA8910461946002254
:1032F000FDF7AAF91437BD4690BD00BF1861002044
:10330000085A002090B589B000AF3B600346FB80AF
:103310000B467B7113463B710023FB83FB88DAB2BB
:10332000C14B1B68DBB21340DBB27B770023BB6170
:103330001323FB83BD4ABB694FF4E26101FB03F336
:103340001344C033FA8B5A80BB694FF4E26202FB2C
:1033500003F36033B54A1344591D7B793A6813442B
:103360000846194602220AF0EBFBB04ABB694FF44B
:10337000E26101FB03F31344B8339878AB4ABB69AD
:103380004FF4E26101FB03F3134460330246DA7148
:10339000A64ABB694FF4E26101FB03F31344B9335E
:1033A0009878A24ABB694FF4E26101FB03F313442E
:1033B00061330246DA71BB694FF4E26202FB03F348
:1033C0006B339A4A1344581C7B7FBA694FF4E271FD
:1033D00001FB02F2134444339B00944A1344043328
:1033E000194604220AF0ACFB7B7F9049BA694FF47E
:1033F000E26000FB02F20A441344E83358798B4A36
:10340000BB694FF4E26101FB03F313446F330246DF
:103410005A707B7F8549BA694FF4E26000FB02F283
:103420000A441344E83300225A713B7901331A46A7
:103430003B68134418787D4ABB694FF4E26101FB95
:1034400003F31344E83302461A71784ABB694FF418
:10345000E26101FB03F31344C0331B795A1CD4B25D
:103460007249BA694FF4E26000FB02F20A44C032CA
:10347000214611716D49BA694FF4E26000FB02F216
:103480000A44603293707B7F6849BA694FF4E270F6
:1034900000FB02F2134444339B000B445B68644A14
:1034A000934238D0614ABB694FF4E26101FB03F3F8
:1034B0001344B8335B781A4601239340D8B25B4A71
:1034C000BB694FF4E26101FB03F31344E8330246A6
:1034D0009A70564ABB694FF4E26101FB03F313444F
:1034E000B8335B781C467B7F5049BA694FF4E27071
:1034F00000FB02F2134444339B000B445A684B49CF
:10350000BB694FF4E27000FB03F323444E339B008E
:103510000B445A601FE0454ABB694FF4E26101FB6E
:1035200003F31344B8335B781846404ABB694FF441
:10353000E27101FB03F303444E339B0013443C4A06
:103540005A603A4ABB694FF4E26101FB03F313444A
:10355000E83300229A70354ABB694FF4E26101FBFF
:1035600003F3134448335B681846FDF769FA2F4AA2
:10357000BB694FF4E26101FB03F3134403F5CC7321
:103580001B79002B00F08D8000237B6100233B61C1
:103590000023FB60254ABB694FF4E26101FB03F3A2
:1035A0001344F833DB881A463B6BB3FBF2F102FBA2
:1035B00001F29B1A3B61FB88DBB21C49BA694FF4EC
:1035C000E26000FB02F20A4402F58072128802FBFC
:1035D00003F3FB60FA683B69D31A7B61134ABB694A
:1035E0004FF4E26101FB03F31344F833DB885B081B
:1035F0009BB25A427B699A421CDD0C4ABB694FF46C
:10360000E26101FB03F31344F833DB881A467B695C
:103610001A440649BB694FF4E26000FB03F30B4414
:1036200003F584735A6010E018610020085A0020E6
:10363000FFFFCDAB3A4ABB694FF4E26101FB03F3F4
:10364000134403F584737A695A60354ABB694FF4B1
:10365000E26101FB03F3134403F584735B68D8B2A2
:103660002F4ABB694FF4E26101FB03F31344693352
:1036700002465A702A4ABB694FF4E26101FB03F328
:10368000134403F584735B681B12D8B2244ABB69E8
:103690004FF4E26101FB03F313446A3302465A70AC
:1036A0001EE01F4ABB694FF4E26101FB03F31344C0
:1036B00003F5847300225A60194ABB694FF4E26132
:1036C00001FB03F31344693300225A70144ABB69A7
:1036D0004FF4E26101FB03F313446A3300225A7092
:1036E0000F4ABB694FF4E26101FB03F313446833F3
:1036F00070225A70FB8B18460021FDF7A3F8BB69B6
:103700004FF4E26202FB03F36033054A1344FA8B81
:10371000104619460022FCF797FF2437BD4690BD9E
:10372000085A002084B02DE9F041114E9DF8B88070
:1037300096F8014604EB840506EB451506AF013407
:1037400087E80F00E4B2002705F5D07006A9A02293
:103750008DF8B3700AF0F4F9062C85F8A08114BF37
:1037600086F8014686F80176BDE8F04104B070475E
:10377000085A002084B080B5A8B026AF07F1100E1B
:103780008EE80F0000237B604B4A7B684FF4E261B8
:1037900001FB03F313441B78022B46D1464A7B6896
:1037A0004FF4E26101FB03F31344D8335B785BB25F
:1037B000002B33DD404A7B684FF4E26101FB03F3E9
:1037C0001344D8335B78DBB2DBB2013BDBB2D8B257
:1037D000394A7B684FF4E26101FB03F31344D833A9
:1037E00002465A7000200021FFF72CFB0346BB74F1
:1037F00000233B7444237B740023BB820423249363
:10380000694607F120039022084619460AF098F904
:1038100007F110030FCBFFF785FF46E00020FDF70F
:103820001FFC0020FDF7DAFB3FE0234A7B684FF4E2
:10383000E26101FB03F313441B78002B03D100204A
:10384000FDF7CCFB31E01C4A7B684FF4E26101FBE1
:1038500003F31344D8335B78DBB2DBB2013BDBB25A
:10386000D8B2154A7B684FF4E26101FB03F31344BD
:10387000D83302465A700020FFF7A2FA0346BB7401
:1038800000233B7444237B740023BB8204232493D2
:10389000694607F120039022084619460AF050F9BC
:1038A00007F110030FCBFFF73DFF0837BD46BDE81A
:1038B000804004B0704700BF085A00202DE9F04F47
:1038C0008346ADF51F7D00258DF890508DF8915001
:1038D0008DF892508DF893508DF89450FCF758FD68
:1038E0009BF804302C9026AC022B49D0042B0CD032
:1038F0002AA9902268460AF023F994E80F00FFF7FE
:1039000039FF0DF51F7DBDE8F08FBE4E33780F22D5
:10391000022BA27000F0108100250427214676A812
:103920004FF000084FF00009A0222570A580256106
:1039300065616770C4E902890AF002F996F80146E8
:103940008DF8735204EB840306EB431676A906F553
:10395000D070A02201340AF0F3F8E4B2A94B86F843
:10396000A071062C14BF83F8014683F80156A648BF
:103970002021012203F02CFB0DF51F7DBDE8F08F07
:103980009BF80820BBF80610A18002F0DF02412A54
:1039900000F0C3802F46AA46A9464FF001086326CF
:1039A00024A8FCF7BBFEBBF806102DA80022FCF7EC
:1039B000A5FE9DF892009DF891109DF890309DF81D
:1039C00093E09DF894206670000400EB01210B4405
:1039D00003EB0E630020114620701206C01841F15F
:1039E000000102EB13224FF00F0E022E2361C4E9F7
:1039F0000201626184F802E07FF47AAF814EA04454
:103A00002744327898F81C003B7F002A57D0012ABF
:103A100000F0A180611903EB0023087FA0F1700181
:103A20009FB212294BD8DFE811F01300F500130004
:103A3000D2004A004A004A004A004A004A004A00AE
:103A40004A004A004A004A004A004A009C00D2004C
:103A5000012A00F03081032A00F06A81702800F00A
:103A60004D8196F89C21674B3AB193F8F7201A44A0
:103A700092F90916022900F07E81F18C614B48F21F
:103A80000202914240F00E8193F808261A4492F8FF
:103A90000916080600F1068193F8D9500131013D5D
:103AA00082F8091683F8D9500020FDF7D9FA0020D2
:103AB000FCF7C6FF38460121FFF7C4F9A0700123C7
:103AC00086F8DB3021464EA8A0220AF039F896F895
:103AD0000146DFF8308104EB840506EB451500272D
:103AE00005F5D0704EA9A0228DF8D3710AF028F800
:103AF000022385F8A0310134D6F87C31E4B2062CDB
:103B000003F1010314BF88F8014688F80176C6F86E
:103B10007C310DF51F7DBDE8F08F9BF8092002F088
:103B2000CC02882A7FF436AF092507271E46A9460E
:103B3000BA464FF0080833E796F8D9305AB2002A4F
:103B40007FF7EAAE013BF08C86F8D9300621FFF70B
:103B500079F9A070E0E696F8D910013986F8D91005
:103B600058E7012A36D02544DFF8A4806B7FD8F8C7
:103B70000020A169009103F00F0307EA020503EB9F
:103B80000515EDB206EB050E4FF0000C4A46514606
:103B90002DAB8EF809C6384686F80856FFF7B2FBFB
:103BA000B6F85400FDF75CFA6369B365042386F840
:103BB000D930F08C0221FFF745F9D8F80030134ACC
:103BC000A0703B4006EB8303C3F8142177E7012A7A
:103BD0007FF475AF96F8D93001332AA9902286F880
:103BE000D930684609F0ACFF94E80F00FFF7C2FD3A
:103BF000D6F87C3101221344C6F87C3186F8DB20EC
:103C00007FE600BF085A002000000240FFFFCDAB56
:103C10001861002096F89CE1DFF88081BEF1000F6A
:103C20007FF44DAFB8F8261048F2020399423FF6F0
:103C300046AF012ACED0DFF860B12544DBF8002082
:103C40006B7F07EA020503F00F03083503EB051548
:103C5000EDB208EB050C2DAB51464A46384688F8C4
:103C600008568CF809E6FFF73DFA48F201039F4237
:103C700003D0B8F85400FDF7F3F9F08C6269DBF873
:103C80000030B265C21B134086F8D9300321FFF71C
:103C9000D9F8DBF800303F4AA0703B40543346F877
:103CA00023200CE70020FDF7DBF90020FDF796F953
:103CB0000E23A37003E796F8EC20374D32442B68AF
:103CC00092F809163B40D8B20131042882F809164F
:103CD0004CD10F2096F8EA50A07003EB830201212B
:103CE000073201FA03F356FA82F02B4324A9052286
:103CF00086F8EA30693009F023FFE0E696F80836E6
:103D0000DFF898E0334493F809160D06CAD49EF8FC
:103D1000D92050B20028C5DD4D1C013A3846042197
:103D200083F809568EF8D920FFF78CF8A070C6E604
:103D300096F8F7303344384693F80926013283F871
:103D40000926FFF749F807F0030796F8E920A07065
:103D5000012307EB8701BB407018134324A90522F8
:103D600086F8E930703009F0EBFEA8E6FEF7D0FDEA
:103D70002B683B40AEE793F8E950384645F008051C
:103D80000327052183F8E95082F80976FFF75AF8EE
:103D9000A07094E6FFFFCDAB18610020085A002008
:103DA0002DE9F04B264D95F8001601EB81014901F4
:103DB0006C1804F5D07294F8A0312BB9214A21482F
:103DC00013705370BDE8F08B04F5D4731D4ED4F816
:103DD000B07192F802C0B2F804E03761D3E900890B
:103DE000834629445078D4F8B8317070D4F8B4714F
:103DF000B36101F5DE7106F11C007F22C6E902897C
:103E000086F802C0A6F804E0776109F099FE95F8FB
:103E1000003694F8A01184F83BB20133DBB20022E3
:103E2000062B08BF1346317084F8A02114BF85F813
:103E3000003685F8002685F802360248BDE8F08B8A
:103E4000085A00209861002038B50A4C04F57075B6
:103E500020460021A034A02209F070FFAC42F7D127
:103E6000054B002283F8012683F8002683F80226FA
:103E700038BD00BFA85B0020085A002038B5254D8A
:103E80000023022240F60F002A706B7085F8DA30AA
:103E9000FCF7E8FE04460320FCF7ECFDB4BBFEF79C
:103EA0004DFE4DF6CA63A5F8C63085F8D84085F8B2
:103EB000DB4085F8DC40FFF7C7FF0822214605F10B
:103EC000BA0009F03BFF2046C5F80C41FCF79EFD07
:103ED0002046FCF783FD10480121FDF709F90F4842
:103EE0000F49FCF7BFFDFF2305F20960F6214FF4EF
:103EF000807285F80346C5F88041C5F8844185F88D
:103F0000D93009F01BFFAC65204638BD4FF0FF30BB
:103F100038BD00BF085A002080D02324D5270008D0
:103F2000BD380008F8B5364F364897F8023603EB2F
:103F3000830307EB431301210A4693F8A04103F0E2
:103F400047F82F4D21462846FDF78CFD00240646F4
:103F50000028F6D02B480121224603F039F8022E22
:103F600034D095F8DC30012B01D00020F8BD97F853
:103F7000DB40234D002CF8D12B78012BF5D1FCF739
:103F800007FAD5F8E030D5F8E420C01A9042ECD911
:103F900095F8013685F8DC4003EB8302520102F507
:103FA000D07101332944DBB22A44062B4FF084063A
:103FB0004FF004008C8081F89B404E7082F8A00185
:103FC00014BF85F8013685F80146CEE72B78012B22
:103FD00006D095F8DC30002287F8DB207A60C2E753
:103FE000E86AAA6AD5F80C1185F8DC3002440A4464
:103FF000C5F8E420C5F81011C5F80C41EBE700BF87
:10400000085A002000080240014BC3F80C07704713
:10401000085A002010B5074C94F82430012B00D02A
:1040200010BD1E200021226AFCF7E6FB002384F865
:10403000243010BD085A002010B5084C94F82530E3
:10404000012B00D010BDE08BFCF7BEFBA08BFCF772
:10405000C7FB002384F8253010BD00BF085A00209C
:10406000410900F01F0001238340024A42F8213039
:10407000704700BF00E100E0430900F01F0001228B
:1040800082402033014941F82320704700E100E0DD
:104090002DE9F04F2DED028B624FDFF8B08185B036
:1040A0000023B946C346039303E0FEF72BFD002827
:1040B00046D197F80346FCF76BF9D7F80466054636
:1040C00004F082FEFFF72EFFFEF716FD012CC8F864
:1040D0000000EAD1B9F80031AD1B9D42E5DD214673
:1040E0000F20FCF721FB214605461920FCF71CFB9D
:1040F000214606460A20FCF717FB21468246062089
:10410000FCF712FB32462B468DE80104464947482E
:1041100009F078FE454806F05BFCDBF80030002231
:10412000012B89F8D8201CD0FCF726FF062389F83C
:104130000130002387F80336FEF7E4FC0028B8D0EE
:10414000FEF7EAFCFEF7EEFCFEF7F2FCD8F80030D2
:10415000022B0AD0012B48D0FCF71AF9344B186017
:10416000A7E73048FEF7E4FDE3E70398FEF7A4FC79
:10417000002251EC100BB0EE408AF0EE608A2D4B1D
:1041800008F032FC08F0CAFE002846D1039C0B253B
:10419000631C092BD6BFA61C00241C462046C8BFA2
:1041A0000126FEF789FC002251EC100BB0EE408A8C
:1041B000F0EE608A1F4B08F017FC08F0AFFE08B95C
:1041C000013DE5D103961C4B1C491A681C48234647
:1041D0008DED008B09F016FE194806F0F9FB039BE4
:1041E000092BB9DD00230393B6E7039D154A284642
:1041F0001468FEF77FFD22468DED000B1249104832
:104200002B4609F0FFFD2B4601331C460C48039357
:1042100006F0DEFB042CE5DC9EE7039B1C46013325
:104220000393D0E7085A00200C160108C062002052
:10423000901B002000408F401863002028160108C2
:10424000706200206C6200203C16010854000020BF
:1042500008B50D4B1B680D4A136002280FD1052BC2
:1042600007DD0B4B18686FEA40436FEA534398B27F
:1042700006E06FEA43436FEA534398B200E098B216
:10428000FEF782FA08BD00BFA01B0020981B00208B
:10429000186100200346C0F3400003F004039BB202
:1042A00003B10230704700BF30B587B005464CA35C
:1042B000D3E90023CDE900231820FCF777F8FEF7B7
:1042C0006DFC3F4B984217D03E4C204610210122F6
:1042D00002F07EFE012004F083FD20461021002222
:1042E00002F076FE072004F07BFDFEF757FC344B0E
:1042F00098425BD1FDF70EF9FCF782F86846FCF7AF
:10430000EFFAFFF7BBFD002853DB0820FCF74EF85F
:10431000FEF744FC2A4B98424ED105F008039BB2AD
:104320001BB90122284B1A6002E00222264B1A60B8
:10433000254C2088FFF78CFF2368022B05D1234BE7
:104340001B68052B01DD002222601F4B1868FEF759
:10435000CDFB2846FFF79EFF1D4B18601D4C8100CA
:104360000A185200A318A25C8DF80C201A4C226087
:10437000DA788DF80D205A788DF80E205A798DF85C
:1043800011209A798DF812201A89ADF814209A78A4
:104390008DF80F201B798DF810300144490003A8D7
:1043A0000E4B1944FEF7FCFB054807E04FF0FF30C9
:1043B00004E04FF0FF3001E04FF0FF3007B030BDB8
:1043C0003001CADE0000024054000020981B00208B
:1043D000941B00202800002014630020000000200F
:1043E0000BA7375E1068071008B50120FFF70CFE19
:1043F00008BD00BF08B50B480221012202F0E8FD0C
:104400000948402102F0EAFDFCF7BEFE07481021F2
:1044100002F0D6FD0128EED002480221002202F06F
:10442000D7FD08BD00080240000002400004024021
:10443000094C002108B520680A460B4605F056F9DC
:1044400000210B4620684FF0FF3205F04FF901289C
:10445000F6D1FFF7CFFFF3E71063002030B583B04C
:104460000446FEF749FB054604F00204A4B20CB969
:104470001C4A00E01C4A1D4C1D4B1B681D49096865
:10448000009120461C4909F0BDFC204606F0A0FA28
:104490001A4B1A681A4B1A601A4B1A60012D08D170
:1044A000194C2046194909F0ADFC204606F090FA57
:1044B00015E0022D08D1144C2046154909F0A2FC44
:1044C000204606F085FA0AE005220E4B1A600E4CD3
:1044D0002046104909F096FC204606F079FA03B010
:1044E00030BD00BFFC1601085016010870620020A4
:1044F000146300205000002054160108981B00206F
:104500006C62002018630020C06200207016010851
:104510007C1601088816010808B500F0020083B275
:104520000BB90E4A00E00E4A0E4C20460E490F4BC6
:104530001B6809F067FC204606F04AFA20460C4941
:10454000102209F0FDFA204606F042FA4FF480509E
:10455000FEF720F9022004F043FCFBE7FC160108FB
:1045600050160108706200209416010814630020A0
:10457000A816010808B5044B1B7823B1034B186833
:10458000002105F057F808BD8C1B002010630020A7
:10459000F8B59FED330B00AF06F09EFC36A3D3E9D0
:1045A000002351EC100B08F049FB41EC100B06F016
:1045B000FFFB51EC100B08F0B1FC840004F10A037E
:1045C000294A2A4D1060014623F00703ADEB030D85
:1045D000053001396E46286018D46C44062202E08A
:1045E00023604B1C12D0224B1340002B02EBD272E3
:1045F00001F1FF31A4F104044FEA6202F0DA013B59
:1046000063F00103013323604B1CECD104F00EFC7A
:1046100000230122827003704370C3702B68052B46
:1046200086460EDD311F0330042251F8043F00336B
:1046300018BF012300F8013F2B6801325C1E944231
:10464000F3DC734400210B4A03F8011C7046C2F8E6
:1046500000E004F03DFCBD46F8BD00BFAFF30080B4
:104660000000000000002440FC590020005A0020F7
:1046700001000080F8590020EF39FAFE422EE63F93
:1046800070B545488AB006F0A3F9444806F0A0F991
:10469000FFF77EFF424B1868002873DD414B424C08
:1046A0001D682168013D002315F8012F9A40013350
:1046B000114383422160F7D105280FDD394B3B4E72
:1046C0001D683168431E1D440538002315F8012D6F
:1046D0009A400133114383423160F7D1344B354D59
:1046E0001868314E08F01AF99FED290B41EC110BB7
:1046F00006F078FC0022304B51EC100B07F0C0FFA5
:1047000008F00CFC28600A20FFF7B6FC2B4806F0E6
:104710005FF92088FFF7C8FD01302FD0306800F026
:104720003803382B80B22FD0254CFFF797FE0A2094
:10473000FFF796FC0FCC6D460FC554F8043B2B6079
:104740000021684604F01CFB1E4B18600FCC05AD21
:104750000FC523682B60002105A804F011FB1A4B3C
:10476000032218600021012004F082FE174A184B32
:10477000106001221A7000200AB070BD154806F0C2
:1047800027F9F8E7084C97E7FFF7C6FEAFF300807C
:104790000000000000000040BC160108C816010817
:1047A000005A0020F85900209C1B0020A01B00206C
:1047B000FC590020186100200000F03FDC160108C1
:1047C000E41501086462002060620020106300208C
:1047D0008C1B0020EC16010808B5FFF751FF0020E4
:1047E000BDE8084004F0EABA10B5044602F076FFCE
:1047F000064BA3FB0030800900F09CF84FF0FF301F
:104800002146002200F04CF8002010BDD34D62106C
:1048100008B50B4B1A6842F400721A601A6842F429
:1048200080621A601A6842F480721A60032000F0F5
:1048300025F80020FFF7D8FF06F090F9002008BD0A
:10484000003C0240024A136801331360704700BF06
:10485000A41B0020014B1868704700BFA41B002058
:1048600010B582B00190FFF7F5FF0446FFF7F2FFA5
:10487000001B019B9842F9D302B010BD00F0070065
:10488000064AD36823F4E0631B041B0C43EA0020B0
:1048900040F0BF6040F40030D060704700ED00E0B1
:1048A00030B4164BDC68C4F30224C4F10705042DB0
:1048B00028BF0425231D062B01D9033C00E000245A
:1048C000012303FA05F5013D2940A140A340013B26
:1048D0001A400A43002806DA00F00F001201D2B293
:1048E000074B1A5407E01201D2B200F1604000F504
:1048F000614080F8002330BC704700BF00ED00E04D
:1049000014ED00E0410900F01F0001238340024A3A
:1049100042F82130704700BF00E100E0430900F099
:104920001F00012282402033014941F823207047B3
:1049300000E100E00138B0F1807F0AD2064B5860F8
:10494000F021064A82F823100020986007221A609E
:1049500070470120704700BF10E000E000ED00E06C
:10496000430900F01F00012282406033014941F8F1
:104970002320704700E100E0042805D1054A1368B0
:1049800043F0040313607047024A136823F00403E2
:104990001360704710E000E030B405682C6824F420
:1049A00080242C60046863608368402B04D1036812
:1049B0009A600368D96003E0036899600368DA606D
:1049C00030BC7047002831D010B40346022280F872
:1049D000352004682168184A0A40406899680843ED
:1049E000D968084319690843596908439969084314
:1049F000D9690843196A01430A43596A042903D152
:104A0000D86A196B01430A43226019684A6922F087
:104A10000702586A0243042801D1986A02434A6196
:104A20000020D864012283F8352001E0012070477E
:104A30005DF8044B704700BF3F8010F038B590F828
:104A40003440012C2ED00446012084F8340002208A
:104A500084F835002568286820F001002860204689
:104A6000FFF79AFF2268136843F01003136022686F
:104A7000136843F0080313602268136843F00403CB
:104A800013602268536943F08003536122681368FE
:104A900043F0020313602268136843F001031360BC
:104AA000002038BD022038BD10B504460368B24A64
:104AB000934257D9583A5268B0498B424CD001F5CD
:104AC00080618B4246D0A1F568718B4240D001F5E0
:104AD00080618B423AD0A1F589618B4233D001F5D8
:104AE00080618B422CD0A1F568718B4225D001F5F5
:104AF00080618B421ED0A1F589618B4217D001F5F0
:104B000080618B4210D0A1F568718B4209D001F50C
:104B100080618B4202D14FF400211EE04FF0007102
:104B20001BE04FF4002118E04FF4002115E04FF492
:104B3000002112E04FF400710FE04FF400710CE01F
:104B40004FF4007109E04FF4007106E0082104E021
:104B5000082102E0082100E008210A4214BF0122D6
:104B6000002218E1864A934258D902F5527212681F
:104B700082498B424CD001F580618B4246D0A1F531
:104B800068718B4240D001F580618B423AD0A1F52B
:104B900089618B4233D001F580618B422CD0A1F525
:104BA00068718B4225D001F580618B421ED0A1F542
:104BB00089618B4217D001F580618B4210D0A1F53D
:104BC00068718B4209D001F580618B4202D14FF4AC
:104BD00000211EE04FF000711BE04FF4002118E0AF
:104BE0004FF4002115E04FF4002112E04FF4007162
:104BF0000FE04FF400710CE04FF4007109E04FF446
:104C0000007106E0082104E0082102E0082100E02C
:104C100008210A4214BF01220022BCE0594A9342F3
:104C200057D9583A526855498B424CD001F58061AA
:104C30008B4246D0A1F568718B4240D001F580616E
:104C40008B423AD0A1F589618B4233D001F5806166
:104C50008B422CD0A1F568718B4225D001F5806183
:104C60008B421ED0A1F589618B4217D001F580617E
:104C70008B4210D0A1F568718B4209D001F580619B
:104C80008B4202D14FF400211EE04FF000711BE077
:104C90004FF4002118E04FF4002115E04FF40021FB
:104CA00012E04FF400710FE04FF400710CE04FF48C
:104CB000007109E04FF4007106E0082104E00821CA
:104CC00002E0082100E008210A4214BF012200226C
:104CD00061E02D4A126829498B4257D001F5806165
:104CE0008B4246D0A1F568718B4240D001F58061BE
:104CF0008B423AD0A1F589618B4233D001F58061B6
:104D00008B422CD0A1F568718B4225D001F58061D2
:104D10008B421ED0A1F589618B4217D001F58061CD
:104D20008B4210D0A1F568718B4209D001F58061EA
:104D30008B4202D14FF4002129E04FF0007126E0B0
:104D40004FF4002123E04FF4002120E04FF4002134
:104D50001DE04FF400711AE04FF4007117E04FF4BA
:104D6000007114E04FF4007111E008210FE00821F8
:104D70000DE008210BE000BF5864024010600240C3
:104D8000B8600240586002400060024008210A42B8
:104D900014BF01220022002A00F07D811A6812F05F
:104DA000040F00F078811A6822F004021A60236868
:104DB000AA4A934254D9A2F5896293424CD002F593
:104DC0008062934246D0A2F56872934240D002F5C9
:104DD000806293423AD0A2F58962934233D002F5C1
:104DE000806293422CD0A2F56872934225D002F5DE
:104DF000806293421ED0A2F58962934217D002F5D9
:104E00008062934210D0A2F56872934209D002F5F5
:104E10008062934202D14FF400221EE04FF00072F4
:104E20001BE04FF4002218E04FF4002215E04FF48D
:104E3000002212E04FF400720FE04FF400720CE019
:104E40004FF4007209E04FF4007206E0082204E01B
:104E5000082202E0082200E00822814BDA600CE11F
:104E6000804A934253D9A83A93424CD002F58062CB
:104E7000934246D0A2F56872934240D002F5806218
:104E800093423AD0A2F58962934233D002F5806210
:104E900093422CD0A2F56872934225D002F580622D
:104EA00093421ED0A2F58962934217D002F5806228
:104EB000934210D0A2F56872934209D002F5806245
:104EC000934202D14FF400221EE04FF000721BE02B
:104ED0004FF4002218E04FF4002215E04FF40022B6
:104EE00012E04FF400720FE04FF400720CE04FF448
:104EF000007209E04FF4007206E0082204E0082284
:104F000002E0082200E00822554B9A60B5E0564ABC
:104F1000934253D9483A93424CD002F5806293426F
:104F200046D0A2F56872934240D002F58062934267
:104F30003AD0A2F58962934233D002F5806293425F
:104F40002CD0A2F56872934225D002F5806293427C
:104F50001ED0A2F58962934217D002F58062934277
:104F600010D0A2F56872934209D002F58062934294
:104F700002D14FF400221EE04FF000721BE04FF40C
:104F8000002218E04FF4002215E04FF4002212E056
:104F90004FF400720FE04FF400720CE04FF4007217
:104FA00009E04FF4007206E0082204E0082202E063
:104FB000082200E008222D4BDA605EE02C4A934282
:104FC00058D002F58062934246D0A2F568729342AF
:104FD00040D002F5806293423AD0A2F589629342B2
:104FE00033D002F5806293422CD0A2F568729342CE
:104FF00025D002F5806293421ED0A2F589629342C9
:1050000017D002F58062934210D0A2F568729342E5
:1050100009D002F58062934202D14FF400222AE0C7
:105020004FF0007227E04FF4002224E04FF40022FA
:1050300021E04FF400221EE04FF400721BE04FF419
:10504000007218E04FF4007215E04FF4007212E0A5
:10505000082210E008220EE008220CE0586402400A
:1050600000640240B86002405860024000600240A4
:10507000106002400822B24B9A60E36C43F00103D7
:10508000E364042384F83530002384F83430A36CBF
:105090000BB1204698472368AA4A934253D9583AFD
:1050A0005268A9498B4248D001F580618B4242D0B9
:1050B000A1F568718B423CD001F580618B4236D0FE
:1050C000A1F589618B4230D001F580618B422AD0F5
:1050D000A1F568718B4224D001F580618B421ED00E
:1050E000A1F589618B4217D001F580618B4210D008
:1050F000A1F568718B4209D001F580618B4202D124
:105100004FF480311AE04FF4800117E04FF4803102
:1051100014E04FF4803111E04FF480310EE0402173
:105120000CE040210AE0402108E0402106E08749E8
:1051300004E0864902E0854900E084490A4214BF40
:10514000012200220DE1824A934254D902F55272A3
:1051500012687D498B4248D001F580618B4242D074
:10516000A1F568718B423CD001F580618B4236D04D
:10517000A1F589618B4230D001F580618B422AD044
:10518000A1F568718B4224D001F580618B421ED05D
:10519000A1F589618B4217D001F580618B4210D057
:1051A000A1F568718B4209D001F580618B4202D173
:1051B0004FF480311AE04FF4800117E04FF4803152
:1051C00014E04FF4803111E04FF480310EE04021C3
:1051D0000CE040210AE0402108E0402106E05B4964
:1051E00004E05A4902E0594900E058490A4214BF14
:1051F00001220022B5E0574A934253D9583A5268E7
:1052000051498B4248D001F580618B4242D0A1F5D3
:1052100068718B423CD001F580618B4236D0A1F59C
:1052200089618B4230D001F580618B422AD0A1F593
:1052300068718B4224D001F580618B421ED0A1F5AC
:1052400089618B4217D001F580618B4210D0A1F5A6
:1052500068718B4209D001F580618B4202D14FF415
:1052600080311AE04FF4800117E04FF4803114E0F0
:105270004FF4803111E04FF480310EE040210CE01A
:1052800040210AE0402108E0402106E02F4904E0E7
:105290002E4902E02D4900E02C490A4214BF0122A8
:1052A00000225EE0264A126827498B4254D001F55D
:1052B00080618B4242D0A1F568718B423CD001F5F0
:1052C00080618B4236D0A1F589618B4230D001F5E7
:1052D00080618B422AD0A1F568718B4224D001F500
:1052E00080618B421ED0A1F589618B4217D001F5F8
:1052F00080618B4210D0A1F568718B4209D001F515
:1053000080618B4202D14FF4803126E04FF480015E
:1053100023E04FF4803120E04FF480311DE04FF462
:1053200080311AE0402118E0402116E0402114E0CD
:10533000402112E0054910E004490EE003490CE069
:10534000006002405864024010600240010080008A
:10535000B860024058600240AB490A4214BF0122C3
:105360000022002A00F06F815A6912F0800F00F0CD
:105370006A815A6922F080025A612368A34A9342E3
:1053800050D9A2F58962934248D002F580629342D7
:1053900042D0A2F5687293423CD002F580629342FB
:1053A00036D0A2F58962934230D002F580629342F2
:1053B0002AD0A2F56872934224D002F5806293420B
:1053C0001ED0A2F58962934217D002F58062934203
:1053D00010D0A2F56872934209D002F58062934220
:1053E00002D14FF480321AE04FF4800217E04FF4FC
:1053F000803214E04FF4803211E04FF480320EE03E
:1054000040220CE040220AE0402208E0402206E070
:105410007D4A04E07C4A02E07B4A00E07A4A7C4B09
:10542000DA6002E17B4A93424FD9A83A934248D0CE
:1054300002F58062934242D0A2F5687293423CD05A
:1054400002F58062934236D0A2F58962934230D051
:1054500002F5806293422AD0A2F56872934224D06A
:1054600002F5806293421ED0A2F58962934217D062
:1054700002F58062934210D0A2F56872934209D07F
:1054800002F58062934202D14FF480321AE04FF469
:10549000800217E04FF4803214E04FF4803211E0C4
:1054A0004FF480320EE040220CE040220AE040221D
:1054B00008E0402206E0544A04E0534A02E0524A1F
:1054C00000E0514A524B9A60AFE0534A93424FD9A1
:1054D000483A934248D002F58062934242D0A2F506
:1054E000687293423CD002F58062934236D0A2F5B6
:1054F0008962934230D002F5806293422AD0A2F5AD
:105500006872934224D002F5806293421ED0A2F5C5
:105510008962934217D002F58062934210D0A2F5BF
:105520006872934209D002F58062934202D14FF42F
:1055300080321AE04FF4800217E04FF4803214E01A
:105540004FF4803211E04FF480320EE040220CE044
:1055500040220AE0402208E0402206E02A4A04E015
:10556000294A02E0284A00E0274A2C4BDA605CE036
:105570002B4A934256D002F58062934242D0A2F564
:10558000687293423CD002F58062934236D0A2F515
:105590008962934230D002F5806293422AD0A2F50C
:1055A0006872934224D002F5806293421ED0A2F525
:1055B0008962934217D002F58062934210D0A2F51F
:1055C0006872934209D002F58062934202D14FF48F
:1055D000803228E04FF4800225E04FF4803222E050
:1055E0004FF480321FE04FF480321CE040221AE07A
:1055F000402218E0402216E0402214E0024A12E065
:10560000014A10E0004A0EE00100800058640240A8
:1056100000640240B86002405860024000600240EE
:1056200010600240B44AB54B9A60E36C43F0020349
:10563000E364042384F83530002384F83430A36C09
:105640000BB1204698472368AD4A934257D9583A40
:105650005268AC498B424CD001F580618B4246D0F8
:10566000A1F568718B4240D001F580618B423AD040
:10567000A1F589618B4233D001F580618B422CD03A
:10568000A1F568718B4225D001F580618B421ED057
:10569000A1F589618B4217D001F580618B4210D052
:1056A000A1F568718B4209D001F580618B4202D16E
:1056B0004FF480211EE04FF080711BE04FF48021F9
:1056C00018E04FF4802115E04FF4802112E04FF4F0
:1056D00080710FE04FF480710CE04FF4807109E0AD
:1056E0004FF4807106E0884904E0874902E086496A
:1056F00000E085490A4214BF012200221BE1834ACF
:10570000934258D902F5527212687E498B424CD0AE
:1057100001F580618B4246D0A1F568718B4240D083
:1057200001F580618B423AD0A1F589618B4233D07B
:1057300001F580618B422CD0A1F568718B4225D098
:1057400001F580618B421ED0A1F589618B4217D093
:1057500001F580618B4210D0A1F568718B4209D0B0
:1057600001F580618B4202D14FF480211EE04FF0A1
:1057700080711BE04FF4802118E04FF4802115E088
:105780004FF4802112E04FF480710FE04FF48071EC
:105790000CE04FF4807109E04FF4807106E05A4943
:1057A00004E0594902E0584900E057490A4214BF51
:1057B00001220022BFE0564A934257D9583A526814
:1057C00050498B424CD001F580618B4246D0A1F507
:1057D00068718B4240D001F580618B423AD0A1F5CF
:1057E00089618B4233D001F580618B422CD0A1F5C9
:1057F00068718B4225D001F580618B421ED0A1F5E6
:1058000089618B4217D001F580618B4210D0A1F5E0
:1058100068718B4209D001F580618B4202D14FF44F
:1058200080211EE04FF080711BE04FF4802118E0D2
:105830004FF4802115E04FF4802112E04FF4807185
:105840000FE04FF480710CE04FF4807109E04FF4E9
:10585000807106E02C4904E02B4902E02A4900E06F
:1058600029490A4214BF0122002264E0234A126837
:1058700024498B425AD001F580618B4254D0A1F566
:1058800068718B424ED001F580618B4248D0A1F502
:1058900089618B4241D001F580618B423AD0A1F5FC
:1058A00068718B4225D001F580618B421ED0A1F535
:1058B00089618B4217D001F580618B4210D0A1F530
:1058C00068718B4209D001F580618B4202D14FF49F
:1058D00080212CE04FF0807129E04FF4802126E0F8
:1058E0004FF4802123E04FF4802120E04FF48071B9
:1058F0001DE04FF480711AE001008000006002405A
:10590000586402401060024004008000B860024009
:10591000586002404FF4807109E04FF4807106E056
:10592000B54904E0B44902E0B34900E0B2490A4293
:1059300014BF01220022002A00F07F811A6812F0B1
:10594000020F00F07A811A6822F002021A602368BE
:10595000AA4A934254D9A2F5896293424CD002F5E7
:105960008062934246D0A2F56872934240D002F51D
:10597000806293423AD0A2F58962934233D002F515
:10598000806293422CD0A2F56872934225D002F532
:10599000806293421ED0A2F58962934217D002F52D
:1059A0008062934210D0A2F56872934209D002F54A
:1059B0008062934202D14FF480221EE04FF0807249
:1059C0001BE04FF4802218E04FF4802215E04FF4E2
:1059D000802212E04FF480720FE04FF480720CE0EE
:1059E0004FF4807209E04FF4807206E0824A04E0CE
:1059F000814A02E0804A00E07F4A814BDA600EE192
:105A0000804A934253D9A83A93424CD002F580621F
:105A1000934246D0A2F56872934240D002F580626C
:105A200093423AD0A2F58962934233D002F5806264
:105A300093422CD0A2F56872934225D002F5806281
:105A400093421ED0A2F58962934217D002F580627C
:105A5000934210D0A2F56872934209D002F5806299
:105A6000934202D14FF480221EE04FF080721BE07F
:105A70004FF4802218E04FF4802215E04FF480228A
:105A800012E04FF480720FE04FF480720CE04FF49C
:105A9000807209E04FF4807206E0574A04E0564AEB
:105AA00002E0554A00E0544A554B9A60B7E0564A26
:105AB000934253D9483A93424CD002F580629342C4
:105AC00046D0A2F56872934240D002F580629342BC
:105AD0003AD0A2F58962934233D002F580629342B4
